{
  "_format": "hh-sol-artifact-1",
  "contractName": "Galerium",
  "sourceName": "contracts/protocol/galerium/galerium.sol",
  "abi": [
    {
      "inputs": [],
      "stateMutability": "nonpayable",
      "type": "constructor"
    },
    {
      "anonymous": false,
      "inputs": [
        {
          "indexed": true,
          "internalType": "address",
          "name": "owner",
          "type": "address"
        },
        {
          "indexed": true,
          "internalType": "address",
          "name": "spender",
          "type": "address"
        },
        {
          "indexed": false,
          "internalType": "uint256",
          "name": "value",
          "type": "uint256"
        }
      ],
      "name": "Approval",
      "type": "event"
    },
    {
      "anonymous": true,
      "inputs": [
        {
          "indexed": true,
          "internalType": "bytes4",
          "name": "sig",
          "type": "bytes4"
        },
        {
          "indexed": true,
          "internalType": "address",
          "name": "usr",
          "type": "address"
        },
        {
          "indexed": true,
          "internalType": "bytes32",
          "name": "arg1",
          "type": "bytes32"
        },
        {
          "indexed": true,
          "internalType": "bytes32",
          "name": "arg2",
          "type": "bytes32"
        },
        {
          "indexed": false,
          "internalType": "bytes",
          "name": "data",
          "type": "bytes"
        }
      ],
      "name": "LogNote",
      "type": "event"
    },
    {
      "anonymous": false,
      "inputs": [
        {
          "indexed": false,
          "internalType": "address",
          "name": "account",
          "type": "address"
        }
      ],
      "name": "Paused",
      "type": "event"
    },
    {
      "anonymous": false,
      "inputs": [
        {
          "indexed": true,
          "internalType": "bytes32",
          "name": "role",
          "type": "bytes32"
        },
        {
          "indexed": true,
          "internalType": "bytes32",
          "name": "previousAdminRole",
          "type": "bytes32"
        },
        {
          "indexed": true,
          "internalType": "bytes32",
          "name": "newAdminRole",
          "type": "bytes32"
        }
      ],
      "name": "RoleAdminChanged",
      "type": "event"
    },
    {
      "anonymous": false,
      "inputs": [
        {
          "indexed": true,
          "internalType": "bytes32",
          "name": "role",
          "type": "bytes32"
        },
        {
          "indexed": true,
          "internalType": "address",
          "name": "account",
          "type": "address"
        },
        {
          "indexed": true,
          "internalType": "address",
          "name": "sender",
          "type": "address"
        }
      ],
      "name": "RoleGranted",
      "type": "event"
    },
    {
      "anonymous": false,
      "inputs": [
        {
          "indexed": true,
          "internalType": "bytes32",
          "name": "role",
          "type": "bytes32"
        },
        {
          "indexed": true,
          "internalType": "address",
          "name": "account",
          "type": "address"
        },
        {
          "indexed": true,
          "internalType": "address",
          "name": "sender",
          "type": "address"
        }
      ],
      "name": "RoleRevoked",
      "type": "event"
    },
    {
      "anonymous": false,
      "inputs": [
        {
          "indexed": true,
          "internalType": "address",
          "name": "from",
          "type": "address"
        },
        {
          "indexed": true,
          "internalType": "address",
          "name": "to",
          "type": "address"
        },
        {
          "indexed": false,
          "internalType": "uint256",
          "name": "value",
          "type": "uint256"
        }
      ],
      "name": "Transfer",
      "type": "event"
    },
    {
      "anonymous": false,
      "inputs": [
        {
          "indexed": false,
          "internalType": "address",
          "name": "account",
          "type": "address"
        }
      ],
      "name": "Unpaused",
      "type": "event"
    },
    {
      "inputs": [],
      "name": "DEFAULT_ADMIN_ROLE",
      "outputs": [
        {
          "internalType": "bytes32",
          "name": "",
          "type": "bytes32"
        }
      ],
      "stateMutability": "view",
      "type": "function"
    },
    {
      "inputs": [],
      "name": "DOMAIN_SEPARATOR",
      "outputs": [
        {
          "internalType": "bytes32",
          "name": "",
          "type": "bytes32"
        }
      ],
      "stateMutability": "view",
      "type": "function"
    },
    {
      "inputs": [],
      "name": "MINTER_ROLE",
      "outputs": [
        {
          "internalType": "bytes32",
          "name": "",
          "type": "bytes32"
        }
      ],
      "stateMutability": "view",
      "type": "function"
    },
    {
      "inputs": [],
      "name": "PAUSER_ROLE",
      "outputs": [
        {
          "internalType": "bytes32",
          "name": "",
          "type": "bytes32"
        }
      ],
      "stateMutability": "view",
      "type": "function"
    },
    {
      "inputs": [],
      "name": "PERMIT_TYPEHASH",
      "outputs": [
        {
          "internalType": "bytes32",
          "name": "",
          "type": "bytes32"
        }
      ],
      "stateMutability": "view",
      "type": "function"
    },
    {
      "inputs": [
        {
          "internalType": "address",
          "name": "owner",
          "type": "address"
        },
        {
          "internalType": "address",
          "name": "spender",
          "type": "address"
        }
      ],
      "name": "allowance",
      "outputs": [
        {
          "internalType": "uint256",
          "name": "",
          "type": "uint256"
        }
      ],
      "stateMutability": "view",
      "type": "function"
    },
    {
      "inputs": [
        {
          "internalType": "address",
          "name": "spender",
          "type": "address"
        },
        {
          "internalType": "uint256",
          "name": "amount",
          "type": "uint256"
        }
      ],
      "name": "approve",
      "outputs": [
        {
          "internalType": "bool",
          "name": "",
          "type": "bool"
        }
      ],
      "stateMutability": "nonpayable",
      "type": "function"
    },
    {
      "inputs": [
        {
          "internalType": "address",
          "name": "account",
          "type": "address"
        }
      ],
      "name": "balanceOf",
      "outputs": [
        {
          "internalType": "uint256",
          "name": "",
          "type": "uint256"
        }
      ],
      "stateMutability": "view",
      "type": "function"
    },
    {
      "inputs": [
        {
          "internalType": "uint256",
          "name": "amount",
          "type": "uint256"
        }
      ],
      "name": "burn",
      "outputs": [],
      "stateMutability": "nonpayable",
      "type": "function"
    },
    {
      "inputs": [
        {
          "internalType": "address",
          "name": "account",
          "type": "address"
        },
        {
          "internalType": "uint256",
          "name": "amount",
          "type": "uint256"
        }
      ],
      "name": "burnFrom",
      "outputs": [],
      "stateMutability": "nonpayable",
      "type": "function"
    },
    {
      "inputs": [],
      "name": "decimals",
      "outputs": [
        {
          "internalType": "uint8",
          "name": "",
          "type": "uint8"
        }
      ],
      "stateMutability": "view",
      "type": "function"
    },
    {
      "inputs": [
        {
          "internalType": "address",
          "name": "spender",
          "type": "address"
        },
        {
          "internalType": "uint256",
          "name": "subtractedValue",
          "type": "uint256"
        }
      ],
      "name": "decreaseAllowance",
      "outputs": [
        {
          "internalType": "bool",
          "name": "",
          "type": "bool"
        }
      ],
      "stateMutability": "nonpayable",
      "type": "function"
    },
    {
      "inputs": [
        {
          "internalType": "address",
          "name": "token",
          "type": "address"
        },
        {
          "internalType": "uint256",
          "name": "amount",
          "type": "uint256"
        }
      ],
      "name": "flashFee",
      "outputs": [
        {
          "internalType": "uint256",
          "name": "",
          "type": "uint256"
        }
      ],
      "stateMutability": "view",
      "type": "function"
    },
    {
      "inputs": [
        {
          "internalType": "contract IERC3156FlashBorrower",
          "name": "receiver",
          "type": "address"
        },
        {
          "internalType": "address",
          "name": "token",
          "type": "address"
        },
        {
          "internalType": "uint256",
          "name": "amount",
          "type": "uint256"
        },
        {
          "internalType": "bytes",
          "name": "data",
          "type": "bytes"
        }
      ],
      "name": "flashLoan",
      "outputs": [
        {
          "internalType": "bool",
          "name": "",
          "type": "bool"
        }
      ],
      "stateMutability": "nonpayable",
      "type": "function"
    },
    {
      "inputs": [
        {
          "internalType": "bytes32",
          "name": "role",
          "type": "bytes32"
        }
      ],
      "name": "getRoleAdmin",
      "outputs": [
        {
          "internalType": "bytes32",
          "name": "",
          "type": "bytes32"
        }
      ],
      "stateMutability": "view",
      "type": "function"
    },
    {
      "inputs": [
        {
          "internalType": "bytes32",
          "name": "role",
          "type": "bytes32"
        },
        {
          "internalType": "address",
          "name": "account",
          "type": "address"
        }
      ],
      "name": "grantRole",
      "outputs": [],
      "stateMutability": "nonpayable",
      "type": "function"
    },
    {
      "inputs": [
        {
          "internalType": "bytes32",
          "name": "role",
          "type": "bytes32"
        },
        {
          "internalType": "address",
          "name": "account",
          "type": "address"
        }
      ],
      "name": "hasRole",
      "outputs": [
        {
          "internalType": "bool",
          "name": "",
          "type": "bool"
        }
      ],
      "stateMutability": "view",
      "type": "function"
    },
    {
      "inputs": [
        {
          "internalType": "address",
          "name": "spender",
          "type": "address"
        },
        {
          "internalType": "uint256",
          "name": "addedValue",
          "type": "uint256"
        }
      ],
      "name": "increaseAllowance",
      "outputs": [
        {
          "internalType": "bool",
          "name": "",
          "type": "bool"
        }
      ],
      "stateMutability": "nonpayable",
      "type": "function"
    },
    {
      "inputs": [
        {
          "internalType": "address",
          "name": "token",
          "type": "address"
        }
      ],
      "name": "maxFlashLoan",
      "outputs": [
        {
          "internalType": "uint256",
          "name": "",
          "type": "uint256"
        }
      ],
      "stateMutability": "view",
      "type": "function"
    },
    {
      "inputs": [
        {
          "internalType": "address",
          "name": "usr",
          "type": "address"
        },
        {
          "internalType": "uint256",
          "name": "wad",
          "type": "uint256"
        }
      ],
      "name": "mint",
      "outputs": [],
      "stateMutability": "nonpayable",
      "type": "function"
    },
    {
      "inputs": [
        {
          "internalType": "address",
          "name": "src",
          "type": "address"
        },
        {
          "internalType": "address",
          "name": "dst",
          "type": "address"
        },
        {
          "internalType": "uint256",
          "name": "wad",
          "type": "uint256"
        }
      ],
      "name": "move",
      "outputs": [],
      "stateMutability": "nonpayable",
      "type": "function"
    },
    {
      "inputs": [],
      "name": "name",
      "outputs": [
        {
          "internalType": "string",
          "name": "",
          "type": "string"
        }
      ],
      "stateMutability": "view",
      "type": "function"
    },
    {
      "inputs": [
        {
          "internalType": "address",
          "name": "owner",
          "type": "address"
        }
      ],
      "name": "nonces",
      "outputs": [
        {
          "internalType": "uint256",
          "name": "",
          "type": "uint256"
        }
      ],
      "stateMutability": "view",
      "type": "function"
    },
    {
      "inputs": [],
      "name": "pause",
      "outputs": [],
      "stateMutability": "nonpayable",
      "type": "function"
    },
    {
      "inputs": [],
      "name": "paused",
      "outputs": [
        {
          "internalType": "bool",
          "name": "",
          "type": "bool"
        }
      ],
      "stateMutability": "view",
      "type": "function"
    },
    {
      "inputs": [
        {
          "internalType": "address",
          "name": "owner",
          "type": "address"
        },
        {
          "internalType": "address",
          "name": "spender",
          "type": "address"
        },
        {
          "internalType": "uint256",
          "name": "value",
          "type": "uint256"
        },
        {
          "internalType": "uint256",
          "name": "deadline",
          "type": "uint256"
        },
        {
          "internalType": "uint8",
          "name": "v",
          "type": "uint8"
        },
        {
          "internalType": "bytes32",
          "name": "r",
          "type": "bytes32"
        },
        {
          "internalType": "bytes32",
          "name": "s",
          "type": "bytes32"
        }
      ],
      "name": "permit",
      "outputs": [],
      "stateMutability": "nonpayable",
      "type": "function"
    },
    {
      "inputs": [
        {
          "internalType": "address",
          "name": "usr",
          "type": "address"
        },
        {
          "internalType": "uint256",
          "name": "wad",
          "type": "uint256"
        }
      ],
      "name": "pull",
      "outputs": [],
      "stateMutability": "nonpayable",
      "type": "function"
    },
    {
      "inputs": [
        {
          "internalType": "address",
          "name": "usr",
          "type": "address"
        },
        {
          "internalType": "uint256",
          "name": "wad",
          "type": "uint256"
        }
      ],
      "name": "push",
      "outputs": [],
      "stateMutability": "nonpayable",
      "type": "function"
    },
    {
      "inputs": [
        {
          "internalType": "bytes32",
          "name": "role",
          "type": "bytes32"
        },
        {
          "internalType": "address",
          "name": "account",
          "type": "address"
        }
      ],
      "name": "renounceRole",
      "outputs": [],
      "stateMutability": "nonpayable",
      "type": "function"
    },
    {
      "inputs": [
        {
          "internalType": "bytes32",
          "name": "role",
          "type": "bytes32"
        },
        {
          "internalType": "address",
          "name": "account",
          "type": "address"
        }
      ],
      "name": "revokeRole",
      "outputs": [],
      "stateMutability": "nonpayable",
      "type": "function"
    },
    {
      "inputs": [
        {
          "internalType": "bytes4",
          "name": "interfaceId",
          "type": "bytes4"
        }
      ],
      "name": "supportsInterface",
      "outputs": [
        {
          "internalType": "bool",
          "name": "",
          "type": "bool"
        }
      ],
      "stateMutability": "view",
      "type": "function"
    },
    {
      "inputs": [],
      "name": "symbol",
      "outputs": [
        {
          "internalType": "string",
          "name": "",
          "type": "string"
        }
      ],
      "stateMutability": "view",
      "type": "function"
    },
    {
      "inputs": [],
      "name": "totalSupply",
      "outputs": [
        {
          "internalType": "uint256",
          "name": "",
          "type": "uint256"
        }
      ],
      "stateMutability": "view",
      "type": "function"
    },
    {
      "inputs": [
        {
          "internalType": "address",
          "name": "to",
          "type": "address"
        },
        {
          "internalType": "uint256",
          "name": "amount",
          "type": "uint256"
        }
      ],
      "name": "transfer",
      "outputs": [
        {
          "internalType": "bool",
          "name": "",
          "type": "bool"
        }
      ],
      "stateMutability": "nonpayable",
      "type": "function"
    },
    {
      "inputs": [
        {
          "internalType": "address",
          "name": "from",
          "type": "address"
        },
        {
          "internalType": "address",
          "name": "to",
          "type": "address"
        },
        {
          "internalType": "uint256",
          "name": "amount",
          "type": "uint256"
        }
      ],
      "name": "transferFrom",
      "outputs": [
        {
          "internalType": "bool",
          "name": "",
          "type": "bool"
        }
      ],
      "stateMutability": "nonpayable",
      "type": "function"
    },
    {
      "inputs": [],
      "name": "unpause",
      "outputs": [],
      "stateMutability": "nonpayable",
      "type": "function"
    }
  ],
  "bytecode": "0x6101406040523480156200001257600080fd5b506040518060400160405280600881526020017f47616c657269756d000000000000000000000000000000000000000000000000815250806040518060400160405280600181526020017f31000000000000000000000000000000000000000000000000000000000000008152506040518060400160405280600881526020017f47616c657269756d0000000000000000000000000000000000000000000000008152506040518060400160405280600481526020017f47414c520000000000000000000000000000000000000000000000000000000081525081600390805190602001906200010492919062000416565b5080600490805190602001906200011d92919062000416565b5050506000600560006101000a81548160ff021916908315150217905550600160068190555060008280519060200120905060008280519060200120905060007f8b73c3c69bb8fe3d512ecc4cf759cc79239f7b179b0ffacaa9a75d522b39400f90508260e081815250508161010081815250504660a08181525050620001ac8184846200027560201b60201c565b608081815250503073ffffffffffffffffffffffffffffffffffffffff1660c08173ffffffffffffffffffffffffffffffffffffffff16815250508061012081815250505050505050506200020b6000801b33620002b160201b60201c565b6200023d7f65d7a28e3265b37a6474929f336521b332c1681b933f6cb9f3376673440d862a33620002b160201b60201c565b6200026f7f9f2df0fed2c77648de5860a4cc508cd0818c85b8b8a1ab4ceeef8d981c8956a633620002b160201b60201c565b62000603565b600083838346306040516020016200029295949392919062000541565b6040516020818303038152906040528051906020012090509392505050565b620002c38282620003a360201b60201c565b6200039f5760016007600084815260200190815260200160002060000160008373ffffffffffffffffffffffffffffffffffffffff1673ffffffffffffffffffffffffffffffffffffffff16815260200190815260200160002060006101000a81548160ff021916908315150217905550620003446200040e60201b60201c565b73ffffffffffffffffffffffffffffffffffffffff168173ffffffffffffffffffffffffffffffffffffffff16837f2f8788117e7eff1d82e926ec794901d17c78024a50270940304540a733656f0d60405160405180910390a45b5050565b60006007600084815260200190815260200160002060000160008373ffffffffffffffffffffffffffffffffffffffff1673ffffffffffffffffffffffffffffffffffffffff16815260200190815260200160002060009054906101000a900460ff16905092915050565b600033905090565b8280546200042490620005cd565b90600052602060002090601f01602090048101928262000448576000855562000494565b82601f106200046357805160ff191683800117855562000494565b8280016001018555821562000494579182015b828111156200049357825182559160200191906001019062000476565b5b509050620004a39190620004a7565b5090565b5b80821115620004c2576000816000905550600101620004a8565b5090565b6000819050919050565b620004db81620004c6565b82525050565b6000819050919050565b620004f681620004e1565b82525050565b600073ffffffffffffffffffffffffffffffffffffffff82169050919050565b60006200052982620004fc565b9050919050565b6200053b816200051c565b82525050565b600060a082019050620005586000830188620004d0565b620005676020830187620004d0565b620005766040830186620004d0565b620005856060830185620004eb565b62000594608083018462000530565b9695505050505050565b7f4e487b7100000000000000000000000000000000000000000000000000000000600052602260045260246000fd5b60006002820490506001821680620005e657607f821691505b60208210811415620005fd57620005fc6200059e565b5b50919050565b60805160a05160c05160e0516101005161012051614482620006536000396000611d5d01526000611d9f01526000611d7e01526000611cb301526000611d0901526000611d3201526144826000f3fe608060405234801561001057600080fd5b506004361061021c5760003560e01c806370a0823111610125578063b753a98c116100ad578063d547741f1161007c578063d547741f14610663578063d9d98ce41461067f578063dd62ed3e146106af578063e63ab1e9146106df578063f2d5d56b146106fd5761021c565b8063b753a98c146105f1578063bb35783b1461060d578063d505accf14610629578063d5391393146106455761021c565b806391d14854116100f457806391d148541461052557806395d89b4114610555578063a217fddf14610573578063a457c2d714610591578063a9059cbb146105c15761021c565b806370a082311461049f57806379cc6790146104cf5780637ecebe00146104eb5780638456cb591461051b5761021c565b80633644e515116101a857806340c10f191161017757806340c10f19146103e957806342966c68146104055780635c975abb146104215780635cffe9de1461043f578063613255ab1461046f5761021c565b80633644e5151461037557806336568abe1461039357806339509351146103af5780633f4ba83a146103df5761021c565b806323b872dd116101ef57806323b872dd146102bd578063248a9ca3146102ed5780632f2ff15d1461031d57806330adf81f14610339578063313ce567146103575761021c565b806301ffc9a71461022157806306fdde0314610251578063095ea7b31461026f57806318160ddd1461029f575b600080fd5b61023b60048036038101906102369190612a97565b610719565b6040516102489190612adf565b60405180910390f35b610259610793565b6040516102669190612b93565b60405180910390f35b61028960048036038101906102849190612c49565b610825565b6040516102969190612adf565b60405180910390f35b6102a7610848565b6040516102b49190612c98565b60405180910390f35b6102d760048036038101906102d29190612cb3565b610852565b6040516102e49190612adf565b60405180910390f35b61030760048036038101906103029190612d3c565b610881565b6040516103149190612d78565b60405180910390f35b61033760048036038101906103329190612d93565b6108a1565b005b6103416108c2565b60405161034e9190612d78565b60405180910390f35b61035f6108e6565b60405161036c9190612def565b60405180910390f35b61037d6108ef565b60405161038a9190612d78565b60405180910390f35b6103ad60048036038101906103a89190612d93565b6108fe565b005b6103c960048036038101906103c49190612c49565b610981565b6040516103d69190612adf565b60405180910390f35b6103e76109b8565b005b61040360048036038101906103fe9190612c49565b610a8f565b005b61041f600480360381019061041a9190612e0a565b610bd0565b005b610429610ddd565b6040516104369190612adf565b60405180910390f35b61045960048036038101906104549190612eda565b610df4565b6040516104669190612adf565b60405180910390f35b61048960048036038101906104849190612f62565b610ff0565b6040516104969190612c98565b60405180910390f35b6104b960048036038101906104b49190612f62565b611067565b6040516104c69190612c98565b60405180910390f35b6104e960048036038101906104e49190612c49565b6110af565b005b61050560048036038101906105009190612f62565b6110cf565b6040516105129190612c98565b60405180910390f35b61052361111f565b005b61053f600480360381019061053a9190612d93565b6111f6565b60405161054c9190612adf565b60405180910390f35b61055d611261565b60405161056a9190612b93565b60405180910390f35b61057b6112f3565b6040516105889190612d78565b60405180910390f35b6105ab60048036038101906105a69190612c49565b6112fa565b6040516105b89190612adf565b60405180910390f35b6105db60048036038101906105d69190612c49565b611371565b6040516105e89190612adf565b60405180910390f35b61060b60048036038101906106069190612c49565b611394565b005b61062760048036038101906106229190612cb3565b6113a4565b005b610643600480360381019061063e9190612fbb565b6113b5565b005b61064d6114f7565b60405161065a9190612d78565b60405180910390f35b61067d60048036038101906106789190612d93565b61151b565b005b61069960048036038101906106949190612c49565b61153c565b6040516106a69190612c98565b60405180910390f35b6106c960048036038101906106c4919061305d565b6115be565b6040516106d69190612c98565b60405180910390f35b6106e7611645565b6040516106f49190612d78565b60405180910390f35b61071760048036038101906107129190612c49565b611669565b005b60007f7965db0b000000000000000000000000000000000000000000000000000000007bffffffffffffffffffffffffffffffffffffffffffffffffffffffff1916827bffffffffffffffffffffffffffffffffffffffffffffffffffffffff1916148061078c575061078b82611679565b5b9050919050565b6060600380546107a2906130cc565b80601f01602080910402602001604051908101604052809291908181526020018280546107ce906130cc565b801561081b5780601f106107f05761010080835404028352916020019161081b565b820191906000526020600020905b8154815290600101906020018083116107fe57829003601f168201915b5050505050905090565b6000806108306116e3565b905061083d8185856116eb565b600191505092915050565b6000600254905090565b60008061085d6116e3565b905061086a8582856118b6565b610875858585611942565b60019150509392505050565b600060076000838152602001908152602001600020600101549050919050565b6108aa82610881565b6108b381611bba565b6108bd8383611bce565b505050565b7fea2aa0a1be11a07ed86d755c93467f4f82362b452371d1ba94d1715123511acb81565b60006012905090565b60006108f9611caf565b905090565b6109066116e3565b73ffffffffffffffffffffffffffffffffffffffff168173ffffffffffffffffffffffffffffffffffffffff1614610973576040517f08c379a000000000000000000000000000000000000000000000000000000000815260040161096a90613170565b60405180910390fd5b61097d8282611dc9565b5050565b60008061098c6116e3565b90506109ad81858561099e85896115be565b6109a891906131bf565b6116eb565b600191505092915050565b600080368080601f016020809104026020016040519081016040528093929190818152602001838380828437600081840152601f19601f820116905080830192505050505050509050600080357fffffffff00000000000000000000000000000000000000000000000000000000169050600033905036604051601f19601f6020840101168101604052816000823760243560043584866020860185a450507f65d7a28e3265b37a6474929f336521b332c1681b933f6cb9f3376673440d862a610a8181611bba565b610a89611eab565b50505050565b600080368080601f016020809104026020016040519081016040528093929190818152602001838380828437600081840152601f19601f820116905080830192505050505050509050600080357fffffffff00000000000000000000000000000000000000000000000000000000169050600033905036604051601f19601f6020840101168101604052816000823760243560043584866020860185a450507f9f2df0fed2c77648de5860a4cc508cd0818c85b8b8a1ab4ceeef8d981c8956a6610b5881611bba565b610b628686611f0e565b8573ffffffffffffffffffffffffffffffffffffffff16600073ffffffffffffffffffffffffffffffffffffffff167fddf252ad1be2c89b69c2b068fc378daa952ba7f163c4a11628f55a4df523b3ef87604051610bc09190612c98565b60405180910390a3505050505050565b600080368080601f016020809104026020016040519081016040528093929190818152602001838380828437600081840152601f19601f820116905080830192505050505050509050600080357fffffffff00000000000000000000000000000000000000000000000000000000169050600033905036604051601f19601f6020840101168101604052816000823760243560043584866020860185a45050610c77612065565b610c7f6120af565b600073ffffffffffffffffffffffffffffffffffffffff163373ffffffffffffffffffffffffffffffffffffffff161415610cef576040517f08c379a0000000000000000000000000000000000000000000000000000000008152600401610ce690613287565b60405180910390fd5b60008411610d32576040517f08c379a0000000000000000000000000000000000000000000000000000000008152600401610d2990613319565b60405180910390fd5b83610d3c33611067565b1015610d7d576040517f08c379a0000000000000000000000000000000000000000000000000000000008152600401610d74906133ab565b60405180910390fd5b610d85610ddd565b15610dc5576040517f08c379a0000000000000000000000000000000000000000000000000000000008152600401610dbc9061343d565b60405180910390fd5b610dcf33856120ff565b610dd76122cd565b50505050565b6000600560009054906101000a900460ff16905090565b6000610dff85610ff0565b841115610e41576040517f08c379a0000000000000000000000000000000000000000000000000000000008152600401610e38906134cf565b60405180910390fd5b6000610e4d868661153c565b9050610e598786611f0e565b7f439148f0bbc682ca079e46d6e2c2f0c1e3b820f1a291b069d8882abf8cf18dd98773ffffffffffffffffffffffffffffffffffffffff166323e30c8b338989868a8a6040518763ffffffff1660e01b8152600401610ebd9695949392919061354b565b602060405180830381600087803b158015610ed757600080fd5b505af1158015610eeb573d6000803e3d6000fd5b505050506040513d601f19601f82011682018060405250810190610f0f91906135bc565b14610f4f576040517f08c379a0000000000000000000000000000000000000000000000000000000008152600401610f469061365b565b60405180910390fd5b6000610f596122d7565b9050610f7188308489610f6c91906131bf565b6118b6565b6000821480610fac5750600073ffffffffffffffffffffffffffffffffffffffff168173ffffffffffffffffffffffffffffffffffffffff16145b15610fcb57610fc6888388610fc191906131bf565b6120ff565b610fe1565b610fd588876120ff565b610fe0888284611942565b5b60019250505095945050505050565b60003073ffffffffffffffffffffffffffffffffffffffff168273ffffffffffffffffffffffffffffffffffffffff161461102c576000611060565b611034610848565b7fffffffffffffffffffffffffffffffffffffffffffffffffffffffffffffffff61105f919061367b565b5b9050919050565b60008060008373ffffffffffffffffffffffffffffffffffffffff1673ffffffffffffffffffffffffffffffffffffffff168152602001908152602001600020549050919050565b6110c1826110bb6116e3565b836118b6565b6110cb82826120ff565b5050565b6000611118600860008473ffffffffffffffffffffffffffffffffffffffff1673ffffffffffffffffffffffffffffffffffffffff1681526020019081526020016000206122dc565b9050919050565b600080368080601f016020809104026020016040519081016040528093929190818152602001838380828437600081840152601f19601f820116905080830192505050505050509050600080357fffffffff00000000000000000000000000000000000000000000000000000000169050600033905036604051601f19601f6020840101168101604052816000823760243560043584866020860185a450507f65d7a28e3265b37a6474929f336521b332c1681b933f6cb9f3376673440d862a6111e881611bba565b6111f06122ea565b50505050565b60006007600084815260200190815260200160002060000160008373ffffffffffffffffffffffffffffffffffffffff1673ffffffffffffffffffffffffffffffffffffffff16815260200190815260200160002060009054906101000a900460ff16905092915050565b606060048054611270906130cc565b80601f016020809104026020016040519081016040528092919081815260200182805461129c906130cc565b80156112e95780601f106112be576101008083540402835291602001916112e9565b820191906000526020600020905b8154815290600101906020018083116112cc57829003601f168201915b5050505050905090565b6000801b81565b6000806113056116e3565b9050600061131382866115be565b905083811015611358576040517f08c379a000000000000000000000000000000000000000000000000000000000815260040161134f90613721565b60405180910390fd5b61136582868684036116eb565b60019250505092915050565b60008061137c6116e3565b9050611389818585611942565b600191505092915050565b61139f338383610852565b505050565b6113af838383610852565b50505050565b834211156113f8576040517f08c379a00000000000000000000000000000000000000000000000000000000081526004016113ef9061378d565b60405180910390fd5b60007f6e71edae12b1b97f4d1f60370fef10105fa2faae0126114a169c64845d6126c98888886114278c61234d565b8960405160200161143d969594939291906137ad565b6040516020818303038152906040528051906020012090506000611460826123ab565b90506000611470828787876123c5565b90508973ffffffffffffffffffffffffffffffffffffffff168173ffffffffffffffffffffffffffffffffffffffff16146114e0576040517f08c379a00000000000000000000000000000000000000000000000000000000081526004016114d79061385a565b60405180910390fd5b6114eb8a8a8a6116eb565b50505050505050505050565b7f9f2df0fed2c77648de5860a4cc508cd0818c85b8b8a1ab4ceeef8d981c8956a681565b61152482610881565b61152d81611bba565b6115378383611dc9565b505050565b60003073ffffffffffffffffffffffffffffffffffffffff168373ffffffffffffffffffffffffffffffffffffffff16146115ac576040517f08c379a00000000000000000000000000000000000000000000000000000000081526004016115a3906138c6565b60405180910390fd5b6115b683836123f0565b905092915050565b6000600160008473ffffffffffffffffffffffffffffffffffffffff1673ffffffffffffffffffffffffffffffffffffffff16815260200190815260200160002060008373ffffffffffffffffffffffffffffffffffffffff1673ffffffffffffffffffffffffffffffffffffffff16815260200190815260200160002054905092915050565b7f65d7a28e3265b37a6474929f336521b332c1681b933f6cb9f3376673440d862a81565b611674823383610852565b505050565b60007f01ffc9a7000000000000000000000000000000000000000000000000000000007bffffffffffffffffffffffffffffffffffffffffffffffffffffffff1916827bffffffffffffffffffffffffffffffffffffffffffffffffffffffff1916149050919050565b600033905090565b600073ffffffffffffffffffffffffffffffffffffffff168373ffffffffffffffffffffffffffffffffffffffff16141561175b576040517f08c379a000000000000000000000000000000000000000000000000000000000815260040161175290613958565b60405180910390fd5b600073ffffffffffffffffffffffffffffffffffffffff168273ffffffffffffffffffffffffffffffffffffffff1614156117cb576040517f08c379a00000000000000000000000000000000000000000000000000000000081526004016117c2906139ea565b60405180910390fd5b80600160008573ffffffffffffffffffffffffffffffffffffffff1673ffffffffffffffffffffffffffffffffffffffff16815260200190815260200160002060008473ffffffffffffffffffffffffffffffffffffffff1673ffffffffffffffffffffffffffffffffffffffff168152602001908152602001600020819055508173ffffffffffffffffffffffffffffffffffffffff168373ffffffffffffffffffffffffffffffffffffffff167f8c5be1e5ebec7d5bd14f71427d1e84f3dd0314c0f7b2291e5b200ac8c7c3b925836040516118a99190612c98565b60405180910390a3505050565b60006118c284846115be565b90507fffffffffffffffffffffffffffffffffffffffffffffffffffffffffffffffff811461193c578181101561192e576040517f08c379a000000000000000000000000000000000000000000000000000000000815260040161192590613a56565b60405180910390fd5b61193b84848484036116eb565b5b50505050565b600073ffffffffffffffffffffffffffffffffffffffff168373ffffffffffffffffffffffffffffffffffffffff1614156119b2576040517f08c379a00000000000000000000000000000000000000000000000000000000081526004016119a990613ae8565b60405180910390fd5b600073ffffffffffffffffffffffffffffffffffffffff168273ffffffffffffffffffffffffffffffffffffffff161415611a22576040517f08c379a0000000000000000000000000000000000000000000000000000000008152600401611a1990613b7a565b60405180910390fd5b611a2d8383836123f8565b60008060008573ffffffffffffffffffffffffffffffffffffffff1673ffffffffffffffffffffffffffffffffffffffff16815260200190815260200160002054905081811015611ab3576040517f08c379a0000000000000000000000000000000000000000000000000000000008152600401611aaa90613c0c565b60405180910390fd5b8181036000808673ffffffffffffffffffffffffffffffffffffffff1673ffffffffffffffffffffffffffffffffffffffff16815260200190815260200160002081905550816000808573ffffffffffffffffffffffffffffffffffffffff1673ffffffffffffffffffffffffffffffffffffffff168152602001908152602001600020600082825401925050819055508273ffffffffffffffffffffffffffffffffffffffff168473ffffffffffffffffffffffffffffffffffffffff167fddf252ad1be2c89b69c2b068fc378daa952ba7f163c4a11628f55a4df523b3ef84604051611ba19190612c98565b60405180910390a3611bb4848484612420565b50505050565b611bcb81611bc66116e3565b612425565b50565b611bd882826111f6565b611cab5760016007600084815260200190815260200160002060000160008373ffffffffffffffffffffffffffffffffffffffff1673ffffffffffffffffffffffffffffffffffffffff16815260200190815260200160002060006101000a81548160ff021916908315150217905550611c506116e3565b73ffffffffffffffffffffffffffffffffffffffff168173ffffffffffffffffffffffffffffffffffffffff16837f2f8788117e7eff1d82e926ec794901d17c78024a50270940304540a733656f0d60405160405180910390a45b5050565b60007f000000000000000000000000000000000000000000000000000000000000000073ffffffffffffffffffffffffffffffffffffffff163073ffffffffffffffffffffffffffffffffffffffff16148015611d2b57507f000000000000000000000000000000000000000000000000000000000000000046145b15611d58577f00000000000000000000000000000000000000000000000000000000000000009050611dc6565b611dc37f00000000000000000000000000000000000000000000000000000000000000007f00000000000000000000000000000000000000000000000000000000000000007f00000000000000000000000000000000000000000000000000000000000000006124aa565b90505b90565b611dd382826111f6565b15611ea75760006007600084815260200190815260200160002060000160008373ffffffffffffffffffffffffffffffffffffffff1673ffffffffffffffffffffffffffffffffffffffff16815260200190815260200160002060006101000a81548160ff021916908315150217905550611e4c6116e3565b73ffffffffffffffffffffffffffffffffffffffff168173ffffffffffffffffffffffffffffffffffffffff16837ff6391f5c32d9c69d2a47ea670b442974b53935d1edc7fd64eb21e047a839171b60405160405180910390a45b5050565b611eb36124e4565b6000600560006101000a81548160ff0219169083151502179055507f5db9ee0a495bf2e6ff9c91a7834c1ba4fdd244a5e8aa4e537bd38aeae4b073aa611ef76116e3565b604051611f049190613c2c565b60405180910390a1565b600073ffffffffffffffffffffffffffffffffffffffff168273ffffffffffffffffffffffffffffffffffffffff161415611f7e576040517f08c379a0000000000000000000000000000000000000000000000000000000008152600401611f7590613c93565b60405180910390fd5b611f8a600083836123f8565b8060026000828254611f9c91906131bf565b92505081905550806000808473ffffffffffffffffffffffffffffffffffffffff1673ffffffffffffffffffffffffffffffffffffffff168152602001908152602001600020600082825401925050819055508173ffffffffffffffffffffffffffffffffffffffff16600073ffffffffffffffffffffffffffffffffffffffff167fddf252ad1be2c89b69c2b068fc378daa952ba7f163c4a11628f55a4df523b3ef8360405161204d9190612c98565b60405180910390a361206160008383612420565b5050565b61206d610ddd565b156120ad576040517f08c379a00000000000000000000000000000000000000000000000000000000081526004016120a490613cff565b60405180910390fd5b565b600260065414156120f5576040517f08c379a00000000000000000000000000000000000000000000000000000000081526004016120ec90613d6b565b60405180910390fd5b6002600681905550565b600073ffffffffffffffffffffffffffffffffffffffff168273ffffffffffffffffffffffffffffffffffffffff16141561216f576040517f08c379a000000000000000000000000000000000000000000000000000000000815260040161216690613dfd565b60405180910390fd5b61217b826000836123f8565b60008060008473ffffffffffffffffffffffffffffffffffffffff1673ffffffffffffffffffffffffffffffffffffffff16815260200190815260200160002054905081811015612201576040517f08c379a00000000000000000000000000000000000000000000000000000000081526004016121f890613e8f565b60405180910390fd5b8181036000808573ffffffffffffffffffffffffffffffffffffffff1673ffffffffffffffffffffffffffffffffffffffff1681526020019081526020016000208190555081600260008282540392505081905550600073ffffffffffffffffffffffffffffffffffffffff168373ffffffffffffffffffffffffffffffffffffffff167fddf252ad1be2c89b69c2b068fc378daa952ba7f163c4a11628f55a4df523b3ef846040516122b49190612c98565b60405180910390a36122c883600084612420565b505050565b6001600681905550565b600090565b600081600001549050919050565b6122f2612065565b6001600560006101000a81548160ff0219169083151502179055507f62e78cea01bee320cd4e420270b5ea74000d11b0c9f74754ebdbfc544b05a2586123366116e3565b6040516123439190613c2c565b60405180910390a1565b600080600860008473ffffffffffffffffffffffffffffffffffffffff1673ffffffffffffffffffffffffffffffffffffffff168152602001908152602001600020905061239a816122dc565b91506123a58161252d565b50919050565b60006123be6123b8611caf565b83612543565b9050919050565b60008060006123d687878787612576565b915091506123e381612659565b8192505050949350505050565b600092915050565b612400612065565b6124086120af565b6124138383836127c7565b61241b6122cd565b505050565b505050565b61242f82826111f6565b6124a65761243c816127cc565b61244a8360001c60206127f9565b60405160200161245b929190613f83565b6040516020818303038152906040526040517f08c379a000000000000000000000000000000000000000000000000000000000815260040161249d9190612b93565b60405180910390fd5b5050565b600083838346306040516020016124c5959493929190613fbd565b6040516020818303038152906040528051906020012090509392505050565b6124ec610ddd565b61252b576040517f08c379a00000000000000000000000000000000000000000000000000000000081526004016125229061405c565b60405180910390fd5b565b6001816000016000828254019250508190555050565b600082826040516020016125589291906140e9565b60405160208183030381529060405280519060200120905092915050565b6000807f7fffffffffffffffffffffffffffffff5d576e7357a4501ddfe92f46681b20a08360001c11156125b1576000600391509150612650565b6000600187878787604051600081526020016040526040516125d69493929190614120565b6020604051602081039080840390855afa1580156125f8573d6000803e3d6000fd5b505050602060405103519050600073ffffffffffffffffffffffffffffffffffffffff168173ffffffffffffffffffffffffffffffffffffffff16141561264757600060019250925050612650565b80600092509250505b94509492505050565b6000600481111561266d5761266c614165565b5b8160048111156126805761267f614165565b5b141561268b576127c4565b6001600481111561269f5761269e614165565b5b8160048111156126b2576126b1614165565b5b14156126f3576040517f08c379a00000000000000000000000000000000000000000000000000000000081526004016126ea906141e0565b60405180910390fd5b6002600481111561270757612706614165565b5b81600481111561271a57612719614165565b5b141561275b576040517f08c379a00000000000000000000000000000000000000000000000000000000081526004016127529061424c565b60405180910390fd5b6003600481111561276f5761276e614165565b5b81600481111561278257612781614165565b5b14156127c3576040517f08c379a00000000000000000000000000000000000000000000000000000000081526004016127ba906142de565b60405180910390fd5b5b50565b505050565b60606127f28273ffffffffffffffffffffffffffffffffffffffff16601460ff166127f9565b9050919050565b60606000600283600261280c91906142fe565b61281691906131bf565b67ffffffffffffffff81111561282f5761282e614358565b5b6040519080825280601f01601f1916602001820160405280156128615781602001600182028036833780820191505090505b5090507f30000000000000000000000000000000000000000000000000000000000000008160008151811061289957612898614387565b5b60200101907effffffffffffffffffffffffffffffffffffffffffffffffffffffffffffff1916908160001a9053507f7800000000000000000000000000000000000000000000000000000000000000816001815181106128fd576128fc614387565b5b60200101907effffffffffffffffffffffffffffffffffffffffffffffffffffffffffffff1916908160001a9053506000600184600261293d91906142fe565b61294791906131bf565b90505b60018111156129e7577f3031323334353637383961626364656600000000000000000000000000000000600f86166010811061298957612988614387565b5b1a60f81b8282815181106129a05761299f614387565b5b60200101907effffffffffffffffffffffffffffffffffffffffffffffffffffffffffffff1916908160001a905350600485901c9450806129e0906143b6565b905061294a565b5060008414612a2b576040517f08c379a0000000000000000000000000000000000000000000000000000000008152600401612a229061442c565b60405180910390fd5b8091505092915050565b600080fd5b600080fd5b60007fffffffff0000000000000000000000000000000000000000000000000000000082169050919050565b612a7481612a3f565b8114612a7f57600080fd5b50565b600081359050612a9181612a6b565b92915050565b600060208284031215612aad57612aac612a35565b5b6000612abb84828501612a82565b91505092915050565b60008115159050919050565b612ad981612ac4565b82525050565b6000602082019050612af46000830184612ad0565b92915050565b600081519050919050565b600082825260208201905092915050565b60005b83811015612b34578082015181840152602081019050612b19565b83811115612b43576000848401525b50505050565b6000601f19601f8301169050919050565b6000612b6582612afa565b612b6f8185612b05565b9350612b7f818560208601612b16565b612b8881612b49565b840191505092915050565b60006020820190508181036000830152612bad8184612b5a565b905092915050565b600073ffffffffffffffffffffffffffffffffffffffff82169050919050565b6000612be082612bb5565b9050919050565b612bf081612bd5565b8114612bfb57600080fd5b50565b600081359050612c0d81612be7565b92915050565b6000819050919050565b612c2681612c13565b8114612c3157600080fd5b50565b600081359050612c4381612c1d565b92915050565b60008060408385031215612c6057612c5f612a35565b5b6000612c6e85828601612bfe565b9250506020612c7f85828601612c34565b9150509250929050565b612c9281612c13565b82525050565b6000602082019050612cad6000830184612c89565b92915050565b600080600060608486031215612ccc57612ccb612a35565b5b6000612cda86828701612bfe565b9350506020612ceb86828701612bfe565b9250506040612cfc86828701612c34565b9150509250925092565b6000819050919050565b612d1981612d06565b8114612d2457600080fd5b50565b600081359050612d3681612d10565b92915050565b600060208284031215612d5257612d51612a35565b5b6000612d6084828501612d27565b91505092915050565b612d7281612d06565b82525050565b6000602082019050612d8d6000830184612d69565b92915050565b60008060408385031215612daa57612da9612a35565b5b6000612db885828601612d27565b9250506020612dc985828601612bfe565b9150509250929050565b600060ff82169050919050565b612de981612dd3565b82525050565b6000602082019050612e046000830184612de0565b92915050565b600060208284031215612e2057612e1f612a35565b5b6000612e2e84828501612c34565b91505092915050565b6000612e4282612bd5565b9050919050565b612e5281612e37565b8114612e5d57600080fd5b50565b600081359050612e6f81612e49565b92915050565b600080fd5b600080fd5b600080fd5b60008083601f840112612e9a57612e99612e75565b5b8235905067ffffffffffffffff811115612eb757612eb6612e7a565b5b602083019150836001820283011115612ed357612ed2612e7f565b5b9250929050565b600080600080600060808688031215612ef657612ef5612a35565b5b6000612f0488828901612e60565b9550506020612f1588828901612bfe565b9450506040612f2688828901612c34565b935050606086013567ffffffffffffffff811115612f4757612f46612a3a565b5b612f5388828901612e84565b92509250509295509295909350565b600060208284031215612f7857612f77612a35565b5b6000612f8684828501612bfe565b91505092915050565b612f9881612dd3565b8114612fa357600080fd5b50565b600081359050612fb581612f8f565b92915050565b600080600080600080600060e0888a031215612fda57612fd9612a35565b5b6000612fe88a828b01612bfe565b9750506020612ff98a828b01612bfe565b965050604061300a8a828b01612c34565b955050606061301b8a828b01612c34565b945050608061302c8a828b01612fa6565b93505060a061303d8a828b01612d27565b92505060c061304e8a828b01612d27565b91505092959891949750929550565b6000806040838503121561307457613073612a35565b5b600061308285828601612bfe565b925050602061309385828601612bfe565b9150509250929050565b7f4e487b7100000000000000000000000000000000000000000000000000000000600052602260045260246000fd5b600060028204905060018216806130e457607f821691505b602082108114156130f8576130f761309d565b5b50919050565b7f416363657373436f6e74726f6c3a2063616e206f6e6c792072656e6f756e636560008201527f20726f6c657320666f722073656c660000000000000000000000000000000000602082015250565b600061315a602f83612b05565b9150613165826130fe565b604082019050919050565b600060208201905081810360008301526131898161314d565b9050919050565b7f4e487b7100000000000000000000000000000000000000000000000000000000600052601160045260246000fd5b60006131ca82612c13565b91506131d583612c13565b9250827fffffffffffffffffffffffffffffffffffffffffffffffffffffffffffffffff0382111561320a57613209613190565b5b828201905092915050565b7f47616c657269756d3a206275726e2066726f6d20746865207a65726f2061646460008201527f7265737300000000000000000000000000000000000000000000000000000000602082015250565b6000613271602483612b05565b915061327c82613215565b604082019050919050565b600060208201905081810360008301526132a081613264565b9050919050565b7f47616c657269756d3a20616d6f756e74206d757374206265206772656174657260008201527f207468616e207a65726f00000000000000000000000000000000000000000000602082015250565b6000613303602a83612b05565b915061330e826132a7565b604082019050919050565b60006020820190508181036000830152613332816132f6565b9050919050565b7f47616c657269756d3a206275726e20616d6f756e74206578636565647320626160008201527f6c616e6365000000000000000000000000000000000000000000000000000000602082015250565b6000613395602583612b05565b91506133a082613339565b604082019050919050565b600060208201905081810360008301526133c481613388565b9050919050565b7f47616c657269756d3a20746f6b656e207472616e73666572207768696c65207060008201527f6175736564000000000000000000000000000000000000000000000000000000602082015250565b6000613427602583612b05565b9150613432826133cb565b604082019050919050565b600060208201905081810360008301526134568161341a565b9050919050565b7f4552433230466c6173684d696e743a20616d6f756e742065786365656473206d60008201527f6178466c6173684c6f616e000000000000000000000000000000000000000000602082015250565b60006134b9602b83612b05565b91506134c48261345d565b604082019050919050565b600060208201905081810360008301526134e8816134ac565b9050919050565b6134f881612bd5565b82525050565b600082825260208201905092915050565b82818337600083830152505050565b600061352a83856134fe565b935061353783858461350f565b61354083612b49565b840190509392505050565b600060a08201905061356060008301896134ef565b61356d60208301886134ef565b61357a6040830187612c89565b6135876060830186612c89565b818103608083015261359a81848661351e565b9050979650505050505050565b6000815190506135b681612d10565b92915050565b6000602082840312156135d2576135d1612a35565b5b60006135e0848285016135a7565b91505092915050565b7f4552433230466c6173684d696e743a20696e76616c69642072657475726e207660008201527f616c756500000000000000000000000000000000000000000000000000000000602082015250565b6000613645602483612b05565b9150613650826135e9565b604082019050919050565b6000602082019050818103600083015261367481613638565b9050919050565b600061368682612c13565b915061369183612c13565b9250828210156136a4576136a3613190565b5b828203905092915050565b7f45524332303a2064656372656173656420616c6c6f77616e63652062656c6f7760008201527f207a65726f000000000000000000000000000000000000000000000000000000602082015250565b600061370b602583612b05565b9150613716826136af565b604082019050919050565b6000602082019050818103600083015261373a816136fe565b9050919050565b7f45524332305065726d69743a206578706972656420646561646c696e65000000600082015250565b6000613777601d83612b05565b915061378282613741565b602082019050919050565b600060208201905081810360008301526137a68161376a565b9050919050565b600060c0820190506137c26000830189612d69565b6137cf60208301886134ef565b6137dc60408301876134ef565b6137e96060830186612c89565b6137f66080830185612c89565b61380360a0830184612c89565b979650505050505050565b7f45524332305065726d69743a20696e76616c6964207369676e61747572650000600082015250565b6000613844601e83612b05565b915061384f8261380e565b602082019050919050565b6000602082019050818103600083015261387381613837565b9050919050565b7f4552433230466c6173684d696e743a2077726f6e6720746f6b656e0000000000600082015250565b60006138b0601b83612b05565b91506138bb8261387a565b602082019050919050565b600060208201905081810360008301526138df816138a3565b9050919050565b7f45524332303a20617070726f76652066726f6d20746865207a65726f2061646460008201527f7265737300000000000000000000000000000000000000000000000000000000602082015250565b6000613942602483612b05565b915061394d826138e6565b604082019050919050565b6000602082019050818103600083015261397181613935565b9050919050565b7f45524332303a20617070726f766520746f20746865207a65726f20616464726560008201527f7373000000000000000000000000000000000000000000000000000000000000602082015250565b60006139d4602283612b05565b91506139df82613978565b604082019050919050565b60006020820190508181036000830152613a03816139c7565b9050919050565b7f45524332303a20696e73756666696369656e7420616c6c6f77616e6365000000600082015250565b6000613a40601d83612b05565b9150613a4b82613a0a565b602082019050919050565b60006020820190508181036000830152613a6f81613a33565b9050919050565b7f45524332303a207472616e736665722066726f6d20746865207a65726f20616460008201527f6472657373000000000000000000000000000000000000000000000000000000602082015250565b6000613ad2602583612b05565b9150613add82613a76565b604082019050919050565b60006020820190508181036000830152613b0181613ac5565b9050919050565b7f45524332303a207472616e7366657220746f20746865207a65726f206164647260008201527f6573730000000000000000000000000000000000000000000000000000000000602082015250565b6000613b64602383612b05565b9150613b6f82613b08565b604082019050919050565b60006020820190508181036000830152613b9381613b57565b9050919050565b7f45524332303a207472616e7366657220616d6f756e742065786365656473206260008201527f616c616e63650000000000000000000000000000000000000000000000000000602082015250565b6000613bf6602683612b05565b9150613c0182613b9a565b604082019050919050565b60006020820190508181036000830152613c2581613be9565b9050919050565b6000602082019050613c4160008301846134ef565b92915050565b7f45524332303a206d696e7420746f20746865207a65726f206164647265737300600082015250565b6000613c7d601f83612b05565b9150613c8882613c47565b602082019050919050565b60006020820190508181036000830152613cac81613c70565b9050919050565b7f5061757361626c653a2070617573656400000000000000000000000000000000600082015250565b6000613ce9601083612b05565b9150613cf482613cb3565b602082019050919050565b60006020820190508181036000830152613d1881613cdc565b9050919050565b7f5265656e7472616e637947756172643a207265656e7472616e742063616c6c00600082015250565b6000613d55601f83612b05565b9150613d6082613d1f565b602082019050919050565b60006020820190508181036000830152613d8481613d48565b9050919050565b7f45524332303a206275726e2066726f6d20746865207a65726f2061646472657360008201527f7300000000000000000000000000000000000000000000000000000000000000602082015250565b6000613de7602183612b05565b9150613df282613d8b565b604082019050919050565b60006020820190508181036000830152613e1681613dda565b9050919050565b7f45524332303a206275726e20616d6f756e7420657863656564732062616c616e60008201527f6365000000000000000000000000000000000000000000000000000000000000602082015250565b6000613e79602283612b05565b9150613e8482613e1d565b604082019050919050565b60006020820190508181036000830152613ea881613e6c565b9050919050565b600081905092915050565b7f416363657373436f6e74726f6c3a206163636f756e7420000000000000000000600082015250565b6000613ef0601783613eaf565b9150613efb82613eba565b601782019050919050565b6000613f1182612afa565b613f1b8185613eaf565b9350613f2b818560208601612b16565b80840191505092915050565b7f206973206d697373696e6720726f6c6520000000000000000000000000000000600082015250565b6000613f6d601183613eaf565b9150613f7882613f37565b601182019050919050565b6000613f8e82613ee3565b9150613f9a8285613f06565b9150613fa582613f60565b9150613fb18284613f06565b91508190509392505050565b600060a082019050613fd26000830188612d69565b613fdf6020830187612d69565b613fec6040830186612d69565b613ff96060830185612c89565b61400660808301846134ef565b9695505050505050565b7f5061757361626c653a206e6f7420706175736564000000000000000000000000600082015250565b6000614046601483612b05565b915061405182614010565b602082019050919050565b6000602082019050818103600083015261407581614039565b9050919050565b7f1901000000000000000000000000000000000000000000000000000000000000600082015250565b60006140b2600283613eaf565b91506140bd8261407c565b600282019050919050565b6000819050919050565b6140e36140de82612d06565b6140c8565b82525050565b60006140f4826140a5565b915061410082856140d2565b60208201915061411082846140d2565b6020820191508190509392505050565b60006080820190506141356000830187612d69565b6141426020830186612de0565b61414f6040830185612d69565b61415c6060830184612d69565b95945050505050565b7f4e487b7100000000000000000000000000000000000000000000000000000000600052602160045260246000fd5b7f45434453413a20696e76616c6964207369676e61747572650000000000000000600082015250565b60006141ca601883612b05565b91506141d582614194565b602082019050919050565b600060208201905081810360008301526141f9816141bd565b9050919050565b7f45434453413a20696e76616c6964207369676e6174757265206c656e67746800600082015250565b6000614236601f83612b05565b915061424182614200565b602082019050919050565b6000602082019050818103600083015261426581614229565b9050919050565b7f45434453413a20696e76616c6964207369676e6174757265202773272076616c60008201527f7565000000000000000000000000000000000000000000000000000000000000602082015250565b60006142c8602283612b05565b91506142d38261426c565b604082019050919050565b600060208201905081810360008301526142f7816142bb565b9050919050565b600061430982612c13565b915061431483612c13565b9250817fffffffffffffffffffffffffffffffffffffffffffffffffffffffffffffffff048311821515161561434d5761434c613190565b5b828202905092915050565b7f4e487b7100000000000000000000000000000000000000000000000000000000600052604160045260246000fd5b7f4e487b7100000000000000000000000000000000000000000000000000000000600052603260045260246000fd5b60006143c182612c13565b915060008214156143d5576143d4613190565b5b600182039050919050565b7f537472696e67733a20686578206c656e67746820696e73756666696369656e74600082015250565b6000614416602083612b05565b9150614421826143e0565b602082019050919050565b6000602082019050818103600083015261444581614409565b905091905056fea2646970667358221220dcea215cea0178b420e36d1666386076f4f649f84ac4d87a8485d9edffdef2a764736f6c63430008090033",
  "linkReferences": {},
  "deployedLinkReferences": {}
}