{
  "_format": "hh-sol-artifact-1",
  "contractName": "Oracle",
  "sourceName": "contracts/protocol/oracle/oracle.sol",
  "abi": [
    {
      "inputs": [
        {
          "internalType": "address",
          "name": "_priceFeed",
          "type": "address"
        }
      ],
      "stateMutability": "nonpayable",
      "type": "constructor"
    },
    {
      "anonymous": false,
      "inputs": [
        {
          "indexed": false,
          "internalType": "uint256",
          "name": "val",
          "type": "uint256"
        },
        {
          "indexed": false,
          "internalType": "uint256",
          "name": "age",
          "type": "uint256"
        }
      ],
      "name": "LogPrice",
      "type": "event"
    },
    {
      "inputs": [],
      "name": "age",
      "outputs": [
        {
          "internalType": "uint256",
          "name": "",
          "type": "uint256"
        }
      ],
      "stateMutability": "view",
      "type": "function"
    },
    {
      "inputs": [],
      "name": "peek",
      "outputs": [
        {
          "internalType": "uint256",
          "name": "",
          "type": "uint256"
        },
        {
          "internalType": "bool",
          "name": "",
          "type": "bool"
        }
      ],
      "stateMutability": "view",
      "type": "function"
    },
    {
      "inputs": [],
      "name": "poke",
      "outputs": [],
      "stateMutability": "nonpayable",
      "type": "function"
    },
    {
      "inputs": [],
      "name": "read",
      "outputs": [
        {
          "internalType": "int256",
          "name": "",
          "type": "int256"
        }
      ],
      "stateMutability": "view",
      "type": "function"
    },
    {
      "inputs": [],
      "name": "val",
      "outputs": [
        {
          "internalType": "uint256",
          "name": "",
          "type": "uint256"
        }
      ],
      "stateMutability": "view",
      "type": "function"
    }
  ],
  "bytecode": "0x608060405234801561001057600080fd5b50604051610814380380610814833981810160405281019061003291906100db565b806000806101000a81548173ffffffffffffffffffffffffffffffffffffffff021916908373ffffffffffffffffffffffffffffffffffffffff16021790555050610108565b600080fd5b600073ffffffffffffffffffffffffffffffffffffffff82169050919050565b60006100a88261007d565b9050919050565b6100b88161009d565b81146100c357600080fd5b50565b6000815190506100d5816100af565b92915050565b6000602082840312156100f1576100f0610078565b5b60006100ff848285016100c6565b91505092915050565b6106fd806101176000396000f3fe608060405234801561001057600080fd5b50600436106100575760003560e01c8063181783581461005c578063262a9dff146100665780633c6bb4361461008457806357de26a4146100a257806359e02dd7146100c0575b600080fd5b6100646100df565b005b61006e610242565b60405161007b9190610411565b60405180910390f35b61008c610248565b6040516100999190610411565b60405180910390f35b6100aa61024e565b6040516100b79190610445565b60405180910390f35b6100c86102fc565b6040516100d692919061047b565b60405180910390f35b60008060008060009054906101000a900473ffffffffffffffffffffffffffffffffffffffff1673ffffffffffffffffffffffffffffffffffffffff1663feaf968c6040518163ffffffff1660e01b815260040160a06040518083038186803b15801561014b57600080fd5b505afa15801561015f573d6000803e3d6000fd5b505050506040513d601f19601f820116820180604052508101906101839190610543565b50935093509350506000811180156101a8575061012c81426101a591906105ed565b11155b6101e7576040517f08c379a00000000000000000000000000000000000000000000000000000000081526004016101de9061067e565b60405180910390fd5b81426101f391906105ed565b600181905550826002819055507f6c55f9eff10a156c5ca659ac967d4b005d9e74bf74ee481363eac60df75fa59860025460015460405161023592919061069e565b60405180910390a1505050565b60015481565b60025481565b60008060008054906101000a900473ffffffffffffffffffffffffffffffffffffffff1673ffffffffffffffffffffffffffffffffffffffff1663feaf968c6040518163ffffffff1660e01b815260040160a06040518083038186803b1580156102b757600080fd5b505afa1580156102cb573d6000803e3d6000fd5b505050506040513d601f19601f820116820180604052508101906102ef9190610543565b5050509150508091505090565b60008060008060008060009054906101000a900473ffffffffffffffffffffffffffffffffffffffff1673ffffffffffffffffffffffffffffffffffffffff1663feaf968c6040518163ffffffff1660e01b815260040160a06040518083038186803b15801561036b57600080fd5b505afa15801561037f573d6000803e3d6000fd5b505050506040513d601f19601f820116820180604052508101906103a39190610543565b5093509350935050600080821180156103c9575061012c82426103c691906105ed565b11155b9050600083426103d991906105ed565b9050848280156103eb575061012c8211155b9650965050505050509091565b6000819050919050565b61040b816103f8565b82525050565b60006020820190506104266000830184610402565b92915050565b6000819050919050565b61043f8161042c565b82525050565b600060208201905061045a6000830184610436565b92915050565b60008115159050919050565b61047581610460565b82525050565b60006040820190506104906000830185610402565b61049d602083018461046c565b9392505050565b600080fd5b600069ffffffffffffffffffff82169050919050565b6104c8816104a9565b81146104d357600080fd5b50565b6000815190506104e5816104bf565b92915050565b6104f48161042c565b81146104ff57600080fd5b50565b600081519050610511816104eb565b92915050565b610520816103f8565b811461052b57600080fd5b50565b60008151905061053d81610517565b92915050565b600080600080600060a0868803121561055f5761055e6104a4565b5b600061056d888289016104d6565b955050602061057e88828901610502565b945050604061058f8882890161052e565b93505060606105a08882890161052e565b92505060806105b1888289016104d6565b9150509295509295909350565b7f4e487b7100000000000000000000000000000000000000000000000000000000600052601160045260246000fd5b60006105f8826103f8565b9150610603836103f8565b925082821015610616576106156105be565b5b828203905092915050565b600082825260208201905092915050565b7f4f7261636c652f696e76616c69642d70726963652d6665656400000000000000600082015250565b6000610668601983610621565b915061067382610632565b602082019050919050565b600060208201905081810360008301526106978161065b565b9050919050565b60006040820190506106b36000830185610402565b6106c06020830184610402565b939250505056fea26469706673582212209a7d2cb916aba0b8a74581f043692b3abd0f1ddacf0e16f833a645c49c6b931364736f6c63430008090033",
  "linkReferences": {},
  "deployedLinkReferences": {}
}