{
  "_format": "hh-sol-artifact-1",
  "contractName": "Token",
  "sourceName": "contracts/protocol/praedium/token.sol",
  "abi": [
    {
      "inputs": [
        {
          "internalType": "uint256",
          "name": "_maxSupply",
          "type": "uint256"
        }
      ],
      "stateMutability": "nonpayable",
      "type": "constructor"
    },
    {
      "anonymous": false,
      "inputs": [
        {
          "indexed": true,
          "internalType": "address",
          "name": "owner",
          "type": "address"
        },
        {
          "indexed": true,
          "internalType": "address",
          "name": "spender",
          "type": "address"
        },
        {
          "indexed": false,
          "internalType": "uint256",
          "name": "value",
          "type": "uint256"
        }
      ],
      "name": "Approval",
      "type": "event"
    },
    {
      "anonymous": false,
      "inputs": [
        {
          "indexed": true,
          "internalType": "address",
          "name": "guy",
          "type": "address"
        },
        {
          "indexed": false,
          "internalType": "uint256",
          "name": "wad",
          "type": "uint256"
        }
      ],
      "name": "Burn",
      "type": "event"
    },
    {
      "anonymous": false,
      "inputs": [
        {
          "indexed": true,
          "internalType": "address",
          "name": "guy",
          "type": "address"
        },
        {
          "indexed": false,
          "internalType": "uint256",
          "name": "wad",
          "type": "uint256"
        }
      ],
      "name": "Mint",
      "type": "event"
    },
    {
      "anonymous": false,
      "inputs": [
        {
          "indexed": false,
          "internalType": "address",
          "name": "account",
          "type": "address"
        }
      ],
      "name": "Paused",
      "type": "event"
    },
    {
      "anonymous": false,
      "inputs": [
        {
          "indexed": true,
          "internalType": "bytes32",
          "name": "role",
          "type": "bytes32"
        },
        {
          "indexed": true,
          "internalType": "bytes32",
          "name": "previousAdminRole",
          "type": "bytes32"
        },
        {
          "indexed": true,
          "internalType": "bytes32",
          "name": "newAdminRole",
          "type": "bytes32"
        }
      ],
      "name": "RoleAdminChanged",
      "type": "event"
    },
    {
      "anonymous": false,
      "inputs": [
        {
          "indexed": true,
          "internalType": "bytes32",
          "name": "role",
          "type": "bytes32"
        },
        {
          "indexed": true,
          "internalType": "address",
          "name": "account",
          "type": "address"
        },
        {
          "indexed": true,
          "internalType": "address",
          "name": "sender",
          "type": "address"
        }
      ],
      "name": "RoleGranted",
      "type": "event"
    },
    {
      "anonymous": false,
      "inputs": [
        {
          "indexed": true,
          "internalType": "bytes32",
          "name": "role",
          "type": "bytes32"
        },
        {
          "indexed": true,
          "internalType": "address",
          "name": "account",
          "type": "address"
        },
        {
          "indexed": true,
          "internalType": "address",
          "name": "sender",
          "type": "address"
        }
      ],
      "name": "RoleRevoked",
      "type": "event"
    },
    {
      "anonymous": false,
      "inputs": [],
      "name": "Start",
      "type": "event"
    },
    {
      "anonymous": false,
      "inputs": [],
      "name": "Stop",
      "type": "event"
    },
    {
      "anonymous": false,
      "inputs": [
        {
          "indexed": true,
          "internalType": "address",
          "name": "from",
          "type": "address"
        },
        {
          "indexed": true,
          "internalType": "address",
          "name": "to",
          "type": "address"
        },
        {
          "indexed": false,
          "internalType": "uint256",
          "name": "value",
          "type": "uint256"
        }
      ],
      "name": "Transfer",
      "type": "event"
    },
    {
      "anonymous": false,
      "inputs": [
        {
          "indexed": false,
          "internalType": "address",
          "name": "account",
          "type": "address"
        }
      ],
      "name": "Unpaused",
      "type": "event"
    },
    {
      "inputs": [],
      "name": "DEFAULT_ADMIN_ROLE",
      "outputs": [
        {
          "internalType": "bytes32",
          "name": "",
          "type": "bytes32"
        }
      ],
      "stateMutability": "view",
      "type": "function"
    },
    {
      "inputs": [],
      "name": "MINTER_ROLE",
      "outputs": [
        {
          "internalType": "bytes32",
          "name": "",
          "type": "bytes32"
        }
      ],
      "stateMutability": "view",
      "type": "function"
    },
    {
      "inputs": [],
      "name": "PAUSER_ROLE",
      "outputs": [
        {
          "internalType": "bytes32",
          "name": "",
          "type": "bytes32"
        }
      ],
      "stateMutability": "view",
      "type": "function"
    },
    {
      "inputs": [
        {
          "internalType": "address",
          "name": "owner",
          "type": "address"
        },
        {
          "internalType": "address",
          "name": "spender",
          "type": "address"
        }
      ],
      "name": "allowance",
      "outputs": [
        {
          "internalType": "uint256",
          "name": "",
          "type": "uint256"
        }
      ],
      "stateMutability": "view",
      "type": "function"
    },
    {
      "inputs": [
        {
          "internalType": "address",
          "name": "guy",
          "type": "address"
        },
        {
          "internalType": "uint256",
          "name": "wad",
          "type": "uint256"
        }
      ],
      "name": "approve",
      "outputs": [
        {
          "internalType": "bool",
          "name": "",
          "type": "bool"
        }
      ],
      "stateMutability": "nonpayable",
      "type": "function"
    },
    {
      "inputs": [
        {
          "internalType": "address",
          "name": "account",
          "type": "address"
        }
      ],
      "name": "balanceOf",
      "outputs": [
        {
          "internalType": "uint256",
          "name": "",
          "type": "uint256"
        }
      ],
      "stateMutability": "view",
      "type": "function"
    },
    {
      "inputs": [
        {
          "internalType": "uint256",
          "name": "wad",
          "type": "uint256"
        }
      ],
      "name": "burn",
      "outputs": [],
      "stateMutability": "nonpayable",
      "type": "function"
    },
    {
      "inputs": [],
      "name": "decimals",
      "outputs": [
        {
          "internalType": "uint8",
          "name": "",
          "type": "uint8"
        }
      ],
      "stateMutability": "view",
      "type": "function"
    },
    {
      "inputs": [
        {
          "internalType": "address",
          "name": "spender",
          "type": "address"
        },
        {
          "internalType": "uint256",
          "name": "subtractedValue",
          "type": "uint256"
        }
      ],
      "name": "decreaseAllowance",
      "outputs": [
        {
          "internalType": "bool",
          "name": "",
          "type": "bool"
        }
      ],
      "stateMutability": "nonpayable",
      "type": "function"
    },
    {
      "inputs": [
        {
          "internalType": "bytes32",
          "name": "role",
          "type": "bytes32"
        }
      ],
      "name": "getRoleAdmin",
      "outputs": [
        {
          "internalType": "bytes32",
          "name": "",
          "type": "bytes32"
        }
      ],
      "stateMutability": "view",
      "type": "function"
    },
    {
      "inputs": [
        {
          "internalType": "bytes32",
          "name": "role",
          "type": "bytes32"
        },
        {
          "internalType": "address",
          "name": "account",
          "type": "address"
        }
      ],
      "name": "grantRole",
      "outputs": [],
      "stateMutability": "nonpayable",
      "type": "function"
    },
    {
      "inputs": [
        {
          "internalType": "bytes32",
          "name": "role",
          "type": "bytes32"
        },
        {
          "internalType": "address",
          "name": "account",
          "type": "address"
        }
      ],
      "name": "hasRole",
      "outputs": [
        {
          "internalType": "bool",
          "name": "",
          "type": "bool"
        }
      ],
      "stateMutability": "view",
      "type": "function"
    },
    {
      "inputs": [
        {
          "internalType": "address",
          "name": "spender",
          "type": "address"
        },
        {
          "internalType": "uint256",
          "name": "addedValue",
          "type": "uint256"
        }
      ],
      "name": "increaseAllowance",
      "outputs": [
        {
          "internalType": "bool",
          "name": "",
          "type": "bool"
        }
      ],
      "stateMutability": "nonpayable",
      "type": "function"
    },
    {
      "inputs": [],
      "name": "maxSupply",
      "outputs": [
        {
          "internalType": "uint256",
          "name": "",
          "type": "uint256"
        }
      ],
      "stateMutability": "view",
      "type": "function"
    },
    {
      "inputs": [
        {
          "internalType": "address",
          "name": "guy",
          "type": "address"
        },
        {
          "internalType": "uint256",
          "name": "wad",
          "type": "uint256"
        }
      ],
      "name": "mint",
      "outputs": [],
      "stateMutability": "nonpayable",
      "type": "function"
    },
    {
      "inputs": [
        {
          "internalType": "address",
          "name": "src",
          "type": "address"
        },
        {
          "internalType": "address",
          "name": "dst",
          "type": "address"
        },
        {
          "internalType": "uint256",
          "name": "wad",
          "type": "uint256"
        }
      ],
      "name": "move",
      "outputs": [],
      "stateMutability": "nonpayable",
      "type": "function"
    },
    {
      "inputs": [],
      "name": "name",
      "outputs": [
        {
          "internalType": "string",
          "name": "",
          "type": "string"
        }
      ],
      "stateMutability": "view",
      "type": "function"
    },
    {
      "inputs": [],
      "name": "paused",
      "outputs": [
        {
          "internalType": "bool",
          "name": "",
          "type": "bool"
        }
      ],
      "stateMutability": "view",
      "type": "function"
    },
    {
      "inputs": [
        {
          "internalType": "address",
          "name": "usr",
          "type": "address"
        },
        {
          "internalType": "uint256",
          "name": "wad",
          "type": "uint256"
        }
      ],
      "name": "pull",
      "outputs": [],
      "stateMutability": "nonpayable",
      "type": "function"
    },
    {
      "inputs": [
        {
          "internalType": "address",
          "name": "usr",
          "type": "address"
        },
        {
          "internalType": "uint256",
          "name": "wad",
          "type": "uint256"
        }
      ],
      "name": "push",
      "outputs": [],
      "stateMutability": "nonpayable",
      "type": "function"
    },
    {
      "inputs": [
        {
          "internalType": "bytes32",
          "name": "role",
          "type": "bytes32"
        },
        {
          "internalType": "address",
          "name": "account",
          "type": "address"
        }
      ],
      "name": "renounceRole",
      "outputs": [],
      "stateMutability": "nonpayable",
      "type": "function"
    },
    {
      "inputs": [
        {
          "internalType": "bytes32",
          "name": "role",
          "type": "bytes32"
        },
        {
          "internalType": "address",
          "name": "account",
          "type": "address"
        }
      ],
      "name": "revokeRole",
      "outputs": [],
      "stateMutability": "nonpayable",
      "type": "function"
    },
    {
      "inputs": [],
      "name": "start",
      "outputs": [],
      "stateMutability": "nonpayable",
      "type": "function"
    },
    {
      "inputs": [],
      "name": "stop",
      "outputs": [],
      "stateMutability": "nonpayable",
      "type": "function"
    },
    {
      "inputs": [
        {
          "internalType": "bytes4",
          "name": "interfaceId",
          "type": "bytes4"
        }
      ],
      "name": "supportsInterface",
      "outputs": [
        {
          "internalType": "bool",
          "name": "",
          "type": "bool"
        }
      ],
      "stateMutability": "view",
      "type": "function"
    },
    {
      "inputs": [],
      "name": "symbol",
      "outputs": [
        {
          "internalType": "string",
          "name": "",
          "type": "string"
        }
      ],
      "stateMutability": "view",
      "type": "function"
    },
    {
      "inputs": [],
      "name": "totalSupply",
      "outputs": [
        {
          "internalType": "uint256",
          "name": "",
          "type": "uint256"
        }
      ],
      "stateMutability": "view",
      "type": "function"
    },
    {
      "inputs": [
        {
          "internalType": "address",
          "name": "to",
          "type": "address"
        },
        {
          "internalType": "uint256",
          "name": "amount",
          "type": "uint256"
        }
      ],
      "name": "transfer",
      "outputs": [
        {
          "internalType": "bool",
          "name": "",
          "type": "bool"
        }
      ],
      "stateMutability": "nonpayable",
      "type": "function"
    },
    {
      "inputs": [
        {
          "internalType": "address",
          "name": "from",
          "type": "address"
        },
        {
          "internalType": "address",
          "name": "to",
          "type": "address"
        },
        {
          "internalType": "uint256",
          "name": "amount",
          "type": "uint256"
        }
      ],
      "name": "transferFrom",
      "outputs": [
        {
          "internalType": "bool",
          "name": "",
          "type": "bool"
        }
      ],
      "stateMutability": "nonpayable",
      "type": "function"
    }
  ],
  "bytecode": "0x60806040523480156200001157600080fd5b5060405162003271380380620032718339818101604052810190620000379190620003d6565b6040518060400160405280600881526020017f507261656469756d0000000000000000000000000000000000000000000000008152506040518060400160405280600381526020017f50444d00000000000000000000000000000000000000000000000000000000008152508160039080519060200190620000bb929190620002e6565b508060049080519060200190620000d4929190620002e6565b5050506000600560006101000a81548160ff021916908315150217905550600160078190555080600881905550620001166000801b336200018160201b60201c565b620001487f65d7a28e3265b37a6474929f336521b332c1681b933f6cb9f3376673440d862a336200018160201b60201c565b6200017a7f9f2df0fed2c77648de5860a4cc508cd0818c85b8b8a1ab4ceeef8d981c8956a6336200018160201b60201c565b506200046d565b6200019382826200027360201b60201c565b6200026f5760016006600084815260200190815260200160002060000160008373ffffffffffffffffffffffffffffffffffffffff1673ffffffffffffffffffffffffffffffffffffffff16815260200190815260200160002060006101000a81548160ff02191690831515021790555062000214620002de60201b60201c565b73ffffffffffffffffffffffffffffffffffffffff168173ffffffffffffffffffffffffffffffffffffffff16837f2f8788117e7eff1d82e926ec794901d17c78024a50270940304540a733656f0d60405160405180910390a45b5050565b60006006600084815260200190815260200160002060000160008373ffffffffffffffffffffffffffffffffffffffff1673ffffffffffffffffffffffffffffffffffffffff16815260200190815260200160002060009054906101000a900460ff16905092915050565b600033905090565b828054620002f49062000437565b90600052602060002090601f01602090048101928262000318576000855562000364565b82601f106200033357805160ff191683800117855562000364565b8280016001018555821562000364579182015b828111156200036357825182559160200191906001019062000346565b5b50905062000373919062000377565b5090565b5b808211156200039257600081600090555060010162000378565b5090565b600080fd5b6000819050919050565b620003b0816200039b565b8114620003bc57600080fd5b50565b600081519050620003d081620003a5565b92915050565b600060208284031215620003ef57620003ee62000396565b5b6000620003ff84828501620003bf565b91505092915050565b7f4e487b7100000000000000000000000000000000000000000000000000000000600052602260045260246000fd5b600060028204905060018216806200045057607f821691505b6020821081141562000467576200046662000408565b5b50919050565b612df4806200047d6000396000f3fe608060405234801561001057600080fd5b50600436106101cf5760003560e01c806370a0823111610104578063bb35783b116100a2578063d5abeb0111610071578063d5abeb011461052e578063dd62ed3e1461054c578063e63ab1e91461057c578063f2d5d56b1461059a576101cf565b8063bb35783b146104ce578063be9a6555146104ea578063d5391393146104f4578063d547741f14610512576101cf565b8063a217fddf116100de578063a217fddf14610434578063a457c2d714610452578063a9059cbb14610482578063b753a98c146104b2576101cf565b806370a08231146103b657806391d14854146103e657806395d89b4114610416576101cf565b80632f2ff15d11610171578063395093511161014b578063395093511461033057806340c10f191461036057806342966c681461037c5780635c975abb14610398576101cf565b80632f2ff15d146102da578063313ce567146102f657806336568abe14610314576101cf565b8063095ea7b3116101ad578063095ea7b31461022c57806318160ddd1461025c57806323b872dd1461027a578063248a9ca3146102aa576101cf565b806301ffc9a7146101d457806306fdde031461020457806307da68f514610222575b600080fd5b6101ee60048036038101906101e99190611e09565b6105b6565b6040516101fb9190611e51565b60405180910390f35b61020c610630565b6040516102199190611f05565b60405180910390f35b61022a6106c2565b005b61024660048036038101906102419190611fbb565b610723565b6040516102539190611e51565b60405180910390f35b6102646107ab565b604051610271919061200a565b60405180910390f35b610294600480360381019061028f9190612025565b6107b5565b6040516102a19190611e51565b60405180910390f35b6102c460048036038101906102bf91906120ae565b6107e4565b6040516102d191906120ea565b60405180910390f35b6102f460048036038101906102ef9190612105565b610804565b005b6102fe610825565b60405161030b9190612161565b60405180910390f35b61032e60048036038101906103299190612105565b61082e565b005b61034a60048036038101906103459190611fbb565b6108b1565b6040516103579190611e51565b60405180910390f35b61037a60048036038101906103759190611fbb565b6108e8565b005b6103966004803603810190610391919061217c565b6109cc565b005b6103a0610a2e565b6040516103ad9190611e51565b60405180910390f35b6103d060048036038101906103cb91906121a9565b610a45565b6040516103dd919061200a565b60405180910390f35b61040060048036038101906103fb9190612105565b610a8d565b60405161040d9190611e51565b60405180910390f35b61041e610af8565b60405161042b9190611f05565b60405180910390f35b61043c610b8a565b60405161044991906120ea565b60405180910390f35b61046c60048036038101906104679190611fbb565b610b91565b6040516104799190611e51565b60405180910390f35b61049c60048036038101906104979190611fbb565b610c08565b6040516104a99190611e51565b60405180910390f35b6104cc60048036038101906104c79190611fbb565b610c2b565b005b6104e860048036038101906104e39190612025565b610c3b565b005b6104f2610c4c565b005b6104fc610cad565b60405161050991906120ea565b60405180910390f35b61052c60048036038101906105279190612105565b610cd1565b005b610536610cf2565b604051610543919061200a565b60405180910390f35b610566600480360381019061056191906121d6565b610cf8565b604051610573919061200a565b60405180910390f35b610584610d7f565b60405161059191906120ea565b60405180910390f35b6105b460048036038101906105af9190611fbb565b610da3565b005b60007f7965db0b000000000000000000000000000000000000000000000000000000007bffffffffffffffffffffffffffffffffffffffffffffffffffffffff1916827bffffffffffffffffffffffffffffffffffffffffffffffffffffffff19161480610629575061062882610db3565b5b9050919050565b60606003805461063f90612245565b80601f016020809104026020016040519081016040528092919081815260200182805461066b90612245565b80156106b85780601f1061068d576101008083540402835291602001916106b8565b820191906000526020600020905b81548152906001019060200180831161069b57829003601f168201915b5050505050905090565b7f65d7a28e3265b37a6474929f336521b332c1681b933f6cb9f3376673440d862a6106ec81610e1d565b6106f4610e31565b7fbedf0f4abfe86d4ffad593d9607fe70e83ea706033d44d24b3b6283cf3fc4f6b60405160405180910390a150565b60008061072e610e94565b905061073b818585610e9c565b8373ffffffffffffffffffffffffffffffffffffffff168173ffffffffffffffffffffffffffffffffffffffff167f8c5be1e5ebec7d5bd14f71427d1e84f3dd0314c0f7b2291e5b200ac8c7c3b92585604051610798919061200a565b60405180910390a3600191505092915050565b6000600254905090565b6000806107c0610e94565b90506107cd858285611067565b6107d88585856110f3565b60019150509392505050565b600060066000838152602001908152602001600020600101549050919050565b61080d826107e4565b61081681610e1d565b610820838361136b565b505050565b60006012905090565b610836610e94565b73ffffffffffffffffffffffffffffffffffffffff168173ffffffffffffffffffffffffffffffffffffffff16146108a3576040517f08c379a000000000000000000000000000000000000000000000000000000000815260040161089a906122e9565b60405180910390fd5b6108ad828261144c565b5050565b6000806108bc610e94565b90506108dd8185856108ce8589610cf8565b6108d89190612338565b610e9c565b600191505092915050565b7f9f2df0fed2c77648de5860a4cc508cd0818c85b8b8a1ab4ceeef8d981c8956a661091281610e1d565b60008261091d6107ab565b6109279190612338565b905060085481111561096e576040517f08c379a0000000000000000000000000000000000000000000000000000000008152600401610965906123da565b60405180910390fd5b8373ffffffffffffffffffffffffffffffffffffffff167f0f6798a560793a54c3bcfe86a93cde1e73087d944c0ea20544137d4121396885846040516109b4919061200a565b60405180910390a26109c6848461152e565b50505050565b3373ffffffffffffffffffffffffffffffffffffffff167fcc16f5dbb4873280815c1ee09dbd06736cffcc184412cf7a71a0fdb75d397ca582604051610a12919061200a565b60405180910390a2610a2b610a25610e94565b82611685565b50565b6000600560009054906101000a900460ff16905090565b60008060008373ffffffffffffffffffffffffffffffffffffffff1673ffffffffffffffffffffffffffffffffffffffff168152602001908152602001600020549050919050565b60006006600084815260200190815260200160002060000160008373ffffffffffffffffffffffffffffffffffffffff1673ffffffffffffffffffffffffffffffffffffffff16815260200190815260200160002060009054906101000a900460ff16905092915050565b606060048054610b0790612245565b80601f0160208091040260200160405190810160405280929190818152602001828054610b3390612245565b8015610b805780601f10610b5557610100808354040283529160200191610b80565b820191906000526020600020905b815481529060010190602001808311610b6357829003601f168201915b5050505050905090565b6000801b81565b600080610b9c610e94565b90506000610baa8286610cf8565b905083811015610bef576040517f08c379a0000000000000000000000000000000000000000000000000000000008152600401610be69061246c565b60405180910390fd5b610bfc8286868403610e9c565b60019250505092915050565b600080610c13610e94565b9050610c208185856110f3565b600191505092915050565b610c363383836107b5565b505050565b610c468383836107b5565b50505050565b7f65d7a28e3265b37a6474929f336521b332c1681b933f6cb9f3376673440d862a610c7681610e1d565b610c7e611853565b7f1b55ba3aa851a46be3b365aee5b5c140edd620d578922f3e8466d2cbd96f954b60405160405180910390a150565b7f9f2df0fed2c77648de5860a4cc508cd0818c85b8b8a1ab4ceeef8d981c8956a681565b610cda826107e4565b610ce381610e1d565b610ced838361144c565b505050565b60085481565b6000600160008473ffffffffffffffffffffffffffffffffffffffff1673ffffffffffffffffffffffffffffffffffffffff16815260200190815260200160002060008373ffffffffffffffffffffffffffffffffffffffff1673ffffffffffffffffffffffffffffffffffffffff16815260200190815260200160002054905092915050565b7f65d7a28e3265b37a6474929f336521b332c1681b933f6cb9f3376673440d862a81565b610dae8233836107b5565b505050565b60007f01ffc9a7000000000000000000000000000000000000000000000000000000007bffffffffffffffffffffffffffffffffffffffffffffffffffffffff1916827bffffffffffffffffffffffffffffffffffffffffffffffffffffffff1916149050919050565b610e2e81610e29610e94565b6118b6565b50565b610e3961193b565b6001600560006101000a81548160ff0219169083151502179055507f62e78cea01bee320cd4e420270b5ea74000d11b0c9f74754ebdbfc544b05a258610e7d610e94565b604051610e8a919061249b565b60405180910390a1565b600033905090565b600073ffffffffffffffffffffffffffffffffffffffff168373ffffffffffffffffffffffffffffffffffffffff161415610f0c576040517f08c379a0000000000000000000000000000000000000000000000000000000008152600401610f0390612528565b60405180910390fd5b600073ffffffffffffffffffffffffffffffffffffffff168273ffffffffffffffffffffffffffffffffffffffff161415610f7c576040517f08c379a0000000000000000000000000000000000000000000000000000000008152600401610f73906125ba565b60405180910390fd5b80600160008573ffffffffffffffffffffffffffffffffffffffff1673ffffffffffffffffffffffffffffffffffffffff16815260200190815260200160002060008473ffffffffffffffffffffffffffffffffffffffff1673ffffffffffffffffffffffffffffffffffffffff168152602001908152602001600020819055508173ffffffffffffffffffffffffffffffffffffffff168373ffffffffffffffffffffffffffffffffffffffff167f8c5be1e5ebec7d5bd14f71427d1e84f3dd0314c0f7b2291e5b200ac8c7c3b9258360405161105a919061200a565b60405180910390a3505050565b60006110738484610cf8565b90507fffffffffffffffffffffffffffffffffffffffffffffffffffffffffffffffff81146110ed57818110156110df576040517f08c379a00000000000000000000000000000000000000000000000000000000081526004016110d690612626565b60405180910390fd5b6110ec8484848403610e9c565b5b50505050565b600073ffffffffffffffffffffffffffffffffffffffff168373ffffffffffffffffffffffffffffffffffffffff161415611163576040517f08c379a000000000000000000000000000000000000000000000000000000000815260040161115a906126b8565b60405180910390fd5b600073ffffffffffffffffffffffffffffffffffffffff168273ffffffffffffffffffffffffffffffffffffffff1614156111d3576040517f08c379a00000000000000000000000000000000000000000000000000000000081526004016111ca9061274a565b60405180910390fd5b6111de838383611985565b60008060008573ffffffffffffffffffffffffffffffffffffffff1673ffffffffffffffffffffffffffffffffffffffff16815260200190815260200160002054905081811015611264576040517f08c379a000000000000000000000000000000000000000000000000000000000815260040161125b906127dc565b60405180910390fd5b8181036000808673ffffffffffffffffffffffffffffffffffffffff1673ffffffffffffffffffffffffffffffffffffffff16815260200190815260200160002081905550816000808573ffffffffffffffffffffffffffffffffffffffff1673ffffffffffffffffffffffffffffffffffffffff168152602001908152602001600020600082825401925050819055508273ffffffffffffffffffffffffffffffffffffffff168473ffffffffffffffffffffffffffffffffffffffff167fddf252ad1be2c89b69c2b068fc378daa952ba7f163c4a11628f55a4df523b3ef84604051611352919061200a565b60405180910390a3611365848484611a96565b50505050565b6113758282610a8d565b6114485760016006600084815260200190815260200160002060000160008373ffffffffffffffffffffffffffffffffffffffff1673ffffffffffffffffffffffffffffffffffffffff16815260200190815260200160002060006101000a81548160ff0219169083151502179055506113ed610e94565b73ffffffffffffffffffffffffffffffffffffffff168173ffffffffffffffffffffffffffffffffffffffff16837f2f8788117e7eff1d82e926ec794901d17c78024a50270940304540a733656f0d60405160405180910390a45b5050565b6114568282610a8d565b1561152a5760006006600084815260200190815260200160002060000160008373ffffffffffffffffffffffffffffffffffffffff1673ffffffffffffffffffffffffffffffffffffffff16815260200190815260200160002060006101000a81548160ff0219169083151502179055506114cf610e94565b73ffffffffffffffffffffffffffffffffffffffff168173ffffffffffffffffffffffffffffffffffffffff16837ff6391f5c32d9c69d2a47ea670b442974b53935d1edc7fd64eb21e047a839171b60405160405180910390a45b5050565b600073ffffffffffffffffffffffffffffffffffffffff168273ffffffffffffffffffffffffffffffffffffffff16141561159e576040517f08c379a000000000000000000000000000000000000000000000000000000000815260040161159590612848565b60405180910390fd5b6115aa60008383611985565b80600260008282546115bc9190612338565b92505081905550806000808473ffffffffffffffffffffffffffffffffffffffff1673ffffffffffffffffffffffffffffffffffffffff168152602001908152602001600020600082825401925050819055508173ffffffffffffffffffffffffffffffffffffffff16600073ffffffffffffffffffffffffffffffffffffffff167fddf252ad1be2c89b69c2b068fc378daa952ba7f163c4a11628f55a4df523b3ef8360405161166d919061200a565b60405180910390a361168160008383611a96565b5050565b600073ffffffffffffffffffffffffffffffffffffffff168273ffffffffffffffffffffffffffffffffffffffff1614156116f5576040517f08c379a00000000000000000000000000000000000000000000000000000000081526004016116ec906128da565b60405180910390fd5b61170182600083611985565b60008060008473ffffffffffffffffffffffffffffffffffffffff1673ffffffffffffffffffffffffffffffffffffffff16815260200190815260200160002054905081811015611787576040517f08c379a000000000000000000000000000000000000000000000000000000000815260040161177e9061296c565b60405180910390fd5b8181036000808573ffffffffffffffffffffffffffffffffffffffff1673ffffffffffffffffffffffffffffffffffffffff1681526020019081526020016000208190555081600260008282540392505081905550600073ffffffffffffffffffffffffffffffffffffffff168373ffffffffffffffffffffffffffffffffffffffff167fddf252ad1be2c89b69c2b068fc378daa952ba7f163c4a11628f55a4df523b3ef8460405161183a919061200a565b60405180910390a361184e83600084611a96565b505050565b61185b611a9b565b6000600560006101000a81548160ff0219169083151502179055507f5db9ee0a495bf2e6ff9c91a7834c1ba4fdd244a5e8aa4e537bd38aeae4b073aa61189f610e94565b6040516118ac919061249b565b60405180910390a1565b6118c08282610a8d565b611937576118cd81611ae4565b6118db8360001c6020611b11565b6040516020016118ec929190612a60565b6040516020818303038152906040526040517f08c379a000000000000000000000000000000000000000000000000000000000815260040161192e9190611f05565b60405180910390fd5b5050565b611943610a2e565b15611983576040517f08c379a000000000000000000000000000000000000000000000000000000000815260040161197a90612ae6565b60405180910390fd5b565b61198d61193b565b611995611d4d565b600073ffffffffffffffffffffffffffffffffffffffff168273ffffffffffffffffffffffffffffffffffffffff161415806119da57506008546119d76107ab565b11155b611a19576040517f08c379a0000000000000000000000000000000000000000000000000000000008152600401611a1090612b78565b60405180910390fd5b8173ffffffffffffffffffffffffffffffffffffffff168373ffffffffffffffffffffffffffffffffffffffff167fddf252ad1be2c89b69c2b068fc378daa952ba7f163c4a11628f55a4df523b3ef83604051611a76919061200a565b60405180910390a3611a89838383611d9d565b611a91611da2565b505050565b505050565b611aa3610a2e565b611ae2576040517f08c379a0000000000000000000000000000000000000000000000000000000008152600401611ad990612be4565b60405180910390fd5b565b6060611b0a8273ffffffffffffffffffffffffffffffffffffffff16601460ff16611b11565b9050919050565b606060006002836002611b249190612c04565b611b2e9190612338565b67ffffffffffffffff811115611b4757611b46612c5e565b5b6040519080825280601f01601f191660200182016040528015611b795781602001600182028036833780820191505090505b5090507f300000000000000000000000000000000000000000000000000000000000000081600081518110611bb157611bb0612c8d565b5b60200101907effffffffffffffffffffffffffffffffffffffffffffffffffffffffffffff1916908160001a9053507f780000000000000000000000000000000000000000000000000000000000000081600181518110611c1557611c14612c8d565b5b60200101907effffffffffffffffffffffffffffffffffffffffffffffffffffffffffffff1916908160001a90535060006001846002611c559190612c04565b611c5f9190612338565b90505b6001811115611cff577f3031323334353637383961626364656600000000000000000000000000000000600f861660108110611ca157611ca0612c8d565b5b1a60f81b828281518110611cb857611cb7612c8d565b5b60200101907effffffffffffffffffffffffffffffffffffffffffffffffffffffffffffff1916908160001a905350600485901c945080611cf890612cbc565b9050611c62565b5060008414611d43576040517f08c379a0000000000000000000000000000000000000000000000000000000008152600401611d3a90612d32565b60405180910390fd5b8091505092915050565b60026007541415611d93576040517f08c379a0000000000000000000000000000000000000000000000000000000008152600401611d8a90612d9e565b60405180910390fd5b6002600781905550565b505050565b6001600781905550565b600080fd5b60007fffffffff0000000000000000000000000000000000000000000000000000000082169050919050565b611de681611db1565b8114611df157600080fd5b50565b600081359050611e0381611ddd565b92915050565b600060208284031215611e1f57611e1e611dac565b5b6000611e2d84828501611df4565b91505092915050565b60008115159050919050565b611e4b81611e36565b82525050565b6000602082019050611e666000830184611e42565b92915050565b600081519050919050565b600082825260208201905092915050565b60005b83811015611ea6578082015181840152602081019050611e8b565b83811115611eb5576000848401525b50505050565b6000601f19601f8301169050919050565b6000611ed782611e6c565b611ee18185611e77565b9350611ef1818560208601611e88565b611efa81611ebb565b840191505092915050565b60006020820190508181036000830152611f1f8184611ecc565b905092915050565b600073ffffffffffffffffffffffffffffffffffffffff82169050919050565b6000611f5282611f27565b9050919050565b611f6281611f47565b8114611f6d57600080fd5b50565b600081359050611f7f81611f59565b92915050565b6000819050919050565b611f9881611f85565b8114611fa357600080fd5b50565b600081359050611fb581611f8f565b92915050565b60008060408385031215611fd257611fd1611dac565b5b6000611fe085828601611f70565b9250506020611ff185828601611fa6565b9150509250929050565b61200481611f85565b82525050565b600060208201905061201f6000830184611ffb565b92915050565b60008060006060848603121561203e5761203d611dac565b5b600061204c86828701611f70565b935050602061205d86828701611f70565b925050604061206e86828701611fa6565b9150509250925092565b6000819050919050565b61208b81612078565b811461209657600080fd5b50565b6000813590506120a881612082565b92915050565b6000602082840312156120c4576120c3611dac565b5b60006120d284828501612099565b91505092915050565b6120e481612078565b82525050565b60006020820190506120ff60008301846120db565b92915050565b6000806040838503121561211c5761211b611dac565b5b600061212a85828601612099565b925050602061213b85828601611f70565b9150509250929050565b600060ff82169050919050565b61215b81612145565b82525050565b60006020820190506121766000830184612152565b92915050565b60006020828403121561219257612191611dac565b5b60006121a084828501611fa6565b91505092915050565b6000602082840312156121bf576121be611dac565b5b60006121cd84828501611f70565b91505092915050565b600080604083850312156121ed576121ec611dac565b5b60006121fb85828601611f70565b925050602061220c85828601611f70565b9150509250929050565b7f4e487b7100000000000000000000000000000000000000000000000000000000600052602260045260246000fd5b6000600282049050600182168061225d57607f821691505b6020821081141561227157612270612216565b5b50919050565b7f416363657373436f6e74726f6c3a2063616e206f6e6c792072656e6f756e636560008201527f20726f6c657320666f722073656c660000000000000000000000000000000000602082015250565b60006122d3602f83611e77565b91506122de82612277565b604082019050919050565b60006020820190508181036000830152612302816122c6565b9050919050565b7f4e487b7100000000000000000000000000000000000000000000000000000000600052601160045260246000fd5b600061234382611f85565b915061234e83611f85565b9250827fffffffffffffffffffffffffffffffffffffffffffffffffffffffffffffffff0382111561238357612382612309565b5b828201905092915050565b7f45786365656473206d617820737570706c790000000000000000000000000000600082015250565b60006123c4601283611e77565b91506123cf8261238e565b602082019050919050565b600060208201905081810360008301526123f3816123b7565b9050919050565b7f45524332303a2064656372656173656420616c6c6f77616e63652062656c6f7760008201527f207a65726f000000000000000000000000000000000000000000000000000000602082015250565b6000612456602583611e77565b9150612461826123fa565b604082019050919050565b6000602082019050818103600083015261248581612449565b9050919050565b61249581611f47565b82525050565b60006020820190506124b0600083018461248c565b92915050565b7f45524332303a20617070726f76652066726f6d20746865207a65726f2061646460008201527f7265737300000000000000000000000000000000000000000000000000000000602082015250565b6000612512602483611e77565b915061251d826124b6565b604082019050919050565b6000602082019050818103600083015261254181612505565b9050919050565b7f45524332303a20617070726f766520746f20746865207a65726f20616464726560008201527f7373000000000000000000000000000000000000000000000000000000000000602082015250565b60006125a4602283611e77565b91506125af82612548565b604082019050919050565b600060208201905081810360008301526125d381612597565b9050919050565b7f45524332303a20696e73756666696369656e7420616c6c6f77616e6365000000600082015250565b6000612610601d83611e77565b915061261b826125da565b602082019050919050565b6000602082019050818103600083015261263f81612603565b9050919050565b7f45524332303a207472616e736665722066726f6d20746865207a65726f20616460008201527f6472657373000000000000000000000000000000000000000000000000000000602082015250565b60006126a2602583611e77565b91506126ad82612646565b604082019050919050565b600060208201905081810360008301526126d181612695565b9050919050565b7f45524332303a207472616e7366657220746f20746865207a65726f206164647260008201527f6573730000000000000000000000000000000000000000000000000000000000602082015250565b6000612734602383611e77565b915061273f826126d8565b604082019050919050565b6000602082019050818103600083015261276381612727565b9050919050565b7f45524332303a207472616e7366657220616d6f756e742065786365656473206260008201527f616c616e63650000000000000000000000000000000000000000000000000000602082015250565b60006127c6602683611e77565b91506127d18261276a565b604082019050919050565b600060208201905081810360008301526127f5816127b9565b9050919050565b7f45524332303a206d696e7420746f20746865207a65726f206164647265737300600082015250565b6000612832601f83611e77565b915061283d826127fc565b602082019050919050565b6000602082019050818103600083015261286181612825565b9050919050565b7f45524332303a206275726e2066726f6d20746865207a65726f2061646472657360008201527f7300000000000000000000000000000000000000000000000000000000000000602082015250565b60006128c4602183611e77565b91506128cf82612868565b604082019050919050565b600060208201905081810360008301526128f3816128b7565b9050919050565b7f45524332303a206275726e20616d6f756e7420657863656564732062616c616e60008201527f6365000000000000000000000000000000000000000000000000000000000000602082015250565b6000612956602283611e77565b9150612961826128fa565b604082019050919050565b6000602082019050818103600083015261298581612949565b9050919050565b600081905092915050565b7f416363657373436f6e74726f6c3a206163636f756e7420000000000000000000600082015250565b60006129cd60178361298c565b91506129d882612997565b601782019050919050565b60006129ee82611e6c565b6129f8818561298c565b9350612a08818560208601611e88565b80840191505092915050565b7f206973206d697373696e6720726f6c6520000000000000000000000000000000600082015250565b6000612a4a60118361298c565b9150612a5582612a14565b601182019050919050565b6000612a6b826129c0565b9150612a7782856129e3565b9150612a8282612a3d565b9150612a8e82846129e3565b91508190509392505050565b7f5061757361626c653a2070617573656400000000000000000000000000000000600082015250565b6000612ad0601083611e77565b9150612adb82612a9a565b602082019050919050565b60006020820190508181036000830152612aff81612ac3565b9050919050565b7f43616e6e6f74207472616e7366657220746f207a65726f20616464726573732060008201527f6166746572206d617820737570706c7920726561636865640000000000000000602082015250565b6000612b62603883611e77565b9150612b6d82612b06565b604082019050919050565b60006020820190508181036000830152612b9181612b55565b9050919050565b7f5061757361626c653a206e6f7420706175736564000000000000000000000000600082015250565b6000612bce601483611e77565b9150612bd982612b98565b602082019050919050565b60006020820190508181036000830152612bfd81612bc1565b9050919050565b6000612c0f82611f85565b9150612c1a83611f85565b9250817fffffffffffffffffffffffffffffffffffffffffffffffffffffffffffffffff0483118215151615612c5357612c52612309565b5b828202905092915050565b7f4e487b7100000000000000000000000000000000000000000000000000000000600052604160045260246000fd5b7f4e487b7100000000000000000000000000000000000000000000000000000000600052603260045260246000fd5b6000612cc782611f85565b91506000821415612cdb57612cda612309565b5b600182039050919050565b7f537472696e67733a20686578206c656e67746820696e73756666696369656e74600082015250565b6000612d1c602083611e77565b9150612d2782612ce6565b602082019050919050565b60006020820190508181036000830152612d4b81612d0f565b9050919050565b7f5265656e7472616e637947756172643a207265656e7472616e742063616c6c00600082015250565b6000612d88601f83611e77565b9150612d9382612d52565b602082019050919050565b60006020820190508181036000830152612db781612d7b565b905091905056fea264697066735822122049111b90336a97e922913be82135eaad713729a229460a307f7d8dbe96b8a7ca64736f6c63430008090033",
  "linkReferences": {},
  "deployedLinkReferences": {}
}