{
  "_format": "hh-sol-artifact-1",
  "contractName": "Vat",
  "sourceName": "contracts/protocol/core/vat.sol",
  "abi": [
    {
      "inputs": [],
      "stateMutability": "nonpayable",
      "type": "constructor"
    },
    {
      "inputs": [],
      "name": "Line",
      "outputs": [
        {
          "internalType": "uint256",
          "name": "",
          "type": "uint256"
        }
      ],
      "stateMutability": "view",
      "type": "function"
    },
    {
      "inputs": [],
      "name": "cage",
      "outputs": [],
      "stateMutability": "nonpayable",
      "type": "function"
    },
    {
      "inputs": [
        {
          "internalType": "address",
          "name": "",
          "type": "address"
        },
        {
          "internalType": "address",
          "name": "",
          "type": "address"
        }
      ],
      "name": "can",
      "outputs": [
        {
          "internalType": "uint256",
          "name": "",
          "type": "uint256"
        }
      ],
      "stateMutability": "view",
      "type": "function"
    },
    {
      "inputs": [],
      "name": "debt",
      "outputs": [
        {
          "internalType": "uint256",
          "name": "",
          "type": "uint256"
        }
      ],
      "stateMutability": "view",
      "type": "function"
    },
    {
      "inputs": [
        {
          "internalType": "address",
          "name": "usr",
          "type": "address"
        }
      ],
      "name": "deny",
      "outputs": [],
      "stateMutability": "nonpayable",
      "type": "function"
    },
    {
      "inputs": [
        {
          "internalType": "bytes32",
          "name": "ilk",
          "type": "bytes32"
        },
        {
          "internalType": "bytes32",
          "name": "what",
          "type": "bytes32"
        },
        {
          "internalType": "uint256",
          "name": "data",
          "type": "uint256"
        }
      ],
      "name": "file",
      "outputs": [],
      "stateMutability": "nonpayable",
      "type": "function"
    },
    {
      "inputs": [
        {
          "internalType": "bytes32",
          "name": "what",
          "type": "bytes32"
        },
        {
          "internalType": "uint256",
          "name": "data",
          "type": "uint256"
        }
      ],
      "name": "file",
      "outputs": [],
      "stateMutability": "nonpayable",
      "type": "function"
    },
    {
      "inputs": [
        {
          "internalType": "bytes32",
          "name": "ilk",
          "type": "bytes32"
        },
        {
          "internalType": "address",
          "name": "src",
          "type": "address"
        },
        {
          "internalType": "address",
          "name": "dst",
          "type": "address"
        },
        {
          "internalType": "uint256",
          "name": "wad",
          "type": "uint256"
        }
      ],
      "name": "flux",
      "outputs": [],
      "stateMutability": "nonpayable",
      "type": "function"
    },
    {
      "inputs": [
        {
          "internalType": "bytes32",
          "name": "i",
          "type": "bytes32"
        },
        {
          "internalType": "address",
          "name": "u",
          "type": "address"
        },
        {
          "internalType": "int256",
          "name": "rate",
          "type": "int256"
        }
      ],
      "name": "fold",
      "outputs": [],
      "stateMutability": "nonpayable",
      "type": "function"
    },
    {
      "inputs": [
        {
          "internalType": "bytes32",
          "name": "ilk",
          "type": "bytes32"
        },
        {
          "internalType": "address",
          "name": "src",
          "type": "address"
        },
        {
          "internalType": "address",
          "name": "dst",
          "type": "address"
        },
        {
          "internalType": "int256",
          "name": "dink",
          "type": "int256"
        },
        {
          "internalType": "int256",
          "name": "dart",
          "type": "int256"
        }
      ],
      "name": "fork",
      "outputs": [],
      "stateMutability": "nonpayable",
      "type": "function"
    },
    {
      "inputs": [
        {
          "internalType": "bytes32",
          "name": "i",
          "type": "bytes32"
        },
        {
          "internalType": "address",
          "name": "u",
          "type": "address"
        },
        {
          "internalType": "address",
          "name": "v",
          "type": "address"
        },
        {
          "internalType": "address",
          "name": "w",
          "type": "address"
        },
        {
          "internalType": "int256",
          "name": "dink",
          "type": "int256"
        },
        {
          "internalType": "int256",
          "name": "dart",
          "type": "int256"
        }
      ],
      "name": "frob",
      "outputs": [],
      "stateMutability": "nonpayable",
      "type": "function"
    },
    {
      "inputs": [
        {
          "internalType": "address",
          "name": "",
          "type": "address"
        }
      ],
      "name": "galr",
      "outputs": [
        {
          "internalType": "uint256",
          "name": "",
          "type": "uint256"
        }
      ],
      "stateMutability": "view",
      "type": "function"
    },
    {
      "inputs": [
        {
          "internalType": "bytes32",
          "name": "",
          "type": "bytes32"
        },
        {
          "internalType": "address",
          "name": "",
          "type": "address"
        }
      ],
      "name": "gem",
      "outputs": [
        {
          "internalType": "uint256",
          "name": "",
          "type": "uint256"
        }
      ],
      "stateMutability": "view",
      "type": "function"
    },
    {
      "inputs": [
        {
          "internalType": "bytes32",
          "name": "i",
          "type": "bytes32"
        },
        {
          "internalType": "address",
          "name": "u",
          "type": "address"
        },
        {
          "internalType": "address",
          "name": "v",
          "type": "address"
        },
        {
          "internalType": "address",
          "name": "w",
          "type": "address"
        },
        {
          "internalType": "int256",
          "name": "dink",
          "type": "int256"
        },
        {
          "internalType": "int256",
          "name": "dart",
          "type": "int256"
        }
      ],
      "name": "grab",
      "outputs": [],
      "stateMutability": "nonpayable",
      "type": "function"
    },
    {
      "inputs": [
        {
          "internalType": "uint256",
          "name": "rad",
          "type": "uint256"
        }
      ],
      "name": "heal",
      "outputs": [],
      "stateMutability": "nonpayable",
      "type": "function"
    },
    {
      "inputs": [
        {
          "internalType": "address",
          "name": "usr",
          "type": "address"
        }
      ],
      "name": "hope",
      "outputs": [],
      "stateMutability": "nonpayable",
      "type": "function"
    },
    {
      "inputs": [
        {
          "internalType": "bytes32",
          "name": "",
          "type": "bytes32"
        }
      ],
      "name": "ilks",
      "outputs": [
        {
          "internalType": "uint256",
          "name": "Art",
          "type": "uint256"
        },
        {
          "internalType": "uint256",
          "name": "rate",
          "type": "uint256"
        },
        {
          "internalType": "uint256",
          "name": "spot",
          "type": "uint256"
        },
        {
          "internalType": "uint256",
          "name": "line",
          "type": "uint256"
        },
        {
          "internalType": "uint256",
          "name": "dust",
          "type": "uint256"
        }
      ],
      "stateMutability": "view",
      "type": "function"
    },
    {
      "inputs": [
        {
          "internalType": "bytes32",
          "name": "ilk",
          "type": "bytes32"
        }
      ],
      "name": "init",
      "outputs": [],
      "stateMutability": "nonpayable",
      "type": "function"
    },
    {
      "inputs": [],
      "name": "live",
      "outputs": [
        {
          "internalType": "uint256",
          "name": "",
          "type": "uint256"
        }
      ],
      "stateMutability": "view",
      "type": "function"
    },
    {
      "inputs": [
        {
          "internalType": "address",
          "name": "src",
          "type": "address"
        },
        {
          "internalType": "address",
          "name": "dst",
          "type": "address"
        },
        {
          "internalType": "uint256",
          "name": "rad",
          "type": "uint256"
        }
      ],
      "name": "move",
      "outputs": [],
      "stateMutability": "nonpayable",
      "type": "function"
    },
    {
      "inputs": [
        {
          "internalType": "address",
          "name": "usr",
          "type": "address"
        }
      ],
      "name": "nope",
      "outputs": [],
      "stateMutability": "nonpayable",
      "type": "function"
    },
    {
      "inputs": [
        {
          "internalType": "address",
          "name": "usr",
          "type": "address"
        }
      ],
      "name": "rely",
      "outputs": [],
      "stateMutability": "nonpayable",
      "type": "function"
    },
    {
      "inputs": [
        {
          "internalType": "address",
          "name": "",
          "type": "address"
        }
      ],
      "name": "sin",
      "outputs": [
        {
          "internalType": "uint256",
          "name": "",
          "type": "uint256"
        }
      ],
      "stateMutability": "view",
      "type": "function"
    },
    {
      "inputs": [
        {
          "internalType": "bytes32",
          "name": "ilk",
          "type": "bytes32"
        },
        {
          "internalType": "address",
          "name": "usr",
          "type": "address"
        },
        {
          "internalType": "int256",
          "name": "wad",
          "type": "int256"
        }
      ],
      "name": "slip",
      "outputs": [],
      "stateMutability": "nonpayable",
      "type": "function"
    },
    {
      "inputs": [
        {
          "internalType": "address",
          "name": "u",
          "type": "address"
        },
        {
          "internalType": "address",
          "name": "v",
          "type": "address"
        },
        {
          "internalType": "uint256",
          "name": "rad",
          "type": "uint256"
        }
      ],
      "name": "suck",
      "outputs": [],
      "stateMutability": "nonpayable",
      "type": "function"
    },
    {
      "inputs": [
        {
          "internalType": "bytes32",
          "name": "",
          "type": "bytes32"
        },
        {
          "internalType": "address",
          "name": "",
          "type": "address"
        }
      ],
      "name": "urns",
      "outputs": [
        {
          "internalType": "uint256",
          "name": "ink",
          "type": "uint256"
        },
        {
          "internalType": "uint256",
          "name": "art",
          "type": "uint256"
        }
      ],
      "stateMutability": "view",
      "type": "function"
    },
    {
      "inputs": [],
      "name": "vice",
      "outputs": [
        {
          "internalType": "uint256",
          "name": "",
          "type": "uint256"
        }
      ],
      "stateMutability": "view",
      "type": "function"
    },
    {
      "inputs": [
        {
          "internalType": "address",
          "name": "",
          "type": "address"
        }
      ],
      "name": "wards",
      "outputs": [
        {
          "internalType": "uint256",
          "name": "",
          "type": "uint256"
        }
      ],
      "stateMutability": "view",
      "type": "function"
    }
  ],
  "bytecode": "0x608060405234801561001057600080fd5b5060016000803373ffffffffffffffffffffffffffffffffffffffff1673ffffffffffffffffffffffffffffffffffffffff168152602001908152602001600020819055506001600a8190555061345e8061006c6000396000f3fe608060405234801561001057600080fd5b50600436106101c45760003560e01c8063870c616d116100f9578063bf353dbb11610097578063dc4d20fa11610071578063dc4d20fa146104dc578063f059212a146104f8578063f24e23eb14610528578063f37ac61c14610544576101c4565b8063bf353dbb14610448578063d59c4df014610478578063d9638d36146104a8576101c4565b8063a3b22fc4116100d3578063a3b22fc4146103d6578063b65337df146103f2578063babe8a3f1461040e578063bb35783b1461042c576101c4565b8063870c616d14610380578063957aa58c1461039c5780639c52a7f1146103ba576101c4565b80634538c4eb1161016657806369245009116101405780636924500914610322578063760887031461032c5780637bab3f40146103485780637cdd3fde14610364576101c4565b80634538c4eb146102ba5780636111be2e146102ea57806365fae35e14610306576101c4565b80632424be5c116101a25780632424be5c1461023357806329ae8114146102645780632d61a355146102805780633b6631951461029e576101c4565b80630dca59c1146101c95780631a0b287e146101e7578063214414d514610203575b600080fd5b6101d1610560565b6040516101de9190612522565b60405180910390f35b61020160048036038101906101fc91906125a4565b610566565b005b61021d60048036038101906102189190612655565b610746565b60405161022a9190612522565b60405180910390f35b61024d60048036038101906102489190612655565b61076b565b60405161025b929190612695565b60405180910390f35b61027e600480360381019061027991906126be565b61079c565b005b6102886108d5565b6040516102959190612522565b60405180910390f35b6102b860048036038101906102b391906126fe565b6108db565b005b6102d460048036038101906102cf919061272b565b6109df565b6040516102e19190612522565b60405180910390f35b61030460048036038101906102ff919061276b565b610a04565b005b610320600480360381019061031b91906127d2565b610baf565b005b61032a610cbc565b005b61034660048036038101906103419190612835565b610d47565b005b610362600480360381019061035d9190612835565b61135a565b005b61037e600480360381019061037991906128c2565b6115f1565b005b61039a60048036038101906103959190612915565b611725565b005b6103a4611a25565b6040516103b19190612522565b60405180910390f35b6103d460048036038101906103cf91906127d2565b611a2b565b005b6103f060048036038101906103eb91906127d2565b611b38565b005b61040c600480360381019061040791906128c2565b611bbc565b005b610416611d66565b6040516104239190612522565b60405180910390f35b61044660048036038101906104419190612990565b611d6c565b005b610462600480360381019061045d91906127d2565b611ed2565b60405161046f9190612522565b60405180910390f35b610492600480360381019061048d91906127d2565b611eea565b60405161049f9190612522565b60405180910390f35b6104c260048036038101906104bd91906126fe565b611f02565b6040516104d39594939291906129e3565b60405180910390f35b6104f660048036038101906104f191906127d2565b611f38565b005b610512600480360381019061050d91906127d2565b611fbd565b60405161051f9190612522565b60405180910390f35b610542600480360381019061053d9190612990565b611fd5565b005b61055e60048036038101906105599190612a36565b612197565b005b60075481565b60016000803373ffffffffffffffffffffffffffffffffffffffff1673ffffffffffffffffffffffffffffffffffffffff16815260200190815260200160002054146105e7576040517f08c379a00000000000000000000000000000000000000000000000000000000081526004016105de90612ac0565b60405180910390fd5b6001600a541461062c576040517f08c379a000000000000000000000000000000000000000000000000000000000815260040161062390612b2c565b60405180910390fd5b7f73706f740000000000000000000000000000000000000000000000000000000082141561067457806002600085815260200190815260200160002060020181905550610741565b7f6c696e65000000000000000000000000000000000000000000000000000000008214156106bc57806002600085815260200190815260200160002060030181905550610740565b7f64757374000000000000000000000000000000000000000000000000000000008214156107045780600260008581526020019081526020016000206004018190555061073f565b6040517f08c379a000000000000000000000000000000000000000000000000000000000815260040161073690612b98565b60405180910390fd5b5b5b505050565b6004602052816000526040600020602052806000526040600020600091509150505481565b6003602052816000526040600020602052806000526040600020600091509150508060000154908060010154905082565b60016000803373ffffffffffffffffffffffffffffffffffffffff1673ffffffffffffffffffffffffffffffffffffffff168152602001908152602001600020541461081d576040517f08c379a000000000000000000000000000000000000000000000000000000000815260040161081490612ac0565b60405180910390fd5b6001600a5414610862576040517f08c379a000000000000000000000000000000000000000000000000000000000815260040161085990612b2c565b60405180910390fd5b7f4c696e650000000000000000000000000000000000000000000000000000000082141561089657806009819055506108d1565b6040517f08c379a00000000000000000000000000000000000000000000000000000000081526004016108c890612b98565b60405180910390fd5b5050565b60085481565b60016000803373ffffffffffffffffffffffffffffffffffffffff1673ffffffffffffffffffffffffffffffffffffffff168152602001908152602001600020541461095c576040517f08c379a000000000000000000000000000000000000000000000000000000000815260040161095390612ac0565b60405180910390fd5b60006002600083815260200190815260200160002060010154146109b5576040517f08c379a00000000000000000000000000000000000000000000000000000000081526004016109ac90612c04565b60405180910390fd5b6b033b2e3c9fd0803ce8000000600260008381526020019081526020016000206001018190555050565b6001602052816000526040600020602052806000526040600020600091509150505481565b610a0e83336122dc565b610a4d576040517f08c379a0000000000000000000000000000000000000000000000000000000008152600401610a4490612c70565b60405180910390fd5b610aa76004600086815260200190815260200160002060008573ffffffffffffffffffffffffffffffffffffffff1673ffffffffffffffffffffffffffffffffffffffff168152602001908152602001600020548261239c565b6004600086815260200190815260200160002060008573ffffffffffffffffffffffffffffffffffffffff1673ffffffffffffffffffffffffffffffffffffffff16815260200190815260200160002081905550610b556004600086815260200190815260200160002060008473ffffffffffffffffffffffffffffffffffffffff1673ffffffffffffffffffffffffffffffffffffffff16815260200190815260200160002054826123bf565b6004600086815260200190815260200160002060008473ffffffffffffffffffffffffffffffffffffffff1673ffffffffffffffffffffffffffffffffffffffff1681526020019081526020016000208190555050505050565b60016000803373ffffffffffffffffffffffffffffffffffffffff1673ffffffffffffffffffffffffffffffffffffffff1681526020019081526020016000205414610c30576040517f08c379a0000000000000000000000000000000000000000000000000000000008152600401610c2790612ac0565b60405180910390fd5b6001600a5414610c75576040517f08c379a0000000000000000000000000000000000000000000000000000000008152600401610c6c90612b2c565b60405180910390fd5b60016000808373ffffffffffffffffffffffffffffffffffffffff1673ffffffffffffffffffffffffffffffffffffffff1681526020019081526020016000208190555050565b60016000803373ffffffffffffffffffffffffffffffffffffffff1673ffffffffffffffffffffffffffffffffffffffff1681526020019081526020016000205414610d3d576040517f08c379a0000000000000000000000000000000000000000000000000000000008152600401610d3490612ac0565b60405180910390fd5b6000600a81905550565b6001600a5414610d8c576040517f08c379a0000000000000000000000000000000000000000000000000000000008152600401610d8390612b2c565b60405180910390fd5b60006003600088815260200190815260200160002060008773ffffffffffffffffffffffffffffffffffffffff1673ffffffffffffffffffffffffffffffffffffffff1681526020019081526020016000206040518060400160405290816000820154815260200160018201548152505090506000600260008981526020019081526020016000206040518060a0016040529081600082015481526020016001820154815260200160028201548152602001600382015481526020016004820154815250509050600081602001511415610e9b576040517f08c379a0000000000000000000000000000000000000000000000000000000008152600401610e9290612cdc565b60405180910390fd5b610ea98260000151856123e2565b826000018181525050610ec08260200151846123e2565b826020018181525050610ed78160000151846123e2565b8160000181815250506000610ef082602001518561242a565b90506000610f0683602001518560200151612470565b9050610f14600754836123e2565b600781905550610f506000861315610f4b8560600151610f3c87600001518860200151612470565b111560095460075411156124a7565b6124b4565b610f8f576040517f08c379a0000000000000000000000000000000000000000000000000000000008152600401610f8690612d48565b60405180910390fd5b610fbe610fa4600087131560008912156124a7565b610fb686600001518660400151612470565b8311156124b4565b610ffd576040517f08c379a0000000000000000000000000000000000000000000000000000000008152600401610ff490612db4565b60405180910390fd5b611021611012600087131560008912156124a7565b61101c8b336122dc565b6124b4565b611060576040517f08c379a000000000000000000000000000000000000000000000000000000000815260040161105790612e20565b60405180910390fd5b61107760008713156110728a336122dc565b6124b4565b6110b6576040517f08c379a00000000000000000000000000000000000000000000000000000000081526004016110ad90612e8c565b60405180910390fd5b6110cd60008612156110c889336122dc565b6124b4565b61110c576040517f08c379a000000000000000000000000000000000000000000000000000000000815260040161110390612ef8565b60405180910390fd5b611124600085602001511484608001518310156124b4565b611163576040517f08c379a000000000000000000000000000000000000000000000000000000000815260040161115a90612f64565b60405180910390fd5b6111bd600460008c815260200190815260200160002060008a73ffffffffffffffffffffffffffffffffffffffff1673ffffffffffffffffffffffffffffffffffffffff16815260200190815260200160002054876124c1565b600460008c815260200190815260200160002060008a73ffffffffffffffffffffffffffffffffffffffff1673ffffffffffffffffffffffffffffffffffffffff1681526020019081526020016000208190555061125a600560008973ffffffffffffffffffffffffffffffffffffffff1673ffffffffffffffffffffffffffffffffffffffff16815260200190815260200160002054836123e2565b600560008973ffffffffffffffffffffffffffffffffffffffff1673ffffffffffffffffffffffffffffffffffffffff1681526020019081526020016000208190555083600360008c815260200190815260200160002060008b73ffffffffffffffffffffffffffffffffffffffff1673ffffffffffffffffffffffffffffffffffffffff168152602001908152602001600020600082015181600001556020820151816001015590505082600260008c8152602001908152602001600020600082015181600001556020820151816001015560408201518160020155606082015181600301556080820151816004015590505050505050505050505050565b60016000803373ffffffffffffffffffffffffffffffffffffffff1673ffffffffffffffffffffffffffffffffffffffff16815260200190815260200160002054146113db576040517f08c379a00000000000000000000000000000000000000000000000000000000081526004016113d290612ac0565b60405180910390fd5b60006003600088815260200190815260200160002060008773ffffffffffffffffffffffffffffffffffffffff1673ffffffffffffffffffffffffffffffffffffffff168152602001908152602001600020905060006002600089815260200190815260200160002090506114548260000154856123e2565b826000018190555061146a8260010154846123e2565b82600101819055506114808160000154846123e2565b8160000181905550600061149882600101548561242a565b90506114f4600460008b815260200190815260200160002060008973ffffffffffffffffffffffffffffffffffffffff1673ffffffffffffffffffffffffffffffffffffffff16815260200190815260200160002054866124c1565b600460008b815260200190815260200160002060008973ffffffffffffffffffffffffffffffffffffffff1673ffffffffffffffffffffffffffffffffffffffff16815260200190815260200160002081905550611591600660008873ffffffffffffffffffffffffffffffffffffffff1673ffffffffffffffffffffffffffffffffffffffff16815260200190815260200160002054826124c1565b600660008873ffffffffffffffffffffffffffffffffffffffff1673ffffffffffffffffffffffffffffffffffffffff168152602001908152602001600020819055506115e0600854826124c1565b600881905550505050505050505050565b60016000803373ffffffffffffffffffffffffffffffffffffffff1673ffffffffffffffffffffffffffffffffffffffff1681526020019081526020016000205414611672576040517f08c379a000000000000000000000000000000000000000000000000000000000815260040161166990612ac0565b60405180910390fd5b6116cc6004600085815260200190815260200160002060008473ffffffffffffffffffffffffffffffffffffffff1673ffffffffffffffffffffffffffffffffffffffff16815260200190815260200160002054826123e2565b6004600085815260200190815260200160002060008473ffffffffffffffffffffffffffffffffffffffff1673ffffffffffffffffffffffffffffffffffffffff16815260200190815260200160002081905550505050565b60006003600087815260200190815260200160002060008673ffffffffffffffffffffffffffffffffffffffff1673ffffffffffffffffffffffffffffffffffffffff168152602001908152602001600020905060006003600088815260200190815260200160002060008673ffffffffffffffffffffffffffffffffffffffff1673ffffffffffffffffffffffffffffffffffffffff168152602001908152602001600020905060006002600089815260200190815260200160002090506117f28360000154866124c1565b83600001819055506118088360010154856124c1565b836001018190555061181e8260000154866123e2565b82600001819055506118348260010154856123e2565b8260010181905550600061185084600101548360010154612470565b9050600061186684600101548460010154612470565b90506118846118758a336122dc565b61187f8a336122dc565b6124a7565b6118c3576040517f08c379a00000000000000000000000000000000000000000000000000000000081526004016118ba90612c70565b60405180910390fd5b6118d585600001548460020154612470565b821115611917576040517f08c379a000000000000000000000000000000000000000000000000000000000815260040161190e90612fd0565b60405180910390fd5b61192984600001548460020154612470565b81111561196b576040517f08c379a00000000000000000000000000000000000000000000000000000000081526004016119629061303c565b60405180910390fd5b611983836004015483101560008760010154146124b4565b6119c2576040517f08c379a00000000000000000000000000000000000000000000000000000000081526004016119b9906130a8565b60405180910390fd5b6119da836004015482101560008660010154146124b4565b611a19576040517f08c379a0000000000000000000000000000000000000000000000000000000008152600401611a1090613114565b60405180910390fd5b50505050505050505050565b600a5481565b60016000803373ffffffffffffffffffffffffffffffffffffffff1673ffffffffffffffffffffffffffffffffffffffff1681526020019081526020016000205414611aac576040517f08c379a0000000000000000000000000000000000000000000000000000000008152600401611aa390612ac0565b60405180910390fd5b6001600a5414611af1576040517f08c379a0000000000000000000000000000000000000000000000000000000008152600401611ae890612b2c565b60405180910390fd5b60008060008373ffffffffffffffffffffffffffffffffffffffff1673ffffffffffffffffffffffffffffffffffffffff1681526020019081526020016000208190555050565b60018060003373ffffffffffffffffffffffffffffffffffffffff1673ffffffffffffffffffffffffffffffffffffffff16815260200190815260200160002060008373ffffffffffffffffffffffffffffffffffffffff1673ffffffffffffffffffffffffffffffffffffffff1681526020019081526020016000208190555050565b60016000803373ffffffffffffffffffffffffffffffffffffffff1673ffffffffffffffffffffffffffffffffffffffff1681526020019081526020016000205414611c3d576040517f08c379a0000000000000000000000000000000000000000000000000000000008152600401611c3490612ac0565b60405180910390fd5b6001600a5414611c82576040517f08c379a0000000000000000000000000000000000000000000000000000000008152600401611c7990612b2c565b60405180910390fd5b6000600260008581526020019081526020016000209050611ca78160010154836123e2565b81600101819055506000611cbf82600001548461242a565b9050611d0a600560008673ffffffffffffffffffffffffffffffffffffffff1673ffffffffffffffffffffffffffffffffffffffff16815260200190815260200160002054826123e2565b600560008673ffffffffffffffffffffffffffffffffffffffff1673ffffffffffffffffffffffffffffffffffffffff16815260200190815260200160002081905550611d59600754826123e2565b6007819055505050505050565b60095481565b611d7683336122dc565b611db5576040517f08c379a0000000000000000000000000000000000000000000000000000000008152600401611dac90612c70565b60405180910390fd5b611dfe600560008573ffffffffffffffffffffffffffffffffffffffff1673ffffffffffffffffffffffffffffffffffffffff168152602001908152602001600020548261239c565b600560008573ffffffffffffffffffffffffffffffffffffffff1673ffffffffffffffffffffffffffffffffffffffff16815260200190815260200160002081905550611e8a600560008473ffffffffffffffffffffffffffffffffffffffff1673ffffffffffffffffffffffffffffffffffffffff16815260200190815260200160002054826123bf565b600560008473ffffffffffffffffffffffffffffffffffffffff1673ffffffffffffffffffffffffffffffffffffffff16815260200190815260200160002081905550505050565b60006020528060005260406000206000915090505481565b60056020528060005260406000206000915090505481565b60026020528060005260406000206000915090508060000154908060010154908060020154908060030154908060040154905085565b6000600160003373ffffffffffffffffffffffffffffffffffffffff1673ffffffffffffffffffffffffffffffffffffffff16815260200190815260200160002060008373ffffffffffffffffffffffffffffffffffffffff1673ffffffffffffffffffffffffffffffffffffffff1681526020019081526020016000208190555050565b60066020528060005260406000206000915090505481565b60016000803373ffffffffffffffffffffffffffffffffffffffff1673ffffffffffffffffffffffffffffffffffffffff1681526020019081526020016000205414612056576040517f08c379a000000000000000000000000000000000000000000000000000000000815260040161204d90612ac0565b60405180910390fd5b61209f600660008573ffffffffffffffffffffffffffffffffffffffff1673ffffffffffffffffffffffffffffffffffffffff16815260200190815260200160002054826123bf565b600660008573ffffffffffffffffffffffffffffffffffffffff1673ffffffffffffffffffffffffffffffffffffffff1681526020019081526020016000208190555061212b600560008473ffffffffffffffffffffffffffffffffffffffff1673ffffffffffffffffffffffffffffffffffffffff16815260200190815260200160002054826123bf565b600560008473ffffffffffffffffffffffffffffffffffffffff1673ffffffffffffffffffffffffffffffffffffffff1681526020019081526020016000208190555061217a600854826123bf565b60088190555061218c600754826123bf565b600781905550505050565b60003390506121e5600660008373ffffffffffffffffffffffffffffffffffffffff1673ffffffffffffffffffffffffffffffffffffffff168152602001908152602001600020548361239c565b600660008373ffffffffffffffffffffffffffffffffffffffff1673ffffffffffffffffffffffffffffffffffffffff16815260200190815260200160002081905550612271600560008373ffffffffffffffffffffffffffffffffffffffff1673ffffffffffffffffffffffffffffffffffffffff168152602001908152602001600020548361239c565b600560008373ffffffffffffffffffffffffffffffffffffffff1673ffffffffffffffffffffffffffffffffffffffff168152602001908152602001600020819055506122c06008548361239c565b6008819055506122d26007548361239c565b6007819055505050565b60006123948273ffffffffffffffffffffffffffffffffffffffff168473ffffffffffffffffffffffffffffffffffffffff161460018060008773ffffffffffffffffffffffffffffffffffffffff1673ffffffffffffffffffffffffffffffffffffffff16815260200190815260200160002060008673ffffffffffffffffffffffffffffffffffffffff1673ffffffffffffffffffffffffffffffffffffffff16815260200190815260200160002054146124b4565b905092915050565b60008282846123ab9190613163565b91508111156123b957600080fd5b92915050565b60008282846123ce9190613197565b91508110156123dc57600080fd5b92915050565b600081836123f09190613197565b90506000821215806124025750828111155b61240b57600080fd5b60008213158061241b5750828110155b61242457600080fd5b92915050565b6000818361243891906131ed565b9050600083121561244857600080fd5b6000821480612461575082828261245f9190613333565b145b61246a57600080fd5b92915050565b600080821480612498575082828385612489919061339d565b92508261249691906133f7565b145b6124a157600080fd5b92915050565b6000818316905092915050565b6000818317905092915050565b600081836124cf9190613163565b90506000821315806124e15750828111155b6124ea57600080fd5b6000821215806124fa5750828110155b61250357600080fd5b92915050565b6000819050919050565b61251c81612509565b82525050565b60006020820190506125376000830184612513565b92915050565b600080fd5b6000819050919050565b61255581612542565b811461256057600080fd5b50565b6000813590506125728161254c565b92915050565b61258181612509565b811461258c57600080fd5b50565b60008135905061259e81612578565b92915050565b6000806000606084860312156125bd576125bc61253d565b5b60006125cb86828701612563565b93505060206125dc86828701612563565b92505060406125ed8682870161258f565b9150509250925092565b600073ffffffffffffffffffffffffffffffffffffffff82169050919050565b6000612622826125f7565b9050919050565b61263281612617565b811461263d57600080fd5b50565b60008135905061264f81612629565b92915050565b6000806040838503121561266c5761266b61253d565b5b600061267a85828601612563565b925050602061268b85828601612640565b9150509250929050565b60006040820190506126aa6000830185612513565b6126b76020830184612513565b9392505050565b600080604083850312156126d5576126d461253d565b5b60006126e385828601612563565b92505060206126f48582860161258f565b9150509250929050565b6000602082840312156127145761271361253d565b5b600061272284828501612563565b91505092915050565b600080604083850312156127425761274161253d565b5b600061275085828601612640565b925050602061276185828601612640565b9150509250929050565b600080600080608085870312156127855761278461253d565b5b600061279387828801612563565b94505060206127a487828801612640565b93505060406127b587828801612640565b92505060606127c68782880161258f565b91505092959194509250565b6000602082840312156127e8576127e761253d565b5b60006127f684828501612640565b91505092915050565b6000819050919050565b612812816127ff565b811461281d57600080fd5b50565b60008135905061282f81612809565b92915050565b60008060008060008060c087890312156128525761285161253d565b5b600061286089828a01612563565b965050602061287189828a01612640565b955050604061288289828a01612640565b945050606061289389828a01612640565b93505060806128a489828a01612820565b92505060a06128b589828a01612820565b9150509295509295509295565b6000806000606084860312156128db576128da61253d565b5b60006128e986828701612563565b93505060206128fa86828701612640565b925050604061290b86828701612820565b9150509250925092565b600080600080600060a086880312156129315761293061253d565b5b600061293f88828901612563565b955050602061295088828901612640565b945050604061296188828901612640565b935050606061297288828901612820565b925050608061298388828901612820565b9150509295509295909350565b6000806000606084860312156129a9576129a861253d565b5b60006129b786828701612640565b93505060206129c886828701612640565b92505060406129d98682870161258f565b9150509250925092565b600060a0820190506129f86000830188612513565b612a056020830187612513565b612a126040830186612513565b612a1f6060830185612513565b612a2c6080830184612513565b9695505050505050565b600060208284031215612a4c57612a4b61253d565b5b6000612a5a8482850161258f565b91505092915050565b600082825260208201905092915050565b7f5661742f6e6f742d617574686f72697a65640000000000000000000000000000600082015250565b6000612aaa601283612a63565b9150612ab582612a74565b602082019050919050565b60006020820190508181036000830152612ad981612a9d565b9050919050565b7f5661742f6e6f742d6c6976650000000000000000000000000000000000000000600082015250565b6000612b16600c83612a63565b9150612b2182612ae0565b602082019050919050565b60006020820190508181036000830152612b4581612b09565b9050919050565b7f5661742f66696c652d756e7265636f676e697a65642d706172616d0000000000600082015250565b6000612b82601b83612a63565b9150612b8d82612b4c565b602082019050919050565b60006020820190508181036000830152612bb181612b75565b9050919050565b7f5661742f696c6b2d616c72656164792d696e6974000000000000000000000000600082015250565b6000612bee601483612a63565b9150612bf982612bb8565b602082019050919050565b60006020820190508181036000830152612c1d81612be1565b9050919050565b7f5661742f6e6f742d616c6c6f7765640000000000000000000000000000000000600082015250565b6000612c5a600f83612a63565b9150612c6582612c24565b602082019050919050565b60006020820190508181036000830152612c8981612c4d565b9050919050565b7f5661742f696c6b2d6e6f742d696e697400000000000000000000000000000000600082015250565b6000612cc6601083612a63565b9150612cd182612c90565b602082019050919050565b60006020820190508181036000830152612cf581612cb9565b9050919050565b7f5661742f6365696c696e672d6578636565646564000000000000000000000000600082015250565b6000612d32601483612a63565b9150612d3d82612cfc565b602082019050919050565b60006020820190508181036000830152612d6181612d25565b9050919050565b7f5661742f6e6f742d736166650000000000000000000000000000000000000000600082015250565b6000612d9e600c83612a63565b9150612da982612d68565b602082019050919050565b60006020820190508181036000830152612dcd81612d91565b9050919050565b7f5661742f6e6f742d616c6c6f7765642d75000000000000000000000000000000600082015250565b6000612e0a601183612a63565b9150612e1582612dd4565b602082019050919050565b60006020820190508181036000830152612e3981612dfd565b9050919050565b7f5661742f6e6f742d616c6c6f7765642d76000000000000000000000000000000600082015250565b6000612e76601183612a63565b9150612e8182612e40565b602082019050919050565b60006020820190508181036000830152612ea581612e69565b9050919050565b7f5661742f6e6f742d616c6c6f7765642d77000000000000000000000000000000600082015250565b6000612ee2601183612a63565b9150612eed82612eac565b602082019050919050565b60006020820190508181036000830152612f1181612ed5565b9050919050565b7f5661742f64757374000000000000000000000000000000000000000000000000600082015250565b6000612f4e600883612a63565b9150612f5982612f18565b602082019050919050565b60006020820190508181036000830152612f7d81612f41565b9050919050565b7f5661742f6e6f742d736166652d73726300000000000000000000000000000000600082015250565b6000612fba601083612a63565b9150612fc582612f84565b602082019050919050565b60006020820190508181036000830152612fe981612fad565b9050919050565b7f5661742f6e6f742d736166652d64737400000000000000000000000000000000600082015250565b6000613026601083612a63565b915061303182612ff0565b602082019050919050565b6000602082019050818103600083015261305581613019565b9050919050565b7f5661742f647573742d7372630000000000000000000000000000000000000000600082015250565b6000613092600c83612a63565b915061309d8261305c565b602082019050919050565b600060208201905081810360008301526130c181613085565b9050919050565b7f5661742f647573742d6473740000000000000000000000000000000000000000600082015250565b60006130fe600c83612a63565b9150613109826130c8565b602082019050919050565b6000602082019050818103600083015261312d816130f1565b9050919050565b7f4e487b7100000000000000000000000000000000000000000000000000000000600052601160045260246000fd5b600061316e82612509565b915061317983612509565b92508282101561318c5761318b613134565b5b828203905092915050565b60006131a282612509565b91506131ad83612509565b9250827fffffffffffffffffffffffffffffffffffffffffffffffffffffffffffffffff038211156131e2576131e1613134565b5b828201905092915050565b60006131f8826127ff565b9150613203836127ff565b9250827f7fffffffffffffffffffffffffffffffffffffffffffffffffffffffffffffff048211600084136000841316161561324257613241613134565b5b817f8000000000000000000000000000000000000000000000000000000000000000058312600084126000841316161561327f5761327e613134565b5b827f800000000000000000000000000000000000000000000000000000000000000005821260008413600084121616156132bc576132bb613134565b5b827f7fffffffffffffffffffffffffffffffffffffffffffffffffffffffffffffff05821260008412600084121616156132f9576132f8613134565b5b828202905092915050565b7f4e487b7100000000000000000000000000000000000000000000000000000000600052601260045260246000fd5b600061333e826127ff565b9150613349836127ff565b92508261335957613358613304565b5b600160000383147f80000000000000000000000000000000000000000000000000000000000000008314161561339257613391613134565b5b828205905092915050565b60006133a882612509565b91506133b383612509565b9250817fffffffffffffffffffffffffffffffffffffffffffffffffffffffffffffffff04831182151516156133ec576133eb613134565b5b828202905092915050565b600061340282612509565b915061340d83612509565b92508261341d5761341c613304565b5b82820490509291505056fea264697066735822122085d010007da73309988cbb00792b64170857096a2347ca8b645f3241c9e405c064736f6c63430008090033",
  "linkReferences": {},
  "deployedLinkReferences": {}
}