{
  "_format": "hh-sol-artifact-1",
  "contractName": "Clipper",
  "sourceName": "contracts/protocol/collateral/clip.sol",
  "abi": [
    {
      "inputs": [
        {
          "internalType": "address",
          "name": "vat_",
          "type": "address"
        },
        {
          "internalType": "address",
          "name": "spotter_",
          "type": "address"
        },
        {
          "internalType": "address",
          "name": "dog_",
          "type": "address"
        },
        {
          "internalType": "bytes32",
          "name": "ilk_",
          "type": "bytes32"
        }
      ],
      "stateMutability": "nonpayable",
      "type": "constructor"
    },
    {
      "anonymous": false,
      "inputs": [
        {
          "indexed": true,
          "internalType": "address",
          "name": "usr",
          "type": "address"
        }
      ],
      "name": "Deny",
      "type": "event"
    },
    {
      "anonymous": false,
      "inputs": [
        {
          "indexed": true,
          "internalType": "bytes32",
          "name": "what",
          "type": "bytes32"
        },
        {
          "indexed": false,
          "internalType": "uint256",
          "name": "data",
          "type": "uint256"
        }
      ],
      "name": "File",
      "type": "event"
    },
    {
      "anonymous": false,
      "inputs": [
        {
          "indexed": true,
          "internalType": "bytes32",
          "name": "what",
          "type": "bytes32"
        },
        {
          "indexed": false,
          "internalType": "address",
          "name": "data",
          "type": "address"
        }
      ],
      "name": "File",
      "type": "event"
    },
    {
      "anonymous": false,
      "inputs": [
        {
          "indexed": true,
          "internalType": "uint256",
          "name": "id",
          "type": "uint256"
        },
        {
          "indexed": false,
          "internalType": "uint256",
          "name": "top",
          "type": "uint256"
        },
        {
          "indexed": false,
          "internalType": "uint256",
          "name": "tab",
          "type": "uint256"
        },
        {
          "indexed": false,
          "internalType": "uint256",
          "name": "lot",
          "type": "uint256"
        },
        {
          "indexed": true,
          "internalType": "address",
          "name": "usr",
          "type": "address"
        },
        {
          "indexed": true,
          "internalType": "address",
          "name": "kpr",
          "type": "address"
        },
        {
          "indexed": false,
          "internalType": "uint256",
          "name": "coin",
          "type": "uint256"
        }
      ],
      "name": "Kick",
      "type": "event"
    },
    {
      "anonymous": false,
      "inputs": [
        {
          "indexed": true,
          "internalType": "uint256",
          "name": "id",
          "type": "uint256"
        },
        {
          "indexed": false,
          "internalType": "uint256",
          "name": "top",
          "type": "uint256"
        },
        {
          "indexed": false,
          "internalType": "uint256",
          "name": "tab",
          "type": "uint256"
        },
        {
          "indexed": false,
          "internalType": "uint256",
          "name": "lot",
          "type": "uint256"
        },
        {
          "indexed": true,
          "internalType": "address",
          "name": "usr",
          "type": "address"
        },
        {
          "indexed": true,
          "internalType": "address",
          "name": "kpr",
          "type": "address"
        },
        {
          "indexed": false,
          "internalType": "uint256",
          "name": "coin",
          "type": "uint256"
        }
      ],
      "name": "Redo",
      "type": "event"
    },
    {
      "anonymous": false,
      "inputs": [
        {
          "indexed": true,
          "internalType": "address",
          "name": "usr",
          "type": "address"
        }
      ],
      "name": "Rely",
      "type": "event"
    },
    {
      "anonymous": false,
      "inputs": [
        {
          "indexed": true,
          "internalType": "uint256",
          "name": "id",
          "type": "uint256"
        },
        {
          "indexed": false,
          "internalType": "uint256",
          "name": "max",
          "type": "uint256"
        },
        {
          "indexed": false,
          "internalType": "uint256",
          "name": "price",
          "type": "uint256"
        },
        {
          "indexed": false,
          "internalType": "uint256",
          "name": "owe",
          "type": "uint256"
        },
        {
          "indexed": false,
          "internalType": "uint256",
          "name": "tab",
          "type": "uint256"
        },
        {
          "indexed": false,
          "internalType": "uint256",
          "name": "lot",
          "type": "uint256"
        },
        {
          "indexed": true,
          "internalType": "address",
          "name": "usr",
          "type": "address"
        }
      ],
      "name": "Take",
      "type": "event"
    },
    {
      "anonymous": false,
      "inputs": [
        {
          "indexed": false,
          "internalType": "uint256",
          "name": "id",
          "type": "uint256"
        }
      ],
      "name": "Yank",
      "type": "event"
    },
    {
      "inputs": [
        {
          "internalType": "uint256",
          "name": "",
          "type": "uint256"
        }
      ],
      "name": "active",
      "outputs": [
        {
          "internalType": "uint256",
          "name": "",
          "type": "uint256"
        }
      ],
      "stateMutability": "view",
      "type": "function"
    },
    {
      "inputs": [],
      "name": "buf",
      "outputs": [
        {
          "internalType": "uint256",
          "name": "",
          "type": "uint256"
        }
      ],
      "stateMutability": "view",
      "type": "function"
    },
    {
      "inputs": [],
      "name": "calc",
      "outputs": [
        {
          "internalType": "contract AbacusLike",
          "name": "",
          "type": "address"
        }
      ],
      "stateMutability": "view",
      "type": "function"
    },
    {
      "inputs": [],
      "name": "chip",
      "outputs": [
        {
          "internalType": "uint64",
          "name": "",
          "type": "uint64"
        }
      ],
      "stateMutability": "view",
      "type": "function"
    },
    {
      "inputs": [],
      "name": "chost",
      "outputs": [
        {
          "internalType": "uint256",
          "name": "",
          "type": "uint256"
        }
      ],
      "stateMutability": "view",
      "type": "function"
    },
    {
      "inputs": [],
      "name": "count",
      "outputs": [
        {
          "internalType": "uint256",
          "name": "",
          "type": "uint256"
        }
      ],
      "stateMutability": "view",
      "type": "function"
    },
    {
      "inputs": [],
      "name": "cusp",
      "outputs": [
        {
          "internalType": "uint256",
          "name": "",
          "type": "uint256"
        }
      ],
      "stateMutability": "view",
      "type": "function"
    },
    {
      "inputs": [
        {
          "internalType": "address",
          "name": "usr",
          "type": "address"
        }
      ],
      "name": "deny",
      "outputs": [],
      "stateMutability": "nonpayable",
      "type": "function"
    },
    {
      "inputs": [],
      "name": "dog",
      "outputs": [
        {
          "internalType": "contract DogLike",
          "name": "",
          "type": "address"
        }
      ],
      "stateMutability": "view",
      "type": "function"
    },
    {
      "inputs": [
        {
          "internalType": "bytes32",
          "name": "what",
          "type": "bytes32"
        },
        {
          "internalType": "uint256",
          "name": "data",
          "type": "uint256"
        }
      ],
      "name": "file",
      "outputs": [],
      "stateMutability": "nonpayable",
      "type": "function"
    },
    {
      "inputs": [
        {
          "internalType": "bytes32",
          "name": "what",
          "type": "bytes32"
        },
        {
          "internalType": "address",
          "name": "data",
          "type": "address"
        }
      ],
      "name": "file",
      "outputs": [],
      "stateMutability": "nonpayable",
      "type": "function"
    },
    {
      "inputs": [
        {
          "internalType": "uint256",
          "name": "id",
          "type": "uint256"
        }
      ],
      "name": "getStatus",
      "outputs": [
        {
          "internalType": "bool",
          "name": "needsRedo",
          "type": "bool"
        },
        {
          "internalType": "uint256",
          "name": "price",
          "type": "uint256"
        },
        {
          "internalType": "uint256",
          "name": "lot",
          "type": "uint256"
        },
        {
          "internalType": "uint256",
          "name": "tab",
          "type": "uint256"
        }
      ],
      "stateMutability": "view",
      "type": "function"
    },
    {
      "inputs": [],
      "name": "ilk",
      "outputs": [
        {
          "internalType": "bytes32",
          "name": "",
          "type": "bytes32"
        }
      ],
      "stateMutability": "view",
      "type": "function"
    },
    {
      "inputs": [
        {
          "internalType": "uint256",
          "name": "tab",
          "type": "uint256"
        },
        {
          "internalType": "uint256",
          "name": "lot",
          "type": "uint256"
        },
        {
          "internalType": "address",
          "name": "usr",
          "type": "address"
        },
        {
          "internalType": "address",
          "name": "kpr",
          "type": "address"
        }
      ],
      "name": "kick",
      "outputs": [
        {
          "internalType": "uint256",
          "name": "id",
          "type": "uint256"
        }
      ],
      "stateMutability": "nonpayable",
      "type": "function"
    },
    {
      "inputs": [],
      "name": "kicks",
      "outputs": [
        {
          "internalType": "uint256",
          "name": "",
          "type": "uint256"
        }
      ],
      "stateMutability": "view",
      "type": "function"
    },
    {
      "inputs": [],
      "name": "list",
      "outputs": [
        {
          "internalType": "uint256[]",
          "name": "",
          "type": "uint256[]"
        }
      ],
      "stateMutability": "view",
      "type": "function"
    },
    {
      "inputs": [
        {
          "internalType": "uint256",
          "name": "id",
          "type": "uint256"
        },
        {
          "internalType": "address",
          "name": "kpr",
          "type": "address"
        }
      ],
      "name": "redo",
      "outputs": [],
      "stateMutability": "nonpayable",
      "type": "function"
    },
    {
      "inputs": [
        {
          "internalType": "address",
          "name": "usr",
          "type": "address"
        }
      ],
      "name": "rely",
      "outputs": [],
      "stateMutability": "nonpayable",
      "type": "function"
    },
    {
      "inputs": [
        {
          "internalType": "uint256",
          "name": "",
          "type": "uint256"
        }
      ],
      "name": "sales",
      "outputs": [
        {
          "internalType": "uint256",
          "name": "pos",
          "type": "uint256"
        },
        {
          "internalType": "uint256",
          "name": "tab",
          "type": "uint256"
        },
        {
          "internalType": "uint256",
          "name": "lot",
          "type": "uint256"
        },
        {
          "internalType": "address",
          "name": "usr",
          "type": "address"
        },
        {
          "internalType": "uint96",
          "name": "tic",
          "type": "uint96"
        },
        {
          "internalType": "uint256",
          "name": "top",
          "type": "uint256"
        }
      ],
      "stateMutability": "view",
      "type": "function"
    },
    {
      "inputs": [],
      "name": "spotter",
      "outputs": [
        {
          "internalType": "contract SpotterLike",
          "name": "",
          "type": "address"
        }
      ],
      "stateMutability": "view",
      "type": "function"
    },
    {
      "inputs": [],
      "name": "stopped",
      "outputs": [
        {
          "internalType": "uint256",
          "name": "",
          "type": "uint256"
        }
      ],
      "stateMutability": "view",
      "type": "function"
    },
    {
      "inputs": [],
      "name": "tail",
      "outputs": [
        {
          "internalType": "uint256",
          "name": "",
          "type": "uint256"
        }
      ],
      "stateMutability": "view",
      "type": "function"
    },
    {
      "inputs": [
        {
          "internalType": "uint256",
          "name": "id",
          "type": "uint256"
        },
        {
          "internalType": "uint256",
          "name": "amt",
          "type": "uint256"
        },
        {
          "internalType": "uint256",
          "name": "max",
          "type": "uint256"
        },
        {
          "internalType": "address",
          "name": "who",
          "type": "address"
        },
        {
          "internalType": "bytes",
          "name": "data",
          "type": "bytes"
        }
      ],
      "name": "take",
      "outputs": [],
      "stateMutability": "nonpayable",
      "type": "function"
    },
    {
      "inputs": [],
      "name": "tip",
      "outputs": [
        {
          "internalType": "uint192",
          "name": "",
          "type": "uint192"
        }
      ],
      "stateMutability": "view",
      "type": "function"
    },
    {
      "inputs": [],
      "name": "upchost",
      "outputs": [],
      "stateMutability": "nonpayable",
      "type": "function"
    },
    {
      "inputs": [],
      "name": "vat",
      "outputs": [
        {
          "internalType": "contract VatLike",
          "name": "",
          "type": "address"
        }
      ],
      "stateMutability": "view",
      "type": "function"
    },
    {
      "inputs": [],
      "name": "vow",
      "outputs": [
        {
          "internalType": "address",
          "name": "",
          "type": "address"
        }
      ],
      "stateMutability": "view",
      "type": "function"
    },
    {
      "inputs": [
        {
          "internalType": "address",
          "name": "",
          "type": "address"
        }
      ],
      "name": "wards",
      "outputs": [
        {
          "internalType": "uint256",
          "name": "",
          "type": "uint256"
        }
      ],
      "stateMutability": "view",
      "type": "function"
    },
    {
      "inputs": [
        {
          "internalType": "uint256",
          "name": "id",
          "type": "uint256"
        }
      ],
      "name": "yank",
      "outputs": [],
      "stateMutability": "nonpayable",
      "type": "function"
    }
  ],
  "bytecode": "0x60c06040526000600e553480156200001657600080fd5b50604051620045483803806200454883398181016040528101906200003c919062000243565b8373ffffffffffffffffffffffffffffffffffffffff1660a08173ffffffffffffffffffffffffffffffffffffffff168152505082600360006101000a81548173ffffffffffffffffffffffffffffffffffffffff021916908373ffffffffffffffffffffffffffffffffffffffff16021790555081600160006101000a81548173ffffffffffffffffffffffffffffffffffffffff021916908373ffffffffffffffffffffffffffffffffffffffff16021790555080608081815250506b033b2e3c9fd0803ce800000060058190555060016000803373ffffffffffffffffffffffffffffffffffffffff1673ffffffffffffffffffffffffffffffffffffffff168152602001908152602001600020819055503373ffffffffffffffffffffffffffffffffffffffff167fdd0e34038ac38b2a1ce960229778ac48a8719bc900b6c4f8d0475c6e8b385a6060405160405180910390a250505050620002b5565b600080fd5b600073ffffffffffffffffffffffffffffffffffffffff82169050919050565b6000620001d082620001a3565b9050919050565b620001e281620001c3565b8114620001ee57600080fd5b50565b6000815190506200020281620001d7565b92915050565b6000819050919050565b6200021d8162000208565b81146200022957600080fd5b50565b6000815190506200023d8162000212565b92915050565b6000806000806080858703121562000260576200025f6200019e565b5b60006200027087828801620001f1565b94505060206200028387828801620001f1565b93505060406200029687828801620001f1565b9250506060620002a9878288016200022c565b91505092959194509250565b60805160a0516141fd6200034b6000396000818161058b015281816109d801528181610e25015281816113fb015281816114e1015281816115e30152818161175d01528181611d5401526127410152600081816105c70152818161069e0152818161095101528181610a1401528181611437015281816116b0015281816117990152818161208a0152612b7201526141fd6000f3fe608060405234801561001057600080fd5b50600436106101cf5760003560e01c806375f12b2111610104578063b61500e4116100a2578063c5ce281e11610071578063c5ce281e14610506578063cfdd330214610524578063d4e8be8314610542578063d843416d1461055e576101cf565b8063b61500e41461047c578063ba2cdc751461049a578063bf353dbb146104b8578063c3b3ad7f146104e8576101cf565b8063898eb267116100de578063898eb267146103dd57806396f1b6be1461040d5780639c52a7f11461042b578063b5f522f714610447576101cf565b806375f12b21146103735780638033d5811461039157806381a794cb146103c1576101cf565b806329ae81141161017157806349ed59311161014b57806349ed5931146102e85780635c622a0e14610306578063626cb3c51461033957806365fae35e14610357576101cf565b806329ae8114146102905780632e77468d146102ac57806336569e77146102ca576101cf565b806313d8c840116101ad57806313d8c8401461021a578063152325151461023857806326e027f1146102565780632755cd2d14610272576101cf565b806306661abd146101d45780630cbb5862146101f25780630f560cd7146101fc575b600080fd5b6101dc61057a565b6040516101e99190612e3f565b60405180910390f35b6101fa610587565b005b610204610739565b6040516102119190612f18565b60405180910390f35b610222610791565b60405161022f9190612e3f565b60405180910390f35b610240610797565b60405161024d9190612e3f565b60405180910390f35b610270600480360381019061026b9190612f70565b61079d565b005b61027a610ae8565b6040516102879190612fd0565b60405180910390f35b6102aa60048036038101906102a59190613021565b610b10565b005b6102b4610dfd565b6040516102c191906130e0565b60405180910390f35b6102d2610e23565b6040516102df919061311c565b60405180910390f35b6102f0610e47565b6040516102fd9190612e3f565b60405180910390f35b610320600480360381019061031b9190612f70565b610e4d565b6040516103309493929190613152565b60405180910390f35b610341610f63565b60405161034e91906131b8565b60405180910390f35b610371600480360381019061036c91906131ff565b610f89565b005b61037b611094565b6040516103889190612e3f565b60405180910390f35b6103ab60048036038101906103a69190612f70565b61109a565b6040516103b89190612e3f565b60405180910390f35b6103db60048036038101906103d69190613291565b6110be565b005b6103f760048036038101906103f2919061332b565b6118c0565b6040516104049190612e3f565b60405180910390f35b610415611e85565b60405161042291906133b3565b60405180910390f35b610445600480360381019061044091906131ff565b611eab565b005b610461600480360381019061045c9190612f70565b611fb6565b604051610473969594939291906133f5565b60405180910390f35b61048461202a565b6040516104919190613479565b60405180910390f35b6104a2612044565b6040516104af9190612e3f565b60405180910390f35b6104d260048036038101906104cd91906131ff565b61204a565b6040516104df9190612e3f565b60405180910390f35b6104f0612062565b6040516104fd91906134b5565b60405180910390f35b61050e612088565b60405161051b91906134df565b60405180910390f35b61052c6120ac565b6040516105399190612e3f565b60405180910390f35b61055c600480360381019061055791906134fa565b6120b2565b005b6105786004803603810190610573919061353a565b6123ba565b005b6000600b80549050905090565b60007f000000000000000000000000000000000000000000000000000000000000000073ffffffffffffffffffffffffffffffffffffffff1663d9638d367f00000000000000000000000000000000000000000000000000000000000000006040518263ffffffff1660e01b815260040161060291906134df565b60a060405180830381600087803b15801561061c57600080fd5b505af1158015610630573d6000803e3d6000fd5b505050506040513d601f19601f82011682018060405250810190610654919061358f565b94505050505061073081600160009054906101000a900473ffffffffffffffffffffffffffffffffffffffff1673ffffffffffffffffffffffffffffffffffffffff1663d79265387f00000000000000000000000000000000000000000000000000000000000000006040518263ffffffff1660e01b81526004016106d991906134df565b602060405180830381600087803b1580156106f357600080fd5b505af1158015610707573d6000803e3d6000fd5b505050506040513d601f19601f8201168201806040525081019061072b919061360a565b612876565b60098190555050565b6060600b80548060200260200160405190810160405280929190818152602001828054801561078757602002820191906000526020600020905b815481526020019060010190808311610773575b5050505050905090565b60065481565b60055481565b60016000803373ffffffffffffffffffffffffffffffffffffffff1673ffffffffffffffffffffffffffffffffffffffff168152602001908152602001600020541461081e576040517f08c379a000000000000000000000000000000000000000000000000000000000815260040161081590613694565b60405180910390fd5b6000600d5414610863576040517f08c379a000000000000000000000000000000000000000000000000000000000815260040161085a90613700565b60405180910390fd5b6001600d81905550600073ffffffffffffffffffffffffffffffffffffffff16600c600083815260200190815260200160002060030160009054906101000a900473ffffffffffffffffffffffffffffffffffffffff1673ffffffffffffffffffffffffffffffffffffffff161415610911576040517f08c379a00000000000000000000000000000000000000000000000000000000081526004016109089061376c565b60405180910390fd5b600160009054906101000a900473ffffffffffffffffffffffffffffffffffffffff1673ffffffffffffffffffffffffffffffffffffffff1663c87193f47f0000000000000000000000000000000000000000000000000000000000000000600c6000858152602001908152602001600020600101546040518363ffffffff1660e01b81526004016109a492919061378c565b600060405180830381600087803b1580156109be57600080fd5b505af11580156109d2573d6000803e3d6000fd5b505050507f000000000000000000000000000000000000000000000000000000000000000073ffffffffffffffffffffffffffffffffffffffff16636111be2e7f00000000000000000000000000000000000000000000000000000000000000003033600c6000878152602001908152602001600020600201546040518563ffffffff1660e01b8152600401610a6b94939291906137b5565b600060405180830381600087803b158015610a8557600080fd5b505af1158015610a99573d6000803e3d6000fd5b50505050610aa68161289d565b7f2c5d2826eb5903b8fc201cf48094b858f42f61c7eaac9aaf43ebed490138144e81604051610ad59190612e3f565b60405180910390a16000600d8190555050565b60088054906101000a900477ffffffffffffffffffffffffffffffffffffffffffffffff1681565b60016000803373ffffffffffffffffffffffffffffffffffffffff1673ffffffffffffffffffffffffffffffffffffffff1681526020019081526020016000205414610b91576040517f08c379a0000000000000000000000000000000000000000000000000000000008152600401610b8890613694565b60405180910390fd5b6000600d5414610bd6576040517f08c379a0000000000000000000000000000000000000000000000000000000008152600401610bcd90613700565b60405180910390fd5b6001600d819055507f6275660000000000000000000000000000000000000000000000000000000000821415610c125780600581905550610db9565b7f7461696c00000000000000000000000000000000000000000000000000000000821415610c465780600681905550610db8565b7f6375737000000000000000000000000000000000000000000000000000000000821415610c7a5780600781905550610db7565b7f6368697000000000000000000000000000000000000000000000000000000000821415610cd05780600860006101000a81548167ffffffffffffffff021916908367ffffffffffffffff160217905550610db6565b7f7469700000000000000000000000000000000000000000000000000000000000821415610d4557806008806101000a81548177ffffffffffffffffffffffffffffffffffffffffffffffff021916908377ffffffffffffffffffffffffffffffffffffffffffffffff160217905550610db5565b7f73746f7070656400000000000000000000000000000000000000000000000000821415610d795780600e81905550610db4565b6040517f08c379a0000000000000000000000000000000000000000000000000000000008152600401610dab90613846565b60405180910390fd5b5b5b5b5b5b817fe986e40cc8c151830d4f61050f4fb2e4add8567caad2d5f5496f9158e91fe4c782604051610de99190612e3f565b60405180910390a26000600d819055505050565b600360009054906101000a900473ffffffffffffffffffffffffffffffffffffffff1681565b7f000000000000000000000000000000000000000000000000000000000000000081565b60075481565b6000806000806000600c600087815260200190815260200160002060030160009054906101000a900473ffffffffffffffffffffffffffffffffffffffff1690506000600c600088815260200190815260200160002060030160149054906101000a90046bffffffffffffffffffffffff1690506000610ee382600c60008b8152602001908152602001600020600401546129db565b8097508192505050600073ffffffffffffffffffffffffffffffffffffffff168373ffffffffffffffffffffffffffffffffffffffff1614158015610f255750805b9650600c6000898152602001908152602001600020600201549450600c60008981526020019081526020016000206001015493505050509193509193565b600260009054906101000a900473ffffffffffffffffffffffffffffffffffffffff1681565b60016000803373ffffffffffffffffffffffffffffffffffffffff1673ffffffffffffffffffffffffffffffffffffffff168152602001908152602001600020541461100a576040517f08c379a000000000000000000000000000000000000000000000000000000000815260040161100190613694565b60405180910390fd5b60016000808373ffffffffffffffffffffffffffffffffffffffff1673ffffffffffffffffffffffffffffffffffffffff168152602001908152602001600020819055508073ffffffffffffffffffffffffffffffffffffffff167fdd0e34038ac38b2a1ce960229778ac48a8719bc900b6c4f8d0475c6e8b385a6060405160405180910390a250565b600e5481565b600b81815481106110aa57600080fd5b906000526020600020016000915090505481565b6000600d5414611103576040517f08c379a00000000000000000000000000000000000000000000000000000000081526004016110fa90613700565b60405180910390fd5b6001600d81905550600380600e5410611151576040517f08c379a0000000000000000000000000000000000000000000000000000000008152600401611148906138b2565b60405180910390fd5b6000600c600089815260200190815260200160002060030160009054906101000a900473ffffffffffffffffffffffffffffffffffffffff1690506000600c60008a815260200190815260200160002060030160149054906101000a90046bffffffffffffffffffffffff169050600073ffffffffffffffffffffffffffffffffffffffff168273ffffffffffffffffffffffffffffffffffffffff16141561122f576040517f08c379a00000000000000000000000000000000000000000000000000000000081526004016112269061376c565b60405180910390fd5b60008061125283600c60008e8152602001908152602001600020600401546129db565b8093508192505050801561129b576040517f08c379a00000000000000000000000000000000000000000000000000000000081526004016112929061391e565b60405180910390fd5b50808810156112df576040517f08c379a00000000000000000000000000000000000000000000000000000000081526004016112d69061398a565b60405180910390fd5b6000600c60008c81526020019081526020016000206002015490506000600c60008d8152602001908152602001600020600101549050600080611322848e612ade565b905061132e8186612af8565b91508282111561134e5782915084826113479190613a08565b90506113dd565b828210801561135c57508381105b156113dc57600060095490508083856113759190613a39565b10156113da578084116113bd576040517f08c379a00000000000000000000000000000000000000000000000000000000081526004016113b490613ab9565b60405180910390fd5b80846113c99190613a39565b925085836113d79190613a08565b91505b505b5b81836113e99190613a39565b925080846113f79190613a39565b93507f000000000000000000000000000000000000000000000000000000000000000073ffffffffffffffffffffffffffffffffffffffff16636111be2e7f0000000000000000000000000000000000000000000000000000000000000000308e856040518563ffffffff1660e01b815260040161147894939291906137b5565b600060405180830381600087803b15801561149257600080fd5b505af11580156114a6573d6000803e3d6000fd5b505050506000600160009054906101000a900473ffffffffffffffffffffffffffffffffffffffff16905060008b8b905011801561153057507f000000000000000000000000000000000000000000000000000000000000000073ffffffffffffffffffffffffffffffffffffffff168c73ffffffffffffffffffffffffffffffffffffffff1614155b801561156857508073ffffffffffffffffffffffffffffffffffffffff168c73ffffffffffffffffffffffffffffffffffffffff1614155b156115e1578b73ffffffffffffffffffffffffffffffffffffffff16638452c10e3385858f8f6040518663ffffffff1660e01b81526004016115ae959493929190613b37565b600060405180830381600087803b1580156115c857600080fd5b505af11580156115dc573d6000803e3d6000fd5b505050505b7f000000000000000000000000000000000000000000000000000000000000000073ffffffffffffffffffffffffffffffffffffffff1663bb35783b33600260009054906101000a900473ffffffffffffffffffffffffffffffffffffffff16866040518463ffffffff1660e01b815260040161166093929190613b85565b600060405180830381600087803b15801561167a57600080fd5b505af115801561168e573d6000803e3d6000fd5b505050508073ffffffffffffffffffffffffffffffffffffffff1663c87193f47f0000000000000000000000000000000000000000000000000000000000000000600088146116dd57856116ea565b85876116e99190613bbc565b5b6040518363ffffffff1660e01b815260040161170792919061378c565b600060405180830381600087803b15801561172157600080fd5b505af1158015611735573d6000803e3d6000fd5b50505050505060008314156117525761174d8d61289d565b611852565b600082141561181a577f000000000000000000000000000000000000000000000000000000000000000073ffffffffffffffffffffffffffffffffffffffff16636111be2e7f00000000000000000000000000000000000000000000000000000000000000003089876040518563ffffffff1660e01b81526004016117da94939291906137b5565b600060405180830381600087803b1580156117f457600080fd5b505af1158015611808573d6000803e3d6000fd5b505050506118158d61289d565b611851565b81600c60008f81526020019081526020016000206001018190555082600c60008f8152602001908152602001600020600201819055505b5b8573ffffffffffffffffffffffffffffffffffffffff168d7f05e309fd6ce72f2ab888a20056bb4210df08daed86f21f95053deb19964d86b18d878587896040516118a1959493929190613c12565b60405180910390a3505050505050506000600d81905550505050505050565b600060016000803373ffffffffffffffffffffffffffffffffffffffff1673ffffffffffffffffffffffffffffffffffffffff1681526020019081526020016000205414611943576040517f08c379a000000000000000000000000000000000000000000000000000000000815260040161193a90613694565b60405180910390fd5b6000600d5414611988576040517f08c379a000000000000000000000000000000000000000000000000000000000815260040161197f90613700565b60405180910390fd5b6001600d81905550600180600e54106119d6576040517f08c379a00000000000000000000000000000000000000000000000000000000081526004016119cd906138b2565b60405180910390fd5b60008611611a19576040517f08c379a0000000000000000000000000000000000000000000000000000000008152600401611a1090613cb1565b60405180910390fd5b60008511611a5c576040517f08c379a0000000000000000000000000000000000000000000000000000000008152600401611a5390613d1d565b60405180910390fd5b600073ffffffffffffffffffffffffffffffffffffffff168473ffffffffffffffffffffffffffffffffffffffff161415611acc576040517f08c379a0000000000000000000000000000000000000000000000000000000008152600401611ac390613d89565b60405180910390fd5b600a60008154611adb90613da9565b919050819055915060008211611b26576040517f08c379a0000000000000000000000000000000000000000000000000000000008152600401611b1d90613e3e565b60405180910390fd5b600b8290806001815401808255809150506001900390600052602060002001600090919091909150556001600b80549050611b619190613a39565b600c60008481526020019081526020016000206000018190555085600c60008481526020019081526020016000206001018190555084600c60008481526020019081526020016000206002018190555083600c600084815260200190815260200160002060030160006101000a81548173ffffffffffffffffffffffffffffffffffffffff021916908373ffffffffffffffffffffffffffffffffffffffff16021790555042600c600084815260200190815260200160002060030160146101000a8154816bffffffffffffffffffffffff02191690836bffffffffffffffffffffffff1602179055506000611c60611c58612b2f565b600554612d8a565b905060008111611ca5576040517f08c379a0000000000000000000000000000000000000000000000000000000008152600401611c9c90613eaa565b60405180910390fd5b80600c600085815260200190815260200160002060040181905550600060088054906101000a900477ffffffffffffffffffffffffffffffffffffffffffffffff1677ffffffffffffffffffffffffffffffffffffffffffffffff1690506000600860009054906101000a900467ffffffffffffffff1667ffffffffffffffff169050600080831180611d385750600082115b15611e0457611d5083611d4b8c85612876565b612db5565b90507f000000000000000000000000000000000000000000000000000000000000000073ffffffffffffffffffffffffffffffffffffffff1663f24e23eb600260009054906101000a900473ffffffffffffffffffffffffffffffffffffffff1689846040518463ffffffff1660e01b8152600401611dd193929190613b85565b600060405180830381600087803b158015611deb57600080fd5b505af1158015611dff573d6000803e3d6000fd5b505050505b8673ffffffffffffffffffffffffffffffffffffffff168873ffffffffffffffffffffffffffffffffffffffff16877f7c5bfdc0a5e8192f6cd4972f382cec69116862fb62e6abff8003874c58e064b8878e8e87604051611e689493929190613eca565b60405180910390a450505050506000600d81905550949350505050565b600460009054906101000a900473ffffffffffffffffffffffffffffffffffffffff1681565b60016000803373ffffffffffffffffffffffffffffffffffffffff1673ffffffffffffffffffffffffffffffffffffffff1681526020019081526020016000205414611f2c576040517f08c379a0000000000000000000000000000000000000000000000000000000008152600401611f2390613694565b60405180910390fd5b60008060008373ffffffffffffffffffffffffffffffffffffffff1673ffffffffffffffffffffffffffffffffffffffff168152602001908152602001600020819055508073ffffffffffffffffffffffffffffffffffffffff167f184450df2e323acec0ed3b5c7531b81f9b4cdef7914dfd4c0a4317416bb5251b60405160405180910390a250565b600c6020528060005260406000206000915090508060000154908060010154908060020154908060030160009054906101000a900473ffffffffffffffffffffffffffffffffffffffff16908060030160149054906101000a90046bffffffffffffffffffffffff16908060040154905086565b600860009054906101000a900467ffffffffffffffff1681565b60095481565b60006020528060005260406000206000915090505481565b600160009054906101000a900473ffffffffffffffffffffffffffffffffffffffff1681565b7f000000000000000000000000000000000000000000000000000000000000000081565b600a5481565b60016000803373ffffffffffffffffffffffffffffffffffffffff1673ffffffffffffffffffffffffffffffffffffffff1681526020019081526020016000205414612133576040517f08c379a000000000000000000000000000000000000000000000000000000000815260040161212a90613694565b60405180910390fd5b6000600d5414612178576040517f08c379a000000000000000000000000000000000000000000000000000000000815260040161216f90613700565b60405180910390fd5b6001600d819055507f73706f74746572000000000000000000000000000000000000000000000000008214156121ee5780600360006101000a81548173ffffffffffffffffffffffffffffffffffffffff021916908373ffffffffffffffffffffffffffffffffffffffff160217905550612376565b7f646f67000000000000000000000000000000000000000000000000000000000082141561225c5780600160006101000a81548173ffffffffffffffffffffffffffffffffffffffff021916908373ffffffffffffffffffffffffffffffffffffffff160217905550612375565b7f766f7700000000000000000000000000000000000000000000000000000000008214156122ca5780600260006101000a81548173ffffffffffffffffffffffffffffffffffffffff021916908373ffffffffffffffffffffffffffffffffffffffff160217905550612374565b7f63616c63000000000000000000000000000000000000000000000000000000008214156123385780600460006101000a81548173ffffffffffffffffffffffffffffffffffffffff021916908373ffffffffffffffffffffffffffffffffffffffff160217905550612373565b6040517f08c379a000000000000000000000000000000000000000000000000000000000815260040161236a90613846565b60405180910390fd5b5b5b5b817f8fef588b5fc1afbf5b2f06c1a435d513f208da2e6704c3d8f0e0ec91167066ba826040516123a691906131b8565b60405180910390a26000600d819055505050565b6000600d54146123ff576040517f08c379a00000000000000000000000000000000000000000000000000000000081526004016123f690613700565b60405180910390fd5b6001600d81905550600280600e541061244d576040517f08c379a0000000000000000000000000000000000000000000000000000000008152600401612444906138b2565b60405180910390fd5b6000600c600085815260200190815260200160002060030160009054906101000a900473ffffffffffffffffffffffffffffffffffffffff1690506000600c600086815260200190815260200160002060030160149054906101000a90046bffffffffffffffffffffffff1690506000600c6000878152602001908152602001600020600401549050600073ffffffffffffffffffffffffffffffffffffffff168373ffffffffffffffffffffffffffffffffffffffff161415612546576040517f08c379a000000000000000000000000000000000000000000000000000000000815260040161253d9061376c565b60405180910390fd5b600061255283836129db565b50905080612595576040517f08c379a000000000000000000000000000000000000000000000000000000000815260040161258c90613f5b565b60405180910390fd5b6000600c60008981526020019081526020016000206001015490506000600c60008a815260200190815260200160002060020154905042600c60008b815260200190815260200160002060030160146101000a8154816bffffffffffffffffffffffff02191690836bffffffffffffffffffffffff160217905550600061261a612b2f565b905061262881600554612d8a565b94506000851161266d576040517f08c379a000000000000000000000000000000000000000000000000000000000815260040161266490613eaa565b60405180910390fd5b84600c60008c815260200190815260200160002060040181905550600060088054906101000a900477ffffffffffffffffffffffffffffffffffffffffffffffff1677ffffffffffffffffffffffffffffffffffffffffffffffff1690506000600860009054906101000a900467ffffffffffffffff1667ffffffffffffffff1690506000808311806127005750600082115b156127f357600060095490508087101580156127255750806127228787612af8565b10155b156127f15761273d846127388986612876565b612db5565b91507f000000000000000000000000000000000000000000000000000000000000000073ffffffffffffffffffffffffffffffffffffffff1663f24e23eb600260009054906101000a900473ffffffffffffffffffffffffffffffffffffffff168f856040518463ffffffff1660e01b81526004016127be93929190613b85565b600060405180830381600087803b1580156127d857600080fd5b505af11580156127ec573d6000803e3d6000fd5b505050505b505b8b73ffffffffffffffffffffffffffffffffffffffff168a73ffffffffffffffffffffffffffffffffffffffff168e7f275de7ecdd375b5e8049319f8b350686131c219dd4dc450a08e9cf83b03c865f8b8a8a876040516128579493929190613eca565b60405180910390a450505050505050505050506000600d819055505050565b6000670de0b6b3a764000061288b8484612af8565b6128959190613a08565b905092915050565b6000600b6001600b805490506128b39190613a39565b815481106128c4576128c3613f7b565b5b90600052602060002001549050808214612933576000600c600084815260200190815260200160002060000154905081600b828154811061290857612907613f7b565b5b906000526020600020018190555080600c600084815260200190815260200160002060000181905550505b600b80548061294557612944613faa565b5b60019003818190600052602060002001600090559055600c6000838152602001908152602001600020600080820160009055600182016000905560028201600090556003820160006101000a81549073ffffffffffffffffffffffffffffffffffffffff02191690556003820160146101000a8154906bffffffffffffffffffffffff0219169055600482016000905550505050565b600080600460009054906101000a900473ffffffffffffffffffffffffffffffffffffffff1673ffffffffffffffffffffffffffffffffffffffff1663487a239584612a3542886bffffffffffffffffffffffff16612dd8565b6040518363ffffffff1660e01b8152600401612a52929190613fd9565b60206040518083038186803b158015612a6a57600080fd5b505afa158015612a7e573d6000803e3d6000fd5b505050506040513d601f19601f82011682018060405250810190612aa2919061360a565b9050600654612abf42866bffffffffffffffffffffffff16612dd8565b1180612ad55750600754612ad38285612dfb565b105b91509250929050565b600081831115612aee5781612af0565b825b905092915050565b600080821480612b20575082828385612b119190614002565b925082612b1e9190613a08565b145b612b2957600080fd5b92915050565b600080600360009054906101000a900473ffffffffffffffffffffffffffffffffffffffff1673ffffffffffffffffffffffffffffffffffffffff1663d9638d367f00000000000000000000000000000000000000000000000000000000000000006040518263ffffffff1660e01b8152600401612bad91906134df565b6040805180830381600087803b158015612bc657600080fd5b505af1158015612bda573d6000803e3d6000fd5b505050506040513d601f19601f82011682018060405250810190612bfe919061409a565b5090506000808273ffffffffffffffffffffffffffffffffffffffff166359e02dd76040518163ffffffff1660e01b81526004016040805180830381600087803b158015612c4b57600080fd5b505af1158015612c5f573d6000803e3d6000fd5b505050506040513d601f19601f82011682018060405250810190612c83919061411b565b9150915080612cc7576040517f08c379a0000000000000000000000000000000000000000000000000000000008152600401612cbe906141a7565b60405180910390fd5b612d82612cdb8360001c633b9aca00612af8565b600360009054906101000a900473ffffffffffffffffffffffffffffffffffffffff1673ffffffffffffffffffffffffffffffffffffffff1663495d32cb6040518163ffffffff1660e01b8152600401602060405180830381600087803b158015612d4557600080fd5b505af1158015612d59573d6000803e3d6000fd5b505050506040513d601f19601f82011682018060405250810190612d7d919061360a565b612dfb565b935050505090565b60006b033b2e3c9fd0803ce8000000612da38484612af8565b612dad9190613a08565b905092915050565b6000828284612dc49190613bbc565b9150811015612dd257600080fd5b92915050565b6000828284612de79190613a39565b9150811115612df557600080fd5b92915050565b600081612e14846b033b2e3c9fd0803ce8000000612af8565b612e1e9190613a08565b905092915050565b6000819050919050565b612e3981612e26565b82525050565b6000602082019050612e546000830184612e30565b92915050565b600081519050919050565b600082825260208201905092915050565b6000819050602082019050919050565b612e8f81612e26565b82525050565b6000612ea18383612e86565b60208301905092915050565b6000602082019050919050565b6000612ec582612e5a565b612ecf8185612e65565b9350612eda83612e76565b8060005b83811015612f0b578151612ef28882612e95565b9750612efd83612ead565b925050600181019050612ede565b5085935050505092915050565b60006020820190508181036000830152612f328184612eba565b905092915050565b600080fd5b600080fd5b612f4d81612e26565b8114612f5857600080fd5b50565b600081359050612f6a81612f44565b92915050565b600060208284031215612f8657612f85612f3a565b5b6000612f9484828501612f5b565b91505092915050565b600077ffffffffffffffffffffffffffffffffffffffffffffffff82169050919050565b612fca81612f9d565b82525050565b6000602082019050612fe56000830184612fc1565b92915050565b6000819050919050565b612ffe81612feb565b811461300957600080fd5b50565b60008135905061301b81612ff5565b92915050565b6000806040838503121561303857613037612f3a565b5b60006130468582860161300c565b925050602061305785828601612f5b565b9150509250929050565b600073ffffffffffffffffffffffffffffffffffffffff82169050919050565b6000819050919050565b60006130a66130a161309c84613061565b613081565b613061565b9050919050565b60006130b88261308b565b9050919050565b60006130ca826130ad565b9050919050565b6130da816130bf565b82525050565b60006020820190506130f560008301846130d1565b92915050565b6000613106826130ad565b9050919050565b613116816130fb565b82525050565b6000602082019050613131600083018461310d565b92915050565b60008115159050919050565b61314c81613137565b82525050565b60006080820190506131676000830187613143565b6131746020830186612e30565b6131816040830185612e30565b61318e6060830184612e30565b95945050505050565b60006131a282613061565b9050919050565b6131b281613197565b82525050565b60006020820190506131cd60008301846131a9565b92915050565b6131dc81613197565b81146131e757600080fd5b50565b6000813590506131f9816131d3565b92915050565b60006020828403121561321557613214612f3a565b5b6000613223848285016131ea565b91505092915050565b600080fd5b600080fd5b600080fd5b60008083601f8401126132515761325061322c565b5b8235905067ffffffffffffffff81111561326e5761326d613231565b5b60208301915083600182028301111561328a57613289613236565b5b9250929050565b60008060008060008060a087890312156132ae576132ad612f3a565b5b60006132bc89828a01612f5b565b96505060206132cd89828a01612f5b565b95505060406132de89828a01612f5b565b94505060606132ef89828a016131ea565b935050608087013567ffffffffffffffff8111156133105761330f612f3f565b5b61331c89828a0161323b565b92509250509295509295509295565b6000806000806080858703121561334557613344612f3a565b5b600061335387828801612f5b565b945050602061336487828801612f5b565b9350506040613375878288016131ea565b9250506060613386878288016131ea565b91505092959194509250565b600061339d826130ad565b9050919050565b6133ad81613392565b82525050565b60006020820190506133c860008301846133a4565b92915050565b60006bffffffffffffffffffffffff82169050919050565b6133ef816133ce565b82525050565b600060c08201905061340a6000830189612e30565b6134176020830188612e30565b6134246040830187612e30565b61343160608301866131a9565b61343e60808301856133e6565b61344b60a0830184612e30565b979650505050505050565b600067ffffffffffffffff82169050919050565b61347381613456565b82525050565b600060208201905061348e600083018461346a565b92915050565b600061349f826130ad565b9050919050565b6134af81613494565b82525050565b60006020820190506134ca60008301846134a6565b92915050565b6134d981612feb565b82525050565b60006020820190506134f460008301846134d0565b92915050565b6000806040838503121561351157613510612f3a565b5b600061351f8582860161300c565b9250506020613530858286016131ea565b9150509250929050565b6000806040838503121561355157613550612f3a565b5b600061355f85828601612f5b565b9250506020613570858286016131ea565b9150509250929050565b60008151905061358981612f44565b92915050565b600080600080600060a086880312156135ab576135aa612f3a565b5b60006135b98882890161357a565b95505060206135ca8882890161357a565b94505060406135db8882890161357a565b93505060606135ec8882890161357a565b92505060806135fd8882890161357a565b9150509295509295909350565b6000602082840312156136205761361f612f3a565b5b600061362e8482850161357a565b91505092915050565b600082825260208201905092915050565b7f436c69707065722f6e6f742d617574686f72697a656400000000000000000000600082015250565b600061367e601683613637565b915061368982613648565b602082019050919050565b600060208201905081810360008301526136ad81613671565b9050919050565b7f436c69707065722f73797374656d2d6c6f636b65640000000000000000000000600082015250565b60006136ea601583613637565b91506136f5826136b4565b602082019050919050565b60006020820190508181036000830152613719816136dd565b9050919050565b7f436c69707065722f6e6f742d72756e6e696e672d61756374696f6e0000000000600082015250565b6000613756601b83613637565b915061376182613720565b602082019050919050565b6000602082019050818103600083015261378581613749565b9050919050565b60006040820190506137a160008301856134d0565b6137ae6020830184612e30565b9392505050565b60006080820190506137ca60008301876134d0565b6137d760208301866131a9565b6137e460408301856131a9565b6137f16060830184612e30565b95945050505050565b7f436c69707065722f66696c652d756e7265636f676e697a65642d706172616d00600082015250565b6000613830601f83613637565b915061383b826137fa565b602082019050919050565b6000602082019050818103600083015261385f81613823565b9050919050565b7f436c69707065722f73746f707065642d696e636f727265637400000000000000600082015250565b600061389c601983613637565b91506138a782613866565b602082019050919050565b600060208201905081810360008301526138cb8161388f565b9050919050565b7f436c69707065722f6e656564732d726573657400000000000000000000000000600082015250565b6000613908601383613637565b9150613913826138d2565b602082019050919050565b60006020820190508181036000830152613937816138fb565b9050919050565b7f436c69707065722f746f6f2d657870656e736976650000000000000000000000600082015250565b6000613974601583613637565b915061397f8261393e565b602082019050919050565b600060208201905081810360008301526139a381613967565b9050919050565b7f4e487b7100000000000000000000000000000000000000000000000000000000600052601260045260246000fd5b7f4e487b7100000000000000000000000000000000000000000000000000000000600052601160045260246000fd5b6000613a1382612e26565b9150613a1e83612e26565b925082613a2e57613a2d6139aa565b5b828204905092915050565b6000613a4482612e26565b9150613a4f83612e26565b925082821015613a6257613a616139d9565b5b828203905092915050565b7f436c69707065722f6e6f2d7061727469616c2d70757263686173650000000000600082015250565b6000613aa3601b83613637565b9150613aae82613a6d565b602082019050919050565b60006020820190508181036000830152613ad281613a96565b9050919050565b600082825260208201905092915050565b82818337600083830152505050565b6000601f19601f8301169050919050565b6000613b168385613ad9565b9350613b23838584613aea565b613b2c83613af9565b840190509392505050565b6000608082019050613b4c60008301886131a9565b613b596020830187612e30565b613b666040830186612e30565b8181036060830152613b79818486613b0a565b90509695505050505050565b6000606082019050613b9a60008301866131a9565b613ba760208301856131a9565b613bb46040830184612e30565b949350505050565b6000613bc782612e26565b9150613bd283612e26565b9250827fffffffffffffffffffffffffffffffffffffffffffffffffffffffffffffffff03821115613c0757613c066139d9565b5b828201905092915050565b600060a082019050613c276000830188612e30565b613c346020830187612e30565b613c416040830186612e30565b613c4e6060830185612e30565b613c5b6080830184612e30565b9695505050505050565b7f436c69707065722f7a65726f2d74616200000000000000000000000000000000600082015250565b6000613c9b601083613637565b9150613ca682613c65565b602082019050919050565b60006020820190508181036000830152613cca81613c8e565b9050919050565b7f436c69707065722f7a65726f2d6c6f7400000000000000000000000000000000600082015250565b6000613d07601083613637565b9150613d1282613cd1565b602082019050919050565b60006020820190508181036000830152613d3681613cfa565b9050919050565b7f436c69707065722f7a65726f2d75737200000000000000000000000000000000600082015250565b6000613d73601083613637565b9150613d7e82613d3d565b602082019050919050565b60006020820190508181036000830152613da281613d66565b9050919050565b6000613db482612e26565b91507fffffffffffffffffffffffffffffffffffffffffffffffffffffffffffffffff821415613de757613de66139d9565b5b600182019050919050565b7f436c69707065722f6f766572666c6f7700000000000000000000000000000000600082015250565b6000613e28601083613637565b9150613e3382613df2565b602082019050919050565b60006020820190508181036000830152613e5781613e1b565b9050919050565b7f436c69707065722f7a65726f2d746f702d707269636500000000000000000000600082015250565b6000613e94601683613637565b9150613e9f82613e5e565b602082019050919050565b60006020820190508181036000830152613ec381613e87565b9050919050565b6000608082019050613edf6000830187612e30565b613eec6020830186612e30565b613ef96040830185612e30565b613f066060830184612e30565b95945050505050565b7f436c69707065722f63616e6e6f742d7265736574000000000000000000000000600082015250565b6000613f45601483613637565b9150613f5082613f0f565b602082019050919050565b60006020820190508181036000830152613f7481613f38565b9050919050565b7f4e487b7100000000000000000000000000000000000000000000000000000000600052603260045260246000fd5b7f4e487b7100000000000000000000000000000000000000000000000000000000600052603160045260246000fd5b6000604082019050613fee6000830185612e30565b613ffb6020830184612e30565b9392505050565b600061400d82612e26565b915061401883612e26565b9250817fffffffffffffffffffffffffffffffffffffffffffffffffffffffffffffffff0483118215151615614051576140506139d9565b5b828202905092915050565b600061406782613197565b9050919050565b6140778161405c565b811461408257600080fd5b50565b6000815190506140948161406e565b92915050565b600080604083850312156140b1576140b0612f3a565b5b60006140bf85828601614085565b92505060206140d08582860161357a565b9150509250929050565b6000815190506140e981612ff5565b92915050565b6140f881613137565b811461410357600080fd5b50565b600081519050614115816140ef565b92915050565b6000806040838503121561413257614131612f3a565b5b6000614140858286016140da565b925050602061415185828601614106565b9150509250929050565b7f436c69707065722f696e76616c69642d70726963650000000000000000000000600082015250565b6000614191601583613637565b915061419c8261415b565b602082019050919050565b600060208201905081810360008301526141c081614184565b905091905056fea26469706673582212208dec563517ede769ffab5939824e6af8e701371a3e40b02793d620aad7cfab5564736f6c63430008090033",
  "linkReferences": {},
  "deployedLinkReferences": {}
}