{
  "_format": "hh-sol-artifact-1",
  "contractName": "ETHJoin",
  "sourceName": "contracts/protocol/galerium/join.sol",
  "abi": [
    {
      "inputs": [
        {
          "internalType": "address",
          "name": "vat_",
          "type": "address"
        },
        {
          "internalType": "bytes32",
          "name": "ilk_",
          "type": "bytes32"
        }
      ],
      "stateMutability": "nonpayable",
      "type": "constructor"
    },
    {
      "inputs": [
        {
          "internalType": "address payable",
          "name": "usr",
          "type": "address"
        },
        {
          "internalType": "uint256",
          "name": "wad",
          "type": "uint256"
        }
      ],
      "name": "exit",
      "outputs": [],
      "stateMutability": "nonpayable",
      "type": "function"
    },
    {
      "inputs": [],
      "name": "ilk",
      "outputs": [
        {
          "internalType": "bytes32",
          "name": "",
          "type": "bytes32"
        }
      ],
      "stateMutability": "view",
      "type": "function"
    },
    {
      "inputs": [
        {
          "internalType": "address",
          "name": "usr",
          "type": "address"
        }
      ],
      "name": "join",
      "outputs": [],
      "stateMutability": "payable",
      "type": "function"
    },
    {
      "inputs": [],
      "name": "vat",
      "outputs": [
        {
          "internalType": "contract VatLike",
          "name": "",
          "type": "address"
        }
      ],
      "stateMutability": "view",
      "type": "function"
    }
  ],
  "bytecode": "0x608060405234801561001057600080fd5b5060405161070538038061070583398181016040528101906100329190610119565b816000806101000a81548173ffffffffffffffffffffffffffffffffffffffff021916908373ffffffffffffffffffffffffffffffffffffffff160217905550806001819055505050610159565b600080fd5b600073ffffffffffffffffffffffffffffffffffffffff82169050919050565b60006100b082610085565b9050919050565b6100c0816100a5565b81146100cb57600080fd5b50565b6000815190506100dd816100b7565b92915050565b6000819050919050565b6100f6816100e3565b811461010157600080fd5b50565b600081519050610113816100ed565b92915050565b600080604083850312156101305761012f610080565b5b600061013e858286016100ce565b925050602061014f85828601610104565b9150509250929050565b61059d806101686000396000f3fe60806040526004361061003f5760003560e01c806328ffe6c81461004457806336569e7714610060578063c5ce281e1461008b578063ef693bed146100b6575b600080fd5b61005e60048036038101906100599190610301565b6100df565b005b34801561006c57600080fd5b50610075610181565b604051610082919061038d565b60405180910390f35b34801561009757600080fd5b506100a06101a5565b6040516100ad91906103c1565b60405180910390f35b3480156100c257600080fd5b506100dd60048036038101906100d89190610450565b6101ab565b005b60003412156100ed57600080fd5b60008054906101000a900473ffffffffffffffffffffffffffffffffffffffff1673ffffffffffffffffffffffffffffffffffffffff16637cdd3fde60015483346040518463ffffffff1660e01b815260040161014c939291906104b8565b600060405180830381600087803b15801561016657600080fd5b505af115801561017a573d6000803e3d6000fd5b5050505050565b60008054906101000a900473ffffffffffffffffffffffffffffffffffffffff1681565b60015481565b60008112156101b957600080fd5b60008054906101000a900473ffffffffffffffffffffffffffffffffffffffff1673ffffffffffffffffffffffffffffffffffffffff16637cdd3fde60015433846102039061051e565b6040518463ffffffff1660e01b8152600401610221939291906104b8565b600060405180830381600087803b15801561023b57600080fd5b505af115801561024f573d6000803e3d6000fd5b505050508173ffffffffffffffffffffffffffffffffffffffff166108fc829081150290604051600060405180830381858888f19350505050158015610299573d6000803e3d6000fd5b505050565b600080fd5b600073ffffffffffffffffffffffffffffffffffffffff82169050919050565b60006102ce826102a3565b9050919050565b6102de816102c3565b81146102e957600080fd5b50565b6000813590506102fb816102d5565b92915050565b6000602082840312156103175761031661029e565b5b6000610325848285016102ec565b91505092915050565b6000819050919050565b600061035361034e610349846102a3565b61032e565b6102a3565b9050919050565b600061036582610338565b9050919050565b60006103778261035a565b9050919050565b6103878161036c565b82525050565b60006020820190506103a2600083018461037e565b92915050565b6000819050919050565b6103bb816103a8565b82525050565b60006020820190506103d660008301846103b2565b92915050565b60006103e7826102a3565b9050919050565b6103f7816103dc565b811461040257600080fd5b50565b600081359050610414816103ee565b92915050565b6000819050919050565b61042d8161041a565b811461043857600080fd5b50565b60008135905061044a81610424565b92915050565b600080604083850312156104675761046661029e565b5b600061047585828601610405565b92505060206104868582860161043b565b9150509250929050565b610499816102c3565b82525050565b6000819050919050565b6104b28161049f565b82525050565b60006060820190506104cd60008301866103b2565b6104da6020830185610490565b6104e760408301846104a9565b949350505050565b7f4e487b7100000000000000000000000000000000000000000000000000000000600052601160045260246000fd5b60006105298261049f565b91507f800000000000000000000000000000000000000000000000000000000000000082141561055c5761055b6104ef565b5b81600003905091905056fea26469706673582212206ea8c203d90ddcda9397922510af0d50da00b8c72a48d52d255f9a2a346c77a564736f6c63430008090033",
  "linkReferences": {},
  "deployedLinkReferences": {}
}