{
  "_format": "hh-sol-artifact-1",
  "contractName": "GALRJoin",
  "sourceName": "contracts/protocol/galerium/join.sol",
  "abi": [
    {
      "inputs": [
        {
          "internalType": "address",
          "name": "vat_",
          "type": "address"
        },
        {
          "internalType": "address",
          "name": "galr_",
          "type": "address"
        }
      ],
      "stateMutability": "nonpayable",
      "type": "constructor"
    },
    {
      "inputs": [
        {
          "internalType": "address",
          "name": "usr",
          "type": "address"
        },
        {
          "internalType": "uint256",
          "name": "wad",
          "type": "uint256"
        }
      ],
      "name": "exit",
      "outputs": [],
      "stateMutability": "nonpayable",
      "type": "function"
    },
    {
      "inputs": [],
      "name": "galr",
      "outputs": [
        {
          "internalType": "contract DSTokenLike",
          "name": "",
          "type": "address"
        }
      ],
      "stateMutability": "view",
      "type": "function"
    },
    {
      "inputs": [
        {
          "internalType": "address",
          "name": "usr",
          "type": "address"
        },
        {
          "internalType": "uint256",
          "name": "wad",
          "type": "uint256"
        }
      ],
      "name": "join",
      "outputs": [],
      "stateMutability": "nonpayable",
      "type": "function"
    },
    {
      "inputs": [],
      "name": "vat",
      "outputs": [
        {
          "internalType": "contract VatLike",
          "name": "",
          "type": "address"
        }
      ],
      "stateMutability": "view",
      "type": "function"
    }
  ],
  "bytecode": "0x608060405234801561001057600080fd5b5060405161084c38038061084c8339818101604052810190610032919061011d565b816000806101000a81548173ffffffffffffffffffffffffffffffffffffffff021916908373ffffffffffffffffffffffffffffffffffffffff16021790555080600160006101000a81548173ffffffffffffffffffffffffffffffffffffffff021916908373ffffffffffffffffffffffffffffffffffffffff160217905550505061015d565b600080fd5b600073ffffffffffffffffffffffffffffffffffffffff82169050919050565b60006100ea826100bf565b9050919050565b6100fa816100df565b811461010557600080fd5b50565b600081519050610117816100f1565b92915050565b60008060408385031215610134576101336100ba565b5b600061014285828601610108565b925050602061015385828601610108565b9150509250929050565b6106e08061016c6000396000f3fe608060405234801561001057600080fd5b506004361061004c5760003560e01c806336569e77146100515780633b4da69f1461006f578063d2bb57b81461008b578063ef693bed146100a9575b600080fd5b6100596100c5565b6040516100669190610433565b60405180910390f35b610089600480360381019061008491906104c7565b6100e9565b005b610093610220565b6040516100a09190610528565b60405180910390f35b6100c360048036038101906100be91906104c7565b610246565b005b60008054906101000a900473ffffffffffffffffffffffffffffffffffffffff1681565b60008054906101000a900473ffffffffffffffffffffffffffffffffffffffff1673ffffffffffffffffffffffffffffffffffffffff1663bb35783b308461013d6b033b2e3c9fd0803ce80000008661037d565b6040518463ffffffff1660e01b815260040161015b93929190610561565b600060405180830381600087803b15801561017557600080fd5b505af1158015610189573d6000803e3d6000fd5b50505050600160009054906101000a900473ffffffffffffffffffffffffffffffffffffffff1673ffffffffffffffffffffffffffffffffffffffff16639dc29fac33836040518363ffffffff1660e01b81526004016101ea929190610598565b600060405180830381600087803b15801561020457600080fd5b505af1158015610218573d6000803e3d6000fd5b505050505050565b600160009054906101000a900473ffffffffffffffffffffffffffffffffffffffff1681565b60008054906101000a900473ffffffffffffffffffffffffffffffffffffffff1673ffffffffffffffffffffffffffffffffffffffff1663bb35783b333061029a6b033b2e3c9fd0803ce80000008661037d565b6040518463ffffffff1660e01b81526004016102b893929190610561565b600060405180830381600087803b1580156102d257600080fd5b505af11580156102e6573d6000803e3d6000fd5b50505050600160009054906101000a900473ffffffffffffffffffffffffffffffffffffffff1673ffffffffffffffffffffffffffffffffffffffff166340c10f1983836040518363ffffffff1660e01b8152600401610347929190610598565b600060405180830381600087803b15801561036157600080fd5b505af1158015610375573d6000803e3d6000fd5b505050505050565b6000808214806103a557508282838561039691906105f0565b9250826103a39190610679565b145b6103ae57600080fd5b92915050565b600073ffffffffffffffffffffffffffffffffffffffff82169050919050565b6000819050919050565b60006103f96103f46103ef846103b4565b6103d4565b6103b4565b9050919050565b600061040b826103de565b9050919050565b600061041d82610400565b9050919050565b61042d81610412565b82525050565b60006020820190506104486000830184610424565b92915050565b600080fd5b600061045e826103b4565b9050919050565b61046e81610453565b811461047957600080fd5b50565b60008135905061048b81610465565b92915050565b6000819050919050565b6104a481610491565b81146104af57600080fd5b50565b6000813590506104c18161049b565b92915050565b600080604083850312156104de576104dd61044e565b5b60006104ec8582860161047c565b92505060206104fd858286016104b2565b9150509250929050565b600061051282610400565b9050919050565b61052281610507565b82525050565b600060208201905061053d6000830184610519565b92915050565b61054c81610453565b82525050565b61055b81610491565b82525050565b60006060820190506105766000830186610543565b6105836020830185610543565b6105906040830184610552565b949350505050565b60006040820190506105ad6000830185610543565b6105ba6020830184610552565b9392505050565b7f4e487b7100000000000000000000000000000000000000000000000000000000600052601160045260246000fd5b60006105fb82610491565b915061060683610491565b9250817fffffffffffffffffffffffffffffffffffffffffffffffffffffffffffffffff048311821515161561063f5761063e6105c1565b5b828202905092915050565b7f4e487b7100000000000000000000000000000000000000000000000000000000600052601260045260246000fd5b600061068482610491565b915061068f83610491565b92508261069f5761069e61064a565b5b82820490509291505056fea264697066735822122085f59257c3ef74a48e330f65b681ce3c0d516daabc3a1193cb13001f239ada1664736f6c63430008090033",
  "linkReferences": {},
  "deployedLinkReferences": {}
}