{
  "_format": "hh-sol-artifact-1",
  "contractName": "GemJoin",
  "sourceName": "contracts/protocol/galerium/join.sol",
  "abi": [
    {
      "inputs": [
        {
          "internalType": "address",
          "name": "vat_",
          "type": "address"
        },
        {
          "internalType": "bytes32",
          "name": "ilk_",
          "type": "bytes32"
        },
        {
          "internalType": "address",
          "name": "gem_",
          "type": "address"
        }
      ],
      "stateMutability": "nonpayable",
      "type": "constructor"
    },
    {
      "inputs": [
        {
          "internalType": "address",
          "name": "usr",
          "type": "address"
        },
        {
          "internalType": "uint256",
          "name": "wad",
          "type": "uint256"
        }
      ],
      "name": "exit",
      "outputs": [],
      "stateMutability": "nonpayable",
      "type": "function"
    },
    {
      "inputs": [],
      "name": "gem",
      "outputs": [
        {
          "internalType": "contract GemLike",
          "name": "",
          "type": "address"
        }
      ],
      "stateMutability": "view",
      "type": "function"
    },
    {
      "inputs": [],
      "name": "ilk",
      "outputs": [
        {
          "internalType": "bytes32",
          "name": "",
          "type": "bytes32"
        }
      ],
      "stateMutability": "view",
      "type": "function"
    },
    {
      "inputs": [
        {
          "internalType": "address",
          "name": "usr",
          "type": "address"
        },
        {
          "internalType": "uint256",
          "name": "wad",
          "type": "uint256"
        }
      ],
      "name": "join",
      "outputs": [],
      "stateMutability": "nonpayable",
      "type": "function"
    },
    {
      "inputs": [],
      "name": "vat",
      "outputs": [
        {
          "internalType": "contract VatLike",
          "name": "",
          "type": "address"
        }
      ],
      "stateMutability": "view",
      "type": "function"
    }
  ],
  "bytecode": "0x608060405234801561001057600080fd5b5060405161097f38038061097f8339818101604052810190610032919061015b565b826000806101000a81548173ffffffffffffffffffffffffffffffffffffffff021916908373ffffffffffffffffffffffffffffffffffffffff1602179055508160018190555080600260006101000a81548173ffffffffffffffffffffffffffffffffffffffff021916908373ffffffffffffffffffffffffffffffffffffffff1602179055505050506101ae565b600080fd5b600073ffffffffffffffffffffffffffffffffffffffff82169050919050565b60006100f2826100c7565b9050919050565b610102816100e7565b811461010d57600080fd5b50565b60008151905061011f816100f9565b92915050565b6000819050919050565b61013881610125565b811461014357600080fd5b50565b6000815190506101558161012f565b92915050565b600080600060608486031215610174576101736100c2565b5b600061018286828701610110565b935050602061019386828701610146565b92505060406101a486828701610110565b9150509250925092565b6107c2806101bd6000396000f3fe608060405234801561001057600080fd5b50600436106100575760003560e01c806336569e771461005c5780633b4da69f1461007a5780637bd2bea714610096578063c5ce281e146100b4578063ef693bed146100d2575b600080fd5b6100646100ee565b604051610071919061049d565b60405180910390f35b610094600480360381019061008f9190610531565b610112565b005b61009e61026f565b6040516100ab9190610592565b60405180910390f35b6100bc610295565b6040516100c991906105c6565b60405180910390f35b6100ec60048036038101906100e79190610531565b61029b565b005b60008054906101000a900473ffffffffffffffffffffffffffffffffffffffff1681565b600081121561012057600080fd5b60008054906101000a900473ffffffffffffffffffffffffffffffffffffffff1673ffffffffffffffffffffffffffffffffffffffff16637cdd3fde60015484846040518463ffffffff1660e01b815260040161017f93929190610609565b600060405180830381600087803b15801561019957600080fd5b505af11580156101ad573d6000803e3d6000fd5b50505050600260009054906101000a900473ffffffffffffffffffffffffffffffffffffffff1673ffffffffffffffffffffffffffffffffffffffff166323b872dd3330846040518463ffffffff1660e01b81526004016102109392919061064f565b602060405180830381600087803b15801561022a57600080fd5b505af115801561023e573d6000803e3d6000fd5b505050506040513d601f19601f8201168201806040525081019061026291906106be565b61026b57600080fd5b5050565b600260009054906101000a900473ffffffffffffffffffffffffffffffffffffffff1681565b60015481565b7f80000000000000000000000000000000000000000000000000000000000000008111156102c857600080fd5b60008054906101000a900473ffffffffffffffffffffffffffffffffffffffff1673ffffffffffffffffffffffffffffffffffffffff16637cdd3fde60015433846103129061071a565b6040518463ffffffff1660e01b815260040161033093929190610609565b600060405180830381600087803b15801561034a57600080fd5b505af115801561035e573d6000803e3d6000fd5b50505050600260009054906101000a900473ffffffffffffffffffffffffffffffffffffffff1673ffffffffffffffffffffffffffffffffffffffff1663a9059cbb83836040518363ffffffff1660e01b81526004016103bf929190610763565b602060405180830381600087803b1580156103d957600080fd5b505af11580156103ed573d6000803e3d6000fd5b505050506040513d601f19601f8201168201806040525081019061041191906106be565b61041a57600080fd5b5050565b600073ffffffffffffffffffffffffffffffffffffffff82169050919050565b6000819050919050565b600061046361045e6104598461041e565b61043e565b61041e565b9050919050565b600061047582610448565b9050919050565b60006104878261046a565b9050919050565b6104978161047c565b82525050565b60006020820190506104b2600083018461048e565b92915050565b600080fd5b60006104c88261041e565b9050919050565b6104d8816104bd565b81146104e357600080fd5b50565b6000813590506104f5816104cf565b92915050565b6000819050919050565b61050e816104fb565b811461051957600080fd5b50565b60008135905061052b81610505565b92915050565b60008060408385031215610548576105476104b8565b5b6000610556858286016104e6565b92505060206105678582860161051c565b9150509250929050565b600061057c8261046a565b9050919050565b61058c81610571565b82525050565b60006020820190506105a76000830184610583565b92915050565b6000819050919050565b6105c0816105ad565b82525050565b60006020820190506105db60008301846105b7565b92915050565b6105ea816104bd565b82525050565b6000819050919050565b610603816105f0565b82525050565b600060608201905061061e60008301866105b7565b61062b60208301856105e1565b61063860408301846105fa565b949350505050565b610649816104fb565b82525050565b600060608201905061066460008301866105e1565b61067160208301856105e1565b61067e6040830184610640565b949350505050565b60008115159050919050565b61069b81610686565b81146106a657600080fd5b50565b6000815190506106b881610692565b92915050565b6000602082840312156106d4576106d36104b8565b5b60006106e2848285016106a9565b91505092915050565b7f4e487b7100000000000000000000000000000000000000000000000000000000600052601160045260246000fd5b6000610725826105f0565b91507f8000000000000000000000000000000000000000000000000000000000000000821415610758576107576106eb565b5b816000039050919050565b600060408201905061077860008301856105e1565b6107856020830184610640565b939250505056fea26469706673582212204d5bf85f6efcb89c0f37147d93d2aa13cd55624f8415159761b87361c1149b3764736f6c63430008090033",
  "linkReferences": {},
  "deployedLinkReferences": {}
}