{
  "_format": "hh-sol-artifact-1",
  "contractName": "ExponentialDecrease",
  "sourceName": "contracts/protocol/liquidation/abaci.sol",
  "abi": [
    {
      "inputs": [],
      "stateMutability": "nonpayable",
      "type": "constructor"
    },
    {
      "anonymous": false,
      "inputs": [
        {
          "indexed": true,
          "internalType": "address",
          "name": "usr",
          "type": "address"
        }
      ],
      "name": "Deny",
      "type": "event"
    },
    {
      "anonymous": false,
      "inputs": [
        {
          "indexed": true,
          "internalType": "bytes32",
          "name": "what",
          "type": "bytes32"
        },
        {
          "indexed": false,
          "internalType": "uint256",
          "name": "data",
          "type": "uint256"
        }
      ],
      "name": "File",
      "type": "event"
    },
    {
      "anonymous": false,
      "inputs": [
        {
          "indexed": true,
          "internalType": "address",
          "name": "usr",
          "type": "address"
        }
      ],
      "name": "Rely",
      "type": "event"
    },
    {
      "inputs": [],
      "name": "cut",
      "outputs": [
        {
          "internalType": "uint256",
          "name": "",
          "type": "uint256"
        }
      ],
      "stateMutability": "view",
      "type": "function"
    },
    {
      "inputs": [
        {
          "internalType": "address",
          "name": "usr",
          "type": "address"
        }
      ],
      "name": "deny",
      "outputs": [],
      "stateMutability": "nonpayable",
      "type": "function"
    },
    {
      "inputs": [
        {
          "internalType": "bytes32",
          "name": "what",
          "type": "bytes32"
        },
        {
          "internalType": "uint256",
          "name": "data",
          "type": "uint256"
        }
      ],
      "name": "file",
      "outputs": [],
      "stateMutability": "nonpayable",
      "type": "function"
    },
    {
      "inputs": [
        {
          "internalType": "uint256",
          "name": "top",
          "type": "uint256"
        },
        {
          "internalType": "uint256",
          "name": "dur",
          "type": "uint256"
        }
      ],
      "name": "price",
      "outputs": [
        {
          "internalType": "uint256",
          "name": "",
          "type": "uint256"
        }
      ],
      "stateMutability": "view",
      "type": "function"
    },
    {
      "inputs": [
        {
          "internalType": "address",
          "name": "usr",
          "type": "address"
        }
      ],
      "name": "rely",
      "outputs": [],
      "stateMutability": "nonpayable",
      "type": "function"
    },
    {
      "inputs": [
        {
          "internalType": "address",
          "name": "",
          "type": "address"
        }
      ],
      "name": "wards",
      "outputs": [
        {
          "internalType": "uint256",
          "name": "",
          "type": "uint256"
        }
      ],
      "stateMutability": "view",
      "type": "function"
    }
  ],
  "bytecode": "0x608060405234801561001057600080fd5b5060016000803373ffffffffffffffffffffffffffffffffffffffff1673ffffffffffffffffffffffffffffffffffffffff168152602001908152602001600020819055503373ffffffffffffffffffffffffffffffffffffffff167fdd0e34038ac38b2a1ce960229778ac48a8719bc900b6c4f8d0475c6e8b385a6060405160405180910390a2610a90806100a76000396000f3fe608060405234801561001057600080fd5b50600436106100625760003560e01c806329ae811414610067578063487a23951461008357806365fae35e146100b35780639c52a7f1146100cf578063bf353dbb146100eb578063e6fd604c1461011b575b600080fd5b610081600480360381019061007c919061069b565b610139565b005b61009d600480360381019061009891906106db565b6102b2565b6040516100aa919061072a565b60405180910390f35b6100cd60048036038101906100c891906107a3565b6102de565b005b6100e960048036038101906100e491906107a3565b6103e9565b005b610105600480360381019061010091906107a3565b6104f4565b604051610112919061072a565b60405180910390f35b61012361050c565b604051610130919061072a565b60405180910390f35b60016000803373ffffffffffffffffffffffffffffffffffffffff1673ffffffffffffffffffffffffffffffffffffffff16815260200190815260200160002054146101ba576040517f08c379a00000000000000000000000000000000000000000000000000000000081526004016101b190610853565b60405180910390fd5b7f637574000000000000000000000000000000000000000000000000000000000082141561023b576b033b2e3c9fd0803ce80000008160018190551115610236576040517f08c379a000000000000000000000000000000000000000000000000000000000815260040161022d906108bf565b60405180910390fd5b610276565b6040517f08c379a000000000000000000000000000000000000000000000000000000000815260040161026d90610951565b60405180910390fd5b817fe986e40cc8c151830d4f61050f4fb2e4add8567caad2d5f5496f9158e91fe4c7826040516102a6919061072a565b60405180910390a25050565b60006102d6836102d1600154856b033b2e3c9fd0803ce8000000610512565b6105d8565b905092915050565b60016000803373ffffffffffffffffffffffffffffffffffffffff1673ffffffffffffffffffffffffffffffffffffffff168152602001908152602001600020541461035f576040517f08c379a000000000000000000000000000000000000000000000000000000000815260040161035690610853565b60405180910390fd5b60016000808373ffffffffffffffffffffffffffffffffffffffff1673ffffffffffffffffffffffffffffffffffffffff168152602001908152602001600020819055508073ffffffffffffffffffffffffffffffffffffffff167fdd0e34038ac38b2a1ce960229778ac48a8719bc900b6c4f8d0475c6e8b385a6060405160405180910390a250565b60016000803373ffffffffffffffffffffffffffffffffffffffff1673ffffffffffffffffffffffffffffffffffffffff168152602001908152602001600020541461046a576040517f08c379a000000000000000000000000000000000000000000000000000000000815260040161046190610853565b60405180910390fd5b60008060008373ffffffffffffffffffffffffffffffffffffffff1673ffffffffffffffffffffffffffffffffffffffff168152602001908152602001600020819055508073ffffffffffffffffffffffffffffffffffffffff167f184450df2e323acec0ed3b5c7531b81f9b4cdef7914dfd4c0a4317416bb5251b60405160405180910390a250565b60006020528060005260406000206000915090505481565b60015481565b600082600081146105cc5784600081146105c157600285066000811461053a5786935061053e565b8493505b50600284046002860495505b85156105bb578687028760801c1561056157600080fd5b8181018181101561057157600080fd5b868104985060028806156105ae57888602868a820414158a1515161561059657600080fd5b838101818110156105a657600080fd5b888104975050505b505060028604955061054a565b506105c6565b600092505b506105d0565b8291505b509392505050565b600081836105e691906109a0565b9050600082148061060157508282826105ff9190610a29565b145b61060a57600080fd5b6b033b2e3c9fd0803ce8000000816106229190610a29565b905092915050565b600080fd5b6000819050919050565b6106428161062f565b811461064d57600080fd5b50565b60008135905061065f81610639565b92915050565b6000819050919050565b61067881610665565b811461068357600080fd5b50565b6000813590506106958161066f565b92915050565b600080604083850312156106b2576106b161062a565b5b60006106c085828601610650565b92505060206106d185828601610686565b9150509250929050565b600080604083850312156106f2576106f161062a565b5b600061070085828601610686565b925050602061071185828601610686565b9150509250929050565b61072481610665565b82525050565b600060208201905061073f600083018461071b565b92915050565b600073ffffffffffffffffffffffffffffffffffffffff82169050919050565b600061077082610745565b9050919050565b61078081610765565b811461078b57600080fd5b50565b60008135905061079d81610777565b92915050565b6000602082840312156107b9576107b861062a565b5b60006107c78482850161078e565b91505092915050565b600082825260208201905092915050565b7f4578706f6e656e7469616c44656372656173652f6e6f742d617574686f72697a60008201527f6564000000000000000000000000000000000000000000000000000000000000602082015250565b600061083d6022836107d0565b9150610848826107e1565b604082019050919050565b6000602082019050818103600083015261086c81610830565b9050919050565b7f4578706f6e656e7469616c44656372656173652f6375742d67742d5241590000600082015250565b60006108a9601e836107d0565b91506108b482610873565b602082019050919050565b600060208201905081810360008301526108d88161089c565b9050919050565b7f4578706f6e656e7469616c44656372656173652f66696c652d756e7265636f6760008201527f6e697a65642d706172616d000000000000000000000000000000000000000000602082015250565b600061093b602b836107d0565b9150610946826108df565b604082019050919050565b6000602082019050818103600083015261096a8161092e565b9050919050565b7f4e487b7100000000000000000000000000000000000000000000000000000000600052601160045260246000fd5b60006109ab82610665565b91506109b683610665565b9250817fffffffffffffffffffffffffffffffffffffffffffffffffffffffffffffffff04831182151516156109ef576109ee610971565b5b828202905092915050565b7f4e487b7100000000000000000000000000000000000000000000000000000000600052601260045260246000fd5b6000610a3482610665565b9150610a3f83610665565b925082610a4f57610a4e6109fa565b5b82820490509291505056fea264697066735822122088e93e54fdc7013616456dfaf110e1ec2d554fd87f84489effd39c6ce7df6f6b64736f6c63430008090033",
  "linkReferences": {},
  "deployedLinkReferences": {}
}