{
  "_format": "hh-sol-artifact-1",
  "contractName": "LinearDecrease",
  "sourceName": "contracts/protocol/liquidation/abaci.sol",
  "abi": [
    {
      "inputs": [],
      "stateMutability": "nonpayable",
      "type": "constructor"
    },
    {
      "anonymous": false,
      "inputs": [
        {
          "indexed": true,
          "internalType": "address",
          "name": "usr",
          "type": "address"
        }
      ],
      "name": "Deny",
      "type": "event"
    },
    {
      "anonymous": false,
      "inputs": [
        {
          "indexed": true,
          "internalType": "bytes32",
          "name": "what",
          "type": "bytes32"
        },
        {
          "indexed": false,
          "internalType": "uint256",
          "name": "data",
          "type": "uint256"
        }
      ],
      "name": "File",
      "type": "event"
    },
    {
      "anonymous": false,
      "inputs": [
        {
          "indexed": true,
          "internalType": "address",
          "name": "usr",
          "type": "address"
        }
      ],
      "name": "Rely",
      "type": "event"
    },
    {
      "inputs": [
        {
          "internalType": "address",
          "name": "usr",
          "type": "address"
        }
      ],
      "name": "deny",
      "outputs": [],
      "stateMutability": "nonpayable",
      "type": "function"
    },
    {
      "inputs": [
        {
          "internalType": "bytes32",
          "name": "what",
          "type": "bytes32"
        },
        {
          "internalType": "uint256",
          "name": "data",
          "type": "uint256"
        }
      ],
      "name": "file",
      "outputs": [],
      "stateMutability": "nonpayable",
      "type": "function"
    },
    {
      "inputs": [
        {
          "internalType": "uint256",
          "name": "top",
          "type": "uint256"
        },
        {
          "internalType": "uint256",
          "name": "dur",
          "type": "uint256"
        }
      ],
      "name": "price",
      "outputs": [
        {
          "internalType": "uint256",
          "name": "",
          "type": "uint256"
        }
      ],
      "stateMutability": "view",
      "type": "function"
    },
    {
      "inputs": [
        {
          "internalType": "address",
          "name": "usr",
          "type": "address"
        }
      ],
      "name": "rely",
      "outputs": [],
      "stateMutability": "nonpayable",
      "type": "function"
    },
    {
      "inputs": [],
      "name": "tau",
      "outputs": [
        {
          "internalType": "uint256",
          "name": "",
          "type": "uint256"
        }
      ],
      "stateMutability": "view",
      "type": "function"
    },
    {
      "inputs": [
        {
          "internalType": "address",
          "name": "",
          "type": "address"
        }
      ],
      "name": "wards",
      "outputs": [
        {
          "internalType": "uint256",
          "name": "",
          "type": "uint256"
        }
      ],
      "stateMutability": "view",
      "type": "function"
    }
  ],
  "bytecode": "0x608060405234801561001057600080fd5b5060016000803373ffffffffffffffffffffffffffffffffffffffff1673ffffffffffffffffffffffffffffffffffffffff168152602001908152602001600020819055503373ffffffffffffffffffffffffffffffffffffffff167fdd0e34038ac38b2a1ce960229778ac48a8719bc900b6c4f8d0475c6e8b385a6060405160405180910390a2610980806100a76000396000f3fe608060405234801561001057600080fd5b50600436106100625760003560e01c806329ae811414610067578063487a23951461008357806365fae35e146100b35780639c52a7f1146100cf578063bf353dbb146100eb578063cfc4af551461011b575b600080fd5b610081600480360381019061007c91906105e9565b610139565b005b61009d60048036038101906100989190610629565b610265565b6040516100aa9190610678565b60405180910390f35b6100cd60048036038101906100c891906106f1565b6102bb565b005b6100e960048036038101906100e491906106f1565b6103c6565b005b610105600480360381019061010091906106f1565b6104d1565b6040516101129190610678565b60405180910390f35b6101236104e9565b6040516101309190610678565b60405180910390f35b60016000803373ffffffffffffffffffffffffffffffffffffffff1673ffffffffffffffffffffffffffffffffffffffff16815260200190815260200160002054146101ba576040517f08c379a00000000000000000000000000000000000000000000000000000000081526004016101b19061077b565b60405180910390fd5b7f74617500000000000000000000000000000000000000000000000000000000008214156101ee5780600181905550610229565b6040517f08c379a00000000000000000000000000000000000000000000000000000000081526004016102209061080d565b60405180910390fd5b817fe986e40cc8c151830d4f61050f4fb2e4add8567caad2d5f5496f9158e91fe4c7826040516102599190610678565b60405180910390a25050565b6000600154821061027957600090506102b5565b6102b2836001546102a385600154610291919061085c565b6b033b2e3c9fd0803ce80000006104ef565b6102ad91906108bf565b610526565b90505b92915050565b60016000803373ffffffffffffffffffffffffffffffffffffffff1673ffffffffffffffffffffffffffffffffffffffff168152602001908152602001600020541461033c576040517f08c379a00000000000000000000000000000000000000000000000000000000081526004016103339061077b565b60405180910390fd5b60016000808373ffffffffffffffffffffffffffffffffffffffff1673ffffffffffffffffffffffffffffffffffffffff168152602001908152602001600020819055508073ffffffffffffffffffffffffffffffffffffffff167fdd0e34038ac38b2a1ce960229778ac48a8719bc900b6c4f8d0475c6e8b385a6060405160405180910390a250565b60016000803373ffffffffffffffffffffffffffffffffffffffff1673ffffffffffffffffffffffffffffffffffffffff1681526020019081526020016000205414610447576040517f08c379a000000000000000000000000000000000000000000000000000000000815260040161043e9061077b565b60405180910390fd5b60008060008373ffffffffffffffffffffffffffffffffffffffff1673ffffffffffffffffffffffffffffffffffffffff168152602001908152602001600020819055508073ffffffffffffffffffffffffffffffffffffffff167f184450df2e323acec0ed3b5c7531b81f9b4cdef7914dfd4c0a4317416bb5251b60405160405180910390a250565b60006020528060005260406000206000915090505481565b60015481565b60008082148061051757508282838561050891906108f0565b92508261051591906108bf565b145b61052057600080fd5b92915050565b6000818361053491906108f0565b9050600082148061054f575082828261054d91906108bf565b145b61055857600080fd5b6b033b2e3c9fd0803ce80000008161057091906108bf565b905092915050565b600080fd5b6000819050919050565b6105908161057d565b811461059b57600080fd5b50565b6000813590506105ad81610587565b92915050565b6000819050919050565b6105c6816105b3565b81146105d157600080fd5b50565b6000813590506105e3816105bd565b92915050565b60008060408385031215610600576105ff610578565b5b600061060e8582860161059e565b925050602061061f858286016105d4565b9150509250929050565b600080604083850312156106405761063f610578565b5b600061064e858286016105d4565b925050602061065f858286016105d4565b9150509250929050565b610672816105b3565b82525050565b600060208201905061068d6000830184610669565b92915050565b600073ffffffffffffffffffffffffffffffffffffffff82169050919050565b60006106be82610693565b9050919050565b6106ce816106b3565b81146106d957600080fd5b50565b6000813590506106eb816106c5565b92915050565b60006020828403121561070757610706610578565b5b6000610715848285016106dc565b91505092915050565b600082825260208201905092915050565b7f4c696e65617244656372656173652f6e6f742d617574686f72697a6564000000600082015250565b6000610765601d8361071e565b91506107708261072f565b602082019050919050565b6000602082019050818103600083015261079481610758565b9050919050565b7f4c696e65617244656372656173652f66696c652d756e7265636f676e697a656460008201527f2d706172616d0000000000000000000000000000000000000000000000000000602082015250565b60006107f760268361071e565b91506108028261079b565b604082019050919050565b60006020820190508181036000830152610826816107ea565b9050919050565b7f4e487b7100000000000000000000000000000000000000000000000000000000600052601160045260246000fd5b6000610867826105b3565b9150610872836105b3565b9250828210156108855761088461082d565b5b828203905092915050565b7f4e487b7100000000000000000000000000000000000000000000000000000000600052601260045260246000fd5b60006108ca826105b3565b91506108d5836105b3565b9250826108e5576108e4610890565b5b828204905092915050565b60006108fb826105b3565b9150610906836105b3565b9250817fffffffffffffffffffffffffffffffffffffffffffffffffffffffffffffffff048311821515161561093f5761093e61082d565b5b82820290509291505056fea26469706673582212202b4a0db6ef2fa10eabd451d2cbaca7bbbe11d504d2caf2693a32f0f78a6733b764736f6c63430008090033",
  "linkReferences": {},
  "deployedLinkReferences": {}
}