{
  "_format": "hh-sol-artifact-1",
  "contractName": "StairstepExponentialDecrease",
  "sourceName": "contracts/protocol/liquidation/abaci.sol",
  "abi": [
    {
      "inputs": [],
      "stateMutability": "nonpayable",
      "type": "constructor"
    },
    {
      "anonymous": false,
      "inputs": [
        {
          "indexed": true,
          "internalType": "address",
          "name": "usr",
          "type": "address"
        }
      ],
      "name": "Deny",
      "type": "event"
    },
    {
      "anonymous": false,
      "inputs": [
        {
          "indexed": true,
          "internalType": "bytes32",
          "name": "what",
          "type": "bytes32"
        },
        {
          "indexed": false,
          "internalType": "uint256",
          "name": "data",
          "type": "uint256"
        }
      ],
      "name": "File",
      "type": "event"
    },
    {
      "anonymous": false,
      "inputs": [
        {
          "indexed": true,
          "internalType": "address",
          "name": "usr",
          "type": "address"
        }
      ],
      "name": "Rely",
      "type": "event"
    },
    {
      "inputs": [],
      "name": "cut",
      "outputs": [
        {
          "internalType": "uint256",
          "name": "",
          "type": "uint256"
        }
      ],
      "stateMutability": "view",
      "type": "function"
    },
    {
      "inputs": [
        {
          "internalType": "address",
          "name": "usr",
          "type": "address"
        }
      ],
      "name": "deny",
      "outputs": [],
      "stateMutability": "nonpayable",
      "type": "function"
    },
    {
      "inputs": [
        {
          "internalType": "bytes32",
          "name": "what",
          "type": "bytes32"
        },
        {
          "internalType": "uint256",
          "name": "data",
          "type": "uint256"
        }
      ],
      "name": "file",
      "outputs": [],
      "stateMutability": "nonpayable",
      "type": "function"
    },
    {
      "inputs": [
        {
          "internalType": "uint256",
          "name": "top",
          "type": "uint256"
        },
        {
          "internalType": "uint256",
          "name": "dur",
          "type": "uint256"
        }
      ],
      "name": "price",
      "outputs": [
        {
          "internalType": "uint256",
          "name": "",
          "type": "uint256"
        }
      ],
      "stateMutability": "view",
      "type": "function"
    },
    {
      "inputs": [
        {
          "internalType": "address",
          "name": "usr",
          "type": "address"
        }
      ],
      "name": "rely",
      "outputs": [],
      "stateMutability": "nonpayable",
      "type": "function"
    },
    {
      "inputs": [],
      "name": "step",
      "outputs": [
        {
          "internalType": "uint256",
          "name": "",
          "type": "uint256"
        }
      ],
      "stateMutability": "view",
      "type": "function"
    },
    {
      "inputs": [
        {
          "internalType": "address",
          "name": "",
          "type": "address"
        }
      ],
      "name": "wards",
      "outputs": [
        {
          "internalType": "uint256",
          "name": "",
          "type": "uint256"
        }
      ],
      "stateMutability": "view",
      "type": "function"
    }
  ],
  "bytecode": "0x608060405234801561001057600080fd5b5060016000803373ffffffffffffffffffffffffffffffffffffffff1673ffffffffffffffffffffffffffffffffffffffff168152602001908152602001600020819055503373ffffffffffffffffffffffffffffffffffffffff167fdd0e34038ac38b2a1ce960229778ac48a8719bc900b6c4f8d0475c6e8b385a6060405160405180910390a2610b37806100a76000396000f3fe608060405234801561001057600080fd5b506004361061007d5760003560e01c80639c52a7f11161005b5780639c52a7f1146100ea578063bf353dbb14610106578063e25fe17514610136578063e6fd604c146101545761007d565b806329ae811414610082578063487a23951461009e57806365fae35e146100ce575b600080fd5b61009c6004803603810190610097919061071c565b610172565b005b6100b860048036038101906100b3919061075c565b610320565b6040516100c591906107ab565b60405180910390f35b6100e860048036038101906100e39190610824565b610359565b005b61010460048036038101906100ff9190610824565b610464565b005b610120600480360381019061011b9190610824565b61056f565b60405161012d91906107ab565b60405180910390f35b61013e610587565b60405161014b91906107ab565b60405180910390f35b61015c61058d565b60405161016991906107ab565b60405180910390f35b60016000803373ffffffffffffffffffffffffffffffffffffffff1673ffffffffffffffffffffffffffffffffffffffff16815260200190815260200160002054146101f3576040517f08c379a00000000000000000000000000000000000000000000000000000000081526004016101ea906108d4565b60405180910390fd5b7f6375740000000000000000000000000000000000000000000000000000000000821415610274576b033b2e3c9fd0803ce8000000816002819055111561026f576040517f08c379a000000000000000000000000000000000000000000000000000000000815260040161026690610966565b60405180910390fd5b6102e4565b7f73746570000000000000000000000000000000000000000000000000000000008214156102a857806001819055506102e3565b6040517f08c379a00000000000000000000000000000000000000000000000000000000081526004016102da906109f8565b60405180910390fd5b5b817fe986e40cc8c151830d4f61050f4fb2e4add8567caad2d5f5496f9158e91fe4c78260405161031491906107ab565b60405180910390a25050565b60006103518361034c6002546001548661033a9190610a76565b6b033b2e3c9fd0803ce8000000610593565b610659565b905092915050565b60016000803373ffffffffffffffffffffffffffffffffffffffff1673ffffffffffffffffffffffffffffffffffffffff16815260200190815260200160002054146103da576040517f08c379a00000000000000000000000000000000000000000000000000000000081526004016103d1906108d4565b60405180910390fd5b60016000808373ffffffffffffffffffffffffffffffffffffffff1673ffffffffffffffffffffffffffffffffffffffff168152602001908152602001600020819055508073ffffffffffffffffffffffffffffffffffffffff167fdd0e34038ac38b2a1ce960229778ac48a8719bc900b6c4f8d0475c6e8b385a6060405160405180910390a250565b60016000803373ffffffffffffffffffffffffffffffffffffffff1673ffffffffffffffffffffffffffffffffffffffff16815260200190815260200160002054146104e5576040517f08c379a00000000000000000000000000000000000000000000000000000000081526004016104dc906108d4565b60405180910390fd5b60008060008373ffffffffffffffffffffffffffffffffffffffff1673ffffffffffffffffffffffffffffffffffffffff168152602001908152602001600020819055508073ffffffffffffffffffffffffffffffffffffffff167f184450df2e323acec0ed3b5c7531b81f9b4cdef7914dfd4c0a4317416bb5251b60405160405180910390a250565b60006020528060005260406000206000915090505481565b60015481565b60025481565b6000826000811461064d5784600081146106425760028506600081146105bb578693506105bf565b8493505b50600284046002860495505b851561063c578687028760801c156105e257600080fd5b818101818110156105f257600080fd5b8681049850600288061561062f57888602868a820414158a1515161561061757600080fd5b8381018181101561062757600080fd5b888104975050505b50506002860495506105cb565b50610647565b600092505b50610651565b8291505b509392505050565b600081836106679190610aa7565b9050600082148061068257508282826106809190610a76565b145b61068b57600080fd5b6b033b2e3c9fd0803ce8000000816106a39190610a76565b905092915050565b600080fd5b6000819050919050565b6106c3816106b0565b81146106ce57600080fd5b50565b6000813590506106e0816106ba565b92915050565b6000819050919050565b6106f9816106e6565b811461070457600080fd5b50565b600081359050610716816106f0565b92915050565b60008060408385031215610733576107326106ab565b5b6000610741858286016106d1565b925050602061075285828601610707565b9150509250929050565b60008060408385031215610773576107726106ab565b5b600061078185828601610707565b925050602061079285828601610707565b9150509250929050565b6107a5816106e6565b82525050565b60006020820190506107c0600083018461079c565b92915050565b600073ffffffffffffffffffffffffffffffffffffffff82169050919050565b60006107f1826107c6565b9050919050565b610801816107e6565b811461080c57600080fd5b50565b60008135905061081e816107f8565b92915050565b60006020828403121561083a576108396106ab565b5b60006108488482850161080f565b91505092915050565b600082825260208201905092915050565b7f5374616972737465704578706f6e656e7469616c44656372656173652f6e6f7460008201527f2d617574686f72697a6564000000000000000000000000000000000000000000602082015250565b60006108be602b83610851565b91506108c982610862565b604082019050919050565b600060208201905081810360008301526108ed816108b1565b9050919050565b7f5374616972737465704578706f6e656e7469616c44656372656173652f63757460008201527f2d67742d52415900000000000000000000000000000000000000000000000000602082015250565b6000610950602783610851565b915061095b826108f4565b604082019050919050565b6000602082019050818103600083015261097f81610943565b9050919050565b7f5374616972737465704578706f6e656e7469616c44656372656173652f66696c60008201527f652d756e7265636f676e697a65642d706172616d000000000000000000000000602082015250565b60006109e2603483610851565b91506109ed82610986565b604082019050919050565b60006020820190508181036000830152610a11816109d5565b9050919050565b7f4e487b7100000000000000000000000000000000000000000000000000000000600052601260045260246000fd5b7f4e487b7100000000000000000000000000000000000000000000000000000000600052601160045260246000fd5b6000610a81826106e6565b9150610a8c836106e6565b925082610a9c57610a9b610a18565b5b828204905092915050565b6000610ab2826106e6565b9150610abd836106e6565b9250817fffffffffffffffffffffffffffffffffffffffffffffffffffffffffffffffff0483118215151615610af657610af5610a47565b5b82820290509291505056fea264697066735822122081100f008c1ae26ac671d45a47d7039b0a070961691f9c8e6ddf98f2323c286064736f6c63430008090033",
  "linkReferences": {},
  "deployedLinkReferences": {}
}