{
  "_format": "hh-sol-artifact-1",
  "contractName": "Vow",
  "sourceName": "contracts/protocol/stabilizer/vow.sol",
  "abi": [
    {
      "inputs": [
        {
          "internalType": "address",
          "name": "vat_",
          "type": "address"
        },
        {
          "internalType": "address",
          "name": "flapper_",
          "type": "address"
        },
        {
          "internalType": "address",
          "name": "flopper_",
          "type": "address"
        }
      ],
      "stateMutability": "nonpayable",
      "type": "constructor"
    },
    {
      "inputs": [],
      "name": "Ash",
      "outputs": [
        {
          "internalType": "uint256",
          "name": "",
          "type": "uint256"
        }
      ],
      "stateMutability": "view",
      "type": "function"
    },
    {
      "inputs": [],
      "name": "Sin",
      "outputs": [
        {
          "internalType": "uint256",
          "name": "",
          "type": "uint256"
        }
      ],
      "stateMutability": "view",
      "type": "function"
    },
    {
      "inputs": [],
      "name": "bump",
      "outputs": [
        {
          "internalType": "uint256",
          "name": "",
          "type": "uint256"
        }
      ],
      "stateMutability": "view",
      "type": "function"
    },
    {
      "inputs": [],
      "name": "cage",
      "outputs": [],
      "stateMutability": "nonpayable",
      "type": "function"
    },
    {
      "inputs": [
        {
          "internalType": "address",
          "name": "usr",
          "type": "address"
        }
      ],
      "name": "deny",
      "outputs": [],
      "stateMutability": "nonpayable",
      "type": "function"
    },
    {
      "inputs": [],
      "name": "dump",
      "outputs": [
        {
          "internalType": "uint256",
          "name": "",
          "type": "uint256"
        }
      ],
      "stateMutability": "view",
      "type": "function"
    },
    {
      "inputs": [
        {
          "internalType": "uint256",
          "name": "tab",
          "type": "uint256"
        }
      ],
      "name": "fess",
      "outputs": [],
      "stateMutability": "nonpayable",
      "type": "function"
    },
    {
      "inputs": [
        {
          "internalType": "bytes32",
          "name": "what",
          "type": "bytes32"
        },
        {
          "internalType": "uint256",
          "name": "data",
          "type": "uint256"
        }
      ],
      "name": "file",
      "outputs": [],
      "stateMutability": "nonpayable",
      "type": "function"
    },
    {
      "inputs": [
        {
          "internalType": "bytes32",
          "name": "what",
          "type": "bytes32"
        },
        {
          "internalType": "address",
          "name": "data",
          "type": "address"
        }
      ],
      "name": "file",
      "outputs": [],
      "stateMutability": "nonpayable",
      "type": "function"
    },
    {
      "inputs": [],
      "name": "flap",
      "outputs": [
        {
          "internalType": "uint256",
          "name": "id",
          "type": "uint256"
        }
      ],
      "stateMutability": "nonpayable",
      "type": "function"
    },
    {
      "inputs": [],
      "name": "flapper",
      "outputs": [
        {
          "internalType": "contract FlapLike",
          "name": "",
          "type": "address"
        }
      ],
      "stateMutability": "view",
      "type": "function"
    },
    {
      "inputs": [
        {
          "internalType": "uint256",
          "name": "era",
          "type": "uint256"
        }
      ],
      "name": "flog",
      "outputs": [],
      "stateMutability": "nonpayable",
      "type": "function"
    },
    {
      "inputs": [],
      "name": "flop",
      "outputs": [
        {
          "internalType": "uint256",
          "name": "id",
          "type": "uint256"
        }
      ],
      "stateMutability": "nonpayable",
      "type": "function"
    },
    {
      "inputs": [],
      "name": "flopper",
      "outputs": [
        {
          "internalType": "contract FlopLike",
          "name": "",
          "type": "address"
        }
      ],
      "stateMutability": "view",
      "type": "function"
    },
    {
      "inputs": [
        {
          "internalType": "uint256",
          "name": "rad",
          "type": "uint256"
        }
      ],
      "name": "heal",
      "outputs": [],
      "stateMutability": "nonpayable",
      "type": "function"
    },
    {
      "inputs": [],
      "name": "hump",
      "outputs": [
        {
          "internalType": "uint256",
          "name": "",
          "type": "uint256"
        }
      ],
      "stateMutability": "view",
      "type": "function"
    },
    {
      "inputs": [
        {
          "internalType": "uint256",
          "name": "rad",
          "type": "uint256"
        }
      ],
      "name": "kiss",
      "outputs": [],
      "stateMutability": "nonpayable",
      "type": "function"
    },
    {
      "inputs": [],
      "name": "live",
      "outputs": [
        {
          "internalType": "uint256",
          "name": "",
          "type": "uint256"
        }
      ],
      "stateMutability": "view",
      "type": "function"
    },
    {
      "inputs": [
        {
          "internalType": "address",
          "name": "usr",
          "type": "address"
        }
      ],
      "name": "rely",
      "outputs": [],
      "stateMutability": "nonpayable",
      "type": "function"
    },
    {
      "inputs": [
        {
          "internalType": "uint256",
          "name": "",
          "type": "uint256"
        }
      ],
      "name": "sin",
      "outputs": [
        {
          "internalType": "uint256",
          "name": "",
          "type": "uint256"
        }
      ],
      "stateMutability": "view",
      "type": "function"
    },
    {
      "inputs": [],
      "name": "sump",
      "outputs": [
        {
          "internalType": "uint256",
          "name": "",
          "type": "uint256"
        }
      ],
      "stateMutability": "view",
      "type": "function"
    },
    {
      "inputs": [],
      "name": "vat",
      "outputs": [
        {
          "internalType": "contract VatLike",
          "name": "",
          "type": "address"
        }
      ],
      "stateMutability": "view",
      "type": "function"
    },
    {
      "inputs": [],
      "name": "wait",
      "outputs": [
        {
          "internalType": "uint256",
          "name": "",
          "type": "uint256"
        }
      ],
      "stateMutability": "view",
      "type": "function"
    },
    {
      "inputs": [
        {
          "internalType": "address",
          "name": "",
          "type": "address"
        }
      ],
      "name": "wards",
      "outputs": [
        {
          "internalType": "uint256",
          "name": "",
          "type": "uint256"
        }
      ],
      "stateMutability": "view",
      "type": "function"
    }
  ],
  "bytecode": "0x60806040523480156200001157600080fd5b50604051620027ce380380620027ce83398181016040528101906200003791906200024a565b60016000803373ffffffffffffffffffffffffffffffffffffffff1673ffffffffffffffffffffffffffffffffffffffff1681526020019081526020016000208190555082600160006101000a81548173ffffffffffffffffffffffffffffffffffffffff021916908373ffffffffffffffffffffffffffffffffffffffff16021790555081600260006101000a81548173ffffffffffffffffffffffffffffffffffffffff021916908373ffffffffffffffffffffffffffffffffffffffff16021790555080600360006101000a81548173ffffffffffffffffffffffffffffffffffffffff021916908373ffffffffffffffffffffffffffffffffffffffff160217905550600160009054906101000a900473ffffffffffffffffffffffffffffffffffffffff1673ffffffffffffffffffffffffffffffffffffffff1663a3b22fc4836040518263ffffffff1660e01b81526004016200019b9190620002b7565b600060405180830381600087803b158015620001b657600080fd5b505af1158015620001cb573d6000803e3d6000fd5b505050506001600c81905550505050620002d4565b600080fd5b600073ffffffffffffffffffffffffffffffffffffffff82169050919050565b60006200021282620001e5565b9050919050565b620002248162000205565b81146200023057600080fd5b50565b600081519050620002448162000219565b92915050565b600080600060608486031215620002665762000265620001e0565b5b6000620002768682870162000233565b9350506020620002898682870162000233565b92505060406200029c8682870162000233565b9150509250925092565b620002b18162000205565b82525050565b6000602082019050620002ce6000830184620002a6565b92915050565b6124ea80620002e46000396000f3fe608060405234801561001057600080fd5b50600436106101585760003560e01c8063697efb78116100c3578063cb5cc1091161007c578063cb5cc1091461036d578063d0adc35f1461039d578063d4e8be83146103bb578063d7ee674b146103d7578063e4330545146103f3578063f37ac61c1461041157610158565b8063697efb78146102ab578063957aa58c146102c75780639c52a7f1146102e5578063bbbb0d7b14610301578063bf353dbb1461031f578063c349d3621461034f57610158565b80634081d73a116101155780634081d73a1461020d5780635ca0d7231461022b57806364bd70131461024957806365fae35e1461026757806368110b2f1461028357806369245009146102a157610158565b80630e01198b1461015d5780631b8e8cfa1461017b5780632506855a1461019957806329ae8114146101b55780632a1d2b3c146101d157806336569e77146101ef575b600080fd5b61016561042d565b6040516101729190611c6b565b60405180910390f35b610183610796565b6040516101909190611c6b565b60405180910390f35b6101b360048036038101906101ae9190611cb7565b61079c565b005b6101cf60048036038101906101ca9190611d1a565b610970565b005b6101d9610b38565b6040516101e69190611c6b565b60405180910390f35b6101f7610b3e565b6040516102049190611dd9565b60405180910390f35b610215610b64565b6040516102229190611e15565b60405180910390f35b610233610b8a565b6040516102409190611e51565b60405180910390f35b610251610bb0565b60405161025e9190611c6b565b60405180910390f35b610281600480360381019061027c9190611eaa565b610bb6565b005b61028b610cc3565b6040516102989190611c6b565b60405180910390f35b6102a9610cc9565b005b6102c560048036038101906102c09190611cb7565b61116e565b005b6102cf611238565b6040516102dc9190611c6b565b60405180910390f35b6102ff60048036038101906102fa9190611eaa565b61123e565b005b610309611306565b6040516103169190611c6b565b60405180910390f35b61033960048036038101906103349190611eaa565b6115c8565b6040516103469190611c6b565b60405180910390f35b6103576115e0565b6040516103649190611c6b565b60405180910390f35b61038760048036038101906103829190611cb7565b6115e6565b6040516103949190611c6b565b60405180910390f35b6103a56115fe565b6040516103b29190611c6b565b60405180910390f35b6103d560048036038101906103d09190611ed7565b611604565b005b6103f160048036038101906103ec9190611cb7565b6118dd565b005b6103fb61196c565b6040516104089190611c6b565b60405180910390f35b61042b60048036038101906104269190611cb7565b611972565b005b60006104f06104e8600160009054906101000a900473ffffffffffffffffffffffffffffffffffffffff1673ffffffffffffffffffffffffffffffffffffffff1663f059212a306040518263ffffffff1660e01b81526004016104909190611f26565b60206040518083038186803b1580156104a857600080fd5b505afa1580156104bc573d6000803e3d6000fd5b505050506040513d601f19601f820116820180604052508101906104e09190611f56565b600a54611bf2565b600b54611bf2565b600160009054906101000a900473ffffffffffffffffffffffffffffffffffffffff1673ffffffffffffffffffffffffffffffffffffffff16636c25b346306040518263ffffffff1660e01b815260040161054b9190611f26565b60206040518083038186803b15801561056357600080fd5b505afa158015610577573d6000803e3d6000fd5b505050506040513d601f19601f8201168201806040525081019061059b9190611f56565b10156105dc576040517f08c379a00000000000000000000000000000000000000000000000000000000081526004016105d390611fe0565b60405180910390fd5b600061069f610697600160009054906101000a900473ffffffffffffffffffffffffffffffffffffffff1673ffffffffffffffffffffffffffffffffffffffff1663f059212a306040518263ffffffff1660e01b815260040161063f9190611f26565b60206040518083038186803b15801561065757600080fd5b505afa15801561066b573d6000803e3d6000fd5b505050506040513d601f19601f8201168201806040525081019061068f9190611f56565b600554611c15565b600654611c15565b146106df576040517f08c379a00000000000000000000000000000000000000000000000000000000081526004016106d69061204c565b60405180910390fd5b600260009054906101000a900473ffffffffffffffffffffffffffffffffffffffff1673ffffffffffffffffffffffffffffffffffffffff1663ca40c419600a5460006040518363ffffffff1660e01b815260040161073f9291906120a7565b602060405180830381600087803b15801561075957600080fd5b505af115801561076d573d6000803e3d6000fd5b505050506040513d601f19601f820116820180604052508101906107919190611f56565b905090565b600b5481565b6006548111156107e1576040517f08c379a00000000000000000000000000000000000000000000000000000000081526004016107d89061211c565b60405180910390fd5b600160009054906101000a900473ffffffffffffffffffffffffffffffffffffffff1673ffffffffffffffffffffffffffffffffffffffff16636c25b346306040518263ffffffff1660e01b815260040161083c9190611f26565b60206040518083038186803b15801561085457600080fd5b505afa158015610868573d6000803e3d6000fd5b505050506040513d601f19601f8201168201806040525081019061088c9190611f56565b8111156108ce576040517f08c379a00000000000000000000000000000000000000000000000000000000081526004016108c590611fe0565b60405180910390fd5b6108da60065482611c15565b600681905550600160009054906101000a900473ffffffffffffffffffffffffffffffffffffffff1673ffffffffffffffffffffffffffffffffffffffff1663f37ac61c826040518263ffffffff1660e01b815260040161093b9190611c6b565b600060405180830381600087803b15801561095557600080fd5b505af1158015610969573d6000803e3d6000fd5b5050505050565b60016000803373ffffffffffffffffffffffffffffffffffffffff1673ffffffffffffffffffffffffffffffffffffffff16815260200190815260200160002054146109f1576040517f08c379a00000000000000000000000000000000000000000000000000000000081526004016109e890612188565b60405180910390fd5b7f7761697400000000000000000000000000000000000000000000000000000000821415610a255780600781905550610b34565b7f62756d7000000000000000000000000000000000000000000000000000000000821415610a595780600a81905550610b33565b7f73756d7000000000000000000000000000000000000000000000000000000000821415610a8d5780600981905550610b32565b7f64756d7000000000000000000000000000000000000000000000000000000000821415610ac15780600881905550610b31565b7f68756d7000000000000000000000000000000000000000000000000000000000821415610af55780600b81905550610b30565b6040517f08c379a0000000000000000000000000000000000000000000000000000000008152600401610b27906121f4565b60405180910390fd5b5b5b5b5b5050565b60065481565b600160009054906101000a900473ffffffffffffffffffffffffffffffffffffffff1681565b600360009054906101000a900473ffffffffffffffffffffffffffffffffffffffff1681565b600260009054906101000a900473ffffffffffffffffffffffffffffffffffffffff1681565b60075481565b60016000803373ffffffffffffffffffffffffffffffffffffffff1673ffffffffffffffffffffffffffffffffffffffff1681526020019081526020016000205414610c37576040517f08c379a0000000000000000000000000000000000000000000000000000000008152600401610c2e90612188565b60405180910390fd5b6001600c5414610c7c576040517f08c379a0000000000000000000000000000000000000000000000000000000008152600401610c7390612260565b60405180910390fd5b60016000808373ffffffffffffffffffffffffffffffffffffffff1673ffffffffffffffffffffffffffffffffffffffff1681526020019081526020016000208190555050565b600a5481565b60016000803373ffffffffffffffffffffffffffffffffffffffff1673ffffffffffffffffffffffffffffffffffffffff1681526020019081526020016000205414610d4a576040517f08c379a0000000000000000000000000000000000000000000000000000000008152600401610d4190612188565b60405180910390fd5b6001600c5414610d8f576040517f08c379a0000000000000000000000000000000000000000000000000000000008152600401610d8690612260565b60405180910390fd5b6000600c8190555060006005819055506000600681905550600260009054906101000a900473ffffffffffffffffffffffffffffffffffffffff1673ffffffffffffffffffffffffffffffffffffffff1663a2f91af2600160009054906101000a900473ffffffffffffffffffffffffffffffffffffffff1673ffffffffffffffffffffffffffffffffffffffff16636c25b346600260009054906101000a900473ffffffffffffffffffffffffffffffffffffffff166040518263ffffffff1660e01b8152600401610e629190611f26565b60206040518083038186803b158015610e7a57600080fd5b505afa158015610e8e573d6000803e3d6000fd5b505050506040513d601f19601f82011682018060405250810190610eb29190611f56565b6040518263ffffffff1660e01b8152600401610ece9190611c6b565b600060405180830381600087803b158015610ee857600080fd5b505af1158015610efc573d6000803e3d6000fd5b50505050600360009054906101000a900473ffffffffffffffffffffffffffffffffffffffff1673ffffffffffffffffffffffffffffffffffffffff1663692450096040518163ffffffff1660e01b8152600401600060405180830381600087803b158015610f6a57600080fd5b505af1158015610f7e573d6000803e3d6000fd5b50505050600160009054906101000a900473ffffffffffffffffffffffffffffffffffffffff1673ffffffffffffffffffffffffffffffffffffffff1663f37ac61c61111e600160009054906101000a900473ffffffffffffffffffffffffffffffffffffffff1673ffffffffffffffffffffffffffffffffffffffff16636c25b346306040518263ffffffff1660e01b815260040161101e9190611f26565b60206040518083038186803b15801561103657600080fd5b505afa15801561104a573d6000803e3d6000fd5b505050506040513d601f19601f8201168201806040525081019061106e9190611f56565b600160009054906101000a900473ffffffffffffffffffffffffffffffffffffffff1673ffffffffffffffffffffffffffffffffffffffff1663f059212a306040518263ffffffff1660e01b81526004016110c99190611f26565b60206040518083038186803b1580156110e157600080fd5b505afa1580156110f5573d6000803e3d6000fd5b505050506040513d601f19601f820116820180604052508101906111199190611f56565b611c38565b6040518263ffffffff1660e01b815260040161113a9190611c6b565b600060405180830381600087803b15801561115457600080fd5b505af1158015611168573d6000803e3d6000fd5b50505050565b60016000803373ffffffffffffffffffffffffffffffffffffffff1673ffffffffffffffffffffffffffffffffffffffff16815260200190815260200160002054146111ef576040517f08c379a00000000000000000000000000000000000000000000000000000000081526004016111e690612188565b60405180910390fd5b61120c600460004281526020019081526020016000205482611bf2565b600460004281526020019081526020016000208190555061122f60055482611bf2565b60058190555050565b600c5481565b60016000803373ffffffffffffffffffffffffffffffffffffffff1673ffffffffffffffffffffffffffffffffffffffff16815260200190815260200160002054146112bf576040517f08c379a00000000000000000000000000000000000000000000000000000000081526004016112b690612188565b60405180910390fd5b60008060008373ffffffffffffffffffffffffffffffffffffffff1673ffffffffffffffffffffffffffffffffffffffff1681526020019081526020016000208190555050565b60006113c96113c1600160009054906101000a900473ffffffffffffffffffffffffffffffffffffffff1673ffffffffffffffffffffffffffffffffffffffff1663f059212a306040518263ffffffff1660e01b81526004016113699190611f26565b60206040518083038186803b15801561138157600080fd5b505afa158015611395573d6000803e3d6000fd5b505050506040513d601f19601f820116820180604052508101906113b99190611f56565b600554611c15565b600654611c15565b600954111561140d576040517f08c379a0000000000000000000000000000000000000000000000000000000008152600401611404906122cc565b60405180910390fd5b6000600160009054906101000a900473ffffffffffffffffffffffffffffffffffffffff1673ffffffffffffffffffffffffffffffffffffffff16636c25b346306040518263ffffffff1660e01b815260040161146a9190611f26565b60206040518083038186803b15801561148257600080fd5b505afa158015611496573d6000803e3d6000fd5b505050506040513d601f19601f820116820180604052508101906114ba9190611f56565b146114fa576040517f08c379a00000000000000000000000000000000000000000000000000000000081526004016114f190612338565b60405180910390fd5b611508600654600954611bf2565b600681905550600360009054906101000a900473ffffffffffffffffffffffffffffffffffffffff1673ffffffffffffffffffffffffffffffffffffffff1663b7e9cd24306008546009546040518463ffffffff1660e01b815260040161157193929190612358565b602060405180830381600087803b15801561158b57600080fd5b505af115801561159f573d6000803e3d6000fd5b505050506040513d601f19601f820116820180604052508101906115c39190611f56565b905090565b60006020528060005260406000206000915090505481565b60095481565b60046020528060005260406000206000915090505481565b60055481565b60016000803373ffffffffffffffffffffffffffffffffffffffff1673ffffffffffffffffffffffffffffffffffffffff1681526020019081526020016000205414611685576040517f08c379a000000000000000000000000000000000000000000000000000000000815260040161167c90612188565b60405180910390fd5b7f666c61707065720000000000000000000000000000000000000000000000000082141561182f57600160009054906101000a900473ffffffffffffffffffffffffffffffffffffffff1673ffffffffffffffffffffffffffffffffffffffff1663dc4d20fa600260009054906101000a900473ffffffffffffffffffffffffffffffffffffffff166040518263ffffffff1660e01b815260040161172a9190611f26565b600060405180830381600087803b15801561174457600080fd5b505af1158015611758573d6000803e3d6000fd5b5050505080600260006101000a81548173ffffffffffffffffffffffffffffffffffffffff021916908373ffffffffffffffffffffffffffffffffffffffff160217905550600160009054906101000a900473ffffffffffffffffffffffffffffffffffffffff1673ffffffffffffffffffffffffffffffffffffffff1663a3b22fc4826040518263ffffffff1660e01b81526004016117f89190611f26565b600060405180830381600087803b15801561181257600080fd5b505af1158015611826573d6000803e3d6000fd5b505050506118d9565b7f666c6f707065720000000000000000000000000000000000000000000000000082141561189d5780600360006101000a81548173ffffffffffffffffffffffffffffffffffffffff021916908373ffffffffffffffffffffffffffffffffffffffff1602179055506118d8565b6040517f08c379a00000000000000000000000000000000000000000000000000000000081526004016118cf906121f4565b60405180910390fd5b5b5050565b426118ea82600754611bf2565b111561192b576040517f08c379a0000000000000000000000000000000000000000000000000000000008152600401611922906123db565b60405180910390fd5b61194a6005546004600084815260200190815260200160002054611c15565b6005819055506000600460008381526020019081526020016000208190555050565b60085481565b600160009054906101000a900473ffffffffffffffffffffffffffffffffffffffff1673ffffffffffffffffffffffffffffffffffffffff16636c25b346306040518263ffffffff1660e01b81526004016119cd9190611f26565b60206040518083038186803b1580156119e557600080fd5b505afa1580156119f9573d6000803e3d6000fd5b505050506040513d601f19601f82011682018060405250810190611a1d9190611f56565b811115611a5f576040517f08c379a0000000000000000000000000000000000000000000000000000000008152600401611a5690611fe0565b60405180910390fd5b611b20611b18600160009054906101000a900473ffffffffffffffffffffffffffffffffffffffff1673ffffffffffffffffffffffffffffffffffffffff1663f059212a306040518263ffffffff1660e01b8152600401611ac09190611f26565b60206040518083038186803b158015611ad857600080fd5b505afa158015611aec573d6000803e3d6000fd5b505050506040513d601f19601f82011682018060405250810190611b109190611f56565b600554611c15565b600654611c15565b811115611b62576040517f08c379a0000000000000000000000000000000000000000000000000000000008152600401611b59906122cc565b60405180910390fd5b600160009054906101000a900473ffffffffffffffffffffffffffffffffffffffff1673ffffffffffffffffffffffffffffffffffffffff1663f37ac61c826040518263ffffffff1660e01b8152600401611bbd9190611c6b565b600060405180830381600087803b158015611bd757600080fd5b505af1158015611beb573d6000803e3d6000fd5b5050505050565b6000828284611c01919061242a565b9150811015611c0f57600080fd5b92915050565b6000828284611c249190612480565b9150811115611c3257600080fd5b92915050565b600081831115611c485781611c4a565b825b905092915050565b6000819050919050565b611c6581611c52565b82525050565b6000602082019050611c806000830184611c5c565b92915050565b600080fd5b611c9481611c52565b8114611c9f57600080fd5b50565b600081359050611cb181611c8b565b92915050565b600060208284031215611ccd57611ccc611c86565b5b6000611cdb84828501611ca2565b91505092915050565b6000819050919050565b611cf781611ce4565b8114611d0257600080fd5b50565b600081359050611d1481611cee565b92915050565b60008060408385031215611d3157611d30611c86565b5b6000611d3f85828601611d05565b9250506020611d5085828601611ca2565b9150509250929050565b600073ffffffffffffffffffffffffffffffffffffffff82169050919050565b6000819050919050565b6000611d9f611d9a611d9584611d5a565b611d7a565b611d5a565b9050919050565b6000611db182611d84565b9050919050565b6000611dc382611da6565b9050919050565b611dd381611db8565b82525050565b6000602082019050611dee6000830184611dca565b92915050565b6000611dff82611da6565b9050919050565b611e0f81611df4565b82525050565b6000602082019050611e2a6000830184611e06565b92915050565b6000611e3b82611da6565b9050919050565b611e4b81611e30565b82525050565b6000602082019050611e666000830184611e42565b92915050565b6000611e7782611d5a565b9050919050565b611e8781611e6c565b8114611e9257600080fd5b50565b600081359050611ea481611e7e565b92915050565b600060208284031215611ec057611ebf611c86565b5b6000611ece84828501611e95565b91505092915050565b60008060408385031215611eee57611eed611c86565b5b6000611efc85828601611d05565b9250506020611f0d85828601611e95565b9150509250929050565b611f2081611e6c565b82525050565b6000602082019050611f3b6000830184611f17565b92915050565b600081519050611f5081611c8b565b92915050565b600060208284031215611f6c57611f6b611c86565b5b6000611f7a84828501611f41565b91505092915050565b600082825260208201905092915050565b7f566f772f696e73756666696369656e742d737572706c75730000000000000000600082015250565b6000611fca601883611f83565b9150611fd582611f94565b602082019050919050565b60006020820190508181036000830152611ff981611fbd565b9050919050565b7f566f772f646562742d6e6f742d7a65726f000000000000000000000000000000600082015250565b6000612036601183611f83565b915061204182612000565b602082019050919050565b6000602082019050818103600083015261206581612029565b9050919050565b6000819050919050565b600061209161208c6120878461206c565b611d7a565b611c52565b9050919050565b6120a181612076565b82525050565b60006040820190506120bc6000830185611c5c565b6120c96020830184612098565b9392505050565b7f566f772f6e6f742d656e6f7567682d6173680000000000000000000000000000600082015250565b6000612106601283611f83565b9150612111826120d0565b602082019050919050565b60006020820190508181036000830152612135816120f9565b9050919050565b7f566f772f6e6f742d617574686f72697a65640000000000000000000000000000600082015250565b6000612172601283611f83565b915061217d8261213c565b602082019050919050565b600060208201905081810360008301526121a181612165565b9050919050565b7f566f772f66696c652d756e7265636f676e697a65642d706172616d0000000000600082015250565b60006121de601b83611f83565b91506121e9826121a8565b602082019050919050565b6000602082019050818103600083015261220d816121d1565b9050919050565b7f566f772f6e6f742d6c6976650000000000000000000000000000000000000000600082015250565b600061224a600c83611f83565b915061225582612214565b602082019050919050565b600060208201905081810360008301526122798161223d565b9050919050565b7f566f772f696e73756666696369656e742d646562740000000000000000000000600082015250565b60006122b6601583611f83565b91506122c182612280565b602082019050919050565b600060208201905081810360008301526122e5816122a9565b9050919050565b7f566f772f737572706c75732d6e6f742d7a65726f000000000000000000000000600082015250565b6000612322601483611f83565b915061232d826122ec565b602082019050919050565b6000602082019050818103600083015261235181612315565b9050919050565b600060608201905061236d6000830186611f17565b61237a6020830185611c5c565b6123876040830184611c5c565b949350505050565b7f566f772f776169742d6e6f742d66696e69736865640000000000000000000000600082015250565b60006123c5601583611f83565b91506123d08261238f565b602082019050919050565b600060208201905081810360008301526123f4816123b8565b9050919050565b7f4e487b7100000000000000000000000000000000000000000000000000000000600052601160045260246000fd5b600061243582611c52565b915061244083611c52565b9250827fffffffffffffffffffffffffffffffffffffffffffffffffffffffffffffffff03821115612475576124746123fb565b5b828201905092915050565b600061248b82611c52565b915061249683611c52565b9250828210156124a9576124a86123fb565b5b82820390509291505056fea264697066735822122070c1bd4002350c03b82d62d5067aee58cb5115c52e5f644a7f5d33b852b42f3964736f6c63430008090033",
  "linkReferences": {},
  "deployedLinkReferences": {}
}