{
  "_format": "hh-sol-artifact-1",
  "contractName": "Booth",
  "sourceName": "contracts/marketplace/booth.sol",
  "abi": [
    {
      "inputs": [
        {
          "internalType": "contract Affiliates",
          "name": "_affiliateContract",
          "type": "address"
        },
        {
          "internalType": "uint256",
          "name": "_commissionPercent",
          "type": "uint256"
        }
      ],
      "stateMutability": "nonpayable",
      "type": "constructor"
    },
    {
      "anonymous": false,
      "inputs": [
        {
          "indexed": true,
          "internalType": "bytes32",
          "name": "role",
          "type": "bytes32"
        },
        {
          "indexed": true,
          "internalType": "bytes32",
          "name": "previousAdminRole",
          "type": "bytes32"
        },
        {
          "indexed": true,
          "internalType": "bytes32",
          "name": "newAdminRole",
          "type": "bytes32"
        }
      ],
      "name": "RoleAdminChanged",
      "type": "event"
    },
    {
      "anonymous": false,
      "inputs": [
        {
          "indexed": true,
          "internalType": "bytes32",
          "name": "role",
          "type": "bytes32"
        },
        {
          "indexed": true,
          "internalType": "address",
          "name": "account",
          "type": "address"
        },
        {
          "indexed": true,
          "internalType": "address",
          "name": "sender",
          "type": "address"
        }
      ],
      "name": "RoleGranted",
      "type": "event"
    },
    {
      "anonymous": false,
      "inputs": [
        {
          "indexed": true,
          "internalType": "bytes32",
          "name": "role",
          "type": "bytes32"
        },
        {
          "indexed": true,
          "internalType": "address",
          "name": "account",
          "type": "address"
        },
        {
          "indexed": true,
          "internalType": "address",
          "name": "sender",
          "type": "address"
        }
      ],
      "name": "RoleRevoked",
      "type": "event"
    },
    {
      "inputs": [],
      "name": "BOOTH_ROLE",
      "outputs": [
        {
          "internalType": "bytes32",
          "name": "",
          "type": "bytes32"
        }
      ],
      "stateMutability": "view",
      "type": "function"
    },
    {
      "inputs": [],
      "name": "BUYER_ROLE",
      "outputs": [
        {
          "internalType": "bytes32",
          "name": "",
          "type": "bytes32"
        }
      ],
      "stateMutability": "view",
      "type": "function"
    },
    {
      "inputs": [],
      "name": "DEFAULT_ADMIN_ROLE",
      "outputs": [
        {
          "internalType": "bytes32",
          "name": "",
          "type": "bytes32"
        }
      ],
      "stateMutability": "view",
      "type": "function"
    },
    {
      "inputs": [],
      "name": "REFUND_LIMIT",
      "outputs": [
        {
          "internalType": "uint256",
          "name": "",
          "type": "uint256"
        }
      ],
      "stateMutability": "view",
      "type": "function"
    },
    {
      "inputs": [],
      "name": "REFUND_PERIOD",
      "outputs": [
        {
          "internalType": "uint256",
          "name": "",
          "type": "uint256"
        }
      ],
      "stateMutability": "view",
      "type": "function"
    },
    {
      "inputs": [
        {
          "internalType": "uint256",
          "name": "_objectId",
          "type": "uint256"
        },
        {
          "internalType": "uint256",
          "name": "nftId",
          "type": "uint256"
        },
        {
          "internalType": "uint256",
          "name": "qty",
          "type": "uint256"
        },
        {
          "internalType": "address",
          "name": "guy",
          "type": "address"
        }
      ],
      "name": "affiliateBuy",
      "outputs": [],
      "stateMutability": "payable",
      "type": "function"
    },
    {
      "inputs": [],
      "name": "affiliateContract",
      "outputs": [
        {
          "internalType": "contract Affiliates",
          "name": "",
          "type": "address"
        }
      ],
      "stateMutability": "view",
      "type": "function"
    },
    {
      "inputs": [
        {
          "internalType": "uint256",
          "name": "_objectId",
          "type": "uint256"
        },
        {
          "internalType": "uint256",
          "name": "nftId",
          "type": "uint256"
        },
        {
          "internalType": "uint256",
          "name": "qty",
          "type": "uint256"
        },
        {
          "internalType": "address",
          "name": "guy",
          "type": "address"
        }
      ],
      "name": "buy",
      "outputs": [],
      "stateMutability": "payable",
      "type": "function"
    },
    {
      "inputs": [],
      "name": "commissionPercent",
      "outputs": [
        {
          "internalType": "uint256",
          "name": "",
          "type": "uint256"
        }
      ],
      "stateMutability": "view",
      "type": "function"
    },
    {
      "inputs": [
        {
          "internalType": "bytes32",
          "name": "role",
          "type": "bytes32"
        }
      ],
      "name": "getRoleAdmin",
      "outputs": [
        {
          "internalType": "bytes32",
          "name": "",
          "type": "bytes32"
        }
      ],
      "stateMutability": "view",
      "type": "function"
    },
    {
      "inputs": [
        {
          "internalType": "bytes32",
          "name": "role",
          "type": "bytes32"
        },
        {
          "internalType": "address",
          "name": "account",
          "type": "address"
        }
      ],
      "name": "grantRole",
      "outputs": [],
      "stateMutability": "nonpayable",
      "type": "function"
    },
    {
      "inputs": [
        {
          "internalType": "uint256",
          "name": "_objectId",
          "type": "uint256"
        },
        {
          "internalType": "address",
          "name": "_usr",
          "type": "address"
        }
      ],
      "name": "hasAccess",
      "outputs": [
        {
          "internalType": "bool",
          "name": "",
          "type": "bool"
        }
      ],
      "stateMutability": "view",
      "type": "function"
    },
    {
      "inputs": [
        {
          "internalType": "bytes32",
          "name": "role",
          "type": "bytes32"
        },
        {
          "internalType": "address",
          "name": "account",
          "type": "address"
        }
      ],
      "name": "hasRole",
      "outputs": [
        {
          "internalType": "bool",
          "name": "",
          "type": "bool"
        }
      ],
      "stateMutability": "view",
      "type": "function"
    },
    {
      "inputs": [
        {
          "internalType": "uint256",
          "name": "_objectId",
          "type": "uint256"
        }
      ],
      "name": "isObjectRegistered",
      "outputs": [
        {
          "internalType": "bool",
          "name": "",
          "type": "bool"
        }
      ],
      "stateMutability": "view",
      "type": "function"
    },
    {
      "inputs": [
        {
          "internalType": "uint256",
          "name": "_objectId",
          "type": "uint256"
        },
        {
          "internalType": "address",
          "name": "referrer",
          "type": "address"
        }
      ],
      "name": "joinAffiliateProgram",
      "outputs": [],
      "stateMutability": "nonpayable",
      "type": "function"
    },
    {
      "inputs": [
        {
          "internalType": "uint256",
          "name": "_objectId",
          "type": "uint256"
        },
        {
          "internalType": "uint256",
          "name": "nftId",
          "type": "uint256"
        },
        {
          "internalType": "uint256",
          "name": "qty",
          "type": "uint256"
        },
        {
          "internalType": "address",
          "name": "referrer",
          "type": "address"
        }
      ],
      "name": "joinAffiliateProgramAndBuy",
      "outputs": [],
      "stateMutability": "payable",
      "type": "function"
    },
    {
      "inputs": [
        {
          "internalType": "uint256",
          "name": "",
          "type": "uint256"
        }
      ],
      "name": "objectToTicket",
      "outputs": [
        {
          "internalType": "contract Ticket",
          "name": "",
          "type": "address"
        }
      ],
      "stateMutability": "view",
      "type": "function"
    },
    {
      "inputs": [
        {
          "internalType": "address",
          "name": "",
          "type": "address"
        },
        {
          "internalType": "address",
          "name": "",
          "type": "address"
        },
        {
          "internalType": "uint256[]",
          "name": "",
          "type": "uint256[]"
        },
        {
          "internalType": "uint256[]",
          "name": "",
          "type": "uint256[]"
        },
        {
          "internalType": "bytes",
          "name": "",
          "type": "bytes"
        }
      ],
      "name": "onERC1155BatchReceived",
      "outputs": [
        {
          "internalType": "bytes4",
          "name": "",
          "type": "bytes4"
        }
      ],
      "stateMutability": "pure",
      "type": "function"
    },
    {
      "inputs": [
        {
          "internalType": "address",
          "name": "",
          "type": "address"
        },
        {
          "internalType": "address",
          "name": "",
          "type": "address"
        },
        {
          "internalType": "uint256",
          "name": "",
          "type": "uint256"
        },
        {
          "internalType": "uint256",
          "name": "",
          "type": "uint256"
        },
        {
          "internalType": "bytes",
          "name": "",
          "type": "bytes"
        }
      ],
      "name": "onERC1155Received",
      "outputs": [
        {
          "internalType": "bytes4",
          "name": "",
          "type": "bytes4"
        }
      ],
      "stateMutability": "pure",
      "type": "function"
    },
    {
      "inputs": [
        {
          "internalType": "address",
          "name": "",
          "type": "address"
        }
      ],
      "name": "refundCounts",
      "outputs": [
        {
          "internalType": "uint256",
          "name": "",
          "type": "uint256"
        }
      ],
      "stateMutability": "view",
      "type": "function"
    },
    {
      "inputs": [
        {
          "internalType": "uint256",
          "name": "_objectId",
          "type": "uint256"
        },
        {
          "internalType": "contract Ticket",
          "name": "ticketContract",
          "type": "address"
        }
      ],
      "name": "registerObject",
      "outputs": [],
      "stateMutability": "nonpayable",
      "type": "function"
    },
    {
      "inputs": [
        {
          "internalType": "bytes32",
          "name": "role",
          "type": "bytes32"
        },
        {
          "internalType": "address",
          "name": "account",
          "type": "address"
        }
      ],
      "name": "renounceRole",
      "outputs": [],
      "stateMutability": "nonpayable",
      "type": "function"
    },
    {
      "inputs": [
        {
          "internalType": "bytes32",
          "name": "role",
          "type": "bytes32"
        },
        {
          "internalType": "address",
          "name": "account",
          "type": "address"
        }
      ],
      "name": "revokeRole",
      "outputs": [],
      "stateMutability": "nonpayable",
      "type": "function"
    },
    {
      "inputs": [
        {
          "internalType": "uint256",
          "name": "newCommissionPercent",
          "type": "uint256"
        }
      ],
      "name": "setCommissionPercent",
      "outputs": [],
      "stateMutability": "nonpayable",
      "type": "function"
    },
    {
      "inputs": [
        {
          "internalType": "uint256",
          "name": "ticketId",
          "type": "uint256"
        },
        {
          "internalType": "uint256",
          "name": "nftId",
          "type": "uint256"
        },
        {
          "internalType": "uint256",
          "name": "qty",
          "type": "uint256"
        },
        {
          "internalType": "uint256",
          "name": "wad",
          "type": "uint256"
        },
        {
          "internalType": "uint256",
          "name": "purchaseTimestamp",
          "type": "uint256"
        }
      ],
      "name": "setPurchaseTime",
      "outputs": [],
      "stateMutability": "nonpayable",
      "type": "function"
    },
    {
      "inputs": [
        {
          "internalType": "bytes4",
          "name": "interfaceId",
          "type": "bytes4"
        }
      ],
      "name": "supportsInterface",
      "outputs": [
        {
          "internalType": "bool",
          "name": "",
          "type": "bool"
        }
      ],
      "stateMutability": "view",
      "type": "function"
    },
    {
      "inputs": [
        {
          "internalType": "uint256",
          "name": "",
          "type": "uint256"
        },
        {
          "internalType": "address",
          "name": "",
          "type": "address"
        }
      ],
      "name": "ticketAffiliates",
      "outputs": [
        {
          "internalType": "bool",
          "name": "",
          "type": "bool"
        }
      ],
      "stateMutability": "view",
      "type": "function"
    },
    {
      "inputs": [
        {
          "internalType": "uint256",
          "name": "",
          "type": "uint256"
        },
        {
          "internalType": "address",
          "name": "",
          "type": "address"
        }
      ],
      "name": "ticketBuyers",
      "outputs": [
        {
          "internalType": "uint256",
          "name": "objectId",
          "type": "uint256"
        },
        {
          "internalType": "uint256",
          "name": "nftId",
          "type": "uint256"
        },
        {
          "internalType": "uint256",
          "name": "qty",
          "type": "uint256"
        },
        {
          "internalType": "uint256",
          "name": "price",
          "type": "uint256"
        },
        {
          "internalType": "uint256",
          "name": "timestamp",
          "type": "uint256"
        }
      ],
      "stateMutability": "view",
      "type": "function"
    },
    {
      "inputs": [
        {
          "internalType": "uint256",
          "name": "",
          "type": "uint256"
        },
        {
          "internalType": "uint256",
          "name": "",
          "type": "uint256"
        }
      ],
      "name": "ticketPurchases",
      "outputs": [
        {
          "internalType": "uint256",
          "name": "objectId",
          "type": "uint256"
        },
        {
          "internalType": "uint256",
          "name": "nftId",
          "type": "uint256"
        },
        {
          "internalType": "uint256",
          "name": "qty",
          "type": "uint256"
        },
        {
          "internalType": "uint256",
          "name": "price",
          "type": "uint256"
        },
        {
          "internalType": "uint256",
          "name": "timestamp",
          "type": "uint256"
        }
      ],
      "stateMutability": "view",
      "type": "function"
    },
    {
      "inputs": [
        {
          "internalType": "uint256",
          "name": "_objectId",
          "type": "uint256"
        },
        {
          "internalType": "address",
          "name": "affiliate",
          "type": "address"
        }
      ],
      "name": "verifyAffiliate",
      "outputs": [
        {
          "internalType": "bool",
          "name": "",
          "type": "bool"
        }
      ],
      "stateMutability": "view",
      "type": "function"
    }
  ],
  "bytecode": "0x60806040526201518060075560036009553480156200001d57600080fd5b5060405162003059380380620030598339818101604052810190620000439190620002f6565b81600160006101000a81548173ffffffffffffffffffffffffffffffffffffffff021916908373ffffffffffffffffffffffffffffffffffffffff16021790555080600881905550620000a06000801b33620000da60201b60201c565b620000d27f435269160f073040285d1afaa3d9dbd1dbcaa4ff2aa674d3b9d65359d97fa41433620000da60201b60201c565b50506200033d565b620000ec8282620001cb60201b60201c565b620001c757600160008084815260200190815260200160002060000160008373ffffffffffffffffffffffffffffffffffffffff1673ffffffffffffffffffffffffffffffffffffffff16815260200190815260200160002060006101000a81548160ff0219169083151502179055506200016c6200023560201b60201c565b73ffffffffffffffffffffffffffffffffffffffff168173ffffffffffffffffffffffffffffffffffffffff16837f2f8788117e7eff1d82e926ec794901d17c78024a50270940304540a733656f0d60405160405180910390a45b5050565b600080600084815260200190815260200160002060000160008373ffffffffffffffffffffffffffffffffffffffff1673ffffffffffffffffffffffffffffffffffffffff16815260200190815260200160002060009054906101000a900460ff16905092915050565b600033905090565b600080fd5b600073ffffffffffffffffffffffffffffffffffffffff82169050919050565b60006200026f8262000242565b9050919050565b6000620002838262000262565b9050919050565b620002958162000276565b8114620002a157600080fd5b50565b600081519050620002b5816200028a565b92915050565b6000819050919050565b620002d081620002bb565b8114620002dc57600080fd5b50565b600081519050620002f081620002c5565b92915050565b6000806040838503121562000310576200030f6200023d565b5b60006200032085828601620002a4565b92505060206200033385828601620002df565b9150509250929050565b612d0c806200034d6000396000f3fe6080604052600436106101cd5760003560e01c8063896c6830116100f7578063bc197c8111610095578063d4fc8b7011610064578063d4fc8b70146106c7578063d547741f14610704578063f23a6e611461072d578063fa7ea2e81461076a576101cd565b8063bc197c81146105f0578063c69b085b1461062d578063cbb6741814610649578063ced141981461068a576101cd565b80639ca6a0b1116100d15780639ca6a0b114610530578063a20234091461055b578063a217fddf14610584578063a4646ba7146105af576101cd565b8063896c68301461049a57806391d14854146104d7578063922377b814610514576101cd565b806336568abe1161016f57806377d3550b1161013e57806377d3550b146103dc5780637a01a1da146104075780637f6578d31461043257806384f017321461045d576101cd565b806336568abe14610322578063404a9ab81461034b57806340974911146103745780635bb9a0a21461039f576101cd565b80630bb5eaf3116101ab5780630bb5eaf314610277578063248a9ca3146102935780632c1c6e58146102d05780632f2ff15d146102f9576101cd565b806301172005146101d257806301ffc9a7146101fd578063064cd5631461023a575b600080fd5b3480156101de57600080fd5b506101e7610793565b6040516101f49190611d41565b60405180910390f35b34801561020957600080fd5b50610224600480360381019061021f9190611dbe565b6107b9565b6040516102319190611e06565b60405180910390f35b34801561024657600080fd5b50610261600480360381019061025c9190611e5f565b61088b565b60405161026e9190611ea5565b60405180910390f35b610291600480360381019061028c9190611eec565b6108a3565b005b34801561029f57600080fd5b506102ba60048036038101906102b59190611f89565b6109fc565b6040516102c79190611fc5565b60405180910390f35b3480156102dc57600080fd5b506102f760048036038101906102f29190611fe0565b610a1b565b005b34801561030557600080fd5b50610320600480360381019061031b9190612020565b610c58565b005b34801561032e57600080fd5b5061034960048036038101906103449190612020565b610c79565b005b34801561035757600080fd5b50610372600480360381019061036d9190612060565b610cfc565b005b34801561038057600080fd5b50610389610d82565b6040516103969190611fc5565b60405180910390f35b3480156103ab57600080fd5b506103c660048036038101906103c19190612060565b610da6565b6040516103d391906120c0565b60405180910390f35b3480156103e857600080fd5b506103f1610dd9565b6040516103fe9190611ea5565b60405180910390f35b34801561041357600080fd5b5061041c610ddf565b6040516104299190611fc5565b60405180910390f35b34801561043e57600080fd5b50610447610e03565b6040516104549190611ea5565b60405180910390f35b34801561046957600080fd5b50610484600480360381019061047f9190611fe0565b610e09565b6040516104919190611e06565b60405180910390f35b3480156104a657600080fd5b506104c160048036038101906104bc9190611fe0565b610e38565b6040516104ce9190611e06565b60405180910390f35b3480156104e357600080fd5b506104fe60048036038101906104f99190612020565b610ea0565b60405161050b9190611e06565b60405180910390f35b61052e60048036038101906105299190611eec565b610f0a565b005b34801561053c57600080fd5b506105456110b2565b6040516105529190611ea5565b60405180910390f35b34801561056757600080fd5b50610582600480360381019061057d91906120db565b6110b8565b005b34801561059057600080fd5b50610599611205565b6040516105a69190611fc5565b60405180910390f35b3480156105bb57600080fd5b506105d660048036038101906105d19190612156565b61120c565b6040516105e7959493929190612196565b60405180910390f35b3480156105fc57600080fd5b50610617600480360381019061061291906122a4565b61125f565b604051610624919061238f565b60405180910390f35b61064760048036038101906106429190611eec565b611277565b005b34801561065557600080fd5b50610670600480360381019061066b9190611fe0565b6114b1565b604051610681959493929190612196565b60405180910390f35b34801561069657600080fd5b506106b160048036038101906106ac9190611fe0565b6114f4565b6040516106be9190611e06565b60405180910390f35b3480156106d357600080fd5b506106ee60048036038101906106e99190612060565b611631565b6040516106fb9190611e06565b60405180910390f35b34801561071057600080fd5b5061072b60048036038101906107269190612020565b61169d565b005b34801561073957600080fd5b50610754600480360381019061074f91906123aa565b6116be565b604051610761919061238f565b60405180910390f35b34801561077657600080fd5b50610791600480360381019061078c9190612494565b6116d4565b005b600160009054906101000a900473ffffffffffffffffffffffffffffffffffffffff1681565b60007f4e2312e0000000000000000000000000000000000000000000000000000000007bffffffffffffffffffffffffffffffffffffffffffffffffffffffff1916827bffffffffffffffffffffffffffffffffffffffffffffffffffffffff1916148061088457507f01ffc9a7000000000000000000000000000000000000000000000000000000007bffffffffffffffffffffffffffffffffffffffffffffffffffffffff1916827bffffffffffffffffffffffffffffffffffffffffffffffffffffffff1916145b9050919050565b60066020528060005260406000206000915090505481565b7ff8cd32ed93fc2f9fc78152a14807c9609af3d99c5fe4dc6b106a801aaddfe90e6108cd816117f7565b60006002600087815260200190815260200160002060009054906101000a900473ffffffffffffffffffffffffffffffffffffffff169050600073ffffffffffffffffffffffffffffffffffffffff168173ffffffffffffffffffffffffffffffffffffffff161415610975576040517f08c379a000000000000000000000000000000000000000000000000000000000815260040161096c90612531565b60405180910390fd5b8073ffffffffffffffffffffffffffffffffffffffff1663643183bf34888888886040518663ffffffff1660e01b81526004016109b59493929190612560565b6000604051808303818588803b1580156109ce57600080fd5b505af11580156109e2573d6000803e3d6000fd5b50505050506109f486868634426110b8565b505050505050565b6000806000838152602001908152602001600020600101549050919050565b6003600083815260200190815260200160002060003373ffffffffffffffffffffffffffffffffffffffff1673ffffffffffffffffffffffffffffffffffffffff16815260200190815260200160002060009054906101000a900460ff1615610ab9576040517f08c379a0000000000000000000000000000000000000000000000000000000008152600401610ab090612617565b60405180910390fd5b600073ffffffffffffffffffffffffffffffffffffffff166002600084815260200190815260200160002060009054906101000a900473ffffffffffffffffffffffffffffffffffffffff1673ffffffffffffffffffffffffffffffffffffffff161415610b5c576040517f08c379a0000000000000000000000000000000000000000000000000000000008152600401610b5390612531565b60405180910390fd5b60016003600084815260200190815260200160002060003373ffffffffffffffffffffffffffffffffffffffff1673ffffffffffffffffffffffffffffffffffffffff16815260200190815260200160002060006101000a81548160ff021916908315150217905550600160009054906101000a900473ffffffffffffffffffffffffffffffffffffffff1673ffffffffffffffffffffffffffffffffffffffff1663bbddaca333836040518363ffffffff1660e01b8152600401610c22929190612637565b600060405180830381600087803b158015610c3c57600080fd5b505af1158015610c50573d6000803e3d6000fd5b505050505050565b610c61826109fc565b610c6a816117f7565b610c74838361180b565b505050565b610c816118eb565b73ffffffffffffffffffffffffffffffffffffffff168173ffffffffffffffffffffffffffffffffffffffff1614610cee576040517f08c379a0000000000000000000000000000000000000000000000000000000008152600401610ce5906126d2565b60405180910390fd5b610cf882826118f3565b5050565b7f435269160f073040285d1afaa3d9dbd1dbcaa4ff2aa674d3b9d65359d97fa414610d26816117f7565b60008210158015610d38575060648211155b610d77576040517f08c379a0000000000000000000000000000000000000000000000000000000008152600401610d6e9061273e565b60405180910390fd5b816008819055505050565b7f435269160f073040285d1afaa3d9dbd1dbcaa4ff2aa674d3b9d65359d97fa41481565b60026020528060005260406000206000915054906101000a900473ffffffffffffffffffffffffffffffffffffffff1681565b60085481565b7ff8cd32ed93fc2f9fc78152a14807c9609af3d99c5fe4dc6b106a801aaddfe90e81565b60075481565b60036020528160005260406000206020528060005260406000206000915091509054906101000a900460ff1681565b60006003600084815260200190815260200160002060008373ffffffffffffffffffffffffffffffffffffffff1673ffffffffffffffffffffffffffffffffffffffff16815260200190815260200160002060009054906101000a900460ff16905092915050565b600080600084815260200190815260200160002060000160008373ffffffffffffffffffffffffffffffffffffffff1673ffffffffffffffffffffffffffffffffffffffff16815260200190815260200160002060009054906101000a900460ff16905092915050565b6003600085815260200190815260200160002060003373ffffffffffffffffffffffffffffffffffffffff1673ffffffffffffffffffffffffffffffffffffffff16815260200190815260200160002060009054906101000a900460ff1615610fa8576040517f08c379a0000000000000000000000000000000000000000000000000000000008152600401610f9f90612617565b60405180910390fd5b610fb484848433611277565b60016003600086815260200190815260200160002060003373ffffffffffffffffffffffffffffffffffffffff1673ffffffffffffffffffffffffffffffffffffffff16815260200190815260200160002060006101000a81548160ff021916908315150217905550600160009054906101000a900473ffffffffffffffffffffffffffffffffffffffff1673ffffffffffffffffffffffffffffffffffffffff1663bbddaca333836040518363ffffffff1660e01b815260040161107a929190612637565b600060405180830381600087803b15801561109457600080fd5b505af11580156110a8573d6000803e3d6000fd5b5050505050505050565b60095481565b60006002600087815260200190815260200160002060009054906101000a900473ffffffffffffffffffffffffffffffffffffffff169050600073ffffffffffffffffffffffffffffffffffffffff168173ffffffffffffffffffffffffffffffffffffffff161415611160576040517f08c379a000000000000000000000000000000000000000000000000000000000815260040161115790612531565b60405180910390fd5b60006040518060a00160405280888152602001878152602001868152602001858152602001848152509050600460008881526020019081526020016000208190806001815401808255809150506001900390600052602060002090600502016000909190919091506000820151816000015560208201518160010155604082015181600201556060820151816003015560808201518160040155505050505050505050565b6000801b81565b6004602052816000526040600020818154811061122857600080fd5b9060005260206000209060050201600091509150508060000154908060010154908060020154908060030154908060040154905085565b600063bc197c8160e01b905098975050505050505050565b7ff8cd32ed93fc2f9fc78152a14807c9609af3d99c5fe4dc6b106a801aaddfe90e6112a1816117f7565b60006002600087815260200190815260200160002060009054906101000a900473ffffffffffffffffffffffffffffffffffffffff169050600073ffffffffffffffffffffffffffffffffffffffff168173ffffffffffffffffffffffffffffffffffffffff161415611349576040517f08c379a000000000000000000000000000000000000000000000000000000000815260040161134090612531565b60405180910390fd5b600060643460085461135b919061278d565b6113659190612816565b9050600081346113759190612847565b9050600160009054906101000a900473ffffffffffffffffffffffffffffffffffffffff1673ffffffffffffffffffffffffffffffffffffffff1663ac20517d8387856040518463ffffffff1660e01b81526004016113d592919061287b565b6020604051808303818588803b1580156113ee57600080fd5b505af1158015611402573d6000803e3d6000fd5b50505050506040513d601f19601f8201168201806040525081019061142791906128b9565b508273ffffffffffffffffffffffffffffffffffffffff1663643183bf828a8a8a8a6040518663ffffffff1660e01b81526004016114689493929190612560565b6000604051808303818588803b15801561148157600080fd5b505af1158015611495573d6000803e3d6000fd5b50505050506114a788888884426110b8565b5050505050505050565b6005602052816000526040600020602052806000526040600020600091509150508060000154908060010154908060020154908060030154908060040154905085565b6000806002600085815260200190815260200160002060009054906101000a900473ffffffffffffffffffffffffffffffffffffffff169050600073ffffffffffffffffffffffffffffffffffffffff168173ffffffffffffffffffffffffffffffffffffffff16141561159d576040517f08c379a000000000000000000000000000000000000000000000000000000000815260040161159490612531565b60405180910390fd5b8073ffffffffffffffffffffffffffffffffffffffff1663ced1419885856040518363ffffffff1660e01b81526004016115d89291906128e6565b60206040518083038186803b1580156115f057600080fd5b505afa158015611604573d6000803e3d6000fd5b505050506040513d601f19601f82011682018060405250810190611628919061293b565b91505092915050565b60008073ffffffffffffffffffffffffffffffffffffffff166002600084815260200190815260200160002060009054906101000a900473ffffffffffffffffffffffffffffffffffffffff1673ffffffffffffffffffffffffffffffffffffffff1614159050919050565b6116a6826109fc565b6116af816117f7565b6116b983836118f3565b505050565b600063f23a6e6160e01b90509695505050505050565b7f435269160f073040285d1afaa3d9dbd1dbcaa4ff2aa674d3b9d65359d97fa4146116fe816117f7565b600073ffffffffffffffffffffffffffffffffffffffff166002600085815260200190815260200160002060009054906101000a900473ffffffffffffffffffffffffffffffffffffffff1673ffffffffffffffffffffffffffffffffffffffff16146117a0576040517f08c379a0000000000000000000000000000000000000000000000000000000008152600401611797906129b4565b60405180910390fd5b816002600085815260200190815260200160002060006101000a81548173ffffffffffffffffffffffffffffffffffffffff021916908373ffffffffffffffffffffffffffffffffffffffff160217905550505050565b611808816118036118eb565b6119d4565b50565b6118158282610ea0565b6118e757600160008084815260200190815260200160002060000160008373ffffffffffffffffffffffffffffffffffffffff1673ffffffffffffffffffffffffffffffffffffffff16815260200190815260200160002060006101000a81548160ff02191690831515021790555061188c6118eb565b73ffffffffffffffffffffffffffffffffffffffff168173ffffffffffffffffffffffffffffffffffffffff16837f2f8788117e7eff1d82e926ec794901d17c78024a50270940304540a733656f0d60405160405180910390a45b5050565b600033905090565b6118fd8282610ea0565b156119d057600080600084815260200190815260200160002060000160008373ffffffffffffffffffffffffffffffffffffffff1673ffffffffffffffffffffffffffffffffffffffff16815260200190815260200160002060006101000a81548160ff0219169083151502179055506119756118eb565b73ffffffffffffffffffffffffffffffffffffffff168173ffffffffffffffffffffffffffffffffffffffff16837ff6391f5c32d9c69d2a47ea670b442974b53935d1edc7fd64eb21e047a839171b60405160405180910390a45b5050565b6119de8282610ea0565b611a55576119eb81611a59565b6119f98360001c6020611a86565b604051602001611a0a929190612ae6565b6040516020818303038152906040526040517f08c379a0000000000000000000000000000000000000000000000000000000008152600401611a4c9190612b6a565b60405180910390fd5b5050565b6060611a7f8273ffffffffffffffffffffffffffffffffffffffff16601460ff16611a86565b9050919050565b606060006002836002611a99919061278d565b611aa39190612b8c565b67ffffffffffffffff811115611abc57611abb612be2565b5b6040519080825280601f01601f191660200182016040528015611aee5781602001600182028036833780820191505090505b5090507f300000000000000000000000000000000000000000000000000000000000000081600081518110611b2657611b25612c11565b5b60200101907effffffffffffffffffffffffffffffffffffffffffffffffffffffffffffff1916908160001a9053507f780000000000000000000000000000000000000000000000000000000000000081600181518110611b8a57611b89612c11565b5b60200101907effffffffffffffffffffffffffffffffffffffffffffffffffffffffffffff1916908160001a90535060006001846002611bca919061278d565b611bd49190612b8c565b90505b6001811115611c74577f3031323334353637383961626364656600000000000000000000000000000000600f861660108110611c1657611c15612c11565b5b1a60f81b828281518110611c2d57611c2c612c11565b5b60200101907effffffffffffffffffffffffffffffffffffffffffffffffffffffffffffff1916908160001a905350600485901c945080611c6d90612c40565b9050611bd7565b5060008414611cb8576040517f08c379a0000000000000000000000000000000000000000000000000000000008152600401611caf90612cb6565b60405180910390fd5b8091505092915050565b600073ffffffffffffffffffffffffffffffffffffffff82169050919050565b6000819050919050565b6000611d07611d02611cfd84611cc2565b611ce2565b611cc2565b9050919050565b6000611d1982611cec565b9050919050565b6000611d2b82611d0e565b9050919050565b611d3b81611d20565b82525050565b6000602082019050611d566000830184611d32565b92915050565b600080fd5b600080fd5b60007fffffffff0000000000000000000000000000000000000000000000000000000082169050919050565b611d9b81611d66565b8114611da657600080fd5b50565b600081359050611db881611d92565b92915050565b600060208284031215611dd457611dd3611d5c565b5b6000611de284828501611da9565b91505092915050565b60008115159050919050565b611e0081611deb565b82525050565b6000602082019050611e1b6000830184611df7565b92915050565b6000611e2c82611cc2565b9050919050565b611e3c81611e21565b8114611e4757600080fd5b50565b600081359050611e5981611e33565b92915050565b600060208284031215611e7557611e74611d5c565b5b6000611e8384828501611e4a565b91505092915050565b6000819050919050565b611e9f81611e8c565b82525050565b6000602082019050611eba6000830184611e96565b92915050565b611ec981611e8c565b8114611ed457600080fd5b50565b600081359050611ee681611ec0565b92915050565b60008060008060808587031215611f0657611f05611d5c565b5b6000611f1487828801611ed7565b9450506020611f2587828801611ed7565b9350506040611f3687828801611ed7565b9250506060611f4787828801611e4a565b91505092959194509250565b6000819050919050565b611f6681611f53565b8114611f7157600080fd5b50565b600081359050611f8381611f5d565b92915050565b600060208284031215611f9f57611f9e611d5c565b5b6000611fad84828501611f74565b91505092915050565b611fbf81611f53565b82525050565b6000602082019050611fda6000830184611fb6565b92915050565b60008060408385031215611ff757611ff6611d5c565b5b600061200585828601611ed7565b925050602061201685828601611e4a565b9150509250929050565b6000806040838503121561203757612036611d5c565b5b600061204585828601611f74565b925050602061205685828601611e4a565b9150509250929050565b60006020828403121561207657612075611d5c565b5b600061208484828501611ed7565b91505092915050565b600061209882611cec565b9050919050565b60006120aa8261208d565b9050919050565b6120ba8161209f565b82525050565b60006020820190506120d560008301846120b1565b92915050565b600080600080600060a086880312156120f7576120f6611d5c565b5b600061210588828901611ed7565b955050602061211688828901611ed7565b945050604061212788828901611ed7565b935050606061213888828901611ed7565b925050608061214988828901611ed7565b9150509295509295909350565b6000806040838503121561216d5761216c611d5c565b5b600061217b85828601611ed7565b925050602061218c85828601611ed7565b9150509250929050565b600060a0820190506121ab6000830188611e96565b6121b86020830187611e96565b6121c56040830186611e96565b6121d26060830185611e96565b6121df6080830184611e96565b9695505050505050565b600080fd5b600080fd5b600080fd5b60008083601f84011261220e5761220d6121e9565b5b8235905067ffffffffffffffff81111561222b5761222a6121ee565b5b602083019150836020820283011115612247576122466121f3565b5b9250929050565b60008083601f840112612264576122636121e9565b5b8235905067ffffffffffffffff811115612281576122806121ee565b5b60208301915083600182028301111561229d5761229c6121f3565b5b9250929050565b60008060008060008060008060a0898b0312156122c4576122c3611d5c565b5b60006122d28b828c01611e4a565b98505060206122e38b828c01611e4a565b975050604089013567ffffffffffffffff81111561230457612303611d61565b5b6123108b828c016121f8565b9650965050606089013567ffffffffffffffff81111561233357612332611d61565b5b61233f8b828c016121f8565b9450945050608089013567ffffffffffffffff81111561236257612361611d61565b5b61236e8b828c0161224e565b92509250509295985092959890939650565b61238981611d66565b82525050565b60006020820190506123a46000830184612380565b92915050565b60008060008060008060a087890312156123c7576123c6611d5c565b5b60006123d589828a01611e4a565b96505060206123e689828a01611e4a565b95505060406123f789828a01611ed7565b945050606061240889828a01611ed7565b935050608087013567ffffffffffffffff81111561242957612428611d61565b5b61243589828a0161224e565b92509250509295509295509295565b600061244f82611cc2565b9050919050565b600061246182612444565b9050919050565b61247181612456565b811461247c57600080fd5b50565b60008135905061248e81612468565b92915050565b600080604083850312156124ab576124aa611d5c565b5b60006124b985828601611ed7565b92505060206124ca8582860161247f565b9150509250929050565b600082825260208201905092915050565b7f496e76616c6964206f626a656374000000000000000000000000000000000000600082015250565b600061251b600e836124d4565b9150612526826124e5565b602082019050919050565b6000602082019050818103600083015261254a8161250e565b9050919050565b61255a81611e21565b82525050565b60006080820190506125756000830187611e96565b6125826020830186611e96565b61258f6040830185611e96565b61259c6060830184612551565b95945050505050565b7f416c726561647920616e20616666696c6961746520666f722074686973204e4660008201527f5400000000000000000000000000000000000000000000000000000000000000602082015250565b60006126016021836124d4565b915061260c826125a5565b604082019050919050565b60006020820190508181036000830152612630816125f4565b9050919050565b600060408201905061264c6000830185612551565b6126596020830184612551565b9392505050565b7f416363657373436f6e74726f6c3a2063616e206f6e6c792072656e6f756e636560008201527f20726f6c657320666f722073656c660000000000000000000000000000000000602082015250565b60006126bc602f836124d4565b91506126c782612660565b604082019050919050565b600060208201905081810360008301526126eb816126af565b9050919050565b7f496e76616c696420636f6d6d697373696f6e2070657263656e74616765000000600082015250565b6000612728601d836124d4565b9150612733826126f2565b602082019050919050565b600060208201905081810360008301526127578161271b565b9050919050565b7f4e487b7100000000000000000000000000000000000000000000000000000000600052601160045260246000fd5b600061279882611e8c565b91506127a383611e8c565b9250817fffffffffffffffffffffffffffffffffffffffffffffffffffffffffffffffff04831182151516156127dc576127db61275e565b5b828202905092915050565b7f4e487b7100000000000000000000000000000000000000000000000000000000600052601260045260246000fd5b600061282182611e8c565b915061282c83611e8c565b92508261283c5761283b6127e7565b5b828204905092915050565b600061285282611e8c565b915061285d83611e8c565b9250828210156128705761286f61275e565b5b828203905092915050565b60006040820190506128906000830185612551565b61289d6020830184611e96565b9392505050565b6000815190506128b381611ec0565b92915050565b6000602082840312156128cf576128ce611d5c565b5b60006128dd848285016128a4565b91505092915050565b60006040820190506128fb6000830185611e96565b6129086020830184612551565b9392505050565b61291881611deb565b811461292357600080fd5b50565b6000815190506129358161290f565b92915050565b60006020828403121561295157612950611d5c565b5b600061295f84828501612926565b91505092915050565b7f4f626a65637420616c7265616479207265676973746572656400000000000000600082015250565b600061299e6019836124d4565b91506129a982612968565b602082019050919050565b600060208201905081810360008301526129cd81612991565b9050919050565b600081905092915050565b7f416363657373436f6e74726f6c3a206163636f756e7420000000000000000000600082015250565b6000612a156017836129d4565b9150612a20826129df565b601782019050919050565b600081519050919050565b60005b83811015612a54578082015181840152602081019050612a39565b83811115612a63576000848401525b50505050565b6000612a7482612a2b565b612a7e81856129d4565b9350612a8e818560208601612a36565b80840191505092915050565b7f206973206d697373696e6720726f6c6520000000000000000000000000000000600082015250565b6000612ad06011836129d4565b9150612adb82612a9a565b601182019050919050565b6000612af182612a08565b9150612afd8285612a69565b9150612b0882612ac3565b9150612b148284612a69565b91508190509392505050565b6000601f19601f8301169050919050565b6000612b3c82612a2b565b612b4681856124d4565b9350612b56818560208601612a36565b612b5f81612b20565b840191505092915050565b60006020820190508181036000830152612b848184612b31565b905092915050565b6000612b9782611e8c565b9150612ba283611e8c565b9250827fffffffffffffffffffffffffffffffffffffffffffffffffffffffffffffffff03821115612bd757612bd661275e565b5b828201905092915050565b7f4e487b7100000000000000000000000000000000000000000000000000000000600052604160045260246000fd5b7f4e487b7100000000000000000000000000000000000000000000000000000000600052603260045260246000fd5b6000612c4b82611e8c565b91506000821415612c5f57612c5e61275e565b5b600182039050919050565b7f537472696e67733a20686578206c656e67746820696e73756666696369656e74600082015250565b6000612ca06020836124d4565b9150612cab82612c6a565b602082019050919050565b60006020820190508181036000830152612ccf81612c93565b905091905056fea264697066735822122084609855d817abd5895e893efb1c4c2225653f841bb2e446a21409a028aa338264736f6c63430008090033",
  "linkReferences": {},
  "deployedLinkReferences": {}
}