{
  "_format": "hh-sol-artifact-1",
  "contractName": "Flapper",
  "sourceName": "contracts/protocol/stabilizer/flap.sol",
  "abi": [
    {
      "inputs": [
        {
          "internalType": "address",
          "name": "vat_",
          "type": "address"
        },
        {
          "internalType": "address",
          "name": "gem_",
          "type": "address"
        }
      ],
      "stateMutability": "nonpayable",
      "type": "constructor"
    },
    {
      "anonymous": false,
      "inputs": [
        {
          "indexed": false,
          "internalType": "uint256",
          "name": "id",
          "type": "uint256"
        },
        {
          "indexed": false,
          "internalType": "uint256",
          "name": "lot",
          "type": "uint256"
        },
        {
          "indexed": false,
          "internalType": "uint256",
          "name": "bid",
          "type": "uint256"
        }
      ],
      "name": "Kick",
      "type": "event"
    },
    {
      "inputs": [],
      "name": "beg",
      "outputs": [
        {
          "internalType": "uint256",
          "name": "",
          "type": "uint256"
        }
      ],
      "stateMutability": "view",
      "type": "function"
    },
    {
      "inputs": [
        {
          "internalType": "uint256",
          "name": "",
          "type": "uint256"
        }
      ],
      "name": "bids",
      "outputs": [
        {
          "internalType": "uint256",
          "name": "bid",
          "type": "uint256"
        },
        {
          "internalType": "uint256",
          "name": "lot",
          "type": "uint256"
        },
        {
          "internalType": "address",
          "name": "guy",
          "type": "address"
        },
        {
          "internalType": "uint48",
          "name": "tic",
          "type": "uint48"
        },
        {
          "internalType": "uint48",
          "name": "end",
          "type": "uint48"
        }
      ],
      "stateMutability": "view",
      "type": "function"
    },
    {
      "inputs": [
        {
          "internalType": "uint256",
          "name": "rad",
          "type": "uint256"
        }
      ],
      "name": "cage",
      "outputs": [],
      "stateMutability": "nonpayable",
      "type": "function"
    },
    {
      "inputs": [
        {
          "internalType": "uint256",
          "name": "id",
          "type": "uint256"
        }
      ],
      "name": "deal",
      "outputs": [],
      "stateMutability": "nonpayable",
      "type": "function"
    },
    {
      "inputs": [
        {
          "internalType": "address",
          "name": "usr",
          "type": "address"
        }
      ],
      "name": "deny",
      "outputs": [],
      "stateMutability": "nonpayable",
      "type": "function"
    },
    {
      "inputs": [
        {
          "internalType": "bytes32",
          "name": "what",
          "type": "bytes32"
        },
        {
          "internalType": "uint256",
          "name": "data",
          "type": "uint256"
        }
      ],
      "name": "file",
      "outputs": [],
      "stateMutability": "nonpayable",
      "type": "function"
    },
    {
      "inputs": [],
      "name": "fill",
      "outputs": [
        {
          "internalType": "uint256",
          "name": "",
          "type": "uint256"
        }
      ],
      "stateMutability": "view",
      "type": "function"
    },
    {
      "inputs": [],
      "name": "gem",
      "outputs": [
        {
          "internalType": "contract GemLike",
          "name": "",
          "type": "address"
        }
      ],
      "stateMutability": "view",
      "type": "function"
    },
    {
      "inputs": [
        {
          "internalType": "uint256",
          "name": "lot",
          "type": "uint256"
        },
        {
          "internalType": "uint256",
          "name": "bid",
          "type": "uint256"
        }
      ],
      "name": "kick",
      "outputs": [
        {
          "internalType": "uint256",
          "name": "id",
          "type": "uint256"
        }
      ],
      "stateMutability": "nonpayable",
      "type": "function"
    },
    {
      "inputs": [],
      "name": "kicks",
      "outputs": [
        {
          "internalType": "uint256",
          "name": "",
          "type": "uint256"
        }
      ],
      "stateMutability": "view",
      "type": "function"
    },
    {
      "inputs": [],
      "name": "lid",
      "outputs": [
        {
          "internalType": "uint256",
          "name": "",
          "type": "uint256"
        }
      ],
      "stateMutability": "view",
      "type": "function"
    },
    {
      "inputs": [],
      "name": "live",
      "outputs": [
        {
          "internalType": "uint256",
          "name": "",
          "type": "uint256"
        }
      ],
      "stateMutability": "view",
      "type": "function"
    },
    {
      "inputs": [
        {
          "internalType": "address",
          "name": "usr",
          "type": "address"
        }
      ],
      "name": "rely",
      "outputs": [],
      "stateMutability": "nonpayable",
      "type": "function"
    },
    {
      "inputs": [],
      "name": "tau",
      "outputs": [
        {
          "internalType": "uint48",
          "name": "",
          "type": "uint48"
        }
      ],
      "stateMutability": "view",
      "type": "function"
    },
    {
      "inputs": [
        {
          "internalType": "uint256",
          "name": "id",
          "type": "uint256"
        },
        {
          "internalType": "uint256",
          "name": "lot",
          "type": "uint256"
        },
        {
          "internalType": "uint256",
          "name": "bid",
          "type": "uint256"
        }
      ],
      "name": "tend",
      "outputs": [],
      "stateMutability": "nonpayable",
      "type": "function"
    },
    {
      "inputs": [
        {
          "internalType": "uint256",
          "name": "id",
          "type": "uint256"
        }
      ],
      "name": "tick",
      "outputs": [],
      "stateMutability": "nonpayable",
      "type": "function"
    },
    {
      "inputs": [],
      "name": "ttl",
      "outputs": [
        {
          "internalType": "uint48",
          "name": "",
          "type": "uint48"
        }
      ],
      "stateMutability": "view",
      "type": "function"
    },
    {
      "inputs": [],
      "name": "vat",
      "outputs": [
        {
          "internalType": "contract VatLike",
          "name": "",
          "type": "address"
        }
      ],
      "stateMutability": "view",
      "type": "function"
    },
    {
      "inputs": [
        {
          "internalType": "address",
          "name": "",
          "type": "address"
        }
      ],
      "name": "wards",
      "outputs": [
        {
          "internalType": "uint256",
          "name": "",
          "type": "uint256"
        }
      ],
      "stateMutability": "view",
      "type": "function"
    },
    {
      "inputs": [
        {
          "internalType": "uint256",
          "name": "id",
          "type": "uint256"
        }
      ],
      "name": "yank",
      "outputs": [],
      "stateMutability": "nonpayable",
      "type": "function"
    }
  ],
  "bytecode": "0x6080604052670e92596fd6290000600455612a30600560006101000a81548165ffffffffffff021916908365ffffffffffff1602179055506202a300600560066101000a81548165ffffffffffff021916908365ffffffffffff16021790555060006006553480156200007157600080fd5b5060405162002885380380620028858339818101604052810190620000979190620001d7565b60016000803373ffffffffffffffffffffffffffffffffffffffff1673ffffffffffffffffffffffffffffffffffffffff1681526020019081526020016000208190555081600260006101000a81548173ffffffffffffffffffffffffffffffffffffffff021916908373ffffffffffffffffffffffffffffffffffffffff16021790555080600360006101000a81548173ffffffffffffffffffffffffffffffffffffffff021916908373ffffffffffffffffffffffffffffffffffffffff160217905550600160078190555050506200021e565b600080fd5b600073ffffffffffffffffffffffffffffffffffffffff82169050919050565b60006200019f8262000172565b9050919050565b620001b18162000192565b8114620001bd57600080fd5b50565b600081519050620001d181620001a6565b92915050565b60008060408385031215620001f157620001f06200016d565b5b60006200020185828601620001c0565b92505060206200021485828601620001c0565b9150509250929050565b612657806200022e6000396000f3fe608060405234801561001057600080fd5b506004361061012c5760003560e01c8063957aa58c116100ad578063ca40c41911610071578063ca40c4191461030d578063cfc4af551461033d578063cfdd33021461035b578063d9c55ce114610379578063fc7b6aee146103975761012c565b8063957aa58c1461026b5780639c52a7f114610289578063a2f91af2146102a5578063bf353dbb146102c1578063c959c42b146102f15761012c565b80634b43ed12116100f45780634b43ed12146101d95780634e8b1dd5146101f557806365fae35e146102135780637bd2bea71461022f5780637d780d821461024d5761012c565b806326d2addc1461013157806326e027f11461014f57806329ae81141461016b57806336569e77146101875780634423c5f1146101a5575b600080fd5b6101396103b3565b6040516101469190611a38565b60405180910390f35b61016960048036038101906101649190611a84565b6103b9565b005b61018560048036038101906101809190611ae7565b610603565b005b61018f6107d2565b60405161019c9190611ba6565b60405180910390f35b6101bf60048036038101906101ba9190611a84565b6107f8565b6040516101d0959493929190611c03565b60405180910390f35b6101f360048036038101906101ee9190611c56565b610872565b005b6101fd610e65565b60405161020a9190611ca9565b60405180910390f35b61022d60048036038101906102289190611cf0565b610e7d565b005b610237610f45565b6040516102449190611d3e565b60405180910390f35b610255610f6b565b6040516102629190611a38565b60405180910390f35b610273610f71565b6040516102809190611a38565b60405180910390f35b6102a3600480360381019061029e9190611cf0565b610f77565b005b6102bf60048036038101906102ba9190611a84565b61103f565b005b6102db60048036038101906102d69190611cf0565b61115c565b6040516102e89190611a38565b60405180910390f35b61030b60048036038101906103069190611a84565b611174565b005b61032760048036038101906103229190611d59565b6114be565b6040516103349190611a38565b60405180910390f35b61034561180d565b6040516103529190611ca9565b60405180910390f35b610363611825565b6040516103709190611a38565b60405180910390f35b61038161182b565b60405161038e9190611a38565b60405180910390f35b6103b160048036038101906103ac9190611a84565b611831565b005b60085481565b6000600754146103fe576040517f08c379a00000000000000000000000000000000000000000000000000000000081526004016103f590611df6565b60405180910390fd5b600073ffffffffffffffffffffffffffffffffffffffff166001600083815260200190815260200160002060020160009054906101000a900473ffffffffffffffffffffffffffffffffffffffff1673ffffffffffffffffffffffffffffffffffffffff1614156104a4576040517f08c379a000000000000000000000000000000000000000000000000000000000815260040161049b90611e62565b60405180910390fd5b600360009054906101000a900473ffffffffffffffffffffffffffffffffffffffff1673ffffffffffffffffffffffffffffffffffffffff1663bb35783b306001600085815260200190815260200160002060020160009054906101000a900473ffffffffffffffffffffffffffffffffffffffff1660016000868152602001908152602001600020600001546040518463ffffffff1660e01b815260040161054f93929190611e82565b600060405180830381600087803b15801561056957600080fd5b505af115801561057d573d6000803e3d6000fd5b505050506001600082815260200190815260200160002060008082016000905560018201600090556002820160006101000a81549073ffffffffffffffffffffffffffffffffffffffff02191690556002820160146101000a81549065ffffffffffff021916905560028201601a6101000a81549065ffffffffffff0219169055505050565b60016000803373ffffffffffffffffffffffffffffffffffffffff1673ffffffffffffffffffffffffffffffffffffffff1681526020019081526020016000205414610684576040517f08c379a000000000000000000000000000000000000000000000000000000000815260040161067b90611f05565b60405180910390fd5b7f62656700000000000000000000000000000000000000000000000000000000008214156106b857806004819055506107ce565b7f74746c000000000000000000000000000000000000000000000000000000000082141561070a5780600560006101000a81548165ffffffffffff021916908365ffffffffffff1602179055506107cd565b7f746175000000000000000000000000000000000000000000000000000000000082141561075c5780600560066101000a81548165ffffffffffff021916908365ffffffffffff1602179055506107cc565b7f6c6964000000000000000000000000000000000000000000000000000000000082141561079057806008819055506107cb565b6040517f08c379a00000000000000000000000000000000000000000000000000000000081526004016107c290611f71565b60405180910390fd5b5b5b5b5050565b600260009054906101000a900473ffffffffffffffffffffffffffffffffffffffff1681565b60016020528060005260406000206000915090508060000154908060010154908060020160009054906101000a900473ffffffffffffffffffffffffffffffffffffffff16908060020160149054906101000a900465ffffffffffff169080600201601a9054906101000a900465ffffffffffff16905085565b6001600754146108b7576040517f08c379a00000000000000000000000000000000000000000000000000000000081526004016108ae90611fdd565b60405180910390fd5b600073ffffffffffffffffffffffffffffffffffffffff166001600085815260200190815260200160002060020160009054906101000a900473ffffffffffffffffffffffffffffffffffffffff1673ffffffffffffffffffffffffffffffffffffffff16141561095d576040517f08c379a000000000000000000000000000000000000000000000000000000000815260040161095490611e62565b60405180910390fd5b426001600085815260200190815260200160002060020160149054906101000a900465ffffffffffff1665ffffffffffff1611806109cb575060006001600085815260200190815260200160002060020160149054906101000a900465ffffffffffff1665ffffffffffff16145b610a0a576040517f08c379a0000000000000000000000000000000000000000000000000000000008152600401610a0190612049565b60405180910390fd5b4260016000858152602001908152602001600020600201601a9054906101000a900465ffffffffffff1665ffffffffffff1611610a7c576040517f08c379a0000000000000000000000000000000000000000000000000000000008152600401610a73906120b5565b60405180910390fd5b60016000848152602001908152602001600020600101548214610ad4576040517f08c379a0000000000000000000000000000000000000000000000000000000008152600401610acb90612121565b60405180910390fd5b60016000848152602001908152602001600020600001548111610b2c576040517f08c379a0000000000000000000000000000000000000000000000000000000008152600401610b239061218d565b60405180910390fd5b610b4e600454600160008681526020019081526020016000206000015461196f565b610b6082670de0b6b3a764000061196f565b1015610ba1576040517f08c379a0000000000000000000000000000000000000000000000000000000008152600401610b98906121f9565b60405180910390fd5b6001600084815260200190815260200160002060020160009054906101000a900473ffffffffffffffffffffffffffffffffffffffff1673ffffffffffffffffffffffffffffffffffffffff163373ffffffffffffffffffffffffffffffffffffffff1614610d3d57600360009054906101000a900473ffffffffffffffffffffffffffffffffffffffff1673ffffffffffffffffffffffffffffffffffffffff1663bb35783b336001600087815260200190815260200160002060020160009054906101000a900473ffffffffffffffffffffffffffffffffffffffff1660016000888152602001908152602001600020600001546040518463ffffffff1660e01b8152600401610cb593929190611e82565b600060405180830381600087803b158015610ccf57600080fd5b505af1158015610ce3573d6000803e3d6000fd5b50505050336001600085815260200190815260200160002060020160006101000a81548173ffffffffffffffffffffffffffffffffffffffff021916908373ffffffffffffffffffffffffffffffffffffffff1602179055505b600360009054906101000a900473ffffffffffffffffffffffffffffffffffffffff1673ffffffffffffffffffffffffffffffffffffffff1663bb35783b3330600160008881526020019081526020016000206000015485610d9f9190612248565b6040518463ffffffff1660e01b8152600401610dbd93929190611e82565b600060405180830381600087803b158015610dd757600080fd5b505af1158015610deb573d6000803e3d6000fd5b50505050806001600085815260200190815260200160002060000181905550610e2842600560009054906101000a900465ffffffffffff166119a6565b6001600085815260200190815260200160002060020160146101000a81548165ffffffffffff021916908365ffffffffffff160217905550505050565b600560009054906101000a900465ffffffffffff1681565b60016000803373ffffffffffffffffffffffffffffffffffffffff1673ffffffffffffffffffffffffffffffffffffffff1681526020019081526020016000205414610efe576040517f08c379a0000000000000000000000000000000000000000000000000000000008152600401610ef590611f05565b60405180910390fd5b60016000808373ffffffffffffffffffffffffffffffffffffffff1673ffffffffffffffffffffffffffffffffffffffff1681526020019081526020016000208190555050565b600360009054906101000a900473ffffffffffffffffffffffffffffffffffffffff1681565b60045481565b60075481565b60016000803373ffffffffffffffffffffffffffffffffffffffff1673ffffffffffffffffffffffffffffffffffffffff1681526020019081526020016000205414610ff8576040517f08c379a0000000000000000000000000000000000000000000000000000000008152600401610fef90611f05565b60405180910390fd5b60008060008373ffffffffffffffffffffffffffffffffffffffff1673ffffffffffffffffffffffffffffffffffffffff1681526020019081526020016000208190555050565b60016000803373ffffffffffffffffffffffffffffffffffffffff1673ffffffffffffffffffffffffffffffffffffffff16815260200190815260200160002054146110c0576040517f08c379a00000000000000000000000000000000000000000000000000000000081526004016110b790611f05565b60405180910390fd5b6000600781905550600260009054906101000a900473ffffffffffffffffffffffffffffffffffffffff1673ffffffffffffffffffffffffffffffffffffffff1663bb35783b3033846040518463ffffffff1660e01b815260040161112793929190611e82565b600060405180830381600087803b15801561114157600080fd5b505af1158015611155573d6000803e3d6000fd5b5050505050565b60006020528060005260406000206000915090505481565b6001600754146111b9576040517f08c379a00000000000000000000000000000000000000000000000000000000081526004016111b090611fdd565b60405180910390fd5b60006001600083815260200190815260200160002060020160149054906101000a900465ffffffffffff1665ffffffffffff16141580156112635750426001600083815260200190815260200160002060020160149054906101000a900465ffffffffffff1665ffffffffffff16108061126257504260016000838152602001908152602001600020600201601a9054906101000a900465ffffffffffff1665ffffffffffff16105b5b6112a2576040517f08c379a0000000000000000000000000000000000000000000000000000000008152600401611299906122c8565b60405180910390fd5b600060016000838152602001908152602001600020600101549050600260009054906101000a900473ffffffffffffffffffffffffffffffffffffffff1673ffffffffffffffffffffffffffffffffffffffff1663bb35783b306001600086815260200190815260200160002060020160009054906101000a900473ffffffffffffffffffffffffffffffffffffffff16846040518463ffffffff1660e01b815260040161135293929190611e82565b600060405180830381600087803b15801561136c57600080fd5b505af1158015611380573d6000803e3d6000fd5b50505050600360009054906101000a900473ffffffffffffffffffffffffffffffffffffffff1673ffffffffffffffffffffffffffffffffffffffff16639dc29fac3060016000868152602001908152602001600020600001546040518363ffffffff1660e01b81526004016113f79291906122e8565b600060405180830381600087803b15801561141157600080fd5b505af1158015611425573d6000803e3d6000fd5b505050506001600083815260200190815260200160002060008082016000905560018201600090556002820160006101000a81549073ffffffffffffffffffffffffffffffffffffffff02191690556002820160146101000a81549065ffffffffffff021916905560028201601a6101000a81549065ffffffffffff021916905550506114b4600954826119d9565b6009819055505050565b600060016000803373ffffffffffffffffffffffffffffffffffffffff1673ffffffffffffffffffffffffffffffffffffffff1681526020019081526020016000205414611541576040517f08c379a000000000000000000000000000000000000000000000000000000000815260040161153890611f05565b60405180910390fd5b600160075414611586576040517f08c379a000000000000000000000000000000000000000000000000000000000815260040161157d90611fdd565b60405180910390fd5b7fffffffffffffffffffffffffffffffffffffffffffffffffffffffffffffffff600654106115ea576040517f08c379a00000000000000000000000000000000000000000000000000000000081526004016115e19061235d565b60405180910390fd5b6115f6600954846119fc565b6009819055506008546009541115611643576040517f08c379a000000000000000000000000000000000000000000000000000000000815260040161163a906123c9565b60405180910390fd5b600660008154611652906123e9565b9190508190559050816001600083815260200190815260200160002060000181905550826001600083815260200190815260200160002060010181905550336001600083815260200190815260200160002060020160006101000a81548173ffffffffffffffffffffffffffffffffffffffff021916908373ffffffffffffffffffffffffffffffffffffffff16021790555061170342600560069054906101000a900465ffffffffffff166119a6565b60016000838152602001908152602001600020600201601a6101000a81548165ffffffffffff021916908365ffffffffffff160217905550600260009054906101000a900473ffffffffffffffffffffffffffffffffffffffff1673ffffffffffffffffffffffffffffffffffffffff1663bb35783b3330866040518463ffffffff1660e01b815260040161179a93929190611e82565b600060405180830381600087803b1580156117b457600080fd5b505af11580156117c8573d6000803e3d6000fd5b505050507fe6dde59cbc017becba89714a037778d234a84ce7f0a137487142a007e580d6098184846040516117ff93929190612432565b60405180910390a192915050565b600560069054906101000a900465ffffffffffff1681565b60065481565b60095481565b4260016000838152602001908152602001600020600201601a9054906101000a900465ffffffffffff1665ffffffffffff16106118a3576040517f08c379a000000000000000000000000000000000000000000000000000000000815260040161189a906122c8565b60405180910390fd5b60006001600083815260200190815260200160002060020160149054906101000a900465ffffffffffff1665ffffffffffff1614611916576040517f08c379a000000000000000000000000000000000000000000000000000000000815260040161190d906124b5565b60405180910390fd5b61193442600560069054906101000a900465ffffffffffff166119a6565b60016000838152602001908152602001600020600201601a6101000a81548165ffffffffffff021916908365ffffffffffff16021790555050565b60008082148061199757508282838561198891906124d5565b925082611995919061255e565b145b6119a057600080fd5b92915050565b60008265ffffffffffff1682846119bd919061258f565b91508165ffffffffffff1610156119d357600080fd5b92915050565b60008282846119e89190612248565b91508111156119f657600080fd5b92915050565b6000828284611a0b91906125cb565b9150811015611a1957600080fd5b92915050565b6000819050919050565b611a3281611a1f565b82525050565b6000602082019050611a4d6000830184611a29565b92915050565b600080fd5b611a6181611a1f565b8114611a6c57600080fd5b50565b600081359050611a7e81611a58565b92915050565b600060208284031215611a9a57611a99611a53565b5b6000611aa884828501611a6f565b91505092915050565b6000819050919050565b611ac481611ab1565b8114611acf57600080fd5b50565b600081359050611ae181611abb565b92915050565b60008060408385031215611afe57611afd611a53565b5b6000611b0c85828601611ad2565b9250506020611b1d85828601611a6f565b9150509250929050565b600073ffffffffffffffffffffffffffffffffffffffff82169050919050565b6000819050919050565b6000611b6c611b67611b6284611b27565b611b47565b611b27565b9050919050565b6000611b7e82611b51565b9050919050565b6000611b9082611b73565b9050919050565b611ba081611b85565b82525050565b6000602082019050611bbb6000830184611b97565b92915050565b6000611bcc82611b27565b9050919050565b611bdc81611bc1565b82525050565b600065ffffffffffff82169050919050565b611bfd81611be2565b82525050565b600060a082019050611c186000830188611a29565b611c256020830187611a29565b611c326040830186611bd3565b611c3f6060830185611bf4565b611c4c6080830184611bf4565b9695505050505050565b600080600060608486031215611c6f57611c6e611a53565b5b6000611c7d86828701611a6f565b9350506020611c8e86828701611a6f565b9250506040611c9f86828701611a6f565b9150509250925092565b6000602082019050611cbe6000830184611bf4565b92915050565b611ccd81611bc1565b8114611cd857600080fd5b50565b600081359050611cea81611cc4565b92915050565b600060208284031215611d0657611d05611a53565b5b6000611d1484828501611cdb565b91505092915050565b6000611d2882611b73565b9050919050565b611d3881611d1d565b82525050565b6000602082019050611d536000830184611d2f565b92915050565b60008060408385031215611d7057611d6f611a53565b5b6000611d7e85828601611a6f565b9250506020611d8f85828601611a6f565b9150509250929050565b600082825260208201905092915050565b7f466c61707065722f7374696c6c2d6c6976650000000000000000000000000000600082015250565b6000611de0601283611d99565b9150611deb82611daa565b602082019050919050565b60006020820190508181036000830152611e0f81611dd3565b9050919050565b7f466c61707065722f6775792d6e6f742d73657400000000000000000000000000600082015250565b6000611e4c601383611d99565b9150611e5782611e16565b602082019050919050565b60006020820190508181036000830152611e7b81611e3f565b9050919050565b6000606082019050611e976000830186611bd3565b611ea46020830185611bd3565b611eb16040830184611a29565b949350505050565b7f466c61707065722f6e6f742d617574686f72697a656400000000000000000000600082015250565b6000611eef601683611d99565b9150611efa82611eb9565b602082019050919050565b60006020820190508181036000830152611f1e81611ee2565b9050919050565b7f466c61707065722f66696c652d756e7265636f676e697a65642d706172616d00600082015250565b6000611f5b601f83611d99565b9150611f6682611f25565b602082019050919050565b60006020820190508181036000830152611f8a81611f4e565b9050919050565b7f466c61707065722f6e6f742d6c69766500000000000000000000000000000000600082015250565b6000611fc7601083611d99565b9150611fd282611f91565b602082019050919050565b60006020820190508181036000830152611ff681611fba565b9050919050565b7f466c61707065722f616c72656164792d66696e69736865642d74696300000000600082015250565b6000612033601c83611d99565b915061203e82611ffd565b602082019050919050565b6000602082019050818103600083015261206281612026565b9050919050565b7f466c61707065722f616c72656164792d66696e69736865642d656e6400000000600082015250565b600061209f601c83611d99565b91506120aa82612069565b602082019050919050565b600060208201905081810360008301526120ce81612092565b9050919050565b7f466c61707065722f6c6f742d6e6f742d6d61746368696e670000000000000000600082015250565b600061210b601883611d99565b9150612116826120d5565b602082019050919050565b6000602082019050818103600083015261213a816120fe565b9050919050565b7f466c61707065722f6269642d6e6f742d68696768657200000000000000000000600082015250565b6000612177601683611d99565b915061218282612141565b602082019050919050565b600060208201905081810360008301526121a68161216a565b9050919050565b7f466c61707065722f696e73756666696369656e742d696e637265617365000000600082015250565b60006121e3601d83611d99565b91506121ee826121ad565b602082019050919050565b60006020820190508181036000830152612212816121d6565b9050919050565b7f4e487b7100000000000000000000000000000000000000000000000000000000600052601160045260246000fd5b600061225382611a1f565b915061225e83611a1f565b92508282101561227157612270612219565b5b828203905092915050565b7f466c61707065722f6e6f742d66696e6973686564000000000000000000000000600082015250565b60006122b2601483611d99565b91506122bd8261227c565b602082019050919050565b600060208201905081810360008301526122e1816122a5565b9050919050565b60006040820190506122fd6000830185611bd3565b61230a6020830184611a29565b9392505050565b7f466c61707065722f6f766572666c6f7700000000000000000000000000000000600082015250565b6000612347601083611d99565b915061235282612311565b602082019050919050565b600060208201905081810360008301526123768161233a565b9050919050565b7f466c61707065722f6f7665722d6c696400000000000000000000000000000000600082015250565b60006123b3601083611d99565b91506123be8261237d565b602082019050919050565b600060208201905081810360008301526123e2816123a6565b9050919050565b60006123f482611a1f565b91507fffffffffffffffffffffffffffffffffffffffffffffffffffffffffffffffff82141561242757612426612219565b5b600182019050919050565b60006060820190506124476000830186611a29565b6124546020830185611a29565b6124616040830184611a29565b949350505050565b7f466c61707065722f6269642d616c72656164792d706c61636564000000000000600082015250565b600061249f601a83611d99565b91506124aa82612469565b602082019050919050565b600060208201905081810360008301526124ce81612492565b9050919050565b60006124e082611a1f565b91506124eb83611a1f565b9250817fffffffffffffffffffffffffffffffffffffffffffffffffffffffffffffffff048311821515161561252457612523612219565b5b828202905092915050565b7f4e487b7100000000000000000000000000000000000000000000000000000000600052601260045260246000fd5b600061256982611a1f565b915061257483611a1f565b9250826125845761258361252f565b5b828204905092915050565b600061259a82611be2565b91506125a583611be2565b92508265ffffffffffff038211156125c0576125bf612219565b5b828201905092915050565b60006125d682611a1f565b91506125e183611a1f565b9250827fffffffffffffffffffffffffffffffffffffffffffffffffffffffffffffffff0382111561261657612615612219565b5b82820190509291505056fea26469706673582212201db9074804645aff11015d450365d99f590c7cb68f30f7c676c798080bd65df664736f6c63430008090033",
  "linkReferences": {},
  "deployedLinkReferences": {}
}