{
  "_format": "hh-sol-artifact-1",
  "contractName": "Tiers",
  "sourceName": "contracts/marketplace/tiers.sol",
  "abi": [
    {
      "inputs": [
        {
          "internalType": "address",
          "name": "_ticketContract",
          "type": "address"
        }
      ],
      "stateMutability": "nonpayable",
      "type": "constructor"
    },
    {
      "anonymous": false,
      "inputs": [
        {
          "indexed": true,
          "internalType": "uint256",
          "name": "tierId",
          "type": "uint256"
        },
        {
          "indexed": true,
          "internalType": "uint256",
          "name": "nftId",
          "type": "uint256"
        }
      ],
      "name": "NFTAddedToTier",
      "type": "event"
    },
    {
      "anonymous": false,
      "inputs": [
        {
          "indexed": true,
          "internalType": "uint256",
          "name": "tierId",
          "type": "uint256"
        },
        {
          "indexed": true,
          "internalType": "uint256",
          "name": "nftId",
          "type": "uint256"
        }
      ],
      "name": "NFTRemovedFromTier",
      "type": "event"
    },
    {
      "anonymous": false,
      "inputs": [
        {
          "indexed": true,
          "internalType": "bytes32",
          "name": "role",
          "type": "bytes32"
        },
        {
          "indexed": true,
          "internalType": "bytes32",
          "name": "previousAdminRole",
          "type": "bytes32"
        },
        {
          "indexed": true,
          "internalType": "bytes32",
          "name": "newAdminRole",
          "type": "bytes32"
        }
      ],
      "name": "RoleAdminChanged",
      "type": "event"
    },
    {
      "anonymous": false,
      "inputs": [
        {
          "indexed": true,
          "internalType": "bytes32",
          "name": "role",
          "type": "bytes32"
        },
        {
          "indexed": true,
          "internalType": "address",
          "name": "account",
          "type": "address"
        },
        {
          "indexed": true,
          "internalType": "address",
          "name": "sender",
          "type": "address"
        }
      ],
      "name": "RoleGranted",
      "type": "event"
    },
    {
      "anonymous": false,
      "inputs": [
        {
          "indexed": true,
          "internalType": "bytes32",
          "name": "role",
          "type": "bytes32"
        },
        {
          "indexed": true,
          "internalType": "address",
          "name": "account",
          "type": "address"
        },
        {
          "indexed": true,
          "internalType": "address",
          "name": "sender",
          "type": "address"
        }
      ],
      "name": "RoleRevoked",
      "type": "event"
    },
    {
      "anonymous": false,
      "inputs": [
        {
          "indexed": true,
          "internalType": "uint256",
          "name": "tierId",
          "type": "uint256"
        },
        {
          "indexed": true,
          "internalType": "address",
          "name": "buyer",
          "type": "address"
        }
      ],
      "name": "SubscriptionRevoked",
      "type": "event"
    },
    {
      "anonymous": false,
      "inputs": [
        {
          "indexed": true,
          "internalType": "uint256",
          "name": "id",
          "type": "uint256"
        },
        {
          "indexed": false,
          "internalType": "string",
          "name": "name",
          "type": "string"
        },
        {
          "indexed": false,
          "internalType": "uint256",
          "name": "period",
          "type": "uint256"
        },
        {
          "indexed": false,
          "internalType": "uint256",
          "name": "price",
          "type": "uint256"
        },
        {
          "indexed": true,
          "internalType": "address",
          "name": "seller",
          "type": "address"
        }
      ],
      "name": "TierCreated",
      "type": "event"
    },
    {
      "anonymous": false,
      "inputs": [
        {
          "indexed": true,
          "internalType": "uint256",
          "name": "id",
          "type": "uint256"
        }
      ],
      "name": "TierRemoved",
      "type": "event"
    },
    {
      "anonymous": false,
      "inputs": [
        {
          "indexed": true,
          "internalType": "uint256",
          "name": "id",
          "type": "uint256"
        },
        {
          "indexed": false,
          "internalType": "string",
          "name": "name",
          "type": "string"
        },
        {
          "indexed": false,
          "internalType": "uint256",
          "name": "period",
          "type": "uint256"
        },
        {
          "indexed": false,
          "internalType": "uint256",
          "name": "price",
          "type": "uint256"
        }
      ],
      "name": "TierUpdated",
      "type": "event"
    },
    {
      "inputs": [],
      "name": "DEFAULT_ADMIN_ROLE",
      "outputs": [
        {
          "internalType": "bytes32",
          "name": "",
          "type": "bytes32"
        }
      ],
      "stateMutability": "view",
      "type": "function"
    },
    {
      "inputs": [
        {
          "internalType": "uint256",
          "name": "_tierId",
          "type": "uint256"
        },
        {
          "internalType": "uint256",
          "name": "_nftId",
          "type": "uint256"
        }
      ],
      "name": "addNFTToTier",
      "outputs": [],
      "stateMutability": "nonpayable",
      "type": "function"
    },
    {
      "inputs": [
        {
          "internalType": "string",
          "name": "_name",
          "type": "string"
        },
        {
          "internalType": "uint256",
          "name": "_period",
          "type": "uint256"
        },
        {
          "internalType": "uint256",
          "name": "_price",
          "type": "uint256"
        },
        {
          "internalType": "address",
          "name": "_seller",
          "type": "address"
        }
      ],
      "name": "createTier",
      "outputs": [],
      "stateMutability": "nonpayable",
      "type": "function"
    },
    {
      "inputs": [
        {
          "internalType": "uint256",
          "name": "_tierId",
          "type": "uint256"
        },
        {
          "internalType": "string",
          "name": "_name",
          "type": "string"
        },
        {
          "internalType": "uint256",
          "name": "_period",
          "type": "uint256"
        },
        {
          "internalType": "uint256",
          "name": "_price",
          "type": "uint256"
        }
      ],
      "name": "editTier",
      "outputs": [],
      "stateMutability": "nonpayable",
      "type": "function"
    },
    {
      "inputs": [
        {
          "internalType": "bytes32",
          "name": "role",
          "type": "bytes32"
        }
      ],
      "name": "getRoleAdmin",
      "outputs": [
        {
          "internalType": "bytes32",
          "name": "",
          "type": "bytes32"
        }
      ],
      "stateMutability": "view",
      "type": "function"
    },
    {
      "inputs": [
        {
          "internalType": "bytes32",
          "name": "role",
          "type": "bytes32"
        },
        {
          "internalType": "address",
          "name": "account",
          "type": "address"
        }
      ],
      "name": "grantRole",
      "outputs": [],
      "stateMutability": "nonpayable",
      "type": "function"
    },
    {
      "inputs": [
        {
          "internalType": "bytes32",
          "name": "role",
          "type": "bytes32"
        },
        {
          "internalType": "address",
          "name": "account",
          "type": "address"
        }
      ],
      "name": "hasRole",
      "outputs": [
        {
          "internalType": "bool",
          "name": "",
          "type": "bool"
        }
      ],
      "stateMutability": "view",
      "type": "function"
    },
    {
      "inputs": [
        {
          "internalType": "uint256",
          "name": "_tierId",
          "type": "uint256"
        }
      ],
      "name": "recurringPayment",
      "outputs": [],
      "stateMutability": "payable",
      "type": "function"
    },
    {
      "inputs": [
        {
          "internalType": "uint256",
          "name": "_tierId",
          "type": "uint256"
        },
        {
          "internalType": "uint256",
          "name": "_nftId",
          "type": "uint256"
        }
      ],
      "name": "removeNFTFromTier",
      "outputs": [],
      "stateMutability": "nonpayable",
      "type": "function"
    },
    {
      "inputs": [
        {
          "internalType": "uint256",
          "name": "_tierId",
          "type": "uint256"
        }
      ],
      "name": "removeTier",
      "outputs": [],
      "stateMutability": "nonpayable",
      "type": "function"
    },
    {
      "inputs": [
        {
          "internalType": "bytes32",
          "name": "role",
          "type": "bytes32"
        },
        {
          "internalType": "address",
          "name": "account",
          "type": "address"
        }
      ],
      "name": "renounceRole",
      "outputs": [],
      "stateMutability": "nonpayable",
      "type": "function"
    },
    {
      "inputs": [
        {
          "internalType": "bytes32",
          "name": "role",
          "type": "bytes32"
        },
        {
          "internalType": "address",
          "name": "account",
          "type": "address"
        }
      ],
      "name": "revokeRole",
      "outputs": [],
      "stateMutability": "nonpayable",
      "type": "function"
    },
    {
      "inputs": [],
      "name": "revokeSubscription",
      "outputs": [],
      "stateMutability": "nonpayable",
      "type": "function"
    },
    {
      "inputs": [
        {
          "internalType": "address",
          "name": "_user",
          "type": "address"
        }
      ],
      "name": "revokeSubscriptionForUser",
      "outputs": [],
      "stateMutability": "nonpayable",
      "type": "function"
    },
    {
      "inputs": [
        {
          "internalType": "uint256",
          "name": "_tierId",
          "type": "uint256"
        }
      ],
      "name": "subscribeToTier",
      "outputs": [],
      "stateMutability": "payable",
      "type": "function"
    },
    {
      "inputs": [
        {
          "internalType": "bytes4",
          "name": "interfaceId",
          "type": "bytes4"
        }
      ],
      "name": "supportsInterface",
      "outputs": [
        {
          "internalType": "bool",
          "name": "",
          "type": "bool"
        }
      ],
      "stateMutability": "view",
      "type": "function"
    },
    {
      "inputs": [],
      "name": "ticketContract",
      "outputs": [
        {
          "internalType": "address",
          "name": "",
          "type": "address"
        }
      ],
      "stateMutability": "view",
      "type": "function"
    },
    {
      "inputs": [
        {
          "internalType": "uint256",
          "name": "",
          "type": "uint256"
        }
      ],
      "name": "tiers",
      "outputs": [
        {
          "internalType": "uint256",
          "name": "id",
          "type": "uint256"
        },
        {
          "internalType": "string",
          "name": "name",
          "type": "string"
        },
        {
          "internalType": "uint256",
          "name": "period",
          "type": "uint256"
        },
        {
          "internalType": "uint256",
          "name": "price",
          "type": "uint256"
        },
        {
          "internalType": "address",
          "name": "seller",
          "type": "address"
        }
      ],
      "stateMutability": "view",
      "type": "function"
    },
    {
      "inputs": [
        {
          "internalType": "address",
          "name": "",
          "type": "address"
        }
      ],
      "name": "userTiers",
      "outputs": [
        {
          "internalType": "uint256",
          "name": "",
          "type": "uint256"
        }
      ],
      "stateMutability": "view",
      "type": "function"
    }
  ],
  "bytecode": "0x60806040523480156200001157600080fd5b506040516200282738038062002827833981810160405281019062000037919062000277565b80600460006101000a81548173ffffffffffffffffffffffffffffffffffffffff021916908373ffffffffffffffffffffffffffffffffffffffff1602179055506200008d6000801b336200009460201b60201c565b50620002a9565b620000a68282620000aa60201b60201c565b5050565b620000bc82826200019b60201b60201c565b6200019757600160008084815260200190815260200160002060000160008373ffffffffffffffffffffffffffffffffffffffff1673ffffffffffffffffffffffffffffffffffffffff16815260200190815260200160002060006101000a81548160ff0219169083151502179055506200013c6200020560201b60201c565b73ffffffffffffffffffffffffffffffffffffffff168173ffffffffffffffffffffffffffffffffffffffff16837f2f8788117e7eff1d82e926ec794901d17c78024a50270940304540a733656f0d60405160405180910390a45b5050565b600080600084815260200190815260200160002060000160008373ffffffffffffffffffffffffffffffffffffffff1673ffffffffffffffffffffffffffffffffffffffff16815260200190815260200160002060009054906101000a900460ff16905092915050565b600033905090565b600080fd5b600073ffffffffffffffffffffffffffffffffffffffff82169050919050565b60006200023f8262000212565b9050919050565b620002518162000232565b81146200025d57600080fd5b50565b600081519050620002718162000246565b92915050565b60006020828403121562000290576200028f6200020d565b5b6000620002a08482850162000260565b91505092915050565b61256e80620002b96000396000f3fe6080604052600436106101145760003560e01c80633aadc9c3116100a057806391d148541161006457806391d1485414610381578063a217fddf146103be578063c870ed28146103e9578063d547741f14610412578063e40b82c11461043b57610114565b80633aadc9c3146102d157806358a86e1d146102e8578063634f2b1b146103135780637497211b1461032f57806388f7a0551461035857610114565b806324063c82116100e757806324063c82146101e9578063248a9ca3146102265780632f2ff15d146102635780632f6b61cb1461028c57806336568abe146102a857610114565b806301ffc9a714610119578063039af9eb146101565780630f45379e14610197578063182eb820146101c0575b600080fd5b34801561012557600080fd5b50610140600480360381019061013b91906117cd565b610464565b60405161014d9190611815565b60405180910390f35b34801561016257600080fd5b5061017d60048036038101906101789190611866565b6104de565b60405161018e95949392919061197c565b60405180910390f35b3480156101a357600080fd5b506101be60048036038101906101b99190611b0b565b6105bc565b005b3480156101cc57600080fd5b506101e760048036038101906101e29190611bba565b61064f565b005b3480156101f557600080fd5b50610210600480360381019061020b9190611c3d565b610804565b60405161021d9190611c6a565b60405180910390f35b34801561023257600080fd5b5061024d60048036038101906102489190611cbb565b61081c565b60405161025a9190611cf7565b60405180910390f35b34801561026f57600080fd5b5061028a60048036038101906102859190611d12565b61083b565b005b6102a660048036038101906102a19190611866565b61085c565b005b3480156102b457600080fd5b506102cf60048036038101906102ca9190611d12565b610971565b005b3480156102dd57600080fd5b506102e66109f4565b005b3480156102f457600080fd5b506102fd610b07565b60405161030a9190611d52565b60405180910390f35b61032d60048036038101906103289190611866565b610b2d565b005b34801561033b57600080fd5b5061035660048036038101906103519190611866565b610c7f565b005b34801561036457600080fd5b5061037f600480360381019061037a9190611d6d565b610d32565b005b34801561038d57600080fd5b506103a860048036038101906103a39190611d12565b610daf565b6040516103b59190611815565b60405180910390f35b3480156103ca57600080fd5b506103d3610e19565b6040516103e09190611cf7565b60405180910390f35b3480156103f557600080fd5b50610410600480360381019061040b9190611c3d565b610e20565b005b34801561041e57600080fd5b5061043960048036038101906104349190611d12565b610f42565b005b34801561044757600080fd5b50610462600480360381019061045d9190611d6d565b610f63565b005b60007f7965db0b000000000000000000000000000000000000000000000000000000007bffffffffffffffffffffffffffffffffffffffffffffffffffffffff1916827bffffffffffffffffffffffffffffffffffffffffffffffffffffffff191614806104d757506104d6826110bd565b5b9050919050565b600160205280600052604060002060009150905080600001549080600101805461050790611ddc565b80601f016020809104026020016040519081016040528092919081815260200182805461053390611ddc565b80156105805780601f1061055557610100808354040283529160200191610580565b820191906000526020600020905b81548152906001019060200180831161056357829003601f168201915b5050505050908060020154908060030154908060050160009054906101000a900473ffffffffffffffffffffffffffffffffffffffff16905085565b6000801b6105c981611127565b6000600160008781526020019081526020016000209050848160010190805190602001906105f8929190611610565b50838160020181905550828160030181905550857f9e9b185744188b300079c1edaaf6569345f8fa9f5102a4a007efd839db0442fb86868660405161063f93929190611e0e565b60405180910390a2505050505050565b6000801b61065c81611127565b600061066661113b565b90506040518060c00160405280828152602001878152602001868152602001858152602001600067ffffffffffffffff8111156106a6576106a56119e0565b5b6040519080825280602002602001820160405280156106d45781602001602082028036833780820191505090505b5081526020018473ffffffffffffffffffffffffffffffffffffffff168152506001600083815260200190815260200160002060008201518160000155602082015181600101908051906020019061072d929190611610565b506040820151816002015560608201518160030155608082015181600401908051906020019061075e929190611696565b5060a08201518160050160006101000a81548173ffffffffffffffffffffffffffffffffffffffff021916908373ffffffffffffffffffffffffffffffffffffffff1602179055509050508273ffffffffffffffffffffffffffffffffffffffff16817fb96b70435fd2b7ae3ffc1de23c3b83da4d67758da2c5465211f7a526b3ff315d8888886040516107f493929190611e0e565b60405180910390a3505050505050565b60026020528060005260406000206000915090505481565b6000806000838152602001908152602001600020600101549050919050565b6108448261081c565b61084d81611127565b6108578383611159565b505050565b600060016000838152602001908152602001600020905080600301543410156108ba576040517f08c379a00000000000000000000000000000000000000000000000000000000081526004016108b190611ebe565b60405180910390fd5b8060050160009054906101000a900473ffffffffffffffffffffffffffffffffffffffff1673ffffffffffffffffffffffffffffffffffffffff166108fc82600301549081150290604051600060405180830381858888f19350505050158015610928573d6000803e3d6000fd5b5081600260003373ffffffffffffffffffffffffffffffffffffffff1673ffffffffffffffffffffffffffffffffffffffff168152602001908152602001600020819055505050565b610979611239565b73ffffffffffffffffffffffffffffffffffffffff168173ffffffffffffffffffffffffffffffffffffffff16146109e6576040517f08c379a00000000000000000000000000000000000000000000000000000000081526004016109dd90611f50565b60405180910390fd5b6109f08282611241565b5050565b6000600260003373ffffffffffffffffffffffffffffffffffffffff1673ffffffffffffffffffffffffffffffffffffffff16815260200190815260200160002054905060008111610a7b576040517f08c379a0000000000000000000000000000000000000000000000000000000008152600401610a7290611fe2565b60405180910390fd5b6000600260003373ffffffffffffffffffffffffffffffffffffffff1673ffffffffffffffffffffffffffffffffffffffff168152602001908152602001600020819055503373ffffffffffffffffffffffffffffffffffffffff16817f35d33492e57db62bbca25dc09ec8f2becf2079f985d313c9e69957d78614545360405160405180910390a350565b600460009054906101000a900473ffffffffffffffffffffffffffffffffffffffff1681565b600060016000838152602001908152602001600020905081600260003373ffffffffffffffffffffffffffffffffffffffff1673ffffffffffffffffffffffffffffffffffffffff1681526020019081526020016000205414610bc5576040517f08c379a0000000000000000000000000000000000000000000000000000000008152600401610bbc90612074565b60405180910390fd5b8060030154341015610c0c576040517f08c379a0000000000000000000000000000000000000000000000000000000008152600401610c0390612106565b60405180910390fd5b8060050160009054906101000a900473ffffffffffffffffffffffffffffffffffffffff1673ffffffffffffffffffffffffffffffffffffffff166108fc82600301549081150290604051600060405180830381858888f19350505050158015610c7a573d6000803e3d6000fd5b505050565b6000801b610c8c81611127565b60016000838152602001908152602001600020600080820160009055600182016000610cb891906116e3565b60028201600090556003820160009055600482016000610cd89190611723565b6005820160006101000a81549073ffffffffffffffffffffffffffffffffffffffff02191690555050817f2db503bf72072a56b541844d3e323ccb338c859c2cf15fe7d99d38d5908cae6860405160405180910390a25050565b6000801b610d3f81611127565b6001600084815260200190815260200160002060040182908060018154018082558091505060019003906000526020600020016000909190919091505581837f221651e40cbb44a9c6a33b5c4c5638db346f8889a31ae54a6360c7f3bdee710660405160405180910390a3505050565b600080600084815260200190815260200160002060000160008373ffffffffffffffffffffffffffffffffffffffff1673ffffffffffffffffffffffffffffffffffffffff16815260200190815260200160002060009054906101000a900460ff16905092915050565b6000801b81565b6000801b610e2d81611127565b6000600260008473ffffffffffffffffffffffffffffffffffffffff1673ffffffffffffffffffffffffffffffffffffffff16815260200190815260200160002054905060008111610eb4576040517f08c379a0000000000000000000000000000000000000000000000000000000008152600401610eab90611fe2565b60405180910390fd5b6000600260008573ffffffffffffffffffffffffffffffffffffffff1673ffffffffffffffffffffffffffffffffffffffff168152602001908152602001600020819055508273ffffffffffffffffffffffffffffffffffffffff16817f35d33492e57db62bbca25dc09ec8f2becf2079f985d313c9e69957d78614545360405160405180910390a3505050565b610f4b8261081c565b610f5481611127565b610f5e8383611241565b505050565b6000801b610f7081611127565b600060016000858152602001908152602001600020600401905060005b818054905081101561107c5783828281548110610fad57610fac612126565b5b90600052602060002001541415611069578160018380549050610fd09190612184565b81548110610fe157610fe0612126565b5b9060005260206000200154828281548110610fff57610ffe612126565b5b90600052602060002001819055508180548061101e5761101d6121b8565b5b6001900381819060005260206000200160009055905583857f480240be4e89fc50d5616ee8ac7b20e9c4bf61a7246c6d61bbb02708f7f8614d60405160405180910390a350506110b8565b8080611074906121e7565b915050610f8d565b506040517f08c379a00000000000000000000000000000000000000000000000000000000081526004016110af906122a2565b60405180910390fd5b505050565b60007f01ffc9a7000000000000000000000000000000000000000000000000000000007bffffffffffffffffffffffffffffffffffffffffffffffffffffffff1916827bffffffffffffffffffffffffffffffffffffffffffffffffffffffff1916149050919050565b61113881611133611239565b611322565b50565b600060036000815480929190611150906121e7565b91905055905090565b6111638282610daf565b61123557600160008084815260200190815260200160002060000160008373ffffffffffffffffffffffffffffffffffffffff1673ffffffffffffffffffffffffffffffffffffffff16815260200190815260200160002060006101000a81548160ff0219169083151502179055506111da611239565b73ffffffffffffffffffffffffffffffffffffffff168173ffffffffffffffffffffffffffffffffffffffff16837f2f8788117e7eff1d82e926ec794901d17c78024a50270940304540a733656f0d60405160405180910390a45b5050565b600033905090565b61124b8282610daf565b1561131e57600080600084815260200190815260200160002060000160008373ffffffffffffffffffffffffffffffffffffffff1673ffffffffffffffffffffffffffffffffffffffff16815260200190815260200160002060006101000a81548160ff0219169083151502179055506112c3611239565b73ffffffffffffffffffffffffffffffffffffffff168173ffffffffffffffffffffffffffffffffffffffff16837ff6391f5c32d9c69d2a47ea670b442974b53935d1edc7fd64eb21e047a839171b60405160405180910390a45b5050565b61132c8282610daf565b6113a357611339816113a7565b6113478360001c60206113d4565b604051602001611358929190612396565b6040516020818303038152906040526040517f08c379a000000000000000000000000000000000000000000000000000000000815260040161139a91906123d0565b60405180910390fd5b5050565b60606113cd8273ffffffffffffffffffffffffffffffffffffffff16601460ff166113d4565b9050919050565b6060600060028360026113e791906123f2565b6113f1919061244c565b67ffffffffffffffff81111561140a576114096119e0565b5b6040519080825280601f01601f19166020018201604052801561143c5781602001600182028036833780820191505090505b5090507f30000000000000000000000000000000000000000000000000000000000000008160008151811061147457611473612126565b5b60200101907effffffffffffffffffffffffffffffffffffffffffffffffffffffffffffff1916908160001a9053507f7800000000000000000000000000000000000000000000000000000000000000816001815181106114d8576114d7612126565b5b60200101907effffffffffffffffffffffffffffffffffffffffffffffffffffffffffffff1916908160001a9053506000600184600261151891906123f2565b611522919061244c565b90505b60018111156115c2577f3031323334353637383961626364656600000000000000000000000000000000600f86166010811061156457611563612126565b5b1a60f81b82828151811061157b5761157a612126565b5b60200101907effffffffffffffffffffffffffffffffffffffffffffffffffffffffffffff1916908160001a905350600485901c9450806115bb906124a2565b9050611525565b5060008414611606576040517f08c379a00000000000000000000000000000000000000000000000000000000081526004016115fd90612518565b60405180910390fd5b8091505092915050565b82805461161c90611ddc565b90600052602060002090601f01602090048101928261163e5760008555611685565b82601f1061165757805160ff1916838001178555611685565b82800160010185558215611685579182015b82811115611684578251825591602001919060010190611669565b5b5090506116929190611744565b5090565b8280548282559060005260206000209081019282156116d2579160200282015b828111156116d15782518255916020019190600101906116b6565b5b5090506116df9190611744565b5090565b5080546116ef90611ddc565b6000825580601f106117015750611720565b601f01602090049060005260206000209081019061171f9190611744565b5b50565b50805460008255906000526020600020908101906117419190611744565b50565b5b8082111561175d576000816000905550600101611745565b5090565b6000604051905090565b600080fd5b600080fd5b60007fffffffff0000000000000000000000000000000000000000000000000000000082169050919050565b6117aa81611775565b81146117b557600080fd5b50565b6000813590506117c7816117a1565b92915050565b6000602082840312156117e3576117e261176b565b5b60006117f1848285016117b8565b91505092915050565b60008115159050919050565b61180f816117fa565b82525050565b600060208201905061182a6000830184611806565b92915050565b6000819050919050565b61184381611830565b811461184e57600080fd5b50565b6000813590506118608161183a565b92915050565b60006020828403121561187c5761187b61176b565b5b600061188a84828501611851565b91505092915050565b61189c81611830565b82525050565b600081519050919050565b600082825260208201905092915050565b60005b838110156118dc5780820151818401526020810190506118c1565b838111156118eb576000848401525b50505050565b6000601f19601f8301169050919050565b600061190d826118a2565b61191781856118ad565b93506119278185602086016118be565b611930816118f1565b840191505092915050565b600073ffffffffffffffffffffffffffffffffffffffff82169050919050565b60006119668261193b565b9050919050565b6119768161195b565b82525050565b600060a0820190506119916000830188611893565b81810360208301526119a38187611902565b90506119b26040830186611893565b6119bf6060830185611893565b6119cc608083018461196d565b9695505050505050565b600080fd5b600080fd5b7f4e487b7100000000000000000000000000000000000000000000000000000000600052604160045260246000fd5b611a18826118f1565b810181811067ffffffffffffffff82111715611a3757611a366119e0565b5b80604052505050565b6000611a4a611761565b9050611a568282611a0f565b919050565b600067ffffffffffffffff821115611a7657611a756119e0565b5b611a7f826118f1565b9050602081019050919050565b82818337600083830152505050565b6000611aae611aa984611a5b565b611a40565b905082815260208101848484011115611aca57611ac96119db565b5b611ad5848285611a8c565b509392505050565b600082601f830112611af257611af16119d6565b5b8135611b02848260208601611a9b565b91505092915050565b60008060008060808587031215611b2557611b2461176b565b5b6000611b3387828801611851565b945050602085013567ffffffffffffffff811115611b5457611b53611770565b5b611b6087828801611add565b9350506040611b7187828801611851565b9250506060611b8287828801611851565b91505092959194509250565b611b978161195b565b8114611ba257600080fd5b50565b600081359050611bb481611b8e565b92915050565b60008060008060808587031215611bd457611bd361176b565b5b600085013567ffffffffffffffff811115611bf257611bf1611770565b5b611bfe87828801611add565b9450506020611c0f87828801611851565b9350506040611c2087828801611851565b9250506060611c3187828801611ba5565b91505092959194509250565b600060208284031215611c5357611c5261176b565b5b6000611c6184828501611ba5565b91505092915050565b6000602082019050611c7f6000830184611893565b92915050565b6000819050919050565b611c9881611c85565b8114611ca357600080fd5b50565b600081359050611cb581611c8f565b92915050565b600060208284031215611cd157611cd061176b565b5b6000611cdf84828501611ca6565b91505092915050565b611cf181611c85565b82525050565b6000602082019050611d0c6000830184611ce8565b92915050565b60008060408385031215611d2957611d2861176b565b5b6000611d3785828601611ca6565b9250506020611d4885828601611ba5565b9150509250929050565b6000602082019050611d67600083018461196d565b92915050565b60008060408385031215611d8457611d8361176b565b5b6000611d9285828601611851565b9250506020611da385828601611851565b9150509250929050565b7f4e487b7100000000000000000000000000000000000000000000000000000000600052602260045260246000fd5b60006002820490506001821680611df457607f821691505b60208210811415611e0857611e07611dad565b5b50919050565b60006060820190508181036000830152611e288186611902565b9050611e376020830185611893565b611e446040830184611893565b949350505050565b7f4e6f7420656e6f7567682066756e647320746f2073756273637269626520746f60008201527f2074686520746965720000000000000000000000000000000000000000000000602082015250565b6000611ea86029836118ad565b9150611eb382611e4c565b604082019050919050565b60006020820190508181036000830152611ed781611e9b565b9050919050565b7f416363657373436f6e74726f6c3a2063616e206f6e6c792072656e6f756e636560008201527f20726f6c657320666f722073656c660000000000000000000000000000000000602082015250565b6000611f3a602f836118ad565b9150611f4582611ede565b604082019050919050565b60006020820190508181036000830152611f6981611f2d565b9050919050565b7f55736572206973206e6f74207375627363726962656420746f20616e7920746960008201527f6572000000000000000000000000000000000000000000000000000000000000602082015250565b6000611fcc6022836118ad565b9150611fd782611f70565b604082019050919050565b60006020820190508181036000830152611ffb81611fbf565b9050919050565b7f55736572206973206e6f74207375627363726962656420746f2074686973207460008201527f6965720000000000000000000000000000000000000000000000000000000000602082015250565b600061205e6023836118ad565b915061206982612002565b604082019050919050565b6000602082019050818103600083015261208d81612051565b9050919050565b7f4e6f7420656e6f7567682066756e647320746f2070617920746865207265637560008201527f7272696e67206665650000000000000000000000000000000000000000000000602082015250565b60006120f06029836118ad565b91506120fb82612094565b604082019050919050565b6000602082019050818103600083015261211f816120e3565b9050919050565b7f4e487b7100000000000000000000000000000000000000000000000000000000600052603260045260246000fd5b7f4e487b7100000000000000000000000000000000000000000000000000000000600052601160045260246000fd5b600061218f82611830565b915061219a83611830565b9250828210156121ad576121ac612155565b5b828203905092915050565b7f4e487b7100000000000000000000000000000000000000000000000000000000600052603160045260246000fd5b60006121f282611830565b91507fffffffffffffffffffffffffffffffffffffffffffffffffffffffffffffffff82141561222557612224612155565b5b600182019050919050565b7f4e4654206e6f7420666f756e6420696e2074686520616c6c6f776564206c697360008201527f7400000000000000000000000000000000000000000000000000000000000000602082015250565b600061228c6021836118ad565b915061229782612230565b604082019050919050565b600060208201905081810360008301526122bb8161227f565b9050919050565b600081905092915050565b7f416363657373436f6e74726f6c3a206163636f756e7420000000000000000000600082015250565b60006123036017836122c2565b915061230e826122cd565b601782019050919050565b6000612324826118a2565b61232e81856122c2565b935061233e8185602086016118be565b80840191505092915050565b7f206973206d697373696e6720726f6c6520000000000000000000000000000000600082015250565b60006123806011836122c2565b915061238b8261234a565b601182019050919050565b60006123a1826122f6565b91506123ad8285612319565b91506123b882612373565b91506123c48284612319565b91508190509392505050565b600060208201905081810360008301526123ea8184611902565b905092915050565b60006123fd82611830565b915061240883611830565b9250817fffffffffffffffffffffffffffffffffffffffffffffffffffffffffffffffff048311821515161561244157612440612155565b5b828202905092915050565b600061245782611830565b915061246283611830565b9250827fffffffffffffffffffffffffffffffffffffffffffffffffffffffffffffffff0382111561249757612496612155565b5b828201905092915050565b60006124ad82611830565b915060008214156124c1576124c0612155565b5b600182039050919050565b7f537472696e67733a20686578206c656e67746820696e73756666696369656e74600082015250565b60006125026020836118ad565b915061250d826124cc565b602082019050919050565b60006020820190508181036000830152612531816124f5565b905091905056fea264697066735822122023812f92f491eec5c5aa50cccfb3206f169efb25ab0fa9d78414adbcb454a5b264736f6c63430008090033",
  "linkReferences": {},
  "deployedLinkReferences": {}
}