{
  "_format": "hh-sol-artifact-1",
  "contractName": "Spotter",
  "sourceName": "contracts/protocol/core/spot.sol",
  "abi": [
    {
      "inputs": [
        {
          "internalType": "address",
          "name": "vat_",
          "type": "address"
        }
      ],
      "stateMutability": "nonpayable",
      "type": "constructor"
    },
    {
      "anonymous": false,
      "inputs": [
        {
          "indexed": false,
          "internalType": "bytes32",
          "name": "ilk",
          "type": "bytes32"
        },
        {
          "indexed": false,
          "internalType": "bytes32",
          "name": "val",
          "type": "bytes32"
        },
        {
          "indexed": false,
          "internalType": "uint256",
          "name": "spot",
          "type": "uint256"
        }
      ],
      "name": "Poke",
      "type": "event"
    },
    {
      "inputs": [],
      "name": "cage",
      "outputs": [],
      "stateMutability": "nonpayable",
      "type": "function"
    },
    {
      "inputs": [
        {
          "internalType": "address",
          "name": "guy",
          "type": "address"
        }
      ],
      "name": "deny",
      "outputs": [],
      "stateMutability": "nonpayable",
      "type": "function"
    },
    {
      "inputs": [
        {
          "internalType": "bytes32",
          "name": "ilk",
          "type": "bytes32"
        },
        {
          "internalType": "bytes32",
          "name": "what",
          "type": "bytes32"
        },
        {
          "internalType": "uint256",
          "name": "data",
          "type": "uint256"
        }
      ],
      "name": "file",
      "outputs": [],
      "stateMutability": "nonpayable",
      "type": "function"
    },
    {
      "inputs": [
        {
          "internalType": "bytes32",
          "name": "what",
          "type": "bytes32"
        },
        {
          "internalType": "uint256",
          "name": "data",
          "type": "uint256"
        }
      ],
      "name": "file",
      "outputs": [],
      "stateMutability": "nonpayable",
      "type": "function"
    },
    {
      "inputs": [
        {
          "internalType": "bytes32",
          "name": "ilk",
          "type": "bytes32"
        },
        {
          "internalType": "bytes32",
          "name": "what",
          "type": "bytes32"
        },
        {
          "internalType": "address",
          "name": "pip_",
          "type": "address"
        }
      ],
      "name": "file",
      "outputs": [],
      "stateMutability": "nonpayable",
      "type": "function"
    },
    {
      "inputs": [
        {
          "internalType": "bytes32",
          "name": "",
          "type": "bytes32"
        }
      ],
      "name": "ilks",
      "outputs": [
        {
          "internalType": "contract PipLike",
          "name": "pip",
          "type": "address"
        },
        {
          "internalType": "uint256",
          "name": "mat",
          "type": "uint256"
        }
      ],
      "stateMutability": "view",
      "type": "function"
    },
    {
      "inputs": [],
      "name": "live",
      "outputs": [
        {
          "internalType": "uint256",
          "name": "",
          "type": "uint256"
        }
      ],
      "stateMutability": "view",
      "type": "function"
    },
    {
      "inputs": [],
      "name": "par",
      "outputs": [
        {
          "internalType": "uint256",
          "name": "",
          "type": "uint256"
        }
      ],
      "stateMutability": "view",
      "type": "function"
    },
    {
      "inputs": [
        {
          "internalType": "bytes32",
          "name": "ilk",
          "type": "bytes32"
        }
      ],
      "name": "poke",
      "outputs": [],
      "stateMutability": "nonpayable",
      "type": "function"
    },
    {
      "inputs": [
        {
          "internalType": "address",
          "name": "guy",
          "type": "address"
        }
      ],
      "name": "rely",
      "outputs": [],
      "stateMutability": "nonpayable",
      "type": "function"
    },
    {
      "inputs": [],
      "name": "vat",
      "outputs": [
        {
          "internalType": "contract VatLike",
          "name": "",
          "type": "address"
        }
      ],
      "stateMutability": "view",
      "type": "function"
    },
    {
      "inputs": [
        {
          "internalType": "address",
          "name": "",
          "type": "address"
        }
      ],
      "name": "wards",
      "outputs": [
        {
          "internalType": "uint256",
          "name": "",
          "type": "uint256"
        }
      ],
      "stateMutability": "view",
      "type": "function"
    }
  ],
  "bytecode": "0x60806040523480156200001157600080fd5b506040516200134138038062001341833981810160405281019062000037919062000148565b60016000803373ffffffffffffffffffffffffffffffffffffffff1673ffffffffffffffffffffffffffffffffffffffff1681526020019081526020016000208190555080600260006101000a81548173ffffffffffffffffffffffffffffffffffffffff021916908373ffffffffffffffffffffffffffffffffffffffff1602179055506b033b2e3c9fd0803ce80000006003819055506001600481905550506200017a565b600080fd5b600073ffffffffffffffffffffffffffffffffffffffff82169050919050565b60006200011082620000e3565b9050919050565b620001228162000103565b81146200012e57600080fd5b50565b600081519050620001428162000117565b92915050565b600060208284031215620001615762000160620000de565b5b6000620001718482850162000131565b91505092915050565b6111b7806200018a6000396000f3fe608060405234801561001057600080fd5b50600436106100b45760003560e01c806369245009116100715780636924500914610165578063957aa58c1461016f5780639c52a7f11461018d578063bf353dbb146101a9578063d9638d36146101d9578063ebecb39d1461020a576100b4565b80631504460f146100b95780631a0b287e146100d557806329ae8114146100f157806336569e771461010d578063495d32cb1461012b57806365fae35e14610149575b600080fd5b6100d360048036038101906100ce9190610b53565b610226565b005b6100ef60048036038101906100ea9190610bb6565b6103fe565b005b61010b60048036038101906101069190610c09565b61054c565b005b610115610685565b6040516101229190610cc8565b60405180910390f35b6101336106ab565b6040516101409190610cf2565b60405180910390f35b610163600480360381019061015e9190610d4b565b6106b1565b005b61016d610779565b005b610177610804565b6040516101849190610cf2565b60405180910390f35b6101a760048036038101906101a29190610d4b565b61080a565b005b6101c360048036038101906101be9190610d4b565b6108d2565b6040516101d09190610cf2565b60405180910390f35b6101f360048036038101906101ee9190610b53565b6108ea565b604051610201929190610d99565b60405180910390f35b610224600480360381019061021f9190610dc2565b61092e565b005b6000806001600084815260200190815260200160002060000160009054906101000a900473ffffffffffffffffffffffffffffffffffffffff1673ffffffffffffffffffffffffffffffffffffffff166359e02dd76040518163ffffffff1660e01b81526004016040805180830381600087803b1580156102a657600080fd5b505af11580156102ba573d6000803e3d6000fd5b505050506040513d601f19601f820116820180604052508101906102de9190610e62565b915091506000816102f057600061032c565b61032b61030f6103078560001c633b9aca00610ab6565b600354610aed565b6001600087815260200190815260200160002060010154610aed565b5b9050600260009054906101000a900473ffffffffffffffffffffffffffffffffffffffff1673ffffffffffffffffffffffffffffffffffffffff16631a0b287e85836040518363ffffffff1660e01b815260040161038b929190610ed7565b600060405180830381600087803b1580156103a557600080fd5b505af11580156103b9573d6000803e3d6000fd5b505050507fdfd7467e425a8107cfd368d159957692c25085aacbcf5228ce08f10f2146486e8484836040516103f093929190610f0c565b60405180910390a150505050565b60016000803373ffffffffffffffffffffffffffffffffffffffff1673ffffffffffffffffffffffffffffffffffffffff168152602001908152602001600020541461047f576040517f08c379a000000000000000000000000000000000000000000000000000000000815260040161047690610fa0565b60405180910390fd5b6001600454146104c4576040517f08c379a00000000000000000000000000000000000000000000000000000000081526004016104bb9061100c565b60405180910390fd5b7f6d6174000000000000000000000000000000000000000000000000000000000082141561050c57806001600085815260200190815260200160002060010181905550610547565b6040517f08c379a000000000000000000000000000000000000000000000000000000000815260040161053e90611078565b60405180910390fd5b505050565b60016000803373ffffffffffffffffffffffffffffffffffffffff1673ffffffffffffffffffffffffffffffffffffffff16815260200190815260200160002054146105cd576040517f08c379a00000000000000000000000000000000000000000000000000000000081526004016105c490610fa0565b60405180910390fd5b600160045414610612576040517f08c379a00000000000000000000000000000000000000000000000000000000081526004016106099061100c565b60405180910390fd5b7f70617200000000000000000000000000000000000000000000000000000000008214156106465780600381905550610681565b6040517f08c379a000000000000000000000000000000000000000000000000000000000815260040161067890611078565b60405180910390fd5b5050565b600260009054906101000a900473ffffffffffffffffffffffffffffffffffffffff1681565b60035481565b60016000803373ffffffffffffffffffffffffffffffffffffffff1673ffffffffffffffffffffffffffffffffffffffff1681526020019081526020016000205414610732576040517f08c379a000000000000000000000000000000000000000000000000000000000815260040161072990610fa0565b60405180910390fd5b60016000808373ffffffffffffffffffffffffffffffffffffffff1673ffffffffffffffffffffffffffffffffffffffff1681526020019081526020016000208190555050565b60016000803373ffffffffffffffffffffffffffffffffffffffff1673ffffffffffffffffffffffffffffffffffffffff16815260200190815260200160002054146107fa576040517f08c379a00000000000000000000000000000000000000000000000000000000081526004016107f190610fa0565b60405180910390fd5b6000600481905550565b60045481565b60016000803373ffffffffffffffffffffffffffffffffffffffff1673ffffffffffffffffffffffffffffffffffffffff168152602001908152602001600020541461088b576040517f08c379a000000000000000000000000000000000000000000000000000000000815260040161088290610fa0565b60405180910390fd5b60008060008373ffffffffffffffffffffffffffffffffffffffff1673ffffffffffffffffffffffffffffffffffffffff1681526020019081526020016000208190555050565b60006020528060005260406000206000915090505481565b60016020528060005260406000206000915090508060000160009054906101000a900473ffffffffffffffffffffffffffffffffffffffff16908060010154905082565b60016000803373ffffffffffffffffffffffffffffffffffffffff1673ffffffffffffffffffffffffffffffffffffffff16815260200190815260200160002054146109af576040517f08c379a00000000000000000000000000000000000000000000000000000000081526004016109a690610fa0565b60405180910390fd5b6001600454146109f4576040517f08c379a00000000000000000000000000000000000000000000000000000000081526004016109eb9061100c565b60405180910390fd5b7f7069700000000000000000000000000000000000000000000000000000000000821415610a7657806001600085815260200190815260200160002060000160006101000a81548173ffffffffffffffffffffffffffffffffffffffff021916908373ffffffffffffffffffffffffffffffffffffffff160217905550610ab1565b6040517f08c379a0000000000000000000000000000000000000000000000000000000008152600401610aa890611078565b60405180910390fd5b505050565b600080821480610ade575082828385610acf91906110c7565b925082610adc9190611150565b145b610ae757600080fd5b92915050565b600081610b06846b033b2e3c9fd0803ce8000000610ab6565b610b109190611150565b905092915050565b600080fd5b6000819050919050565b610b3081610b1d565b8114610b3b57600080fd5b50565b600081359050610b4d81610b27565b92915050565b600060208284031215610b6957610b68610b18565b5b6000610b7784828501610b3e565b91505092915050565b6000819050919050565b610b9381610b80565b8114610b9e57600080fd5b50565b600081359050610bb081610b8a565b92915050565b600080600060608486031215610bcf57610bce610b18565b5b6000610bdd86828701610b3e565b9350506020610bee86828701610b3e565b9250506040610bff86828701610ba1565b9150509250925092565b60008060408385031215610c2057610c1f610b18565b5b6000610c2e85828601610b3e565b9250506020610c3f85828601610ba1565b9150509250929050565b600073ffffffffffffffffffffffffffffffffffffffff82169050919050565b6000819050919050565b6000610c8e610c89610c8484610c49565b610c69565b610c49565b9050919050565b6000610ca082610c73565b9050919050565b6000610cb282610c95565b9050919050565b610cc281610ca7565b82525050565b6000602082019050610cdd6000830184610cb9565b92915050565b610cec81610b80565b82525050565b6000602082019050610d076000830184610ce3565b92915050565b6000610d1882610c49565b9050919050565b610d2881610d0d565b8114610d3357600080fd5b50565b600081359050610d4581610d1f565b92915050565b600060208284031215610d6157610d60610b18565b5b6000610d6f84828501610d36565b91505092915050565b6000610d8382610c95565b9050919050565b610d9381610d78565b82525050565b6000604082019050610dae6000830185610d8a565b610dbb6020830184610ce3565b9392505050565b600080600060608486031215610ddb57610dda610b18565b5b6000610de986828701610b3e565b9350506020610dfa86828701610b3e565b9250506040610e0b86828701610d36565b9150509250925092565b600081519050610e2481610b27565b92915050565b60008115159050919050565b610e3f81610e2a565b8114610e4a57600080fd5b50565b600081519050610e5c81610e36565b92915050565b60008060408385031215610e7957610e78610b18565b5b6000610e8785828601610e15565b9250506020610e9885828601610e4d565b9150509250929050565b610eab81610b1d565b82525050565b7f73706f7400000000000000000000000000000000000000000000000000000000815250565b6000606082019050610eec6000830185610ea2565b610ef860208301610eb1565b610f056040830184610ce3565b9392505050565b6000606082019050610f216000830186610ea2565b610f2e6020830185610ea2565b610f3b6040830184610ce3565b949350505050565b600082825260208201905092915050565b7f53706f747465722f6e6f742d617574686f72697a656400000000000000000000600082015250565b6000610f8a601683610f43565b9150610f9582610f54565b602082019050919050565b60006020820190508181036000830152610fb981610f7d565b9050919050565b7f53706f747465722f6e6f742d6c69766500000000000000000000000000000000600082015250565b6000610ff6601083610f43565b915061100182610fc0565b602082019050919050565b6000602082019050818103600083015261102581610fe9565b9050919050565b7f53706f747465722f66696c652d756e7265636f676e697a65642d706172616d00600082015250565b6000611062601f83610f43565b915061106d8261102c565b602082019050919050565b6000602082019050818103600083015261109181611055565b9050919050565b7f4e487b7100000000000000000000000000000000000000000000000000000000600052601160045260246000fd5b60006110d282610b80565b91506110dd83610b80565b9250817fffffffffffffffffffffffffffffffffffffffffffffffffffffffffffffffff048311821515161561111657611115611098565b5b828202905092915050565b7f4e487b7100000000000000000000000000000000000000000000000000000000600052601260045260246000fd5b600061115b82610b80565b915061116683610b80565b92508261117657611175611121565b5b82820490509291505056fea2646970667358221220d96af66799c061c08497c1d6122a231f941e8681aabe059207de8495d2073f0764736f6c63430008090033",
  "linkReferences": {},
  "deployedLinkReferences": {}
}