{
  "_format": "hh-sol-artifact-1",
  "contractName": "Ticket",
  "sourceName": "contracts/marketplace/ticket.sol",
  "abi": [
    {
      "inputs": [
        {
          "internalType": "uint256",
          "name": "_tokenId",
          "type": "uint256"
        },
        {
          "internalType": "uint256",
          "name": "_price",
          "type": "uint256"
        },
        {
          "internalType": "uint256",
          "name": "_initialStock",
          "type": "uint256"
        },
        {
          "internalType": "address",
          "name": "_royaltyReceiver",
          "type": "address"
        },
        {
          "internalType": "uint256",
          "name": "_royaltyPercentage",
          "type": "uint256"
        },
        {
          "internalType": "address[]",
          "name": "_payees",
          "type": "address[]"
        },
        {
          "internalType": "uint256[]",
          "name": "_shares",
          "type": "uint256[]"
        },
        {
          "internalType": "string",
          "name": "_uri",
          "type": "string"
        }
      ],
      "stateMutability": "nonpayable",
      "type": "constructor"
    },
    {
      "anonymous": false,
      "inputs": [
        {
          "indexed": true,
          "internalType": "address",
          "name": "account",
          "type": "address"
        },
        {
          "indexed": true,
          "internalType": "address",
          "name": "operator",
          "type": "address"
        },
        {
          "indexed": false,
          "internalType": "bool",
          "name": "approved",
          "type": "bool"
        }
      ],
      "name": "ApprovalForAll",
      "type": "event"
    },
    {
      "anonymous": false,
      "inputs": [
        {
          "indexed": true,
          "internalType": "contract IERC20",
          "name": "token",
          "type": "address"
        },
        {
          "indexed": false,
          "internalType": "address",
          "name": "to",
          "type": "address"
        },
        {
          "indexed": false,
          "internalType": "uint256",
          "name": "amount",
          "type": "uint256"
        }
      ],
      "name": "ERC20PaymentReleased",
      "type": "event"
    },
    {
      "anonymous": false,
      "inputs": [
        {
          "indexed": true,
          "internalType": "uint256",
          "name": "id",
          "type": "uint256"
        },
        {
          "indexed": false,
          "internalType": "uint256",
          "name": "qty",
          "type": "uint256"
        }
      ],
      "name": "Mint",
      "type": "event"
    },
    {
      "anonymous": false,
      "inputs": [
        {
          "indexed": false,
          "internalType": "address",
          "name": "account",
          "type": "address"
        },
        {
          "indexed": false,
          "internalType": "uint256",
          "name": "shares",
          "type": "uint256"
        }
      ],
      "name": "PayeeAdded",
      "type": "event"
    },
    {
      "anonymous": false,
      "inputs": [
        {
          "indexed": false,
          "internalType": "address",
          "name": "from",
          "type": "address"
        },
        {
          "indexed": false,
          "internalType": "uint256",
          "name": "amount",
          "type": "uint256"
        }
      ],
      "name": "PaymentReceived",
      "type": "event"
    },
    {
      "anonymous": false,
      "inputs": [
        {
          "indexed": false,
          "internalType": "address",
          "name": "to",
          "type": "address"
        },
        {
          "indexed": false,
          "internalType": "uint256",
          "name": "amount",
          "type": "uint256"
        }
      ],
      "name": "PaymentReleased",
      "type": "event"
    },
    {
      "anonymous": false,
      "inputs": [
        {
          "indexed": true,
          "internalType": "bytes32",
          "name": "role",
          "type": "bytes32"
        },
        {
          "indexed": true,
          "internalType": "bytes32",
          "name": "previousAdminRole",
          "type": "bytes32"
        },
        {
          "indexed": true,
          "internalType": "bytes32",
          "name": "newAdminRole",
          "type": "bytes32"
        }
      ],
      "name": "RoleAdminChanged",
      "type": "event"
    },
    {
      "anonymous": false,
      "inputs": [
        {
          "indexed": true,
          "internalType": "bytes32",
          "name": "role",
          "type": "bytes32"
        },
        {
          "indexed": true,
          "internalType": "address",
          "name": "account",
          "type": "address"
        },
        {
          "indexed": true,
          "internalType": "address",
          "name": "sender",
          "type": "address"
        }
      ],
      "name": "RoleGranted",
      "type": "event"
    },
    {
      "anonymous": false,
      "inputs": [
        {
          "indexed": true,
          "internalType": "bytes32",
          "name": "role",
          "type": "bytes32"
        },
        {
          "indexed": true,
          "internalType": "address",
          "name": "account",
          "type": "address"
        },
        {
          "indexed": true,
          "internalType": "address",
          "name": "sender",
          "type": "address"
        }
      ],
      "name": "RoleRevoked",
      "type": "event"
    },
    {
      "anonymous": false,
      "inputs": [
        {
          "indexed": false,
          "internalType": "string",
          "name": "newuri",
          "type": "string"
        }
      ],
      "name": "SetUri",
      "type": "event"
    },
    {
      "anonymous": false,
      "inputs": [],
      "name": "Start",
      "type": "event"
    },
    {
      "anonymous": false,
      "inputs": [
        {
          "indexed": true,
          "internalType": "uint256",
          "name": "tokenId",
          "type": "uint256"
        },
        {
          "indexed": false,
          "internalType": "uint256",
          "name": "stock",
          "type": "uint256"
        }
      ],
      "name": "StockUpdated",
      "type": "event"
    },
    {
      "anonymous": false,
      "inputs": [],
      "name": "Stop",
      "type": "event"
    },
    {
      "anonymous": false,
      "inputs": [
        {
          "indexed": true,
          "internalType": "address",
          "name": "operator",
          "type": "address"
        },
        {
          "indexed": true,
          "internalType": "address",
          "name": "from",
          "type": "address"
        },
        {
          "indexed": true,
          "internalType": "address",
          "name": "to",
          "type": "address"
        },
        {
          "indexed": false,
          "internalType": "uint256[]",
          "name": "ids",
          "type": "uint256[]"
        },
        {
          "indexed": false,
          "internalType": "uint256[]",
          "name": "values",
          "type": "uint256[]"
        }
      ],
      "name": "TransferBatch",
      "type": "event"
    },
    {
      "anonymous": false,
      "inputs": [
        {
          "indexed": true,
          "internalType": "address",
          "name": "operator",
          "type": "address"
        },
        {
          "indexed": true,
          "internalType": "address",
          "name": "from",
          "type": "address"
        },
        {
          "indexed": true,
          "internalType": "address",
          "name": "to",
          "type": "address"
        },
        {
          "indexed": false,
          "internalType": "uint256",
          "name": "id",
          "type": "uint256"
        },
        {
          "indexed": false,
          "internalType": "uint256",
          "name": "value",
          "type": "uint256"
        }
      ],
      "name": "TransferSingle",
      "type": "event"
    },
    {
      "anonymous": false,
      "inputs": [
        {
          "indexed": false,
          "internalType": "string",
          "name": "value",
          "type": "string"
        },
        {
          "indexed": true,
          "internalType": "uint256",
          "name": "id",
          "type": "uint256"
        }
      ],
      "name": "URI",
      "type": "event"
    },
    {
      "inputs": [],
      "name": "BOOTH_ROLE",
      "outputs": [
        {
          "internalType": "bytes32",
          "name": "",
          "type": "bytes32"
        }
      ],
      "stateMutability": "view",
      "type": "function"
    },
    {
      "inputs": [],
      "name": "DEFAULT_ADMIN_ROLE",
      "outputs": [
        {
          "internalType": "bytes32",
          "name": "",
          "type": "bytes32"
        }
      ],
      "stateMutability": "view",
      "type": "function"
    },
    {
      "inputs": [
        {
          "internalType": "address",
          "name": "account",
          "type": "address"
        },
        {
          "internalType": "uint256",
          "name": "id",
          "type": "uint256"
        }
      ],
      "name": "balanceOf",
      "outputs": [
        {
          "internalType": "uint256",
          "name": "",
          "type": "uint256"
        }
      ],
      "stateMutability": "view",
      "type": "function"
    },
    {
      "inputs": [
        {
          "internalType": "address[]",
          "name": "accounts",
          "type": "address[]"
        },
        {
          "internalType": "uint256[]",
          "name": "ids",
          "type": "uint256[]"
        }
      ],
      "name": "balanceOfBatch",
      "outputs": [
        {
          "internalType": "uint256[]",
          "name": "",
          "type": "uint256[]"
        }
      ],
      "stateMutability": "view",
      "type": "function"
    },
    {
      "inputs": [
        {
          "internalType": "uint256",
          "name": "id",
          "type": "uint256"
        }
      ],
      "name": "exists",
      "outputs": [
        {
          "internalType": "bool",
          "name": "",
          "type": "bool"
        }
      ],
      "stateMutability": "view",
      "type": "function"
    },
    {
      "inputs": [
        {
          "internalType": "uint256",
          "name": "ticketId",
          "type": "uint256"
        },
        {
          "internalType": "address",
          "name": "usr",
          "type": "address"
        }
      ],
      "name": "getNftId",
      "outputs": [
        {
          "internalType": "uint256",
          "name": "",
          "type": "uint256"
        }
      ],
      "stateMutability": "view",
      "type": "function"
    },
    {
      "inputs": [
        {
          "internalType": "bytes32",
          "name": "role",
          "type": "bytes32"
        }
      ],
      "name": "getRoleAdmin",
      "outputs": [
        {
          "internalType": "bytes32",
          "name": "",
          "type": "bytes32"
        }
      ],
      "stateMutability": "view",
      "type": "function"
    },
    {
      "inputs": [
        {
          "internalType": "uint256",
          "name": "_tokenId",
          "type": "uint256"
        }
      ],
      "name": "getStock",
      "outputs": [
        {
          "internalType": "int256",
          "name": "",
          "type": "int256"
        }
      ],
      "stateMutability": "view",
      "type": "function"
    },
    {
      "inputs": [
        {
          "internalType": "bytes32",
          "name": "role",
          "type": "bytes32"
        },
        {
          "internalType": "address",
          "name": "account",
          "type": "address"
        }
      ],
      "name": "grantRole",
      "outputs": [],
      "stateMutability": "nonpayable",
      "type": "function"
    },
    {
      "inputs": [
        {
          "internalType": "uint256",
          "name": "ticketId",
          "type": "uint256"
        },
        {
          "internalType": "address",
          "name": "usr",
          "type": "address"
        }
      ],
      "name": "hasAccess",
      "outputs": [
        {
          "internalType": "bool",
          "name": "",
          "type": "bool"
        }
      ],
      "stateMutability": "view",
      "type": "function"
    },
    {
      "inputs": [
        {
          "internalType": "bytes32",
          "name": "role",
          "type": "bytes32"
        },
        {
          "internalType": "address",
          "name": "account",
          "type": "address"
        }
      ],
      "name": "hasRole",
      "outputs": [
        {
          "internalType": "bool",
          "name": "",
          "type": "bool"
        }
      ],
      "stateMutability": "view",
      "type": "function"
    },
    {
      "inputs": [
        {
          "internalType": "address",
          "name": "account",
          "type": "address"
        },
        {
          "internalType": "address",
          "name": "operator",
          "type": "address"
        }
      ],
      "name": "isApprovedForAll",
      "outputs": [
        {
          "internalType": "bool",
          "name": "",
          "type": "bool"
        }
      ],
      "stateMutability": "view",
      "type": "function"
    },
    {
      "inputs": [
        {
          "internalType": "uint256",
          "name": "_tokenId",
          "type": "uint256"
        },
        {
          "internalType": "uint256",
          "name": "_nftId",
          "type": "uint256"
        },
        {
          "internalType": "uint256",
          "name": "_qty",
          "type": "uint256"
        },
        {
          "internalType": "address",
          "name": "_guy",
          "type": "address"
        }
      ],
      "name": "mint",
      "outputs": [],
      "stateMutability": "payable",
      "type": "function"
    },
    {
      "inputs": [
        {
          "internalType": "address",
          "name": "to",
          "type": "address"
        },
        {
          "internalType": "uint256[]",
          "name": "ids",
          "type": "uint256[]"
        },
        {
          "internalType": "uint256[]",
          "name": "amounts",
          "type": "uint256[]"
        },
        {
          "internalType": "bytes",
          "name": "data",
          "type": "bytes"
        }
      ],
      "name": "mintBatch",
      "outputs": [],
      "stateMutability": "nonpayable",
      "type": "function"
    },
    {
      "inputs": [
        {
          "internalType": "uint256",
          "name": "index",
          "type": "uint256"
        }
      ],
      "name": "payee",
      "outputs": [
        {
          "internalType": "address",
          "name": "",
          "type": "address"
        }
      ],
      "stateMutability": "view",
      "type": "function"
    },
    {
      "inputs": [],
      "name": "price",
      "outputs": [
        {
          "internalType": "uint256",
          "name": "",
          "type": "uint256"
        }
      ],
      "stateMutability": "view",
      "type": "function"
    },
    {
      "inputs": [
        {
          "internalType": "address",
          "name": "account",
          "type": "address"
        }
      ],
      "name": "releasable",
      "outputs": [
        {
          "internalType": "uint256",
          "name": "",
          "type": "uint256"
        }
      ],
      "stateMutability": "view",
      "type": "function"
    },
    {
      "inputs": [
        {
          "internalType": "contract IERC20",
          "name": "token",
          "type": "address"
        },
        {
          "internalType": "address",
          "name": "account",
          "type": "address"
        }
      ],
      "name": "releasable",
      "outputs": [
        {
          "internalType": "uint256",
          "name": "",
          "type": "uint256"
        }
      ],
      "stateMutability": "view",
      "type": "function"
    },
    {
      "inputs": [
        {
          "internalType": "address payable",
          "name": "account",
          "type": "address"
        }
      ],
      "name": "release",
      "outputs": [],
      "stateMutability": "nonpayable",
      "type": "function"
    },
    {
      "inputs": [
        {
          "internalType": "contract IERC20",
          "name": "token",
          "type": "address"
        },
        {
          "internalType": "address",
          "name": "account",
          "type": "address"
        }
      ],
      "name": "release",
      "outputs": [],
      "stateMutability": "nonpayable",
      "type": "function"
    },
    {
      "inputs": [
        {
          "internalType": "contract IERC20",
          "name": "token",
          "type": "address"
        },
        {
          "internalType": "address",
          "name": "account",
          "type": "address"
        }
      ],
      "name": "released",
      "outputs": [
        {
          "internalType": "uint256",
          "name": "",
          "type": "uint256"
        }
      ],
      "stateMutability": "view",
      "type": "function"
    },
    {
      "inputs": [
        {
          "internalType": "address",
          "name": "account",
          "type": "address"
        }
      ],
      "name": "released",
      "outputs": [
        {
          "internalType": "uint256",
          "name": "",
          "type": "uint256"
        }
      ],
      "stateMutability": "view",
      "type": "function"
    },
    {
      "inputs": [
        {
          "internalType": "bytes32",
          "name": "role",
          "type": "bytes32"
        },
        {
          "internalType": "address",
          "name": "account",
          "type": "address"
        }
      ],
      "name": "renounceRole",
      "outputs": [],
      "stateMutability": "nonpayable",
      "type": "function"
    },
    {
      "inputs": [
        {
          "internalType": "bytes32",
          "name": "role",
          "type": "bytes32"
        },
        {
          "internalType": "address",
          "name": "account",
          "type": "address"
        }
      ],
      "name": "revokeRole",
      "outputs": [],
      "stateMutability": "nonpayable",
      "type": "function"
    },
    {
      "inputs": [
        {
          "internalType": "uint256",
          "name": "_tokenId",
          "type": "uint256"
        },
        {
          "internalType": "uint256",
          "name": "_salePrice",
          "type": "uint256"
        }
      ],
      "name": "royaltyInfo",
      "outputs": [
        {
          "internalType": "address",
          "name": "receiver",
          "type": "address"
        },
        {
          "internalType": "uint256",
          "name": "royaltyAmount",
          "type": "uint256"
        }
      ],
      "stateMutability": "view",
      "type": "function"
    },
    {
      "inputs": [],
      "name": "royaltyPercentage",
      "outputs": [
        {
          "internalType": "uint256",
          "name": "",
          "type": "uint256"
        }
      ],
      "stateMutability": "view",
      "type": "function"
    },
    {
      "inputs": [],
      "name": "royaltyReceiver",
      "outputs": [
        {
          "internalType": "address",
          "name": "",
          "type": "address"
        }
      ],
      "stateMutability": "view",
      "type": "function"
    },
    {
      "inputs": [
        {
          "internalType": "address",
          "name": "from",
          "type": "address"
        },
        {
          "internalType": "address",
          "name": "to",
          "type": "address"
        },
        {
          "internalType": "uint256[]",
          "name": "ids",
          "type": "uint256[]"
        },
        {
          "internalType": "uint256[]",
          "name": "amounts",
          "type": "uint256[]"
        },
        {
          "internalType": "bytes",
          "name": "data",
          "type": "bytes"
        }
      ],
      "name": "safeBatchTransferFrom",
      "outputs": [],
      "stateMutability": "nonpayable",
      "type": "function"
    },
    {
      "inputs": [
        {
          "internalType": "address",
          "name": "from",
          "type": "address"
        },
        {
          "internalType": "address",
          "name": "to",
          "type": "address"
        },
        {
          "internalType": "uint256",
          "name": "id",
          "type": "uint256"
        },
        {
          "internalType": "uint256",
          "name": "amount",
          "type": "uint256"
        },
        {
          "internalType": "bytes",
          "name": "data",
          "type": "bytes"
        }
      ],
      "name": "safeTransferFrom",
      "outputs": [],
      "stateMutability": "nonpayable",
      "type": "function"
    },
    {
      "inputs": [
        {
          "internalType": "address",
          "name": "operator",
          "type": "address"
        },
        {
          "internalType": "bool",
          "name": "approved",
          "type": "bool"
        }
      ],
      "name": "setApprovalForAll",
      "outputs": [],
      "stateMutability": "nonpayable",
      "type": "function"
    },
    {
      "inputs": [
        {
          "internalType": "uint256",
          "name": "_tokenId",
          "type": "uint256"
        },
        {
          "internalType": "uint256",
          "name": "_stock",
          "type": "uint256"
        }
      ],
      "name": "setStock",
      "outputs": [],
      "stateMutability": "nonpayable",
      "type": "function"
    },
    {
      "inputs": [
        {
          "internalType": "string",
          "name": "newuri",
          "type": "string"
        }
      ],
      "name": "setURI",
      "outputs": [],
      "stateMutability": "nonpayable",
      "type": "function"
    },
    {
      "inputs": [
        {
          "internalType": "address",
          "name": "account",
          "type": "address"
        }
      ],
      "name": "shares",
      "outputs": [
        {
          "internalType": "uint256",
          "name": "",
          "type": "uint256"
        }
      ],
      "stateMutability": "view",
      "type": "function"
    },
    {
      "inputs": [
        {
          "internalType": "uint256",
          "name": "",
          "type": "uint256"
        }
      ],
      "name": "stock",
      "outputs": [
        {
          "internalType": "uint256",
          "name": "",
          "type": "uint256"
        }
      ],
      "stateMutability": "view",
      "type": "function"
    },
    {
      "inputs": [
        {
          "internalType": "bytes4",
          "name": "interfaceId",
          "type": "bytes4"
        }
      ],
      "name": "supportsInterface",
      "outputs": [
        {
          "internalType": "bool",
          "name": "",
          "type": "bool"
        }
      ],
      "stateMutability": "view",
      "type": "function"
    },
    {
      "inputs": [],
      "name": "tokenId",
      "outputs": [
        {
          "internalType": "uint256",
          "name": "",
          "type": "uint256"
        }
      ],
      "stateMutability": "view",
      "type": "function"
    },
    {
      "inputs": [
        {
          "internalType": "contract IERC20",
          "name": "token",
          "type": "address"
        }
      ],
      "name": "totalReleased",
      "outputs": [
        {
          "internalType": "uint256",
          "name": "",
          "type": "uint256"
        }
      ],
      "stateMutability": "view",
      "type": "function"
    },
    {
      "inputs": [],
      "name": "totalReleased",
      "outputs": [
        {
          "internalType": "uint256",
          "name": "",
          "type": "uint256"
        }
      ],
      "stateMutability": "view",
      "type": "function"
    },
    {
      "inputs": [],
      "name": "totalShares",
      "outputs": [
        {
          "internalType": "uint256",
          "name": "",
          "type": "uint256"
        }
      ],
      "stateMutability": "view",
      "type": "function"
    },
    {
      "inputs": [
        {
          "internalType": "uint256",
          "name": "id",
          "type": "uint256"
        }
      ],
      "name": "totalSupply",
      "outputs": [
        {
          "internalType": "uint256",
          "name": "",
          "type": "uint256"
        }
      ],
      "stateMutability": "view",
      "type": "function"
    },
    {
      "inputs": [],
      "name": "unlimitedStock",
      "outputs": [
        {
          "internalType": "bool",
          "name": "",
          "type": "bool"
        }
      ],
      "stateMutability": "view",
      "type": "function"
    },
    {
      "inputs": [
        {
          "internalType": "uint256",
          "name": "newPrice",
          "type": "uint256"
        }
      ],
      "name": "updatePrice",
      "outputs": [],
      "stateMutability": "nonpayable",
      "type": "function"
    },
    {
      "inputs": [
        {
          "internalType": "uint256",
          "name": "_id",
          "type": "uint256"
        }
      ],
      "name": "uri",
      "outputs": [
        {
          "internalType": "string",
          "name": "",
          "type": "string"
        }
      ],
      "stateMutability": "view",
      "type": "function"
    },
    {
      "stateMutability": "payable",
      "type": "receive"
    }
  ],
  "bytecode": "0x60806040523480156200001157600080fd5b5060405162006f7b38038062006f7b833981810160405281019062000037919062000a9d565b8282826200004b816200024460201b60201c565b50805182511462000093576040517f08c379a00000000000000000000000000000000000000000000000000000000081526004016200008a9062000c4a565b60405180910390fd5b6000825111620000da576040517f08c379a0000000000000000000000000000000000000000000000000000000008152600401620000d19062000cbc565b60405180910390fd5b60005b825181101562000149576200013383828151811062000101576200010062000cde565b5b60200260200101518383815181106200011f576200011e62000cde565b5b60200260200101516200026060201b60201c565b8080620001409062000d3c565b915050620000dd565b50505087600d8190555086600c8190555060008614600f60006101000a81548160ff021916908315150217905550600f60009054906101000a900460ff16620001a75785600e6000600d548152602001908152602001600020819055505b84601160006101000a81548173ffffffffffffffffffffffffffffffffffffffff021916908373ffffffffffffffffffffffffffffffffffffffff16021790555083601281905550620002046000801b336200049a60201b60201c565b620002367f435269160f073040285d1afaa3d9dbd1dbcaa4ff2aa674d3b9d65359d97fa414336200049a60201b60201c565b50505050505050506200103d565b80600290805190602001906200025c929190620005ff565b5050565b600073ffffffffffffffffffffffffffffffffffffffff168273ffffffffffffffffffffffffffffffffffffffff161415620002d3576040517f08c379a0000000000000000000000000000000000000000000000000000000008152600401620002ca9062000e00565b60405180910390fd5b6000811162000319576040517f08c379a0000000000000000000000000000000000000000000000000000000008152600401620003109062000e72565b60405180910390fd5b6000600760008473ffffffffffffffffffffffffffffffffffffffff1673ffffffffffffffffffffffffffffffffffffffff16815260200190815260200160002054146200039e576040517f08c379a0000000000000000000000000000000000000000000000000000000008152600401620003959062000f0a565b60405180910390fd5b6009829080600181540180825580915050600190039060005260206000200160009091909190916101000a81548173ffffffffffffffffffffffffffffffffffffffff021916908373ffffffffffffffffffffffffffffffffffffffff16021790555080600760008473ffffffffffffffffffffffffffffffffffffffff1673ffffffffffffffffffffffffffffffffffffffff168152602001908152602001600020819055508060055462000455919062000f2c565b6005819055507f40c340f65e17194d14ddddb073d3c9f888e3cb52b5aae0c6c7706b4fbc905fac82826040516200048e92919062000fab565b60405180910390a15050565b620004ac82826200058c60201b60201c565b620005885760016003600084815260200190815260200160002060000160008373ffffffffffffffffffffffffffffffffffffffff1673ffffffffffffffffffffffffffffffffffffffff16815260200190815260200160002060006101000a81548160ff0219169083151502179055506200052d620005f760201b60201c565b73ffffffffffffffffffffffffffffffffffffffff168173ffffffffffffffffffffffffffffffffffffffff16837f2f8788117e7eff1d82e926ec794901d17c78024a50270940304540a733656f0d60405160405180910390a45b5050565b60006003600084815260200190815260200160002060000160008373ffffffffffffffffffffffffffffffffffffffff1673ffffffffffffffffffffffffffffffffffffffff16815260200190815260200160002060009054906101000a900460ff16905092915050565b600033905090565b8280546200060d9062001007565b90600052602060002090601f0160209004810192826200063157600085556200067d565b82601f106200064c57805160ff19168380011785556200067d565b828001600101855582156200067d579182015b828111156200067c5782518255916020019190600101906200065f565b5b5090506200068c919062000690565b5090565b5b80821115620006ab57600081600090555060010162000691565b5090565b6000604051905090565b600080fd5b600080fd5b6000819050919050565b620006d881620006c3565b8114620006e457600080fd5b50565b600081519050620006f881620006cd565b92915050565b600073ffffffffffffffffffffffffffffffffffffffff82169050919050565b60006200072b82620006fe565b9050919050565b6200073d816200071e565b81146200074957600080fd5b50565b6000815190506200075d8162000732565b92915050565b600080fd5b6000601f19601f8301169050919050565b7f4e487b7100000000000000000000000000000000000000000000000000000000600052604160045260246000fd5b620007b38262000768565b810181811067ffffffffffffffff82111715620007d557620007d462000779565b5b80604052505050565b6000620007ea620006af565b9050620007f88282620007a8565b919050565b600067ffffffffffffffff8211156200081b576200081a62000779565b5b602082029050602081019050919050565b600080fd5b6000620008486200084284620007fd565b620007de565b905080838252602082019050602084028301858111156200086e576200086d6200082c565b5b835b818110156200089b57806200088688826200074c565b84526020840193505060208101905062000870565b5050509392505050565b600082601f830112620008bd57620008bc62000763565b5b8151620008cf84826020860162000831565b91505092915050565b600067ffffffffffffffff821115620008f657620008f562000779565b5b602082029050602081019050919050565b60006200091e6200091884620008d8565b620007de565b905080838252602082019050602084028301858111156200094457620009436200082c565b5b835b818110156200097157806200095c8882620006e7565b84526020840193505060208101905062000946565b5050509392505050565b600082601f83011262000993576200099262000763565b5b8151620009a584826020860162000907565b91505092915050565b600080fd5b600067ffffffffffffffff821115620009d157620009d062000779565b5b620009dc8262000768565b9050602081019050919050565b60005b8381101562000a09578082015181840152602081019050620009ec565b8381111562000a19576000848401525b50505050565b600062000a3662000a3084620009b3565b620007de565b90508281526020810184848401111562000a555762000a54620009ae565b5b62000a62848285620009e9565b509392505050565b600082601f83011262000a825762000a8162000763565b5b815162000a9484826020860162000a1f565b91505092915050565b600080600080600080600080610100898b03121562000ac15762000ac0620006b9565b5b600062000ad18b828c01620006e7565b985050602062000ae48b828c01620006e7565b975050604062000af78b828c01620006e7565b965050606062000b0a8b828c016200074c565b955050608062000b1d8b828c01620006e7565b94505060a089015167ffffffffffffffff81111562000b415762000b40620006be565b5b62000b4f8b828c01620008a5565b93505060c089015167ffffffffffffffff81111562000b735762000b72620006be565b5b62000b818b828c016200097b565b92505060e089015167ffffffffffffffff81111562000ba55762000ba4620006be565b5b62000bb38b828c0162000a6a565b9150509295985092959890939650565b600082825260208201905092915050565b7f5061796d656e7453706c69747465723a2070617965657320616e64207368617260008201527f6573206c656e677468206d69736d617463680000000000000000000000000000602082015250565b600062000c3260328362000bc3565b915062000c3f8262000bd4565b604082019050919050565b6000602082019050818103600083015262000c658162000c23565b9050919050565b7f5061796d656e7453706c69747465723a206e6f20706179656573000000000000600082015250565b600062000ca4601a8362000bc3565b915062000cb18262000c6c565b602082019050919050565b6000602082019050818103600083015262000cd78162000c95565b9050919050565b7f4e487b7100000000000000000000000000000000000000000000000000000000600052603260045260246000fd5b7f4e487b7100000000000000000000000000000000000000000000000000000000600052601160045260246000fd5b600062000d4982620006c3565b91507fffffffffffffffffffffffffffffffffffffffffffffffffffffffffffffffff82141562000d7f5762000d7e62000d0d565b5b600182019050919050565b7f5061796d656e7453706c69747465723a206163636f756e74206973207468652060008201527f7a65726f20616464726573730000000000000000000000000000000000000000602082015250565b600062000de8602c8362000bc3565b915062000df58262000d8a565b604082019050919050565b6000602082019050818103600083015262000e1b8162000dd9565b9050919050565b7f5061796d656e7453706c69747465723a20736861726573206172652030000000600082015250565b600062000e5a601d8362000bc3565b915062000e678262000e22565b602082019050919050565b6000602082019050818103600083015262000e8d8162000e4b565b9050919050565b7f5061796d656e7453706c69747465723a206163636f756e7420616c726561647960008201527f2068617320736861726573000000000000000000000000000000000000000000602082015250565b600062000ef2602b8362000bc3565b915062000eff8262000e94565b604082019050919050565b6000602082019050818103600083015262000f258162000ee3565b9050919050565b600062000f3982620006c3565b915062000f4683620006c3565b9250827fffffffffffffffffffffffffffffffffffffffffffffffffffffffffffffffff0382111562000f7e5762000f7d62000d0d565b5b828201905092915050565b62000f94816200071e565b82525050565b62000fa581620006c3565b82525050565b600060408201905062000fc2600083018562000f89565b62000fd1602083018462000f9a565b9392505050565b7f4e487b7100000000000000000000000000000000000000000000000000000000600052602260045260246000fd5b600060028204905060018216806200102057607f821691505b6020821081141562001037576200103662000fd8565b5b50919050565b615f2e806200104d6000396000f3fe60806040526004361061025f5760003560e01c806364c84c1a11610144578063a3f8eace116100b6578063d547741f1161007a578063d547741f14610a18578063d79779b214610a41578063e33b7de314610a7e578063e985e9c514610aa9578063eb65559114610ae6578063f242432a14610b0f576102a6565b8063a3f8eace146108e7578063bd85b03914610924578063c45ac05014610961578063ce7c2ac21461099e578063ced14198146109db576102a6565b806391d148541161010857806391d14854146107c35780639852595c146108005780639fbc87131461083d578063a035b1fe14610868578063a217fddf14610893578063a22cb465146108be576102a6565b806364c84c1a146106ca57806383cf1021146106f55780638a71bb2d146107325780638b83209b1461075d5780638d6cc56d1461079a576102a6565b80632f2ff15d116101dd57806340974911116101a157806340974911146105a357806341745247146105ce57806348b750441461060b5780634e1273f4146106345780634f558e7914610671578063643183bf146106ae576102a6565b80632f2ff15d146104ac57806336568abe146104d55780633a98ef39146104fe5780633ab7d09a14610529578063406072a914610566576102a6565b8063191655871161022457806319165587146103b65780631f7fdffa146103df578063248a9ca3146104085780632a55205a146104455780632eb2c2d614610483576102a6565b8062fdd58e146102ab57806301ffc9a7146102e857806302fe5305146103255780630e89341c1461034e57806317d70f7c1461038b576102a6565b366102a6577f6ef95f06320e7a25a04a175ca677b7052bdd97131872c2192525a629f51be77061028d610b38565b3460405161029c929190613c6b565b60405180910390a1005b600080fd5b3480156102b757600080fd5b506102d260048036038101906102cd9190613d00565b610b40565b6040516102df9190613d40565b60405180910390f35b3480156102f457600080fd5b5061030f600480360381019061030a9190613db3565b610c09565b60405161031c9190613dfb565b60405180910390f35b34801561033157600080fd5b5061034c60048036038101906103479190613f5c565b610c1b565b005b34801561035a57600080fd5b5061037560048036038101906103709190613fa5565b610c6c565b604051610382919061405a565b60405180910390f35b34801561039757600080fd5b506103a0610cef565b6040516103ad9190613d40565b60405180910390f35b3480156103c257600080fd5b506103dd60048036038101906103d891906140ba565b610cf5565b005b3480156103eb57600080fd5b5061040660048036038101906104019190614250565b610e75565b005b34801561041457600080fd5b5061042f600480360381019061042a9190614341565b610e95565b60405161043c919061437d565b60405180910390f35b34801561045157600080fd5b5061046c60048036038101906104679190614398565b610eb5565b60405161047a929190613c6b565b60405180910390f35b34801561048f57600080fd5b506104aa60048036038101906104a591906143d8565b610f01565b005b3480156104b857600080fd5b506104d360048036038101906104ce91906144a7565b610fa2565b005b3480156104e157600080fd5b506104fc60048036038101906104f791906144a7565b610fc3565b005b34801561050a57600080fd5b50610513611046565b6040516105209190613d40565b60405180910390f35b34801561053557600080fd5b50610550600480360381019061054b9190613fa5565b611050565b60405161055d9190614500565b60405180910390f35b34801561057257600080fd5b5061058d60048036038101906105889190614559565b6110be565b60405161059a9190613d40565b60405180910390f35b3480156105af57600080fd5b506105b8611145565b6040516105c5919061437d565b60405180910390f35b3480156105da57600080fd5b506105f560048036038101906105f09190614599565b611169565b6040516106029190613d40565b60405180910390f35b34801561061757600080fd5b50610632600480360381019061062d9190614559565b6111e6565b005b34801561064057600080fd5b5061065b6004803603810190610656919061469c565b6113fa565b60405161066891906147d2565b60405180910390f35b34801561067d57600080fd5b5061069860048036038101906106939190613fa5565b611513565b6040516106a59190613dfb565b60405180910390f35b6106c860048036038101906106c391906147f4565b611527565b005b3480156106d657600080fd5b506106df6116e8565b6040516106ec9190613dfb565b60405180910390f35b34801561070157600080fd5b5061071c60048036038101906107179190613fa5565b6116fb565b6040516107299190613d40565b60405180910390f35b34801561073e57600080fd5b50610747611713565b6040516107549190613d40565b60405180910390f35b34801561076957600080fd5b50610784600480360381019061077f9190613fa5565b611719565b604051610791919061485b565b60405180910390f35b3480156107a657600080fd5b506107c160048036038101906107bc9190613fa5565b611761565b005b3480156107cf57600080fd5b506107ea60048036038101906107e591906144a7565b611779565b6040516107f79190613dfb565b60405180910390f35b34801561080c57600080fd5b5061082760048036038101906108229190614876565b6117e4565b6040516108349190613d40565b60405180910390f35b34801561084957600080fd5b5061085261182d565b60405161085f919061485b565b60405180910390f35b34801561087457600080fd5b5061087d611853565b60405161088a9190613d40565b60405180910390f35b34801561089f57600080fd5b506108a8611859565b6040516108b5919061437d565b60405180910390f35b3480156108ca57600080fd5b506108e560048036038101906108e091906148cf565b611860565b005b3480156108f357600080fd5b5061090e60048036038101906109099190614876565b611876565b60405161091b9190613d40565b60405180910390f35b34801561093057600080fd5b5061094b60048036038101906109469190613fa5565b6118a9565b6040516109589190613d40565b60405180910390f35b34801561096d57600080fd5b5061098860048036038101906109839190614559565b6118c6565b6040516109959190613d40565b60405180910390f35b3480156109aa57600080fd5b506109c560048036038101906109c09190614876565b611984565b6040516109d29190613d40565b60405180910390f35b3480156109e757600080fd5b50610a0260048036038101906109fd9190614599565b6119cd565b604051610a0f9190613dfb565b60405180910390f35b348015610a2457600080fd5b50610a3f6004803603810190610a3a91906144a7565b611a39565b005b348015610a4d57600080fd5b50610a686004803603810190610a63919061490f565b611a5a565b604051610a759190613d40565b60405180910390f35b348015610a8a57600080fd5b50610a93611aa3565b604051610aa09190613d40565b60405180910390f35b348015610ab557600080fd5b50610ad06004803603810190610acb919061493c565b611aad565b604051610add9190613dfb565b60405180910390f35b348015610af257600080fd5b50610b0d6004803603810190610b089190614398565b611b41565b005b348015610b1b57600080fd5b50610b366004803603810190610b31919061497c565b611ba3565b005b600033905090565b60008073ffffffffffffffffffffffffffffffffffffffff168373ffffffffffffffffffffffffffffffffffffffff161415610bb1576040517f08c379a0000000000000000000000000000000000000000000000000000000008152600401610ba890614a85565b60405180910390fd5b60008083815260200190815260200160002060008473ffffffffffffffffffffffffffffffffffffffff1673ffffffffffffffffffffffffffffffffffffffff16815260200190815260200160002054905092915050565b6000610c1482611c44565b9050919050565b6000801b610c2881611cbe565b610c3182611cd2565b7fd70c1392a974224e639e7a9607dcb2c766826aecfe2dc356f442ce0488b01e1f82604051610c60919061405a565b60405180910390a15050565b6060610c7782611513565b610cb6576040517f08c379a0000000000000000000000000000000000000000000000000000000008152600401610cad90614af1565b60405180910390fd5b610cbf82611cec565b610cc883611d80565b604051602001610cd9929190614b99565b6040516020818303038152906040529050919050565b600d5481565b6000600760008373ffffffffffffffffffffffffffffffffffffffff1673ffffffffffffffffffffffffffffffffffffffff1681526020019081526020016000205411610d77576040517f08c379a0000000000000000000000000000000000000000000000000000000008152600401610d6e90614c3a565b60405180910390fd5b6000610d8282611876565b90506000811415610dc8576040517f08c379a0000000000000000000000000000000000000000000000000000000008152600401610dbf90614ccc565b60405180910390fd5b8060066000828254610dda9190614d1b565b9250508190555080600860008473ffffffffffffffffffffffffffffffffffffffff1673ffffffffffffffffffffffffffffffffffffffff16815260200190815260200160002060008282540192505081905550610e388282611e58565b7fdf20fd1e76bc69d672e4814fafb2c449bba3a5369d8359adf9e05e6fde87b0568282604051610e69929190614dd0565b60405180910390a15050565b6000801b610e8281611cbe565b610e8e85858585611f4c565b5050505050565b600060036000838152602001908152602001600020600101549050919050565b600080601160009054906101000a900473ffffffffffffffffffffffffffffffffffffffff16915061271060125484610eee9190614df9565b610ef89190614e82565b90509250929050565b610f09610b38565b73ffffffffffffffffffffffffffffffffffffffff168573ffffffffffffffffffffffffffffffffffffffff161480610f4f5750610f4e85610f49610b38565b611aad565b5b610f8e576040517f08c379a0000000000000000000000000000000000000000000000000000000008152600401610f8590614f25565b60405180910390fd5b610f9b8585858585612179565b5050505050565b610fab82610e95565b610fb481611cbe565b610fbe838361249b565b505050565b610fcb610b38565b73ffffffffffffffffffffffffffffffffffffffff168173ffffffffffffffffffffffffffffffffffffffff1614611038576040517f08c379a000000000000000000000000000000000000000000000000000000000815260040161102f90614fb7565b60405180910390fd5b611042828261257c565b5050565b6000600554905090565b6000600f60009054906101000a900460ff161561108f577fffffffffffffffffffffffffffffffffffffffffffffffffffffffffffffffff90506110b9565b611098826118a9565b600e6000848152602001908152602001600020546110b69190614fd7565b90505b919050565b6000600b60008473ffffffffffffffffffffffffffffffffffffffff1673ffffffffffffffffffffffffffffffffffffffff16815260200190815260200160002060008373ffffffffffffffffffffffffffffffffffffffff1673ffffffffffffffffffffffffffffffffffffffff16815260200190815260200160002054905092915050565b7f435269160f073040285d1afaa3d9dbd1dbcaa4ff2aa674d3b9d65359d97fa41481565b6000806010600085815260200190815260200160002060008473ffffffffffffffffffffffffffffffffffffffff1673ffffffffffffffffffffffffffffffffffffffff16815260200190815260200160002054905060006111cb8483610b40565b11156111da57809150506111e0565b60009150505b92915050565b6000600760008373ffffffffffffffffffffffffffffffffffffffff1673ffffffffffffffffffffffffffffffffffffffff1681526020019081526020016000205411611268576040517f08c379a000000000000000000000000000000000000000000000000000000000815260040161125f90614c3a565b60405180910390fd5b600061127483836118c6565b905060008114156112ba576040517f08c379a00000000000000000000000000000000000000000000000000000000081526004016112b190614ccc565b60405180910390fd5b80600a60008573ffffffffffffffffffffffffffffffffffffffff1673ffffffffffffffffffffffffffffffffffffffff16815260200190815260200160002060008282546113099190614d1b565b9250508190555080600b60008573ffffffffffffffffffffffffffffffffffffffff1673ffffffffffffffffffffffffffffffffffffffff16815260200190815260200160002060008473ffffffffffffffffffffffffffffffffffffffff1673ffffffffffffffffffffffffffffffffffffffff168152602001908152602001600020600082825401925050819055506113a583838361265e565b8273ffffffffffffffffffffffffffffffffffffffff167f3be5b7a71e84ed12875d241991c70855ac5817d847039e17a9d895c1ceb0f18a83836040516113ed929190613c6b565b60405180910390a2505050565b60608151835114611440576040517f08c379a0000000000000000000000000000000000000000000000000000000008152600401611437906150dd565b60405180910390fd5b6000835167ffffffffffffffff81111561145d5761145c613e31565b5b60405190808252806020026020018201604052801561148b5781602001602082028036833780820191505090505b50905060005b8451811015611508576114d88582815181106114b0576114af6150fd565b5b60200260200101518583815181106114cb576114ca6150fd565b5b6020026020010151610b40565b8282815181106114eb576114ea6150fd565b5b602002602001018181525050806115019061512c565b9050611491565b508091505092915050565b60008061151f836118a9565b119050919050565b6115517f435269160f073040285d1afaa3d9dbd1dbcaa4ff2aa674d3b9d65359d97fa41433611779565b6115a65781600c546115639190614df9565b3410156115a5576040517f08c379a000000000000000000000000000000000000000000000000000000000815260040161159c906151c1565b60405180910390fd5b5b600f60009054906101000a900460ff1661163a576000600e600086815260200190815260200160002054905082811015611615576040517f08c379a000000000000000000000000000000000000000000000000000000000815260040161160c9061522d565b60405180910390fd5b8281611621919061524d565b600e600087815260200190815260200160002081905550505b611655818484604051806020016040528060008152506126e4565b827fcc9c58b575eabd3f6a1ee653e91fcea3ff546867ffc3782a3bbca1f9b6dbb8df836040516116859190613d40565b60405180910390a2826010600086815260200190815260200160002060008373ffffffffffffffffffffffffffffffffffffffff1673ffffffffffffffffffffffffffffffffffffffff1681526020019081526020016000208190555050505050565b600f60009054906101000a900460ff1681565b600e6020528060005260406000206000915090505481565b60125481565b60006009828154811061172f5761172e6150fd565b5b9060005260206000200160009054906101000a900473ffffffffffffffffffffffffffffffffffffffff169050919050565b6000801b61176e81611cbe565b81600c819055505050565b60006003600084815260200190815260200160002060000160008373ffffffffffffffffffffffffffffffffffffffff1673ffffffffffffffffffffffffffffffffffffffff16815260200190815260200160002060009054906101000a900460ff16905092915050565b6000600860008373ffffffffffffffffffffffffffffffffffffffff1673ffffffffffffffffffffffffffffffffffffffff168152602001908152602001600020549050919050565b601160009054906101000a900473ffffffffffffffffffffffffffffffffffffffff1681565b600c5481565b6000801b81565b61187261186b610b38565b8383612895565b5050565b600080611881611aa3565b4761188c9190614d1b565b90506118a1838261189c866117e4565b612a02565b915050919050565b600060046000838152602001908152602001600020549050919050565b6000806118d284611a5a565b8473ffffffffffffffffffffffffffffffffffffffff166370a08231306040518263ffffffff1660e01b815260040161190b919061485b565b60206040518083038186803b15801561192357600080fd5b505afa158015611937573d6000803e3d6000fd5b505050506040513d601f19601f8201168201806040525081019061195b9190615296565b6119659190614d1b565b905061197b838261197687876110be565b612a02565b91505092915050565b6000600760008373ffffffffffffffffffffffffffffffffffffffff1673ffffffffffffffffffffffffffffffffffffffff168152602001908152602001600020549050919050565b6000806010600085815260200190815260200160002060008473ffffffffffffffffffffffffffffffffffffffff1673ffffffffffffffffffffffffffffffffffffffff1681526020019081526020016000205490506000611a2f8483610b40565b1191505092915050565b611a4282610e95565b611a4b81611cbe565b611a55838361257c565b505050565b6000600a60008373ffffffffffffffffffffffffffffffffffffffff1673ffffffffffffffffffffffffffffffffffffffff168152602001908152602001600020549050919050565b6000600654905090565b6000600160008473ffffffffffffffffffffffffffffffffffffffff1673ffffffffffffffffffffffffffffffffffffffff16815260200190815260200160002060008373ffffffffffffffffffffffffffffffffffffffff1673ffffffffffffffffffffffffffffffffffffffff16815260200190815260200160002060009054906101000a900460ff16905092915050565b6000801b611b4e81611cbe565b81600e600085815260200190815260200160002081905550827febcfd4ce21b6aefd071d3e0f4bfa57e491b5308a1ffb5a3a8e4805e23f00b8d783604051611b969190613d40565b60405180910390a2505050565b611bab610b38565b73ffffffffffffffffffffffffffffffffffffffff168573ffffffffffffffffffffffffffffffffffffffff161480611bf15750611bf085611beb610b38565b611aad565b5b611c30576040517f08c379a0000000000000000000000000000000000000000000000000000000008152600401611c2790614f25565b60405180910390fd5b611c3d8585858585612a70565b5050505050565b60007f7965db0b000000000000000000000000000000000000000000000000000000007bffffffffffffffffffffffffffffffffffffffffffffffffffffffff1916827bffffffffffffffffffffffffffffffffffffffffffffffffffffffff19161480611cb75750611cb682612d0c565b5b9050919050565b611ccf81611cca610b38565b612dee565b50565b8060029080519060200190611ce8929190613b6e565b5050565b606060028054611cfb906152f2565b80601f0160208091040260200160405190810160405280929190818152602001828054611d27906152f2565b8015611d745780601f10611d4957610100808354040283529160200191611d74565b820191906000526020600020905b815481529060010190602001808311611d5757829003601f168201915b50505050509050919050565b606060006001611d8f84612e73565b01905060008167ffffffffffffffff811115611dae57611dad613e31565b5b6040519080825280601f01601f191660200182016040528015611de05781602001600182028036833780820191505090505b509050600082602001820190505b600115611e4d578080600190039150507f3031323334353637383961626364656600000000000000000000000000000000600a86061a8153600a8581611e3757611e36614e53565b5b0494506000851415611e4857611e4d565b611dee565b819350505050919050565b80471015611e9b576040517f08c379a0000000000000000000000000000000000000000000000000000000008152600401611e9290615370565b60405180910390fd5b60008273ffffffffffffffffffffffffffffffffffffffff1682604051611ec1906153c1565b60006040518083038185875af1925050503d8060008114611efe576040519150601f19603f3d011682016040523d82523d6000602084013e611f03565b606091505b5050905080611f47576040517f08c379a0000000000000000000000000000000000000000000000000000000008152600401611f3e90615448565b60405180910390fd5b505050565b600073ffffffffffffffffffffffffffffffffffffffff168473ffffffffffffffffffffffffffffffffffffffff161415611fbc576040517f08c379a0000000000000000000000000000000000000000000000000000000008152600401611fb3906154da565b60405180910390fd5b8151835114612000576040517f08c379a0000000000000000000000000000000000000000000000000000000008152600401611ff79061556c565b60405180910390fd5b600061200a610b38565b905061201b81600087878787612fc6565b60005b84518110156120d45783818151811061203a576120396150fd565b5b6020026020010151600080878481518110612058576120576150fd565b5b6020026020010151815260200190815260200160002060008873ffffffffffffffffffffffffffffffffffffffff1673ffffffffffffffffffffffffffffffffffffffff16815260200190815260200160002060008282546120ba9190614d1b565b9250508190555080806120cc9061512c565b91505061201e565b508473ffffffffffffffffffffffffffffffffffffffff16600073ffffffffffffffffffffffffffffffffffffffff168273ffffffffffffffffffffffffffffffffffffffff167f4a39dc06d4c0dbc64b70af90fd698a233a518aa5d07e595d983b8c0526c8f7fb878760405161214c92919061558c565b60405180910390a461216381600087878787612fdc565b61217281600087878787612fe4565b5050505050565b81518351146121bd576040517f08c379a00000000000000000000000000000000000000000000000000000000081526004016121b49061556c565b60405180910390fd5b600073ffffffffffffffffffffffffffffffffffffffff168473ffffffffffffffffffffffffffffffffffffffff16141561222d576040517f08c379a000000000000000000000000000000000000000000000000000000000815260040161222490615635565b60405180910390fd5b6000612237610b38565b9050612247818787878787612fc6565b60005b84518110156123f8576000858281518110612268576122676150fd565b5b602002602001015190506000858381518110612287576122866150fd565b5b60200260200101519050600080600084815260200190815260200160002060008b73ffffffffffffffffffffffffffffffffffffffff1673ffffffffffffffffffffffffffffffffffffffff16815260200190815260200160002054905081811015612328576040517f08c379a000000000000000000000000000000000000000000000000000000000815260040161231f906156c7565b60405180910390fd5b81810360008085815260200190815260200160002060008c73ffffffffffffffffffffffffffffffffffffffff1673ffffffffffffffffffffffffffffffffffffffff168152602001908152602001600020819055508160008085815260200190815260200160002060008b73ffffffffffffffffffffffffffffffffffffffff1673ffffffffffffffffffffffffffffffffffffffff16815260200190815260200160002060008282546123dd9190614d1b565b92505081905550505050806123f19061512c565b905061224a565b508473ffffffffffffffffffffffffffffffffffffffff168673ffffffffffffffffffffffffffffffffffffffff168273ffffffffffffffffffffffffffffffffffffffff167f4a39dc06d4c0dbc64b70af90fd698a233a518aa5d07e595d983b8c0526c8f7fb878760405161246f92919061558c565b60405180910390a4612485818787878787612fdc565b612493818787878787612fe4565b505050505050565b6124a58282611779565b6125785760016003600084815260200190815260200160002060000160008373ffffffffffffffffffffffffffffffffffffffff1673ffffffffffffffffffffffffffffffffffffffff16815260200190815260200160002060006101000a81548160ff02191690831515021790555061251d610b38565b73ffffffffffffffffffffffffffffffffffffffff168173ffffffffffffffffffffffffffffffffffffffff16837f2f8788117e7eff1d82e926ec794901d17c78024a50270940304540a733656f0d60405160405180910390a45b5050565b6125868282611779565b1561265a5760006003600084815260200190815260200160002060000160008373ffffffffffffffffffffffffffffffffffffffff1673ffffffffffffffffffffffffffffffffffffffff16815260200190815260200160002060006101000a81548160ff0219169083151502179055506125ff610b38565b73ffffffffffffffffffffffffffffffffffffffff168173ffffffffffffffffffffffffffffffffffffffff16837ff6391f5c32d9c69d2a47ea670b442974b53935d1edc7fd64eb21e047a839171b60405160405180910390a45b5050565b6126df8363a9059cbb60e01b848460405160240161267d929190613c6b565b604051602081830303815290604052907bffffffffffffffffffffffffffffffffffffffffffffffffffffffff19166020820180517bffffffffffffffffffffffffffffffffffffffffffffffffffffffff83818316178352505050506131cb565b505050565b600073ffffffffffffffffffffffffffffffffffffffff168473ffffffffffffffffffffffffffffffffffffffff161415612754576040517f08c379a000000000000000000000000000000000000000000000000000000000815260040161274b906154da565b60405180910390fd5b600061275e610b38565b9050600061276b85613292565b9050600061277885613292565b905061278983600089858589612fc6565b8460008088815260200190815260200160002060008973ffffffffffffffffffffffffffffffffffffffff1673ffffffffffffffffffffffffffffffffffffffff16815260200190815260200160002060008282546127e89190614d1b565b925050819055508673ffffffffffffffffffffffffffffffffffffffff16600073ffffffffffffffffffffffffffffffffffffffff168473ffffffffffffffffffffffffffffffffffffffff167fc3d58168c5ae7397731d063d5bbf3d657854427343f4c083240f7aacaa2d0f6289896040516128669291906156e7565b60405180910390a461287d83600089858589612fdc565b61288c8360008989898961330c565b50505050505050565b8173ffffffffffffffffffffffffffffffffffffffff168373ffffffffffffffffffffffffffffffffffffffff161415612904576040517f08c379a00000000000000000000000000000000000000000000000000000000081526004016128fb90615782565b60405180910390fd5b80600160008573ffffffffffffffffffffffffffffffffffffffff1673ffffffffffffffffffffffffffffffffffffffff16815260200190815260200160002060008473ffffffffffffffffffffffffffffffffffffffff1673ffffffffffffffffffffffffffffffffffffffff16815260200190815260200160002060006101000a81548160ff0219169083151502179055508173ffffffffffffffffffffffffffffffffffffffff168373ffffffffffffffffffffffffffffffffffffffff167f17307eab39ab6107e8899845ad3d59bd9653f200f220920489ca2b5937696c31836040516129f59190613dfb565b60405180910390a3505050565b600081600554600760008773ffffffffffffffffffffffffffffffffffffffff1673ffffffffffffffffffffffffffffffffffffffff1681526020019081526020016000205485612a539190614df9565b612a5d9190614e82565b612a67919061524d565b90509392505050565b600073ffffffffffffffffffffffffffffffffffffffff168473ffffffffffffffffffffffffffffffffffffffff161415612ae0576040517f08c379a0000000000000000000000000000000000000000000000000000000008152600401612ad790615635565b60405180910390fd5b6000612aea610b38565b90506000612af785613292565b90506000612b0485613292565b9050612b14838989858589612fc6565b600080600088815260200190815260200160002060008a73ffffffffffffffffffffffffffffffffffffffff1673ffffffffffffffffffffffffffffffffffffffff16815260200190815260200160002054905085811015612bab576040517f08c379a0000000000000000000000000000000000000000000000000000000008152600401612ba2906156c7565b60405180910390fd5b85810360008089815260200190815260200160002060008b73ffffffffffffffffffffffffffffffffffffffff1673ffffffffffffffffffffffffffffffffffffffff168152602001908152602001600020819055508560008089815260200190815260200160002060008a73ffffffffffffffffffffffffffffffffffffffff1673ffffffffffffffffffffffffffffffffffffffff1681526020019081526020016000206000828254612c609190614d1b565b925050819055508773ffffffffffffffffffffffffffffffffffffffff168973ffffffffffffffffffffffffffffffffffffffff168573ffffffffffffffffffffffffffffffffffffffff167fc3d58168c5ae7397731d063d5bbf3d657854427343f4c083240f7aacaa2d0f628a8a604051612cdd9291906156e7565b60405180910390a4612cf3848a8a86868a612fdc565b612d01848a8a8a8a8a61330c565b505050505050505050565b60007fd9b67a26000000000000000000000000000000000000000000000000000000007bffffffffffffffffffffffffffffffffffffffffffffffffffffffff1916827bffffffffffffffffffffffffffffffffffffffffffffffffffffffff19161480612dd757507f0e89341c000000000000000000000000000000000000000000000000000000007bffffffffffffffffffffffffffffffffffffffffffffffffffffffff1916827bffffffffffffffffffffffffffffffffffffffffffffffffffffffff1916145b80612de75750612de6826134f3565b5b9050919050565b612df88282611779565b612e6f57612e058161355d565b612e138360001c602061358a565b604051602001612e2492919061583a565b6040516020818303038152906040526040517f08c379a0000000000000000000000000000000000000000000000000000000008152600401612e66919061405a565b60405180910390fd5b5050565b600080600090507a184f03e93ff9f4daa797ed6e38ed64bf6a1f0100000000000000008310612ed1577a184f03e93ff9f4daa797ed6e38ed64bf6a1f0100000000000000008381612ec757612ec6614e53565b5b0492506040810190505b6d04ee2d6d415b85acef81000000008310612f0e576d04ee2d6d415b85acef81000000008381612f0457612f03614e53565b5b0492506020810190505b662386f26fc100008310612f3d57662386f26fc100008381612f3357612f32614e53565b5b0492506010810190505b6305f5e1008310612f66576305f5e1008381612f5c57612f5b614e53565b5b0492506008810190505b6127108310612f8b576127108381612f8157612f80614e53565b5b0492506004810190505b60648310612fae5760648381612fa457612fa3614e53565b5b0492506002810190505b600a8310612fbd576001810190505b80915050919050565b612fd48686868686866137c6565b505050505050565b505050505050565b6130038473ffffffffffffffffffffffffffffffffffffffff16613998565b156131c3578373ffffffffffffffffffffffffffffffffffffffff1663bc197c8187878686866040518663ffffffff1660e01b81526004016130499594939291906158c9565b602060405180830381600087803b15801561306357600080fd5b505af192505050801561309457506040513d601f19601f820116820180604052508101906130919190615946565b60015b61313a576130a0615980565b806308c379a014156130fd57506130b56159a2565b806130c057506130ff565b806040517f08c379a00000000000000000000000000000000000000000000000000000000081526004016130f4919061405a565b60405180910390fd5b505b6040517f08c379a000000000000000000000000000000000000000000000000000000000815260040161313190615aaa565b60405180910390fd5b63bc197c8160e01b7bffffffffffffffffffffffffffffffffffffffffffffffffffffffff1916817bffffffffffffffffffffffffffffffffffffffffffffffffffffffff1916146131c1576040517f08c379a00000000000000000000000000000000000000000000000000000000081526004016131b890615b3c565b60405180910390fd5b505b505050505050565b600061322d826040518060400160405280602081526020017f5361666545524332303a206c6f772d6c6576656c2063616c6c206661696c65648152508573ffffffffffffffffffffffffffffffffffffffff166139bb9092919063ffffffff16565b905060008151111561328d578080602001905181019061324d9190615b71565b61328c576040517f08c379a000000000000000000000000000000000000000000000000000000000815260040161328390615c10565b60405180910390fd5b5b505050565b60606000600167ffffffffffffffff8111156132b1576132b0613e31565b5b6040519080825280602002602001820160405280156132df5781602001602082028036833780820191505090505b50905082816000815181106132f7576132f66150fd565b5b60200260200101818152505080915050919050565b61332b8473ffffffffffffffffffffffffffffffffffffffff16613998565b156134eb578373ffffffffffffffffffffffffffffffffffffffff1663f23a6e6187878686866040518663ffffffff1660e01b8152600401613371959493929190615c30565b602060405180830381600087803b15801561338b57600080fd5b505af19250505080156133bc57506040513d601f19601f820116820180604052508101906133b99190615946565b60015b613462576133c8615980565b806308c379a0141561342557506133dd6159a2565b806133e85750613427565b806040517f08c379a000000000000000000000000000000000000000000000000000000000815260040161341c919061405a565b60405180910390fd5b505b6040517f08c379a000000000000000000000000000000000000000000000000000000000815260040161345990615aaa565b60405180910390fd5b63f23a6e6160e01b7bffffffffffffffffffffffffffffffffffffffffffffffffffffffff1916817bffffffffffffffffffffffffffffffffffffffffffffffffffffffff1916146134e9576040517f08c379a00000000000000000000000000000000000000000000000000000000081526004016134e090615b3c565b60405180910390fd5b505b505050505050565b60007f01ffc9a7000000000000000000000000000000000000000000000000000000007bffffffffffffffffffffffffffffffffffffffffffffffffffffffff1916827bffffffffffffffffffffffffffffffffffffffffffffffffffffffff1916149050919050565b60606135838273ffffffffffffffffffffffffffffffffffffffff16601460ff1661358a565b9050919050565b60606000600283600261359d9190614df9565b6135a79190614d1b565b67ffffffffffffffff8111156135c0576135bf613e31565b5b6040519080825280601f01601f1916602001820160405280156135f25781602001600182028036833780820191505090505b5090507f30000000000000000000000000000000000000000000000000000000000000008160008151811061362a576136296150fd565b5b60200101907effffffffffffffffffffffffffffffffffffffffffffffffffffffffffffff1916908160001a9053507f78000000000000000000000000000000000000000000000000000000000000008160018151811061368e5761368d6150fd565b5b60200101907effffffffffffffffffffffffffffffffffffffffffffffffffffffffffffff1916908160001a905350600060018460026136ce9190614df9565b6136d89190614d1b565b90505b6001811115613778577f3031323334353637383961626364656600000000000000000000000000000000600f86166010811061371a576137196150fd565b5b1a60f81b828281518110613731576137306150fd565b5b60200101907effffffffffffffffffffffffffffffffffffffffffffffffffffffffffffff1916908160001a905350600485901c94508061377190615c8a565b90506136db565b50600084146137bc576040517f08c379a00000000000000000000000000000000000000000000000000000000081526004016137b390615d00565b60405180910390fd5b8091505092915050565b6137d48686868686866139d3565b600073ffffffffffffffffffffffffffffffffffffffff168573ffffffffffffffffffffffffffffffffffffffff1614156138865760005b835181101561388457828181518110613828576138276150fd565b5b602002602001015160046000868481518110613847576138466150fd565b5b60200260200101518152602001908152602001600020600082825461386c9190614d1b565b925050819055508061387d9061512c565b905061380c565b505b600073ffffffffffffffffffffffffffffffffffffffff168473ffffffffffffffffffffffffffffffffffffffff1614156139905760005b835181101561398e5760008482815181106138dc576138db6150fd565b5b6020026020010151905060008483815181106138fb576138fa6150fd565b5b6020026020010151905060006004600084815260200190815260200160002054905081811015613960576040517f08c379a000000000000000000000000000000000000000000000000000000000815260040161395790615d92565b60405180910390fd5b8181036004600085815260200190815260200160002081905550505050806139879061512c565b90506138be565b505b505050505050565b6000808273ffffffffffffffffffffffffffffffffffffffff163b119050919050565b60606139ca84846000856139db565b90509392505050565b505050505050565b606082471015613a20576040517f08c379a0000000000000000000000000000000000000000000000000000000008152600401613a1790615e24565b60405180910390fd5b6000808673ffffffffffffffffffffffffffffffffffffffff168587604051613a499190615e75565b60006040518083038185875af1925050503d8060008114613a86576040519150601f19603f3d011682016040523d82523d6000602084013e613a8b565b606091505b5091509150613a9c87838387613aa8565b92505050949350505050565b60608315613b0b57600083511415613b0357613ac385613998565b613b02576040517f08c379a0000000000000000000000000000000000000000000000000000000008152600401613af990615ed8565b60405180910390fd5b5b829050613b16565b613b158383613b1e565b5b949350505050565b600082511115613b315781518083602001fd5b806040517f08c379a0000000000000000000000000000000000000000000000000000000008152600401613b65919061405a565b60405180910390fd5b828054613b7a906152f2565b90600052602060002090601f016020900481019282613b9c5760008555613be3565b82601f10613bb557805160ff1916838001178555613be3565b82800160010185558215613be3579182015b82811115613be2578251825591602001919060010190613bc7565b5b509050613bf09190613bf4565b5090565b5b80821115613c0d576000816000905550600101613bf5565b5090565b600073ffffffffffffffffffffffffffffffffffffffff82169050919050565b6000613c3c82613c11565b9050919050565b613c4c81613c31565b82525050565b6000819050919050565b613c6581613c52565b82525050565b6000604082019050613c806000830185613c43565b613c8d6020830184613c5c565b9392505050565b6000604051905090565b600080fd5b600080fd5b613cb181613c31565b8114613cbc57600080fd5b50565b600081359050613cce81613ca8565b92915050565b613cdd81613c52565b8114613ce857600080fd5b50565b600081359050613cfa81613cd4565b92915050565b60008060408385031215613d1757613d16613c9e565b5b6000613d2585828601613cbf565b9250506020613d3685828601613ceb565b9150509250929050565b6000602082019050613d556000830184613c5c565b92915050565b60007fffffffff0000000000000000000000000000000000000000000000000000000082169050919050565b613d9081613d5b565b8114613d9b57600080fd5b50565b600081359050613dad81613d87565b92915050565b600060208284031215613dc957613dc8613c9e565b5b6000613dd784828501613d9e565b91505092915050565b60008115159050919050565b613df581613de0565b82525050565b6000602082019050613e106000830184613dec565b92915050565b600080fd5b600080fd5b6000601f19601f8301169050919050565b7f4e487b7100000000000000000000000000000000000000000000000000000000600052604160045260246000fd5b613e6982613e20565b810181811067ffffffffffffffff82111715613e8857613e87613e31565b5b80604052505050565b6000613e9b613c94565b9050613ea78282613e60565b919050565b600067ffffffffffffffff821115613ec757613ec6613e31565b5b613ed082613e20565b9050602081019050919050565b82818337600083830152505050565b6000613eff613efa84613eac565b613e91565b905082815260208101848484011115613f1b57613f1a613e1b565b5b613f26848285613edd565b509392505050565b600082601f830112613f4357613f42613e16565b5b8135613f53848260208601613eec565b91505092915050565b600060208284031215613f7257613f71613c9e565b5b600082013567ffffffffffffffff811115613f9057613f8f613ca3565b5b613f9c84828501613f2e565b91505092915050565b600060208284031215613fbb57613fba613c9e565b5b6000613fc984828501613ceb565b91505092915050565b600081519050919050565b600082825260208201905092915050565b60005b8381101561400c578082015181840152602081019050613ff1565b8381111561401b576000848401525b50505050565b600061402c82613fd2565b6140368185613fdd565b9350614046818560208601613fee565b61404f81613e20565b840191505092915050565b600060208201905081810360008301526140748184614021565b905092915050565b600061408782613c11565b9050919050565b6140978161407c565b81146140a257600080fd5b50565b6000813590506140b48161408e565b92915050565b6000602082840312156140d0576140cf613c9e565b5b60006140de848285016140a5565b91505092915050565b600067ffffffffffffffff82111561410257614101613e31565b5b602082029050602081019050919050565b600080fd5b600061412b614126846140e7565b613e91565b9050808382526020820190506020840283018581111561414e5761414d614113565b5b835b8181101561417757806141638882613ceb565b845260208401935050602081019050614150565b5050509392505050565b600082601f83011261419657614195613e16565b5b81356141a6848260208601614118565b91505092915050565b600067ffffffffffffffff8211156141ca576141c9613e31565b5b6141d382613e20565b9050602081019050919050565b60006141f36141ee846141af565b613e91565b90508281526020810184848401111561420f5761420e613e1b565b5b61421a848285613edd565b509392505050565b600082601f83011261423757614236613e16565b5b81356142478482602086016141e0565b91505092915050565b6000806000806080858703121561426a57614269613c9e565b5b600061427887828801613cbf565b945050602085013567ffffffffffffffff81111561429957614298613ca3565b5b6142a587828801614181565b935050604085013567ffffffffffffffff8111156142c6576142c5613ca3565b5b6142d287828801614181565b925050606085013567ffffffffffffffff8111156142f3576142f2613ca3565b5b6142ff87828801614222565b91505092959194509250565b6000819050919050565b61431e8161430b565b811461432957600080fd5b50565b60008135905061433b81614315565b92915050565b60006020828403121561435757614356613c9e565b5b60006143658482850161432c565b91505092915050565b6143778161430b565b82525050565b6000602082019050614392600083018461436e565b92915050565b600080604083850312156143af576143ae613c9e565b5b60006143bd85828601613ceb565b92505060206143ce85828601613ceb565b9150509250929050565b600080600080600060a086880312156143f4576143f3613c9e565b5b600061440288828901613cbf565b955050602061441388828901613cbf565b945050604086013567ffffffffffffffff81111561443457614433613ca3565b5b61444088828901614181565b935050606086013567ffffffffffffffff81111561446157614460613ca3565b5b61446d88828901614181565b925050608086013567ffffffffffffffff81111561448e5761448d613ca3565b5b61449a88828901614222565b9150509295509295909350565b600080604083850312156144be576144bd613c9e565b5b60006144cc8582860161432c565b92505060206144dd85828601613cbf565b9150509250929050565b6000819050919050565b6144fa816144e7565b82525050565b600060208201905061451560008301846144f1565b92915050565b600061452682613c31565b9050919050565b6145368161451b565b811461454157600080fd5b50565b6000813590506145538161452d565b92915050565b600080604083850312156145705761456f613c9e565b5b600061457e85828601614544565b925050602061458f85828601613cbf565b9150509250929050565b600080604083850312156145b0576145af613c9e565b5b60006145be85828601613ceb565b92505060206145cf85828601613cbf565b9150509250929050565b600067ffffffffffffffff8211156145f4576145f3613e31565b5b602082029050602081019050919050565b6000614618614613846145d9565b613e91565b9050808382526020820190506020840283018581111561463b5761463a614113565b5b835b8181101561466457806146508882613cbf565b84526020840193505060208101905061463d565b5050509392505050565b600082601f83011261468357614682613e16565b5b8135614693848260208601614605565b91505092915050565b600080604083850312156146b3576146b2613c9e565b5b600083013567ffffffffffffffff8111156146d1576146d0613ca3565b5b6146dd8582860161466e565b925050602083013567ffffffffffffffff8111156146fe576146fd613ca3565b5b61470a85828601614181565b9150509250929050565b600081519050919050565b600082825260208201905092915050565b6000819050602082019050919050565b61474981613c52565b82525050565b600061475b8383614740565b60208301905092915050565b6000602082019050919050565b600061477f82614714565b614789818561471f565b935061479483614730565b8060005b838110156147c55781516147ac888261474f565b97506147b783614767565b925050600181019050614798565b5085935050505092915050565b600060208201905081810360008301526147ec8184614774565b905092915050565b6000806000806080858703121561480e5761480d613c9e565b5b600061481c87828801613ceb565b945050602061482d87828801613ceb565b935050604061483e87828801613ceb565b925050606061484f87828801613cbf565b91505092959194509250565b60006020820190506148706000830184613c43565b92915050565b60006020828403121561488c5761488b613c9e565b5b600061489a84828501613cbf565b91505092915050565b6148ac81613de0565b81146148b757600080fd5b50565b6000813590506148c9816148a3565b92915050565b600080604083850312156148e6576148e5613c9e565b5b60006148f485828601613cbf565b9250506020614905858286016148ba565b9150509250929050565b60006020828403121561492557614924613c9e565b5b600061493384828501614544565b91505092915050565b6000806040838503121561495357614952613c9e565b5b600061496185828601613cbf565b925050602061497285828601613cbf565b9150509250929050565b600080600080600060a0868803121561499857614997613c9e565b5b60006149a688828901613cbf565b95505060206149b788828901613cbf565b94505060406149c888828901613ceb565b93505060606149d988828901613ceb565b925050608086013567ffffffffffffffff8111156149fa576149f9613ca3565b5b614a0688828901614222565b9150509295509295909350565b7f455243313135353a2061646472657373207a65726f206973206e6f742061207660008201527f616c6964206f776e657200000000000000000000000000000000000000000000602082015250565b6000614a6f602a83613fdd565b9150614a7a82614a13565b604082019050919050565b60006020820190508181036000830152614a9e81614a62565b9050919050565b7f5552493a20546f6b656e20646f6573206e6f742065786973742e000000000000600082015250565b6000614adb601a83613fdd565b9150614ae682614aa5565b602082019050919050565b60006020820190508181036000830152614b0a81614ace565b9050919050565b600081905092915050565b6000614b2782613fd2565b614b318185614b11565b9350614b41818560208601613fee565b80840191505092915050565b7f2e6a736f6e000000000000000000000000000000000000000000000000000000600082015250565b6000614b83600583614b11565b9150614b8e82614b4d565b600582019050919050565b6000614ba58285614b1c565b9150614bb18284614b1c565b9150614bbc82614b76565b91508190509392505050565b7f5061796d656e7453706c69747465723a206163636f756e7420686173206e6f2060008201527f7368617265730000000000000000000000000000000000000000000000000000602082015250565b6000614c24602683613fdd565b9150614c2f82614bc8565b604082019050919050565b60006020820190508181036000830152614c5381614c17565b9050919050565b7f5061796d656e7453706c69747465723a206163636f756e74206973206e6f742060008201527f647565207061796d656e74000000000000000000000000000000000000000000602082015250565b6000614cb6602b83613fdd565b9150614cc182614c5a565b604082019050919050565b60006020820190508181036000830152614ce581614ca9565b9050919050565b7f4e487b7100000000000000000000000000000000000000000000000000000000600052601160045260246000fd5b6000614d2682613c52565b9150614d3183613c52565b9250827fffffffffffffffffffffffffffffffffffffffffffffffffffffffffffffffff03821115614d6657614d65614cec565b5b828201905092915050565b6000819050919050565b6000614d96614d91614d8c84613c11565b614d71565b613c11565b9050919050565b6000614da882614d7b565b9050919050565b6000614dba82614d9d565b9050919050565b614dca81614daf565b82525050565b6000604082019050614de56000830185614dc1565b614df26020830184613c5c565b9392505050565b6000614e0482613c52565b9150614e0f83613c52565b9250817fffffffffffffffffffffffffffffffffffffffffffffffffffffffffffffffff0483118215151615614e4857614e47614cec565b5b828202905092915050565b7f4e487b7100000000000000000000000000000000000000000000000000000000600052601260045260246000fd5b6000614e8d82613c52565b9150614e9883613c52565b925082614ea857614ea7614e53565b5b828204905092915050565b7f455243313135353a2063616c6c6572206973206e6f7420746f6b656e206f776e60008201527f6572206f7220617070726f766564000000000000000000000000000000000000602082015250565b6000614f0f602e83613fdd565b9150614f1a82614eb3565b604082019050919050565b60006020820190508181036000830152614f3e81614f02565b9050919050565b7f416363657373436f6e74726f6c3a2063616e206f6e6c792072656e6f756e636560008201527f20726f6c657320666f722073656c660000000000000000000000000000000000602082015250565b6000614fa1602f83613fdd565b9150614fac82614f45565b604082019050919050565b60006020820190508181036000830152614fd081614f94565b9050919050565b6000614fe2826144e7565b9150614fed836144e7565b9250827f80000000000000000000000000000000000000000000000000000000000000000182126000841215161561502857615027614cec565b5b827f7fffffffffffffffffffffffffffffffffffffffffffffffffffffffffffffff0182136000841216156150605761505f614cec565b5b828203905092915050565b7f455243313135353a206163636f756e747320616e6420696473206c656e67746860008201527f206d69736d617463680000000000000000000000000000000000000000000000602082015250565b60006150c7602983613fdd565b91506150d28261506b565b604082019050919050565b600060208201905081810360008301526150f6816150ba565b9050919050565b7f4e487b7100000000000000000000000000000000000000000000000000000000600052603260045260246000fd5b600061513782613c52565b91507fffffffffffffffffffffffffffffffffffffffffffffffffffffffffffffffff82141561516a57615169614cec565b5b600182019050919050565b7f4e6f7420456e6f7567682045544820746f20427579204e465400000000000000600082015250565b60006151ab601983613fdd565b91506151b682615175565b602082019050919050565b600060208201905081810360008301526151da8161519e565b9050919050565b7f4e4654204f7574206f662053746f636b00000000000000000000000000000000600082015250565b6000615217601083613fdd565b9150615222826151e1565b602082019050919050565b600060208201905081810360008301526152468161520a565b9050919050565b600061525882613c52565b915061526383613c52565b92508282101561527657615275614cec565b5b828203905092915050565b60008151905061529081613cd4565b92915050565b6000602082840312156152ac576152ab613c9e565b5b60006152ba84828501615281565b91505092915050565b7f4e487b7100000000000000000000000000000000000000000000000000000000600052602260045260246000fd5b6000600282049050600182168061530a57607f821691505b6020821081141561531e5761531d6152c3565b5b50919050565b7f416464726573733a20696e73756666696369656e742062616c616e6365000000600082015250565b600061535a601d83613fdd565b915061536582615324565b602082019050919050565b600060208201905081810360008301526153898161534d565b9050919050565b600081905092915050565b50565b60006153ab600083615390565b91506153b68261539b565b600082019050919050565b60006153cc8261539e565b9150819050919050565b7f416464726573733a20756e61626c6520746f2073656e642076616c75652c207260008201527f6563697069656e74206d61792068617665207265766572746564000000000000602082015250565b6000615432603a83613fdd565b915061543d826153d6565b604082019050919050565b6000602082019050818103600083015261546181615425565b9050919050565b7f455243313135353a206d696e7420746f20746865207a65726f2061646472657360008201527f7300000000000000000000000000000000000000000000000000000000000000602082015250565b60006154c4602183613fdd565b91506154cf82615468565b604082019050919050565b600060208201905081810360008301526154f3816154b7565b9050919050565b7f455243313135353a2069647320616e6420616d6f756e7473206c656e6774682060008201527f6d69736d61746368000000000000000000000000000000000000000000000000602082015250565b6000615556602883613fdd565b9150615561826154fa565b604082019050919050565b6000602082019050818103600083015261558581615549565b9050919050565b600060408201905081810360008301526155a68185614774565b905081810360208301526155ba8184614774565b90509392505050565b7f455243313135353a207472616e7366657220746f20746865207a65726f20616460008201527f6472657373000000000000000000000000000000000000000000000000000000602082015250565b600061561f602583613fdd565b915061562a826155c3565b604082019050919050565b6000602082019050818103600083015261564e81615612565b9050919050565b7f455243313135353a20696e73756666696369656e742062616c616e636520666f60008201527f72207472616e7366657200000000000000000000000000000000000000000000602082015250565b60006156b1602a83613fdd565b91506156bc82615655565b604082019050919050565b600060208201905081810360008301526156e0816156a4565b9050919050565b60006040820190506156fc6000830185613c5c565b6157096020830184613c5c565b9392505050565b7f455243313135353a2073657474696e6720617070726f76616c2073746174757360008201527f20666f722073656c660000000000000000000000000000000000000000000000602082015250565b600061576c602983613fdd565b915061577782615710565b604082019050919050565b6000602082019050818103600083015261579b8161575f565b9050919050565b7f416363657373436f6e74726f6c3a206163636f756e7420000000000000000000600082015250565b60006157d8601783614b11565b91506157e3826157a2565b601782019050919050565b7f206973206d697373696e6720726f6c6520000000000000000000000000000000600082015250565b6000615824601183614b11565b915061582f826157ee565b601182019050919050565b6000615845826157cb565b91506158518285614b1c565b915061585c82615817565b91506158688284614b1c565b91508190509392505050565b600081519050919050565b600082825260208201905092915050565b600061589b82615874565b6158a5818561587f565b93506158b5818560208601613fee565b6158be81613e20565b840191505092915050565b600060a0820190506158de6000830188613c43565b6158eb6020830187613c43565b81810360408301526158fd8186614774565b905081810360608301526159118185614774565b905081810360808301526159258184615890565b90509695505050505050565b60008151905061594081613d87565b92915050565b60006020828403121561595c5761595b613c9e565b5b600061596a84828501615931565b91505092915050565b60008160e01c9050919050565b600060033d111561599f5760046000803e61599c600051615973565b90505b90565b600060443d10156159b257615a35565b6159ba613c94565b60043d036004823e80513d602482011167ffffffffffffffff821117156159e2575050615a35565b808201805167ffffffffffffffff811115615a005750505050615a35565b80602083010160043d038501811115615a1d575050505050615a35565b615a2c82602001850186613e60565b82955050505050505b90565b7f455243313135353a207472616e7366657220746f206e6f6e2d4552433131353560008201527f526563656976657220696d706c656d656e746572000000000000000000000000602082015250565b6000615a94603483613fdd565b9150615a9f82615a38565b604082019050919050565b60006020820190508181036000830152615ac381615a87565b9050919050565b7f455243313135353a204552433131353552656365697665722072656a6563746560008201527f6420746f6b656e73000000000000000000000000000000000000000000000000602082015250565b6000615b26602883613fdd565b9150615b3182615aca565b604082019050919050565b60006020820190508181036000830152615b5581615b19565b9050919050565b600081519050615b6b816148a3565b92915050565b600060208284031215615b8757615b86613c9e565b5b6000615b9584828501615b5c565b91505092915050565b7f5361666545524332303a204552433230206f7065726174696f6e20646964206e60008201527f6f74207375636365656400000000000000000000000000000000000000000000602082015250565b6000615bfa602a83613fdd565b9150615c0582615b9e565b604082019050919050565b60006020820190508181036000830152615c2981615bed565b9050919050565b600060a082019050615c456000830188613c43565b615c526020830187613c43565b615c5f6040830186613c5c565b615c6c6060830185613c5c565b8181036080830152615c7e8184615890565b90509695505050505050565b6000615c9582613c52565b91506000821415615ca957615ca8614cec565b5b600182039050919050565b7f537472696e67733a20686578206c656e67746820696e73756666696369656e74600082015250565b6000615cea602083613fdd565b9150615cf582615cb4565b602082019050919050565b60006020820190508181036000830152615d1981615cdd565b9050919050565b7f455243313135353a206275726e20616d6f756e74206578636565647320746f7460008201527f616c537570706c79000000000000000000000000000000000000000000000000602082015250565b6000615d7c602883613fdd565b9150615d8782615d20565b604082019050919050565b60006020820190508181036000830152615dab81615d6f565b9050919050565b7f416464726573733a20696e73756666696369656e742062616c616e636520666f60008201527f722063616c6c0000000000000000000000000000000000000000000000000000602082015250565b6000615e0e602683613fdd565b9150615e1982615db2565b604082019050919050565b60006020820190508181036000830152615e3d81615e01565b9050919050565b6000615e4f82615874565b615e598185615390565b9350615e69818560208601613fee565b80840191505092915050565b6000615e818284615e44565b915081905092915050565b7f416464726573733a2063616c6c20746f206e6f6e2d636f6e7472616374000000600082015250565b6000615ec2601d83613fdd565b9150615ecd82615e8c565b602082019050919050565b60006020820190508181036000830152615ef181615eb5565b905091905056fea2646970667358221220e6db8fae07160f1582babcdd81e7df2896f4ab1aa331a1141110cdb76df86ce364736f6c63430008090033",
  "linkReferences": {},
  "deployedLinkReferences": {}
}