{
  "_format": "hh-sol-artifact-1",
  "contractName": "Auctions",
  "sourceName": "contracts/marketplace/auctions.sol",
  "abi": [
    {
      "inputs": [
        {
          "internalType": "contract Ticket",
          "name": "_ticketContract",
          "type": "address"
        }
      ],
      "stateMutability": "nonpayable",
      "type": "constructor"
    },
    {
      "anonymous": false,
      "inputs": [
        {
          "indexed": true,
          "internalType": "uint256",
          "name": "auctionId",
          "type": "uint256"
        },
        {
          "indexed": true,
          "internalType": "address",
          "name": "seller",
          "type": "address"
        },
        {
          "indexed": false,
          "internalType": "uint256",
          "name": "ticketId",
          "type": "uint256"
        },
        {
          "indexed": false,
          "internalType": "uint256",
          "name": "nftId",
          "type": "uint256"
        },
        {
          "indexed": false,
          "internalType": "uint256",
          "name": "startingPrice",
          "type": "uint256"
        },
        {
          "indexed": false,
          "internalType": "uint256",
          "name": "endTime",
          "type": "uint256"
        }
      ],
      "name": "AuctionCreated",
      "type": "event"
    },
    {
      "anonymous": false,
      "inputs": [
        {
          "indexed": true,
          "internalType": "uint256",
          "name": "auctionId",
          "type": "uint256"
        },
        {
          "indexed": true,
          "internalType": "address",
          "name": "seller",
          "type": "address"
        },
        {
          "indexed": true,
          "internalType": "address",
          "name": "winner",
          "type": "address"
        },
        {
          "indexed": false,
          "internalType": "uint256",
          "name": "amount",
          "type": "uint256"
        }
      ],
      "name": "AuctionEnded",
      "type": "event"
    },
    {
      "anonymous": false,
      "inputs": [
        {
          "indexed": true,
          "internalType": "uint256",
          "name": "auctionId",
          "type": "uint256"
        },
        {
          "indexed": true,
          "internalType": "address",
          "name": "bidder",
          "type": "address"
        },
        {
          "indexed": false,
          "internalType": "uint256",
          "name": "amount",
          "type": "uint256"
        }
      ],
      "name": "BidPlaced",
      "type": "event"
    },
    {
      "anonymous": false,
      "inputs": [
        {
          "indexed": true,
          "internalType": "uint256",
          "name": "auctionId",
          "type": "uint256"
        },
        {
          "indexed": true,
          "internalType": "address",
          "name": "bidder",
          "type": "address"
        },
        {
          "indexed": false,
          "internalType": "uint256",
          "name": "amount",
          "type": "uint256"
        }
      ],
      "name": "BidRefunded",
      "type": "event"
    },
    {
      "anonymous": false,
      "inputs": [
        {
          "indexed": true,
          "internalType": "bytes32",
          "name": "role",
          "type": "bytes32"
        },
        {
          "indexed": true,
          "internalType": "bytes32",
          "name": "previousAdminRole",
          "type": "bytes32"
        },
        {
          "indexed": true,
          "internalType": "bytes32",
          "name": "newAdminRole",
          "type": "bytes32"
        }
      ],
      "name": "RoleAdminChanged",
      "type": "event"
    },
    {
      "anonymous": false,
      "inputs": [
        {
          "indexed": true,
          "internalType": "bytes32",
          "name": "role",
          "type": "bytes32"
        },
        {
          "indexed": true,
          "internalType": "address",
          "name": "account",
          "type": "address"
        },
        {
          "indexed": true,
          "internalType": "address",
          "name": "sender",
          "type": "address"
        }
      ],
      "name": "RoleGranted",
      "type": "event"
    },
    {
      "anonymous": false,
      "inputs": [
        {
          "indexed": true,
          "internalType": "bytes32",
          "name": "role",
          "type": "bytes32"
        },
        {
          "indexed": true,
          "internalType": "address",
          "name": "account",
          "type": "address"
        },
        {
          "indexed": true,
          "internalType": "address",
          "name": "sender",
          "type": "address"
        }
      ],
      "name": "RoleRevoked",
      "type": "event"
    },
    {
      "inputs": [],
      "name": "AUCTION_ROLE",
      "outputs": [
        {
          "internalType": "bytes32",
          "name": "",
          "type": "bytes32"
        }
      ],
      "stateMutability": "view",
      "type": "function"
    },
    {
      "inputs": [],
      "name": "DEFAULT_ADMIN_ROLE",
      "outputs": [
        {
          "internalType": "bytes32",
          "name": "",
          "type": "bytes32"
        }
      ],
      "stateMutability": "view",
      "type": "function"
    },
    {
      "inputs": [
        {
          "internalType": "uint256",
          "name": "",
          "type": "uint256"
        }
      ],
      "name": "auctions",
      "outputs": [
        {
          "internalType": "address",
          "name": "seller",
          "type": "address"
        },
        {
          "internalType": "uint256",
          "name": "ticketId",
          "type": "uint256"
        },
        {
          "internalType": "uint256",
          "name": "nftId",
          "type": "uint256"
        },
        {
          "internalType": "uint256",
          "name": "startingPrice",
          "type": "uint256"
        },
        {
          "internalType": "uint256",
          "name": "endTime",
          "type": "uint256"
        },
        {
          "internalType": "uint256",
          "name": "highestBid",
          "type": "uint256"
        },
        {
          "internalType": "address",
          "name": "highestBidder",
          "type": "address"
        },
        {
          "internalType": "bool",
          "name": "ended",
          "type": "bool"
        }
      ],
      "stateMutability": "view",
      "type": "function"
    },
    {
      "inputs": [
        {
          "internalType": "address",
          "name": "",
          "type": "address"
        },
        {
          "internalType": "uint256",
          "name": "",
          "type": "uint256"
        }
      ],
      "name": "biddingHistory",
      "outputs": [
        {
          "internalType": "uint256",
          "name": "",
          "type": "uint256"
        }
      ],
      "stateMutability": "view",
      "type": "function"
    },
    {
      "inputs": [
        {
          "internalType": "uint256",
          "name": "_ticketId",
          "type": "uint256"
        },
        {
          "internalType": "uint256",
          "name": "_nftId",
          "type": "uint256"
        },
        {
          "internalType": "uint256",
          "name": "_startingPrice",
          "type": "uint256"
        },
        {
          "internalType": "uint256",
          "name": "_duration",
          "type": "uint256"
        }
      ],
      "name": "createAuction",
      "outputs": [],
      "stateMutability": "nonpayable",
      "type": "function"
    },
    {
      "inputs": [
        {
          "internalType": "uint256",
          "name": "_auctionId",
          "type": "uint256"
        }
      ],
      "name": "endAuction",
      "outputs": [],
      "stateMutability": "nonpayable",
      "type": "function"
    },
    {
      "inputs": [
        {
          "internalType": "address",
          "name": "user",
          "type": "address"
        }
      ],
      "name": "getActiveAuctions",
      "outputs": [
        {
          "internalType": "uint256[]",
          "name": "",
          "type": "uint256[]"
        }
      ],
      "stateMutability": "view",
      "type": "function"
    },
    {
      "inputs": [
        {
          "internalType": "uint256",
          "name": "_auctionId",
          "type": "uint256"
        }
      ],
      "name": "getRemainingTime",
      "outputs": [
        {
          "internalType": "uint256",
          "name": "",
          "type": "uint256"
        }
      ],
      "stateMutability": "view",
      "type": "function"
    },
    {
      "inputs": [
        {
          "internalType": "bytes32",
          "name": "role",
          "type": "bytes32"
        }
      ],
      "name": "getRoleAdmin",
      "outputs": [
        {
          "internalType": "bytes32",
          "name": "",
          "type": "bytes32"
        }
      ],
      "stateMutability": "view",
      "type": "function"
    },
    {
      "inputs": [
        {
          "internalType": "address",
          "name": "user",
          "type": "address"
        },
        {
          "internalType": "uint256",
          "name": "auctionId",
          "type": "uint256"
        }
      ],
      "name": "getUserBiddingHistory",
      "outputs": [
        {
          "internalType": "uint256",
          "name": "",
          "type": "uint256"
        }
      ],
      "stateMutability": "view",
      "type": "function"
    },
    {
      "inputs": [
        {
          "internalType": "bytes32",
          "name": "role",
          "type": "bytes32"
        },
        {
          "internalType": "address",
          "name": "account",
          "type": "address"
        }
      ],
      "name": "grantRole",
      "outputs": [],
      "stateMutability": "nonpayable",
      "type": "function"
    },
    {
      "inputs": [
        {
          "internalType": "bytes32",
          "name": "role",
          "type": "bytes32"
        },
        {
          "internalType": "address",
          "name": "account",
          "type": "address"
        }
      ],
      "name": "hasRole",
      "outputs": [
        {
          "internalType": "bool",
          "name": "",
          "type": "bool"
        }
      ],
      "stateMutability": "view",
      "type": "function"
    },
    {
      "inputs": [],
      "name": "nextAuctionId",
      "outputs": [
        {
          "internalType": "uint256",
          "name": "",
          "type": "uint256"
        }
      ],
      "stateMutability": "view",
      "type": "function"
    },
    {
      "inputs": [
        {
          "internalType": "address",
          "name": "",
          "type": "address"
        },
        {
          "internalType": "address",
          "name": "",
          "type": "address"
        },
        {
          "internalType": "uint256[]",
          "name": "",
          "type": "uint256[]"
        },
        {
          "internalType": "uint256[]",
          "name": "",
          "type": "uint256[]"
        },
        {
          "internalType": "bytes",
          "name": "",
          "type": "bytes"
        }
      ],
      "name": "onERC1155BatchReceived",
      "outputs": [
        {
          "internalType": "bytes4",
          "name": "",
          "type": "bytes4"
        }
      ],
      "stateMutability": "pure",
      "type": "function"
    },
    {
      "inputs": [
        {
          "internalType": "address",
          "name": "",
          "type": "address"
        },
        {
          "internalType": "address",
          "name": "",
          "type": "address"
        },
        {
          "internalType": "uint256",
          "name": "",
          "type": "uint256"
        },
        {
          "internalType": "uint256",
          "name": "",
          "type": "uint256"
        },
        {
          "internalType": "bytes",
          "name": "",
          "type": "bytes"
        }
      ],
      "name": "onERC1155Received",
      "outputs": [
        {
          "internalType": "bytes4",
          "name": "",
          "type": "bytes4"
        }
      ],
      "stateMutability": "pure",
      "type": "function"
    },
    {
      "inputs": [
        {
          "internalType": "uint256",
          "name": "_auctionId",
          "type": "uint256"
        }
      ],
      "name": "placeBid",
      "outputs": [],
      "stateMutability": "payable",
      "type": "function"
    },
    {
      "inputs": [
        {
          "internalType": "bytes32",
          "name": "role",
          "type": "bytes32"
        },
        {
          "internalType": "address",
          "name": "account",
          "type": "address"
        }
      ],
      "name": "renounceRole",
      "outputs": [],
      "stateMutability": "nonpayable",
      "type": "function"
    },
    {
      "inputs": [
        {
          "internalType": "bytes32",
          "name": "role",
          "type": "bytes32"
        },
        {
          "internalType": "address",
          "name": "account",
          "type": "address"
        }
      ],
      "name": "revokeRole",
      "outputs": [],
      "stateMutability": "nonpayable",
      "type": "function"
    },
    {
      "inputs": [
        {
          "internalType": "bytes4",
          "name": "interfaceId",
          "type": "bytes4"
        }
      ],
      "name": "supportsInterface",
      "outputs": [
        {
          "internalType": "bool",
          "name": "",
          "type": "bool"
        }
      ],
      "stateMutability": "view",
      "type": "function"
    },
    {
      "inputs": [],
      "name": "ticketContract",
      "outputs": [
        {
          "internalType": "contract Ticket",
          "name": "",
          "type": "address"
        }
      ],
      "stateMutability": "view",
      "type": "function"
    },
    {
      "inputs": [
        {
          "internalType": "address",
          "name": "",
          "type": "address"
        },
        {
          "internalType": "uint256",
          "name": "",
          "type": "uint256"
        }
      ],
      "name": "userAuctions",
      "outputs": [
        {
          "internalType": "uint256",
          "name": "",
          "type": "uint256"
        }
      ],
      "stateMutability": "view",
      "type": "function"
    },
    {
      "inputs": [],
      "name": "withdraw",
      "outputs": [],
      "stateMutability": "nonpayable",
      "type": "function"
    }
  ],
  "bytecode": "0x60806040523480156200001157600080fd5b5060405162002fa038038062002fa08339818101604052810190620000379190620002a7565b80600160006101000a81548173ffffffffffffffffffffffffffffffffffffffff021916908373ffffffffffffffffffffffffffffffffffffffff1602179055506200008d6000801b33620000c660201b60201c565b620000bf7fc5e2d1653feba496cf5ce3a744b90ea18acf0df3d036aba9b2f85992a146790633620000c660201b60201c565b50620002d9565b620000d88282620001b760201b60201c565b620001b357600160008084815260200190815260200160002060000160008373ffffffffffffffffffffffffffffffffffffffff1673ffffffffffffffffffffffffffffffffffffffff16815260200190815260200160002060006101000a81548160ff021916908315150217905550620001586200022160201b60201c565b73ffffffffffffffffffffffffffffffffffffffff168173ffffffffffffffffffffffffffffffffffffffff16837f2f8788117e7eff1d82e926ec794901d17c78024a50270940304540a733656f0d60405160405180910390a45b5050565b600080600084815260200190815260200160002060000160008373ffffffffffffffffffffffffffffffffffffffff1673ffffffffffffffffffffffffffffffffffffffff16815260200190815260200160002060009054906101000a900460ff16905092915050565b600033905090565b600080fd5b600073ffffffffffffffffffffffffffffffffffffffff82169050919050565b60006200025b826200022e565b9050919050565b60006200026f826200024e565b9050919050565b620002818162000262565b81146200028d57600080fd5b50565b600081519050620002a18162000276565b92915050565b600060208284031215620002c057620002bf62000229565b5b6000620002d08482850162000290565b91505092915050565b612cb780620002e96000396000f3fe6080604052600436106101355760003560e01c806391d14854116100ab578063bc197c811161006f578063bc197c8114610444578063ce36f67914610481578063d547741f146104be578063dceceec5146104e7578063f23a6e6114610524578063fc5284821461056157610135565b806391d148541461035a5780639979ef4514610397578063a217fddf146103b3578063b4fbe80a146103de578063b9a2de3a1461041b57610135565b80633ccfd60b116100fd5780633ccfd60b14610243578063430730a31461025a578063431f21da14610285578063571a26a0146102ae57806358a86e1d146102f25780638046be651461031d57610135565b806301ffc9a71461013a578063181e012414610177578063248a9ca3146101b45780632f2ff15d146101f157806336568abe1461021a575b600080fd5b34801561014657600080fd5b50610161600480360381019061015c9190611b25565b61058c565b60405161016e9190611b6d565b60405180910390f35b34801561018357600080fd5b5061019e60048036038101906101999190611bbe565b61065e565b6040516101ab9190611bfa565b60405180910390f35b3480156101c057600080fd5b506101db60048036038101906101d69190611c4b565b6106ab565b6040516101e89190611c87565b60405180910390f35b3480156101fd57600080fd5b5061021860048036038101906102139190611d00565b6106ca565b005b34801561022657600080fd5b50610241600480360381019061023c9190611d00565b6106eb565b005b34801561024f57600080fd5b5061025861076e565b005b34801561026657600080fd5b5061026f61082b565b60405161027c9190611c87565b60405180910390f35b34801561029157600080fd5b506102ac60048036038101906102a79190611d40565b61084f565b005b3480156102ba57600080fd5b506102d560048036038101906102d09190611bbe565b610c8c565b6040516102e9989796959493929190611db6565b60405180910390f35b3480156102fe57600080fd5b50610307610d21565b6040516103149190611e93565b60405180910390f35b34801561032957600080fd5b50610344600480360381019061033f9190611eae565b610d47565b6040516103519190611bfa565b60405180910390f35b34801561036657600080fd5b50610381600480360381019061037c9190611d00565b610d6c565b60405161038e9190611b6d565b60405180910390f35b6103b160048036038101906103ac9190611bbe565b610dd6565b005b3480156103bf57600080fd5b506103c861110e565b6040516103d59190611c87565b60405180910390f35b3480156103ea57600080fd5b5061040560048036038101906104009190611eae565b611115565b6040516104129190611bfa565b60405180910390f35b34801561042757600080fd5b50610442600480360381019061043d9190611bbe565b611146565b005b34801561045057600080fd5b5061046b60048036038101906104669190611fa9565b611485565b6040516104789190612094565b60405180910390f35b34801561048d57600080fd5b506104a860048036038101906104a391906120af565b61149d565b6040516104b5919061219a565b60405180910390f35b3480156104ca57600080fd5b506104e560048036038101906104e09190611d00565b611534565b005b3480156104f357600080fd5b5061050e60048036038101906105099190611eae565b611555565b60405161051b9190611bfa565b60405180910390f35b34801561053057600080fd5b5061054b600480360381019061054691906121bc565b6115b0565b6040516105589190612094565b60405180910390f35b34801561056d57600080fd5b506105766115c6565b6040516105839190611bfa565b60405180910390f35b60007f4e2312e0000000000000000000000000000000000000000000000000000000007bffffffffffffffffffffffffffffffffffffffffffffffffffffffff1916827bffffffffffffffffffffffffffffffffffffffffffffffffffffffff1916148061065757507f01ffc9a7000000000000000000000000000000000000000000000000000000007bffffffffffffffffffffffffffffffffffffffffffffffffffffffff1916827bffffffffffffffffffffffffffffffffffffffffffffffffffffffff1916145b9050919050565b6000806002600084815260200190815260200160002090508060040154421061068b5760009150506106a6565b6106a24282600401546115cc90919063ffffffff16565b9150505b919050565b6000806000838152602001908152602001600020600101549050919050565b6106d3826106ab565b6106dc816115e2565b6106e683836115f6565b505050565b6106f36116d6565b73ffffffffffffffffffffffffffffffffffffffff168173ffffffffffffffffffffffffffffffffffffffff1614610760576040517f08c379a0000000000000000000000000000000000000000000000000000000008152600401610757906122d9565b60405180910390fd5b61076a82826116de565b5050565b7fc5e2d1653feba496cf5ce3a744b90ea18acf0df3d036aba9b2f85992a1467906610798816115e2565b6000479050600081116107e0576040517f08c379a00000000000000000000000000000000000000000000000000000000081526004016107d790612345565b60405180910390fd5b3373ffffffffffffffffffffffffffffffffffffffff166108fc829081150290604051600060405180830381858888f19350505050158015610826573d6000803e3d6000fd5b505050565b7fc5e2d1653feba496cf5ce3a744b90ea18acf0df3d036aba9b2f85992a146790681565b600160009054906101000a900473ffffffffffffffffffffffffffffffffffffffff1673ffffffffffffffffffffffffffffffffffffffff1663ced1419885336040518363ffffffff1660e01b81526004016108ac929190612365565b60206040518083038186803b1580156108c457600080fd5b505afa1580156108d8573d6000803e3d6000fd5b505050506040513d601f19601f820116820180604052508101906108fc91906123ba565b61093b576040517f08c379a000000000000000000000000000000000000000000000000000000000815260040161093290612433565b60405180910390fd5b610e10811015801561095057506224ea008111155b61098f576040517f08c379a00000000000000000000000000000000000000000000000000000000081526004016109869061249f565b60405180910390fd5b60006005549050600560008154809291906109a9906124ee565b9190505550600160009054906101000a900473ffffffffffffffffffffffffffffffffffffffff1673ffffffffffffffffffffffffffffffffffffffff1663f242432a33308760016040518563ffffffff1660e01b8152600401610a1094939291906125a9565b600060405180830381600087803b158015610a2a57600080fd5b505af1158015610a3e573d6000803e3d6000fd5b505050506040518061010001604052803373ffffffffffffffffffffffffffffffffffffffff168152602001868152602001858152602001848152602001610a8f84426117bf90919063ffffffff16565b815260200160008152602001600073ffffffffffffffffffffffffffffffffffffffff168152602001600015158152506002600083815260200190815260200160002060008201518160000160006101000a81548173ffffffffffffffffffffffffffffffffffffffff021916908373ffffffffffffffffffffffffffffffffffffffff1602179055506020820151816001015560408201518160020155606082015181600301556080820151816004015560a0820151816005015560c08201518160060160006101000a81548173ffffffffffffffffffffffffffffffffffffffff021916908373ffffffffffffffffffffffffffffffffffffffff16021790555060e08201518160060160146101000a81548160ff021916908315150217905550905050600360003373ffffffffffffffffffffffffffffffffffffffff1673ffffffffffffffffffffffffffffffffffffffff1681526020019081526020016000208190806001815401808255809150506001900390600052602060002001600090919091909150553373ffffffffffffffffffffffffffffffffffffffff16817e09646912aaa7019ad837e57cc5c0613299c8432f5268d4450ab8673fe0fa038787876002600088815260200190815260200160002060040154604051610c7d9493929190612601565b60405180910390a35050505050565b60026020528060005260406000206000915090508060000160009054906101000a900473ffffffffffffffffffffffffffffffffffffffff16908060010154908060020154908060030154908060040154908060050154908060060160009054906101000a900473ffffffffffffffffffffffffffffffffffffffff16908060060160149054906101000a900460ff16905088565b600160009054906101000a900473ffffffffffffffffffffffffffffffffffffffff1681565b6004602052816000526040600020602052806000526040600020600091509150505481565b600080600084815260200190815260200160002060000160008373ffffffffffffffffffffffffffffffffffffffff1673ffffffffffffffffffffffffffffffffffffffff16815260200190815260200160002060009054906101000a900460ff16905092915050565b600060026000838152602001908152602001600020905080600401544210610e33576040517f08c379a0000000000000000000000000000000000000000000000000000000008152600401610e2a90612692565b60405180910390fd5b80600501543411610e79576040517f08c379a0000000000000000000000000000000000000000000000000000000008152600401610e7090612724565b60405180910390fd5b600073ffffffffffffffffffffffffffffffffffffffff168160060160009054906101000a900473ffffffffffffffffffffffffffffffffffffffff1673ffffffffffffffffffffffffffffffffffffffff1614610fb8578060060160009054906101000a900473ffffffffffffffffffffffffffffffffffffffff1673ffffffffffffffffffffffffffffffffffffffff166108fc82600501549081150290604051600060405180830381858888f19350505050158015610f3f573d6000803e3d6000fd5b508060060160009054906101000a900473ffffffffffffffffffffffffffffffffffffffff1673ffffffffffffffffffffffffffffffffffffffff16827fa59312996dc68b7f0224b341fed75d5afeb3bb20624107d37942d14f594281568360050154604051610faf9190611bfa565b60405180910390a35b348160050181905550338160060160006101000a81548173ffffffffffffffffffffffffffffffffffffffff021916908373ffffffffffffffffffffffffffffffffffffffff16021790555061106734600460003373ffffffffffffffffffffffffffffffffffffffff1673ffffffffffffffffffffffffffffffffffffffff1681526020019081526020016000206000858152602001908152602001600020546117bf90919063ffffffff16565b600460003373ffffffffffffffffffffffffffffffffffffffff1673ffffffffffffffffffffffffffffffffffffffff1681526020019081526020016000206000848152602001908152602001600020819055503373ffffffffffffffffffffffffffffffffffffffff16827f0e54eff26401bf69b81b26f60bd85ef47f5d85275c1d268d84f68d6897431c47346040516111029190611bfa565b60405180910390a35050565b6000801b81565b6003602052816000526040600020818154811061113157600080fd5b90600052602060002001600091509150505481565b7fc5e2d1653feba496cf5ce3a744b90ea18acf0df3d036aba9b2f85992a1467906611170816115e2565b60006002600084815260200190815260200160002090508060060160149054906101000a900460ff16156111d9576040517f08c379a00000000000000000000000000000000000000000000000000000000081526004016111d090612790565b60405180910390fd5b8060040154421015611220576040517f08c379a0000000000000000000000000000000000000000000000000000000008152600401611217906127fc565b60405180910390fd5b60018160060160146101000a81548160ff0219169083151502179055508060060160009054906101000a900473ffffffffffffffffffffffffffffffffffffffff1673ffffffffffffffffffffffffffffffffffffffff168160000160009054906101000a900473ffffffffffffffffffffffffffffffffffffffff1673ffffffffffffffffffffffffffffffffffffffff16847f1569802994a84674f75331b5081a75eefaac9d79eb336ae1544ed0aae49cb93884600501546040516112e79190611bfa565b60405180910390a4600160009054906101000a900473ffffffffffffffffffffffffffffffffffffffff1673ffffffffffffffffffffffffffffffffffffffff1663f242432a308360060160009054906101000a900473ffffffffffffffffffffffffffffffffffffffff16846002015460016040518563ffffffff1660e01b815260040161137994939291906125a9565b600060405180830381600087803b15801561139357600080fd5b505af11580156113a7573d6000803e3d6000fd5b5050505060008160000160009054906101000a900473ffffffffffffffffffffffffffffffffffffffff1673ffffffffffffffffffffffffffffffffffffffff1682600501546040516113f99061284a565b60006040518083038185875af1925050503d8060008114611436576040519150601f19603f3d011682016040523d82523d6000602084013e61143b565b606091505b505090508061147f576040517f08c379a0000000000000000000000000000000000000000000000000000000008152600401611476906128d1565b60405180910390fd5b50505050565b600063bc197c8160e01b905098975050505050505050565b6060600360008373ffffffffffffffffffffffffffffffffffffffff1673ffffffffffffffffffffffffffffffffffffffff16815260200190815260200160002080548060200260200160405190810160405280929190818152602001828054801561152857602002820191906000526020600020905b815481526020019060010190808311611514575b50505050509050919050565b61153d826106ab565b611546816115e2565b61155083836116de565b505050565b6000600460008473ffffffffffffffffffffffffffffffffffffffff1673ffffffffffffffffffffffffffffffffffffffff168152602001908152602001600020600083815260200190815260200160002054905092915050565b600063f23a6e6160e01b90509695505050505050565b60055481565b600081836115da91906128f1565b905092915050565b6115f3816115ee6116d6565b6117d5565b50565b6116008282610d6c565b6116d257600160008084815260200190815260200160002060000160008373ffffffffffffffffffffffffffffffffffffffff1673ffffffffffffffffffffffffffffffffffffffff16815260200190815260200160002060006101000a81548160ff0219169083151502179055506116776116d6565b73ffffffffffffffffffffffffffffffffffffffff168173ffffffffffffffffffffffffffffffffffffffff16837f2f8788117e7eff1d82e926ec794901d17c78024a50270940304540a733656f0d60405160405180910390a45b5050565b600033905090565b6116e88282610d6c565b156117bb57600080600084815260200190815260200160002060000160008373ffffffffffffffffffffffffffffffffffffffff1673ffffffffffffffffffffffffffffffffffffffff16815260200190815260200160002060006101000a81548160ff0219169083151502179055506117606116d6565b73ffffffffffffffffffffffffffffffffffffffff168173ffffffffffffffffffffffffffffffffffffffff16837ff6391f5c32d9c69d2a47ea670b442974b53935d1edc7fd64eb21e047a839171b60405160405180910390a45b5050565b600081836117cd9190612925565b905092915050565b6117df8282610d6c565b611856576117ec8161185a565b6117fa8360001c6020611887565b60405160200161180b929190612a8d565b6040516020818303038152906040526040517f08c379a000000000000000000000000000000000000000000000000000000000815260040161184d9190612b11565b60405180910390fd5b5050565b60606118808273ffffffffffffffffffffffffffffffffffffffff16601460ff16611887565b9050919050565b60606000600283600261189a9190612b33565b6118a49190612925565b67ffffffffffffffff8111156118bd576118bc612b8d565b5b6040519080825280601f01601f1916602001820160405280156118ef5781602001600182028036833780820191505090505b5090507f30000000000000000000000000000000000000000000000000000000000000008160008151811061192757611926612bbc565b5b60200101907effffffffffffffffffffffffffffffffffffffffffffffffffffffffffffff1916908160001a9053507f78000000000000000000000000000000000000000000000000000000000000008160018151811061198b5761198a612bbc565b5b60200101907effffffffffffffffffffffffffffffffffffffffffffffffffffffffffffff1916908160001a905350600060018460026119cb9190612b33565b6119d59190612925565b90505b6001811115611a75577f3031323334353637383961626364656600000000000000000000000000000000600f861660108110611a1757611a16612bbc565b5b1a60f81b828281518110611a2e57611a2d612bbc565b5b60200101907effffffffffffffffffffffffffffffffffffffffffffffffffffffffffffff1916908160001a905350600485901c945080611a6e90612beb565b90506119d8565b5060008414611ab9576040517f08c379a0000000000000000000000000000000000000000000000000000000008152600401611ab090612c61565b60405180910390fd5b8091505092915050565b600080fd5b600080fd5b60007fffffffff0000000000000000000000000000000000000000000000000000000082169050919050565b611b0281611acd565b8114611b0d57600080fd5b50565b600081359050611b1f81611af9565b92915050565b600060208284031215611b3b57611b3a611ac3565b5b6000611b4984828501611b10565b91505092915050565b60008115159050919050565b611b6781611b52565b82525050565b6000602082019050611b826000830184611b5e565b92915050565b6000819050919050565b611b9b81611b88565b8114611ba657600080fd5b50565b600081359050611bb881611b92565b92915050565b600060208284031215611bd457611bd3611ac3565b5b6000611be284828501611ba9565b91505092915050565b611bf481611b88565b82525050565b6000602082019050611c0f6000830184611beb565b92915050565b6000819050919050565b611c2881611c15565b8114611c3357600080fd5b50565b600081359050611c4581611c1f565b92915050565b600060208284031215611c6157611c60611ac3565b5b6000611c6f84828501611c36565b91505092915050565b611c8181611c15565b82525050565b6000602082019050611c9c6000830184611c78565b92915050565b600073ffffffffffffffffffffffffffffffffffffffff82169050919050565b6000611ccd82611ca2565b9050919050565b611cdd81611cc2565b8114611ce857600080fd5b50565b600081359050611cfa81611cd4565b92915050565b60008060408385031215611d1757611d16611ac3565b5b6000611d2585828601611c36565b9250506020611d3685828601611ceb565b9150509250929050565b60008060008060808587031215611d5a57611d59611ac3565b5b6000611d6887828801611ba9565b9450506020611d7987828801611ba9565b9350506040611d8a87828801611ba9565b9250506060611d9b87828801611ba9565b91505092959194509250565b611db081611cc2565b82525050565b600061010082019050611dcc600083018b611da7565b611dd9602083018a611beb565b611de66040830189611beb565b611df36060830188611beb565b611e006080830187611beb565b611e0d60a0830186611beb565b611e1a60c0830185611da7565b611e2760e0830184611b5e565b9998505050505050505050565b6000819050919050565b6000611e59611e54611e4f84611ca2565b611e34565b611ca2565b9050919050565b6000611e6b82611e3e565b9050919050565b6000611e7d82611e60565b9050919050565b611e8d81611e72565b82525050565b6000602082019050611ea86000830184611e84565b92915050565b60008060408385031215611ec557611ec4611ac3565b5b6000611ed385828601611ceb565b9250506020611ee485828601611ba9565b9150509250929050565b600080fd5b600080fd5b600080fd5b60008083601f840112611f1357611f12611eee565b5b8235905067ffffffffffffffff811115611f3057611f2f611ef3565b5b602083019150836020820283011115611f4c57611f4b611ef8565b5b9250929050565b60008083601f840112611f6957611f68611eee565b5b8235905067ffffffffffffffff811115611f8657611f85611ef3565b5b602083019150836001820283011115611fa257611fa1611ef8565b5b9250929050565b60008060008060008060008060a0898b031215611fc957611fc8611ac3565b5b6000611fd78b828c01611ceb565b9850506020611fe88b828c01611ceb565b975050604089013567ffffffffffffffff81111561200957612008611ac8565b5b6120158b828c01611efd565b9650965050606089013567ffffffffffffffff81111561203857612037611ac8565b5b6120448b828c01611efd565b9450945050608089013567ffffffffffffffff81111561206757612066611ac8565b5b6120738b828c01611f53565b92509250509295985092959890939650565b61208e81611acd565b82525050565b60006020820190506120a96000830184612085565b92915050565b6000602082840312156120c5576120c4611ac3565b5b60006120d384828501611ceb565b91505092915050565b600081519050919050565b600082825260208201905092915050565b6000819050602082019050919050565b61211181611b88565b82525050565b60006121238383612108565b60208301905092915050565b6000602082019050919050565b6000612147826120dc565b61215181856120e7565b935061215c836120f8565b8060005b8381101561218d5781516121748882612117565b975061217f8361212f565b925050600181019050612160565b5085935050505092915050565b600060208201905081810360008301526121b4818461213c565b905092915050565b60008060008060008060a087890312156121d9576121d8611ac3565b5b60006121e789828a01611ceb565b96505060206121f889828a01611ceb565b955050604061220989828a01611ba9565b945050606061221a89828a01611ba9565b935050608087013567ffffffffffffffff81111561223b5761223a611ac8565b5b61224789828a01611f53565b92509250509295509295509295565b600082825260208201905092915050565b7f416363657373436f6e74726f6c3a2063616e206f6e6c792072656e6f756e636560008201527f20726f6c657320666f722073656c660000000000000000000000000000000000602082015250565b60006122c3602f83612256565b91506122ce82612267565b604082019050919050565b600060208201905081810360008301526122f2816122b6565b9050919050565b7f4e6f2066756e647320746f207769746864726177000000000000000000000000600082015250565b600061232f601483612256565b915061233a826122f9565b602082019050919050565b6000602082019050818103600083015261235e81612322565b9050919050565b600060408201905061237a6000830185611beb565b6123876020830184611da7565b9392505050565b61239781611b52565b81146123a257600080fd5b50565b6000815190506123b48161238e565b92915050565b6000602082840312156123d0576123cf611ac3565b5b60006123de848285016123a5565b91505092915050565b7f53656c6c6572206d757374206f776e20746865207469636b6574000000000000600082015250565b600061241d601a83612256565b9150612428826123e7565b602082019050919050565b6000602082019050818103600083015261244c81612410565b9050919050565b7f496e76616c69642061756374696f6e206475726174696f6e0000000000000000600082015250565b6000612489601883612256565b915061249482612453565b602082019050919050565b600060208201905081810360008301526124b88161247c565b9050919050565b7f4e487b7100000000000000000000000000000000000000000000000000000000600052601160045260246000fd5b60006124f982611b88565b91507fffffffffffffffffffffffffffffffffffffffffffffffffffffffffffffffff82141561252c5761252b6124bf565b5b600182019050919050565b6000819050919050565b600061255c61255761255284612537565b611e34565b611b88565b9050919050565b61256c81612541565b82525050565b600082825260208201905092915050565b50565b6000612593600083612572565b915061259e82612583565b600082019050919050565b600060a0820190506125be6000830187611da7565b6125cb6020830186611da7565b6125d86040830185611beb565b6125e56060830184612563565b81810360808301526125f681612586565b905095945050505050565b60006080820190506126166000830187611beb565b6126236020830186611beb565b6126306040830185611beb565b61263d6060830184611beb565b95945050505050565b7f41756374696f6e2068617320656e646564000000000000000000000000000000600082015250565b600061267c601183612256565b915061268782612646565b602082019050919050565b600060208201905081810360008301526126ab8161266f565b9050919050565b7f426964206d75737420626520686967686572207468616e2063757272656e742060008201527f6869676865737420626964000000000000000000000000000000000000000000602082015250565b600061270e602b83612256565b9150612719826126b2565b604082019050919050565b6000602082019050818103600083015261273d81612701565b9050919050565b7f41756374696f6e2068617320616c726561647920656e64656400000000000000600082015250565b600061277a601983612256565b915061278582612744565b602082019050919050565b600060208201905081810360008301526127a98161276d565b9050919050565b7f41756374696f6e206973207374696c6c206f6e676f696e670000000000000000600082015250565b60006127e6601883612256565b91506127f1826127b0565b602082019050919050565b60006020820190508181036000830152612815816127d9565b9050919050565b600081905092915050565b600061283460008361281c565b915061283f82612583565b600082019050919050565b600061285582612827565b9150819050919050565b7f4661696c656420746f207472616e736665722066756e647320746f207468652060008201527f73656c6c65720000000000000000000000000000000000000000000000000000602082015250565b60006128bb602683612256565b91506128c68261285f565b604082019050919050565b600060208201905081810360008301526128ea816128ae565b9050919050565b60006128fc82611b88565b915061290783611b88565b92508282101561291a576129196124bf565b5b828203905092915050565b600061293082611b88565b915061293b83611b88565b9250827fffffffffffffffffffffffffffffffffffffffffffffffffffffffffffffffff038211156129705761296f6124bf565b5b828201905092915050565b600081905092915050565b7f416363657373436f6e74726f6c3a206163636f756e7420000000000000000000600082015250565b60006129bc60178361297b565b91506129c782612986565b601782019050919050565b600081519050919050565b60005b838110156129fb5780820151818401526020810190506129e0565b83811115612a0a576000848401525b50505050565b6000612a1b826129d2565b612a25818561297b565b9350612a358185602086016129dd565b80840191505092915050565b7f206973206d697373696e6720726f6c6520000000000000000000000000000000600082015250565b6000612a7760118361297b565b9150612a8282612a41565b601182019050919050565b6000612a98826129af565b9150612aa48285612a10565b9150612aaf82612a6a565b9150612abb8284612a10565b91508190509392505050565b6000601f19601f8301169050919050565b6000612ae3826129d2565b612aed8185612256565b9350612afd8185602086016129dd565b612b0681612ac7565b840191505092915050565b60006020820190508181036000830152612b2b8184612ad8565b905092915050565b6000612b3e82611b88565b9150612b4983611b88565b9250817fffffffffffffffffffffffffffffffffffffffffffffffffffffffffffffffff0483118215151615612b8257612b816124bf565b5b828202905092915050565b7f4e487b7100000000000000000000000000000000000000000000000000000000600052604160045260246000fd5b7f4e487b7100000000000000000000000000000000000000000000000000000000600052603260045260246000fd5b6000612bf682611b88565b91506000821415612c0a57612c096124bf565b5b600182039050919050565b7f537472696e67733a20686578206c656e67746820696e73756666696369656e74600082015250565b6000612c4b602083612256565b9150612c5682612c15565b602082019050919050565b60006020820190508181036000830152612c7a81612c3e565b905091905056fea26469706673582212200f966db17874212c6131d694f8d41a565f9f565932a1c8e5417fc92a0f76fc9664736f6c63430008090033",
  "linkReferences": {},
  "deployedLinkReferences": {}
}