{
  "_format": "hh-sol-artifact-1",
  "contractName": "MCT",
  "sourceName": "contracts/protocol/praedium/mct.sol",
  "abi": [
    {
      "inputs": [
        {
          "internalType": "address",
          "name": "_token",
          "type": "address"
        }
      ],
      "stateMutability": "nonpayable",
      "type": "constructor"
    },
    {
      "inputs": [],
      "name": "getBalance",
      "outputs": [
        {
          "internalType": "uint256",
          "name": "",
          "type": "uint256"
        }
      ],
      "stateMutability": "view",
      "type": "function"
    },
    {
      "inputs": [
        {
          "internalType": "address",
          "name": "recipient",
          "type": "address"
        },
        {
          "internalType": "uint256",
          "name": "amount",
          "type": "uint256"
        }
      ],
      "name": "test",
      "outputs": [],
      "stateMutability": "nonpayable",
      "type": "function"
    },
    {
      "inputs": [],
      "name": "token",
      "outputs": [
        {
          "internalType": "contract IERC20",
          "name": "",
          "type": "address"
        }
      ],
      "stateMutability": "view",
      "type": "function"
    }
  ],
  "bytecode": "0x608060405234801561001057600080fd5b506040516106d03803806106d0833981810160405281019061003291906100db565b806000806101000a81548173ffffffffffffffffffffffffffffffffffffffff021916908373ffffffffffffffffffffffffffffffffffffffff16021790555050610108565b600080fd5b600073ffffffffffffffffffffffffffffffffffffffff82169050919050565b60006100a88261007d565b9050919050565b6100b88161009d565b81146100c357600080fd5b50565b6000815190506100d5816100af565b92915050565b6000602082840312156100f1576100f0610078565b5b60006100ff848285016100c6565b91505092915050565b6105b9806101176000396000f3fe608060405234801561001057600080fd5b50600436106100415760003560e01c806312065fe014610046578063ba14d60614610064578063fc0c546a14610080575b600080fd5b61004e61009e565b60405161005b91906102ee565b60405180910390f35b61007e60048036038101906100799190610398565b61014f565b005b6100886102b1565b6040516100959190610437565b60405180910390f35b60008060009054906101000a900473ffffffffffffffffffffffffffffffffffffffff1673ffffffffffffffffffffffffffffffffffffffff166370a08231306040518263ffffffff1660e01b81526004016100fa9190610461565b60206040518083038186803b15801561011257600080fd5b505afa158015610126573d6000803e3d6000fd5b505050506040513d601f19601f8201168201806040525081019061014a9190610491565b905090565b60008054906101000a900473ffffffffffffffffffffffffffffffffffffffff1673ffffffffffffffffffffffffffffffffffffffff1663095ea7b330836040518363ffffffff1660e01b81526004016101aa9291906104be565b602060405180830381600087803b1580156101c457600080fd5b505af11580156101d8573d6000803e3d6000fd5b505050506040513d601f19601f820116820180604052508101906101fc919061051f565b5060008054906101000a900473ffffffffffffffffffffffffffffffffffffffff1673ffffffffffffffffffffffffffffffffffffffff166323b872dd3384846040518463ffffffff1660e01b815260040161025a9392919061054c565b602060405180830381600087803b15801561027457600080fd5b505af1158015610288573d6000803e3d6000fd5b505050506040513d601f19601f820116820180604052508101906102ac919061051f565b505050565b60008054906101000a900473ffffffffffffffffffffffffffffffffffffffff1681565b6000819050919050565b6102e8816102d5565b82525050565b600060208201905061030360008301846102df565b92915050565b600080fd5b600073ffffffffffffffffffffffffffffffffffffffff82169050919050565b60006103398261030e565b9050919050565b6103498161032e565b811461035457600080fd5b50565b60008135905061036681610340565b92915050565b610375816102d5565b811461038057600080fd5b50565b6000813590506103928161036c565b92915050565b600080604083850312156103af576103ae610309565b5b60006103bd85828601610357565b92505060206103ce85828601610383565b9150509250929050565b6000819050919050565b60006103fd6103f86103f38461030e565b6103d8565b61030e565b9050919050565b600061040f826103e2565b9050919050565b600061042182610404565b9050919050565b61043181610416565b82525050565b600060208201905061044c6000830184610428565b92915050565b61045b8161032e565b82525050565b60006020820190506104766000830184610452565b92915050565b60008151905061048b8161036c565b92915050565b6000602082840312156104a7576104a6610309565b5b60006104b58482850161047c565b91505092915050565b60006040820190506104d36000830185610452565b6104e060208301846102df565b9392505050565b60008115159050919050565b6104fc816104e7565b811461050757600080fd5b50565b600081519050610519816104f3565b92915050565b60006020828403121561053557610534610309565b5b60006105438482850161050a565b91505092915050565b60006060820190506105616000830186610452565b61056e6020830185610452565b61057b60408301846102df565b94935050505056fea2646970667358221220a96d25d7a30b89755d4433a921bfa617abbf8d8d076841f55e3295570439c57164736f6c63430008090033",
  "linkReferences": {},
  "deployedLinkReferences": {}
}