{
  "_format": "hh-sol-artifact-1",
  "contractName": "Flopper",
  "sourceName": "contracts/protocol/stabilizer/flop.sol",
  "abi": [
    {
      "inputs": [
        {
          "internalType": "address",
          "name": "vat_",
          "type": "address"
        },
        {
          "internalType": "address",
          "name": "gem_",
          "type": "address"
        }
      ],
      "stateMutability": "nonpayable",
      "type": "constructor"
    },
    {
      "anonymous": false,
      "inputs": [
        {
          "indexed": false,
          "internalType": "uint256",
          "name": "id",
          "type": "uint256"
        },
        {
          "indexed": false,
          "internalType": "uint256",
          "name": "lot",
          "type": "uint256"
        },
        {
          "indexed": false,
          "internalType": "uint256",
          "name": "bid",
          "type": "uint256"
        },
        {
          "indexed": true,
          "internalType": "address",
          "name": "gal",
          "type": "address"
        }
      ],
      "name": "Kick",
      "type": "event"
    },
    {
      "inputs": [],
      "name": "beg",
      "outputs": [
        {
          "internalType": "uint256",
          "name": "",
          "type": "uint256"
        }
      ],
      "stateMutability": "view",
      "type": "function"
    },
    {
      "inputs": [
        {
          "internalType": "uint256",
          "name": "",
          "type": "uint256"
        }
      ],
      "name": "bids",
      "outputs": [
        {
          "internalType": "uint256",
          "name": "bid",
          "type": "uint256"
        },
        {
          "internalType": "uint256",
          "name": "lot",
          "type": "uint256"
        },
        {
          "internalType": "address",
          "name": "guy",
          "type": "address"
        },
        {
          "internalType": "uint48",
          "name": "tic",
          "type": "uint48"
        },
        {
          "internalType": "uint48",
          "name": "end",
          "type": "uint48"
        }
      ],
      "stateMutability": "view",
      "type": "function"
    },
    {
      "inputs": [],
      "name": "cage",
      "outputs": [],
      "stateMutability": "nonpayable",
      "type": "function"
    },
    {
      "inputs": [
        {
          "internalType": "uint256",
          "name": "id",
          "type": "uint256"
        }
      ],
      "name": "deal",
      "outputs": [],
      "stateMutability": "nonpayable",
      "type": "function"
    },
    {
      "inputs": [
        {
          "internalType": "uint256",
          "name": "id",
          "type": "uint256"
        },
        {
          "internalType": "uint256",
          "name": "lot",
          "type": "uint256"
        },
        {
          "internalType": "uint256",
          "name": "bid",
          "type": "uint256"
        }
      ],
      "name": "dent",
      "outputs": [],
      "stateMutability": "nonpayable",
      "type": "function"
    },
    {
      "inputs": [
        {
          "internalType": "address",
          "name": "usr",
          "type": "address"
        }
      ],
      "name": "deny",
      "outputs": [],
      "stateMutability": "nonpayable",
      "type": "function"
    },
    {
      "inputs": [
        {
          "internalType": "bytes32",
          "name": "what",
          "type": "bytes32"
        },
        {
          "internalType": "uint256",
          "name": "data",
          "type": "uint256"
        }
      ],
      "name": "file",
      "outputs": [],
      "stateMutability": "nonpayable",
      "type": "function"
    },
    {
      "inputs": [],
      "name": "gem",
      "outputs": [
        {
          "internalType": "contract GemLike",
          "name": "",
          "type": "address"
        }
      ],
      "stateMutability": "view",
      "type": "function"
    },
    {
      "inputs": [
        {
          "internalType": "address",
          "name": "gal",
          "type": "address"
        },
        {
          "internalType": "uint256",
          "name": "lot",
          "type": "uint256"
        },
        {
          "internalType": "uint256",
          "name": "bid",
          "type": "uint256"
        }
      ],
      "name": "kick",
      "outputs": [
        {
          "internalType": "uint256",
          "name": "id",
          "type": "uint256"
        }
      ],
      "stateMutability": "nonpayable",
      "type": "function"
    },
    {
      "inputs": [],
      "name": "kicks",
      "outputs": [
        {
          "internalType": "uint256",
          "name": "",
          "type": "uint256"
        }
      ],
      "stateMutability": "view",
      "type": "function"
    },
    {
      "inputs": [],
      "name": "live",
      "outputs": [
        {
          "internalType": "uint256",
          "name": "",
          "type": "uint256"
        }
      ],
      "stateMutability": "view",
      "type": "function"
    },
    {
      "inputs": [],
      "name": "pad",
      "outputs": [
        {
          "internalType": "uint256",
          "name": "",
          "type": "uint256"
        }
      ],
      "stateMutability": "view",
      "type": "function"
    },
    {
      "inputs": [
        {
          "internalType": "address",
          "name": "usr",
          "type": "address"
        }
      ],
      "name": "rely",
      "outputs": [],
      "stateMutability": "nonpayable",
      "type": "function"
    },
    {
      "inputs": [],
      "name": "tau",
      "outputs": [
        {
          "internalType": "uint48",
          "name": "",
          "type": "uint48"
        }
      ],
      "stateMutability": "view",
      "type": "function"
    },
    {
      "inputs": [
        {
          "internalType": "uint256",
          "name": "id",
          "type": "uint256"
        }
      ],
      "name": "tick",
      "outputs": [],
      "stateMutability": "nonpayable",
      "type": "function"
    },
    {
      "inputs": [],
      "name": "ttl",
      "outputs": [
        {
          "internalType": "uint48",
          "name": "",
          "type": "uint48"
        }
      ],
      "stateMutability": "view",
      "type": "function"
    },
    {
      "inputs": [],
      "name": "vat",
      "outputs": [
        {
          "internalType": "contract VatLike",
          "name": "",
          "type": "address"
        }
      ],
      "stateMutability": "view",
      "type": "function"
    },
    {
      "inputs": [],
      "name": "vow",
      "outputs": [
        {
          "internalType": "address",
          "name": "",
          "type": "address"
        }
      ],
      "stateMutability": "view",
      "type": "function"
    },
    {
      "inputs": [
        {
          "internalType": "address",
          "name": "",
          "type": "address"
        }
      ],
      "name": "wards",
      "outputs": [
        {
          "internalType": "uint256",
          "name": "",
          "type": "uint256"
        }
      ],
      "stateMutability": "view",
      "type": "function"
    },
    {
      "inputs": [
        {
          "internalType": "uint256",
          "name": "id",
          "type": "uint256"
        }
      ],
      "name": "yank",
      "outputs": [],
      "stateMutability": "nonpayable",
      "type": "function"
    }
  ],
  "bytecode": "0x6080604052670e92596fd62900006004556714d1120d7b160000600555612a30600660006101000a81548165ffffffffffff021916908365ffffffffffff1602179055506202a3006006806101000a81548165ffffffffffff021916908365ffffffffffff16021790555060006007553480156200007c57600080fd5b506040516200274d3803806200274d8339818101604052810190620000a29190620001e2565b60016000803373ffffffffffffffffffffffffffffffffffffffff1673ffffffffffffffffffffffffffffffffffffffff1681526020019081526020016000208190555081600260006101000a81548173ffffffffffffffffffffffffffffffffffffffff021916908373ffffffffffffffffffffffffffffffffffffffff16021790555080600360006101000a81548173ffffffffffffffffffffffffffffffffffffffff021916908373ffffffffffffffffffffffffffffffffffffffff1602179055506001600881905550505062000229565b600080fd5b600073ffffffffffffffffffffffffffffffffffffffff82169050919050565b6000620001aa826200017d565b9050919050565b620001bc816200019d565b8114620001c857600080fd5b50565b600081519050620001dc81620001b1565b92915050565b60008060408385031215620001fc57620001fb62000178565b5b60006200020c85828601620001cb565b92505060206200021f85828601620001cb565b9150509250929050565b61251480620002396000396000f3fe608060405234801561001057600080fd5b506004361061012c5760003560e01c80637d780d82116100ad578063bf353dbb11610071578063bf353dbb146102fd578063c959c42b1461032d578063cfc4af5514610349578063cfdd330214610367578063fc7b6aee146103855761012c565b80637d780d82146102575780639361266c14610275578063957aa58c146102935780639c52a7f1146102b1578063b7e9cd24146102cd5761012c565b80635ff3a382116100f45780635ff3a382146101d9578063626cb3c5146101f557806365fae35e14610213578063692450091461022f5780637bd2bea7146102395761012c565b806326e027f11461013157806329ae81141461014d57806336569e77146101695780634423c5f1146101875780634e8b1dd5146101bb575b600080fd5b61014b6004803603810190610146919061199d565b6103a1565b005b61016760048036038101906101629190611a00565b61060d565b005b6101716107db565b60405161017e9190611abf565b60405180910390f35b6101a1600480360381019061019c919061199d565b610801565b6040516101b2959493929190611b2b565b60405180910390f35b6101c361087b565b6040516101d09190611b7e565b60405180910390f35b6101f360048036038101906101ee9190611b99565b610893565b005b6101fd610f5d565b60405161020a9190611bec565b60405180910390f35b61022d60048036038101906102289190611c33565b610f83565b005b61023761104b565b005b610241611117565b60405161024e9190611c81565b60405180910390f35b61025f61113d565b60405161026c9190611c9c565b60405180910390f35b61027d611143565b60405161028a9190611c9c565b60405180910390f35b61029b611149565b6040516102a89190611c9c565b60405180910390f35b6102cb60048036038101906102c69190611c33565b61114f565b005b6102e760048036038101906102e29190611cb7565b611217565b6040516102f49190611c9c565b60405180910390f35b61031760048036038101906103129190611c33565b611492565b6040516103249190611c9c565b60405180910390f35b6103476004803603810190610342919061199d565b6114aa565b005b610351611735565b60405161035e9190611b7e565b60405180910390f35b61036f61174b565b60405161037c9190611c9c565b60405180910390f35b61039f600480360381019061039a919061199d565b611751565b005b6000600854146103e6576040517f08c379a00000000000000000000000000000000000000000000000000000000081526004016103dd90611d67565b60405180910390fd5b600073ffffffffffffffffffffffffffffffffffffffff166001600083815260200190815260200160002060020160009054906101000a900473ffffffffffffffffffffffffffffffffffffffff1673ffffffffffffffffffffffffffffffffffffffff16141561048c576040517f08c379a000000000000000000000000000000000000000000000000000000000815260040161048390611dd3565b60405180910390fd5b600260009054906101000a900473ffffffffffffffffffffffffffffffffffffffff1673ffffffffffffffffffffffffffffffffffffffff1663f24e23eb600960009054906101000a900473ffffffffffffffffffffffffffffffffffffffff166001600085815260200190815260200160002060020160009054906101000a900473ffffffffffffffffffffffffffffffffffffffff1660016000868152602001908152602001600020600001546040518463ffffffff1660e01b815260040161055993929190611df3565b600060405180830381600087803b15801561057357600080fd5b505af1158015610587573d6000803e3d6000fd5b505050506001600082815260200190815260200160002060008082016000905560018201600090556002820160006101000a81549073ffffffffffffffffffffffffffffffffffffffff02191690556002820160146101000a81549065ffffffffffff021916905560028201601a6101000a81549065ffffffffffff0219169055505050565b60016000803373ffffffffffffffffffffffffffffffffffffffff1673ffffffffffffffffffffffffffffffffffffffff168152602001908152602001600020541461068e576040517f08c379a000000000000000000000000000000000000000000000000000000000815260040161068590611e76565b60405180910390fd5b7f62656700000000000000000000000000000000000000000000000000000000008214156106c257806004819055506107d7565b7f70616400000000000000000000000000000000000000000000000000000000008214156106f657806005819055506107d6565b7f74746c00000000000000000000000000000000000000000000000000000000008214156107485780600660006101000a81548165ffffffffffff021916908365ffffffffffff1602179055506107d5565b7f746175000000000000000000000000000000000000000000000000000000000082141561079957806006806101000a81548165ffffffffffff021916908365ffffffffffff1602179055506107d4565b6040517f08c379a00000000000000000000000000000000000000000000000000000000081526004016107cb90611ee2565b60405180910390fd5b5b5b5b5050565b600260009054906101000a900473ffffffffffffffffffffffffffffffffffffffff1681565b60016020528060005260406000206000915090508060000154908060010154908060020160009054906101000a900473ffffffffffffffffffffffffffffffffffffffff16908060020160149054906101000a900465ffffffffffff169080600201601a9054906101000a900465ffffffffffff16905085565b600660009054906101000a900465ffffffffffff1681565b6001600854146108d8576040517f08c379a00000000000000000000000000000000000000000000000000000000081526004016108cf90611f4e565b60405180910390fd5b600073ffffffffffffffffffffffffffffffffffffffff166001600085815260200190815260200160002060020160009054906101000a900473ffffffffffffffffffffffffffffffffffffffff1673ffffffffffffffffffffffffffffffffffffffff16141561097e576040517f08c379a000000000000000000000000000000000000000000000000000000000815260040161097590611dd3565b60405180910390fd5b426001600085815260200190815260200160002060020160149054906101000a900465ffffffffffff1665ffffffffffff1611806109ec575060006001600085815260200190815260200160002060020160149054906101000a900465ffffffffffff1665ffffffffffff16145b610a2b576040517f08c379a0000000000000000000000000000000000000000000000000000000008152600401610a2290611fba565b60405180910390fd5b4260016000858152602001908152602001600020600201601a9054906101000a900465ffffffffffff1665ffffffffffff1611610a9d576040517f08c379a0000000000000000000000000000000000000000000000000000000008152600401610a9490612026565b60405180910390fd5b60016000848152602001908152602001600020600001548114610af5576040517f08c379a0000000000000000000000000000000000000000000000000000000008152600401610aec90612092565b60405180910390fd5b60016000848152602001908152602001600020600101548210610b4d576040517f08c379a0000000000000000000000000000000000000000000000000000000008152600401610b44906120fe565b60405180910390fd5b610b756001600085815260200190815260200160002060010154670de0b6b3a76400006118dc565b610b81600454846118dc565b1115610bc2576040517f08c379a0000000000000000000000000000000000000000000000000000000008152600401610bb99061216a565b60405180910390fd5b6001600084815260200190815260200160002060020160009054906101000a900473ffffffffffffffffffffffffffffffffffffffff1673ffffffffffffffffffffffffffffffffffffffff163373ffffffffffffffffffffffffffffffffffffffff1614610ee757600260009054906101000a900473ffffffffffffffffffffffffffffffffffffffff1673ffffffffffffffffffffffffffffffffffffffff1663bb35783b336001600087815260200190815260200160002060020160009054906101000a900473ffffffffffffffffffffffffffffffffffffffff16846040518463ffffffff1660e01b8152600401610cc093929190611df3565b600060405180830381600087803b158015610cda57600080fd5b505af1158015610cee573d6000803e3d6000fd5b5050505060006001600085815260200190815260200160002060020160149054906101000a900465ffffffffffff1665ffffffffffff161415610e915760006001600085815260200190815260200160002060020160009054906101000a900473ffffffffffffffffffffffffffffffffffffffff1673ffffffffffffffffffffffffffffffffffffffff16632a1d2b3c6040518163ffffffff1660e01b8152600401602060405180830381600087803b158015610dab57600080fd5b505af1158015610dbf573d6000803e3d6000fd5b505050506040513d601f19601f82011682018060405250810190610de3919061219f565b90506001600085815260200190815260200160002060020160009054906101000a900473ffffffffffffffffffffffffffffffffffffffff1673ffffffffffffffffffffffffffffffffffffffff16632506855a610e418484611913565b6040518263ffffffff1660e01b8152600401610e5d9190611c9c565b600060405180830381600087803b158015610e7757600080fd5b505af1158015610e8b573d6000803e3d6000fd5b50505050505b336001600085815260200190815260200160002060020160006101000a81548173ffffffffffffffffffffffffffffffffffffffff021916908373ffffffffffffffffffffffffffffffffffffffff1602179055505b816001600085815260200190815260200160002060010181905550610f2042600660009054906101000a900465ffffffffffff1661192f565b6001600085815260200190815260200160002060020160146101000a81548165ffffffffffff021916908365ffffffffffff160217905550505050565b600960009054906101000a900473ffffffffffffffffffffffffffffffffffffffff1681565b60016000803373ffffffffffffffffffffffffffffffffffffffff1673ffffffffffffffffffffffffffffffffffffffff1681526020019081526020016000205414611004576040517f08c379a0000000000000000000000000000000000000000000000000000000008152600401610ffb90611e76565b60405180910390fd5b60016000808373ffffffffffffffffffffffffffffffffffffffff1673ffffffffffffffffffffffffffffffffffffffff1681526020019081526020016000208190555050565b60016000803373ffffffffffffffffffffffffffffffffffffffff1673ffffffffffffffffffffffffffffffffffffffff16815260200190815260200160002054146110cc576040517f08c379a00000000000000000000000000000000000000000000000000000000081526004016110c390611e76565b60405180910390fd5b600060088190555033600960006101000a81548173ffffffffffffffffffffffffffffffffffffffff021916908373ffffffffffffffffffffffffffffffffffffffff160217905550565b600360009054906101000a900473ffffffffffffffffffffffffffffffffffffffff1681565b60045481565b60055481565b60085481565b60016000803373ffffffffffffffffffffffffffffffffffffffff1673ffffffffffffffffffffffffffffffffffffffff16815260200190815260200160002054146111d0576040517f08c379a00000000000000000000000000000000000000000000000000000000081526004016111c790611e76565b60405180910390fd5b60008060008373ffffffffffffffffffffffffffffffffffffffff1673ffffffffffffffffffffffffffffffffffffffff1681526020019081526020016000208190555050565b600060016000803373ffffffffffffffffffffffffffffffffffffffff1673ffffffffffffffffffffffffffffffffffffffff168152602001908152602001600020541461129a576040517f08c379a000000000000000000000000000000000000000000000000000000000815260040161129190611e76565b60405180910390fd5b6001600854146112df576040517f08c379a00000000000000000000000000000000000000000000000000000000081526004016112d690611f4e565b60405180910390fd5b7fffffffffffffffffffffffffffffffffffffffffffffffffffffffffffffffff60075410611343576040517f08c379a000000000000000000000000000000000000000000000000000000000815260040161133a90612218565b60405180910390fd5b60076000815461135290612267565b9190508190559050816001600083815260200190815260200160002060000181905550826001600083815260200190815260200160002060010181905550836001600083815260200190815260200160002060020160006101000a81548173ffffffffffffffffffffffffffffffffffffffff021916908373ffffffffffffffffffffffffffffffffffffffff1602179055506114014260068054906101000a900465ffffffffffff1661192f565b60016000838152602001908152602001600020600201601a6101000a81548165ffffffffffff021916908365ffffffffffff1602179055508373ffffffffffffffffffffffffffffffffffffffff167f7e8881001566f9f89aedb9c5dc3d856a2b81e5235a8196413ed484be91cc0df6828585604051611483939291906122b0565b60405180910390a29392505050565b60006020528060005260406000206000915090505481565b6001600854146114ef576040517f08c379a00000000000000000000000000000000000000000000000000000000081526004016114e690611f4e565b60405180910390fd5b60006001600083815260200190815260200160002060020160149054906101000a900465ffffffffffff1665ffffffffffff16141580156115995750426001600083815260200190815260200160002060020160149054906101000a900465ffffffffffff1665ffffffffffff16108061159857504260016000838152602001908152602001600020600201601a9054906101000a900465ffffffffffff1665ffffffffffff16105b5b6115d8576040517f08c379a00000000000000000000000000000000000000000000000000000000081526004016115cf90612333565b60405180910390fd5b600360009054906101000a900473ffffffffffffffffffffffffffffffffffffffff1673ffffffffffffffffffffffffffffffffffffffff166340c10f196001600084815260200190815260200160002060020160009054906101000a900473ffffffffffffffffffffffffffffffffffffffff1660016000858152602001908152602001600020600101546040518363ffffffff1660e01b8152600401611681929190612353565b600060405180830381600087803b15801561169b57600080fd5b505af11580156116af573d6000803e3d6000fd5b505050506001600082815260200190815260200160002060008082016000905560018201600090556002820160006101000a81549073ffffffffffffffffffffffffffffffffffffffff02191690556002820160146101000a81549065ffffffffffff021916905560028201601a6101000a81549065ffffffffffff0219169055505050565b60068054906101000a900465ffffffffffff1681565b60075481565b4260016000838152602001908152602001600020600201601a9054906101000a900465ffffffffffff1665ffffffffffff16106117c3576040517f08c379a00000000000000000000000000000000000000000000000000000000081526004016117ba90612333565b60405180910390fd5b60006001600083815260200190815260200160002060020160149054906101000a900465ffffffffffff1665ffffffffffff1614611836576040517f08c379a000000000000000000000000000000000000000000000000000000000815260040161182d906123c8565b60405180910390fd5b670de0b6b3a764000061186160055460016000858152602001908152602001600020600101546118dc565b61186b9190612417565b60016000838152602001908152602001600020600101819055506118a14260068054906101000a900465ffffffffffff1661192f565b60016000838152602001908152602001600020600201601a6101000a81548165ffffffffffff021916908365ffffffffffff16021790555050565b6000808214806119045750828283856118f59190612448565b9250826119029190612417565b145b61190d57600080fd5b92915050565b60008183111561192557819050611929565b8290505b92915050565b60008265ffffffffffff16828461194691906124a2565b91508165ffffffffffff16101561195c57600080fd5b92915050565b600080fd5b6000819050919050565b61197a81611967565b811461198557600080fd5b50565b60008135905061199781611971565b92915050565b6000602082840312156119b3576119b2611962565b5b60006119c184828501611988565b91505092915050565b6000819050919050565b6119dd816119ca565b81146119e857600080fd5b50565b6000813590506119fa816119d4565b92915050565b60008060408385031215611a1757611a16611962565b5b6000611a25858286016119eb565b9250506020611a3685828601611988565b9150509250929050565b600073ffffffffffffffffffffffffffffffffffffffff82169050919050565b6000819050919050565b6000611a85611a80611a7b84611a40565b611a60565b611a40565b9050919050565b6000611a9782611a6a565b9050919050565b6000611aa982611a8c565b9050919050565b611ab981611a9e565b82525050565b6000602082019050611ad46000830184611ab0565b92915050565b611ae381611967565b82525050565b6000611af482611a40565b9050919050565b611b0481611ae9565b82525050565b600065ffffffffffff82169050919050565b611b2581611b0a565b82525050565b600060a082019050611b406000830188611ada565b611b4d6020830187611ada565b611b5a6040830186611afb565b611b676060830185611b1c565b611b746080830184611b1c565b9695505050505050565b6000602082019050611b936000830184611b1c565b92915050565b600080600060608486031215611bb257611bb1611962565b5b6000611bc086828701611988565b9350506020611bd186828701611988565b9250506040611be286828701611988565b9150509250925092565b6000602082019050611c016000830184611afb565b92915050565b611c1081611ae9565b8114611c1b57600080fd5b50565b600081359050611c2d81611c07565b92915050565b600060208284031215611c4957611c48611962565b5b6000611c5784828501611c1e565b91505092915050565b6000611c6b82611a8c565b9050919050565b611c7b81611c60565b82525050565b6000602082019050611c966000830184611c72565b92915050565b6000602082019050611cb16000830184611ada565b92915050565b600080600060608486031215611cd057611ccf611962565b5b6000611cde86828701611c1e565b9350506020611cef86828701611988565b9250506040611d0086828701611988565b9150509250925092565b600082825260208201905092915050565b7f466c6f707065722f7374696c6c2d6c6976650000000000000000000000000000600082015250565b6000611d51601283611d0a565b9150611d5c82611d1b565b602082019050919050565b60006020820190508181036000830152611d8081611d44565b9050919050565b7f466c6f707065722f6775792d6e6f742d73657400000000000000000000000000600082015250565b6000611dbd601383611d0a565b9150611dc882611d87565b602082019050919050565b60006020820190508181036000830152611dec81611db0565b9050919050565b6000606082019050611e086000830186611afb565b611e156020830185611afb565b611e226040830184611ada565b949350505050565b7f466c6f707065722f6e6f742d617574686f72697a656400000000000000000000600082015250565b6000611e60601683611d0a565b9150611e6b82611e2a565b602082019050919050565b60006020820190508181036000830152611e8f81611e53565b9050919050565b7f466c6f707065722f66696c652d756e7265636f676e697a65642d706172616d00600082015250565b6000611ecc601f83611d0a565b9150611ed782611e96565b602082019050919050565b60006020820190508181036000830152611efb81611ebf565b9050919050565b7f466c6f707065722f6e6f742d6c69766500000000000000000000000000000000600082015250565b6000611f38601083611d0a565b9150611f4382611f02565b602082019050919050565b60006020820190508181036000830152611f6781611f2b565b9050919050565b7f466c6f707065722f616c72656164792d66696e69736865642d74696300000000600082015250565b6000611fa4601c83611d0a565b9150611faf82611f6e565b602082019050919050565b60006020820190508181036000830152611fd381611f97565b9050919050565b7f466c6f707065722f616c72656164792d66696e69736865642d656e6400000000600082015250565b6000612010601c83611d0a565b915061201b82611fda565b602082019050919050565b6000602082019050818103600083015261203f81612003565b9050919050565b7f466c6f707065722f6e6f742d6d61746368696e672d6269640000000000000000600082015250565b600061207c601883611d0a565b915061208782612046565b602082019050919050565b600060208201905081810360008301526120ab8161206f565b9050919050565b7f466c6f707065722f6c6f742d6e6f742d6c6f7765720000000000000000000000600082015250565b60006120e8601583611d0a565b91506120f3826120b2565b602082019050919050565b60006020820190508181036000830152612117816120db565b9050919050565b7f466c6f707065722f696e73756666696369656e742d6465637265617365000000600082015250565b6000612154601d83611d0a565b915061215f8261211e565b602082019050919050565b6000602082019050818103600083015261218381612147565b9050919050565b60008151905061219981611971565b92915050565b6000602082840312156121b5576121b4611962565b5b60006121c38482850161218a565b91505092915050565b7f466c6f707065722f6f766572666c6f7700000000000000000000000000000000600082015250565b6000612202601083611d0a565b915061220d826121cc565b602082019050919050565b60006020820190508181036000830152612231816121f5565b9050919050565b7f4e487b7100000000000000000000000000000000000000000000000000000000600052601160045260246000fd5b600061227282611967565b91507fffffffffffffffffffffffffffffffffffffffffffffffffffffffffffffffff8214156122a5576122a4612238565b5b600182019050919050565b60006060820190506122c56000830186611ada565b6122d26020830185611ada565b6122df6040830184611ada565b949350505050565b7f466c6f707065722f6e6f742d66696e6973686564000000000000000000000000600082015250565b600061231d601483611d0a565b9150612328826122e7565b602082019050919050565b6000602082019050818103600083015261234c81612310565b9050919050565b60006040820190506123686000830185611afb565b6123756020830184611ada565b9392505050565b7f466c6f707065722f6269642d616c72656164792d706c61636564000000000000600082015250565b60006123b2601a83611d0a565b91506123bd8261237c565b602082019050919050565b600060208201905081810360008301526123e1816123a5565b9050919050565b7f4e487b7100000000000000000000000000000000000000000000000000000000600052601260045260246000fd5b600061242282611967565b915061242d83611967565b92508261243d5761243c6123e8565b5b828204905092915050565b600061245382611967565b915061245e83611967565b9250817fffffffffffffffffffffffffffffffffffffffffffffffffffffffffffffffff048311821515161561249757612496612238565b5b828202905092915050565b60006124ad82611b0a565b91506124b883611b0a565b92508265ffffffffffff038211156124d3576124d2612238565b5b82820190509291505056fea264697066735822122072f259a819f6a851b4dd3591dc8dd0dcce23a32b914917104e4581f2dafb9ae564736f6c63430008090033",
  "linkReferences": {},
  "deployedLinkReferences": {}
}