{
  "_format": "hh-sol-artifact-1",
  "contractName": "Dog",
  "sourceName": "contracts/protocol/liquidation/dog.sol",
  "abi": [
    {
      "inputs": [
        {
          "internalType": "address",
          "name": "vat_",
          "type": "address"
        }
      ],
      "stateMutability": "nonpayable",
      "type": "constructor"
    },
    {
      "anonymous": false,
      "inputs": [
        {
          "indexed": true,
          "internalType": "bytes32",
          "name": "ilk",
          "type": "bytes32"
        },
        {
          "indexed": true,
          "internalType": "address",
          "name": "urn",
          "type": "address"
        },
        {
          "indexed": false,
          "internalType": "uint256",
          "name": "ink",
          "type": "uint256"
        },
        {
          "indexed": false,
          "internalType": "uint256",
          "name": "art",
          "type": "uint256"
        },
        {
          "indexed": false,
          "internalType": "uint256",
          "name": "due",
          "type": "uint256"
        },
        {
          "indexed": false,
          "internalType": "address",
          "name": "clip",
          "type": "address"
        },
        {
          "indexed": true,
          "internalType": "uint256",
          "name": "id",
          "type": "uint256"
        }
      ],
      "name": "Bark",
      "type": "event"
    },
    {
      "anonymous": false,
      "inputs": [],
      "name": "Cage",
      "type": "event"
    },
    {
      "anonymous": false,
      "inputs": [
        {
          "indexed": true,
          "internalType": "address",
          "name": "usr",
          "type": "address"
        }
      ],
      "name": "Deny",
      "type": "event"
    },
    {
      "anonymous": false,
      "inputs": [
        {
          "indexed": true,
          "internalType": "bytes32",
          "name": "ilk",
          "type": "bytes32"
        },
        {
          "indexed": false,
          "internalType": "uint256",
          "name": "rad",
          "type": "uint256"
        }
      ],
      "name": "Digs",
      "type": "event"
    },
    {
      "anonymous": false,
      "inputs": [
        {
          "indexed": true,
          "internalType": "bytes32",
          "name": "what",
          "type": "bytes32"
        },
        {
          "indexed": false,
          "internalType": "uint256",
          "name": "data",
          "type": "uint256"
        }
      ],
      "name": "File",
      "type": "event"
    },
    {
      "anonymous": false,
      "inputs": [
        {
          "indexed": true,
          "internalType": "bytes32",
          "name": "what",
          "type": "bytes32"
        },
        {
          "indexed": false,
          "internalType": "address",
          "name": "data",
          "type": "address"
        }
      ],
      "name": "File",
      "type": "event"
    },
    {
      "anonymous": false,
      "inputs": [
        {
          "indexed": true,
          "internalType": "bytes32",
          "name": "ilk",
          "type": "bytes32"
        },
        {
          "indexed": true,
          "internalType": "bytes32",
          "name": "what",
          "type": "bytes32"
        },
        {
          "indexed": false,
          "internalType": "uint256",
          "name": "data",
          "type": "uint256"
        }
      ],
      "name": "File",
      "type": "event"
    },
    {
      "anonymous": false,
      "inputs": [
        {
          "indexed": true,
          "internalType": "bytes32",
          "name": "ilk",
          "type": "bytes32"
        },
        {
          "indexed": true,
          "internalType": "bytes32",
          "name": "what",
          "type": "bytes32"
        },
        {
          "indexed": false,
          "internalType": "address",
          "name": "clip",
          "type": "address"
        }
      ],
      "name": "File",
      "type": "event"
    },
    {
      "anonymous": false,
      "inputs": [
        {
          "indexed": true,
          "internalType": "address",
          "name": "usr",
          "type": "address"
        }
      ],
      "name": "Rely",
      "type": "event"
    },
    {
      "inputs": [],
      "name": "Dirt",
      "outputs": [
        {
          "internalType": "uint256",
          "name": "",
          "type": "uint256"
        }
      ],
      "stateMutability": "view",
      "type": "function"
    },
    {
      "inputs": [],
      "name": "Hole",
      "outputs": [
        {
          "internalType": "uint256",
          "name": "",
          "type": "uint256"
        }
      ],
      "stateMutability": "view",
      "type": "function"
    },
    {
      "inputs": [
        {
          "internalType": "bytes32",
          "name": "ilk",
          "type": "bytes32"
        },
        {
          "internalType": "address",
          "name": "urn",
          "type": "address"
        },
        {
          "internalType": "address",
          "name": "kpr",
          "type": "address"
        }
      ],
      "name": "bark",
      "outputs": [
        {
          "internalType": "uint256",
          "name": "id",
          "type": "uint256"
        }
      ],
      "stateMutability": "nonpayable",
      "type": "function"
    },
    {
      "inputs": [],
      "name": "cage",
      "outputs": [],
      "stateMutability": "nonpayable",
      "type": "function"
    },
    {
      "inputs": [
        {
          "internalType": "bytes32",
          "name": "ilk",
          "type": "bytes32"
        }
      ],
      "name": "chop",
      "outputs": [
        {
          "internalType": "uint256",
          "name": "",
          "type": "uint256"
        }
      ],
      "stateMutability": "view",
      "type": "function"
    },
    {
      "inputs": [
        {
          "internalType": "address",
          "name": "usr",
          "type": "address"
        }
      ],
      "name": "deny",
      "outputs": [],
      "stateMutability": "nonpayable",
      "type": "function"
    },
    {
      "inputs": [
        {
          "internalType": "bytes32",
          "name": "ilk",
          "type": "bytes32"
        },
        {
          "internalType": "uint256",
          "name": "rad",
          "type": "uint256"
        }
      ],
      "name": "digs",
      "outputs": [],
      "stateMutability": "nonpayable",
      "type": "function"
    },
    {
      "inputs": [
        {
          "internalType": "bytes32",
          "name": "ilk",
          "type": "bytes32"
        },
        {
          "internalType": "bytes32",
          "name": "what",
          "type": "bytes32"
        },
        {
          "internalType": "uint256",
          "name": "data",
          "type": "uint256"
        }
      ],
      "name": "file",
      "outputs": [],
      "stateMutability": "nonpayable",
      "type": "function"
    },
    {
      "inputs": [
        {
          "internalType": "bytes32",
          "name": "what",
          "type": "bytes32"
        },
        {
          "internalType": "uint256",
          "name": "data",
          "type": "uint256"
        }
      ],
      "name": "file",
      "outputs": [],
      "stateMutability": "nonpayable",
      "type": "function"
    },
    {
      "inputs": [
        {
          "internalType": "bytes32",
          "name": "what",
          "type": "bytes32"
        },
        {
          "internalType": "address",
          "name": "data",
          "type": "address"
        }
      ],
      "name": "file",
      "outputs": [],
      "stateMutability": "nonpayable",
      "type": "function"
    },
    {
      "inputs": [
        {
          "internalType": "bytes32",
          "name": "ilk",
          "type": "bytes32"
        },
        {
          "internalType": "bytes32",
          "name": "what",
          "type": "bytes32"
        },
        {
          "internalType": "address",
          "name": "clip",
          "type": "address"
        }
      ],
      "name": "file",
      "outputs": [],
      "stateMutability": "nonpayable",
      "type": "function"
    },
    {
      "inputs": [
        {
          "internalType": "bytes32",
          "name": "",
          "type": "bytes32"
        }
      ],
      "name": "ilks",
      "outputs": [
        {
          "internalType": "address",
          "name": "clip",
          "type": "address"
        },
        {
          "internalType": "uint256",
          "name": "chop",
          "type": "uint256"
        },
        {
          "internalType": "uint256",
          "name": "hole",
          "type": "uint256"
        },
        {
          "internalType": "uint256",
          "name": "dirt",
          "type": "uint256"
        }
      ],
      "stateMutability": "view",
      "type": "function"
    },
    {
      "inputs": [],
      "name": "live",
      "outputs": [
        {
          "internalType": "uint256",
          "name": "",
          "type": "uint256"
        }
      ],
      "stateMutability": "view",
      "type": "function"
    },
    {
      "inputs": [
        {
          "internalType": "address",
          "name": "usr",
          "type": "address"
        }
      ],
      "name": "rely",
      "outputs": [],
      "stateMutability": "nonpayable",
      "type": "function"
    },
    {
      "inputs": [],
      "name": "vat",
      "outputs": [
        {
          "internalType": "contract VatLike",
          "name": "",
          "type": "address"
        }
      ],
      "stateMutability": "view",
      "type": "function"
    },
    {
      "inputs": [],
      "name": "vow",
      "outputs": [
        {
          "internalType": "contract VowLike",
          "name": "",
          "type": "address"
        }
      ],
      "stateMutability": "view",
      "type": "function"
    },
    {
      "inputs": [
        {
          "internalType": "address",
          "name": "",
          "type": "address"
        }
      ],
      "name": "wards",
      "outputs": [
        {
          "internalType": "uint256",
          "name": "",
          "type": "uint256"
        }
      ],
      "stateMutability": "view",
      "type": "function"
    }
  ],
  "bytecode": "0x60a06040523480156200001157600080fd5b50604051620025803803806200258083398181016040528101906200003791906200016b565b8073ffffffffffffffffffffffffffffffffffffffff1660808173ffffffffffffffffffffffffffffffffffffffff1681525050600160038190555060016000803373ffffffffffffffffffffffffffffffffffffffff1673ffffffffffffffffffffffffffffffffffffffff168152602001908152602001600020819055503373ffffffffffffffffffffffffffffffffffffffff167fdd0e34038ac38b2a1ce960229778ac48a8719bc900b6c4f8d0475c6e8b385a6060405160405180910390a2506200019d565b600080fd5b600073ffffffffffffffffffffffffffffffffffffffff82169050919050565b6000620001338262000106565b9050919050565b620001458162000126565b81146200015157600080fd5b50565b60008151905062000165816200013a565b92915050565b60006020828403121562000184576200018362000101565b5b6000620001948482850162000154565b91505092915050565b6080516123b2620001ce6000396000818161063b01528181610eda01528181611024015261136701526123b26000f3fe608060405234801561001057600080fd5b506004361061010b5760003560e01c8063af7cfeb1116100a2578063d792653811610071578063d79265381461026a578063d9638d361461029a578063ebecb39d146102cd578063ed998908146102e9578063eda6e121146103195761010b565b8063af7cfeb1146101e4578063bf353dbb14610202578063c87193f414610232578063d4e8be831461024e5761010b565b806365fae35e116100de57806365fae35e1461018457806369245009146101a0578063957aa58c146101aa5780639c52a7f1146101c85761010b565b80631a0b287e1461011057806329ae81141461012c57806336569e7714610148578063626cb3c514610166575b600080fd5b61012a6004803603810190610125919061173b565b610337565b005b6101466004803603810190610141919061178e565b61050d565b005b610150610639565b60405161015d919061184d565b60405180910390f35b61016e61065d565b60405161017b9190611889565b60405180910390f35b61019e600480360381019061019991906118e2565b610683565b005b6101a861078e565b005b6101b2610845565b6040516101bf919061191e565b60405180910390f35b6101e260048036038101906101dd91906118e2565b61084b565b005b6101ec610956565b6040516101f9919061191e565b60405180910390f35b61021c600480360381019061021791906118e2565b61095c565b604051610229919061191e565b60405180910390f35b61024c6004803603810190610247919061178e565b610974565b005b61026860048036038101906102639190611939565b610a7d565b005b610284600480360381019061027f9190611979565b610be3565b604051610291919061191e565b60405180910390f35b6102b460048036038101906102af9190611979565b610c03565b6040516102c494939291906119b5565b60405180910390f35b6102e760048036038101906102e291906119fa565b610c53565b005b61030360048036038101906102fe9190611a4d565b610e8e565b604051610310919061191e565b60405180910390f35b61032161162d565b60405161032e919061191e565b60405180910390f35b60016000803373ffffffffffffffffffffffffffffffffffffffff1673ffffffffffffffffffffffffffffffffffffffff16815260200190815260200160002054146103b8576040517f08c379a00000000000000000000000000000000000000000000000000000000081526004016103af90611afd565b60405180910390fd5b7f63686f700000000000000000000000000000000000000000000000000000000082141561044b57670de0b6b3a764000081101561042b576040517f08c379a000000000000000000000000000000000000000000000000000000000815260040161042290611b69565b60405180910390fd5b8060016000858152602001908152602001600020600101819055506104cf565b7f686f6c6500000000000000000000000000000000000000000000000000000000821415610493578060016000858152602001908152602001600020600201819055506104ce565b6040517f08c379a00000000000000000000000000000000000000000000000000000000081526004016104c590611bd5565b60405180910390fd5b5b81837f851aa1caf4888170ad8875449d18f0f512fd6deb2a6571ea1a41fb9f95acbcd183604051610500919061191e565b60405180910390a3505050565b60016000803373ffffffffffffffffffffffffffffffffffffffff1673ffffffffffffffffffffffffffffffffffffffff168152602001908152602001600020541461058e576040517f08c379a000000000000000000000000000000000000000000000000000000000815260040161058590611afd565b60405180910390fd5b7f486f6c65000000000000000000000000000000000000000000000000000000008214156105c257806004819055506105fd565b6040517f08c379a00000000000000000000000000000000000000000000000000000000081526004016105f490611bd5565b60405180910390fd5b817fe986e40cc8c151830d4f61050f4fb2e4add8567caad2d5f5496f9158e91fe4c78260405161062d919061191e565b60405180910390a25050565b7f000000000000000000000000000000000000000000000000000000000000000081565b600260009054906101000a900473ffffffffffffffffffffffffffffffffffffffff1681565b60016000803373ffffffffffffffffffffffffffffffffffffffff1673ffffffffffffffffffffffffffffffffffffffff1681526020019081526020016000205414610704576040517f08c379a00000000000000000000000000000000000000000000000000000000081526004016106fb90611afd565b60405180910390fd5b60016000808373ffffffffffffffffffffffffffffffffffffffff1673ffffffffffffffffffffffffffffffffffffffff168152602001908152602001600020819055508073ffffffffffffffffffffffffffffffffffffffff167fdd0e34038ac38b2a1ce960229778ac48a8719bc900b6c4f8d0475c6e8b385a6060405160405180910390a250565b60016000803373ffffffffffffffffffffffffffffffffffffffff1673ffffffffffffffffffffffffffffffffffffffff168152602001908152602001600020541461080f576040517f08c379a000000000000000000000000000000000000000000000000000000000815260040161080690611afd565b60405180910390fd5b60006003819055507f2308ed18a14e800c39b86eb6ea43270105955ca385b603b64eca89f98ae8fbda60405160405180910390a1565b60035481565b60016000803373ffffffffffffffffffffffffffffffffffffffff1673ffffffffffffffffffffffffffffffffffffffff16815260200190815260200160002054146108cc576040517f08c379a00000000000000000000000000000000000000000000000000000000081526004016108c390611afd565b60405180910390fd5b60008060008373ffffffffffffffffffffffffffffffffffffffff1673ffffffffffffffffffffffffffffffffffffffff168152602001908152602001600020819055508073ffffffffffffffffffffffffffffffffffffffff167f184450df2e323acec0ed3b5c7531b81f9b4cdef7914dfd4c0a4317416bb5251b60405160405180910390a250565b60045481565b60006020528060005260406000206000915090505481565b60016000803373ffffffffffffffffffffffffffffffffffffffff1673ffffffffffffffffffffffffffffffffffffffff16815260200190815260200160002054146109f5576040517f08c379a00000000000000000000000000000000000000000000000000000000081526004016109ec90611afd565b60405180910390fd5b610a0160055482611633565b600581905550610a27600160008481526020019081526020016000206003015482611633565b6001600084815260200190815260200160002060030181905550817f54f095dc7308776bf01e8580e4dd40fd959ea4bf50b069975768320ef8d77d8a82604051610a71919061191e565b60405180910390a25050565b60016000803373ffffffffffffffffffffffffffffffffffffffff1673ffffffffffffffffffffffffffffffffffffffff1681526020019081526020016000205414610afe576040517f08c379a0000000000000000000000000000000000000000000000000000000008152600401610af590611afd565b60405180910390fd5b7f766f770000000000000000000000000000000000000000000000000000000000821415610b6c5780600260006101000a81548173ffffffffffffffffffffffffffffffffffffffff021916908373ffffffffffffffffffffffffffffffffffffffff160217905550610ba7565b6040517f08c379a0000000000000000000000000000000000000000000000000000000008152600401610b9e90611bd5565b60405180910390fd5b817f8fef588b5fc1afbf5b2f06c1a435d513f208da2e6704c3d8f0e0ec91167066ba82604051610bd79190611bf5565b60405180910390a25050565b600060016000838152602001908152602001600020600101549050919050565b60016020528060005260406000206000915090508060000160009054906101000a900473ffffffffffffffffffffffffffffffffffffffff16908060010154908060020154908060030154905084565b60016000803373ffffffffffffffffffffffffffffffffffffffff1673ffffffffffffffffffffffffffffffffffffffff1681526020019081526020016000205414610cd4576040517f08c379a0000000000000000000000000000000000000000000000000000000008152600401610ccb90611afd565b60405180910390fd5b7f636c697000000000000000000000000000000000000000000000000000000000821415610e15578073ffffffffffffffffffffffffffffffffffffffff1663c5ce281e6040518163ffffffff1660e01b815260040160206040518083038186803b158015610d4257600080fd5b505afa158015610d56573d6000803e3d6000fd5b505050506040513d601f19601f82011682018060405250810190610d7a9190611c25565b8314610dbb576040517f08c379a0000000000000000000000000000000000000000000000000000000008152600401610db290611c9e565b60405180910390fd5b806001600085815260200190815260200160002060000160006101000a81548173ffffffffffffffffffffffffffffffffffffffff021916908373ffffffffffffffffffffffffffffffffffffffff160217905550610e50565b6040517f08c379a0000000000000000000000000000000000000000000000000000000008152600401610e4790611bd5565b60405180910390fd5b81837f4ff2caaa972a7c6629ea01fae9c93d73cc307d13ea4c369f9bbbb7f9b7e9461d83604051610e819190611bf5565b60405180910390a3505050565b6000600160035414610ed5576040517f08c379a0000000000000000000000000000000000000000000000000000000008152600401610ecc90611d0a565b60405180910390fd5b6000807f000000000000000000000000000000000000000000000000000000000000000073ffffffffffffffffffffffffffffffffffffffff16632424be5c87876040518363ffffffff1660e01b8152600401610f33929190611d39565b604080518083038186803b158015610f4a57600080fd5b505afa158015610f5e573d6000803e3d6000fd5b505050506040513d601f19601f82011682018060405250810190610f829190611d77565b915091506000600160008881526020019081526020016000206040518060800160405290816000820160009054906101000a900473ffffffffffffffffffffffffffffffffffffffff1673ffffffffffffffffffffffffffffffffffffffff1673ffffffffffffffffffffffffffffffffffffffff168152602001600182015481526020016002820154815260200160038201548152505090506000806000807f000000000000000000000000000000000000000000000000000000000000000073ffffffffffffffffffffffffffffffffffffffff1663d9638d368c6040518263ffffffff1660e01b815260040161107b9190611db7565b60a06040518083038186803b15801561109357600080fd5b505afa1580156110a7573d6000803e3d6000fd5b505050506040513d601f19601f820116820180604052508101906110cb9190611dd2565b909192935090508094508193508295505050506000811180156110ff57506110f38684611656565b6110fd8883611656565b105b61113e576040517f08c379a000000000000000000000000000000000000000000000000000000000815260040161113590611e99565b60405180910390fd5b600554600454118015611158575084606001518560400151115b611197576040517f08c379a000000000000000000000000000000000000000000000000000000000815260040161118e90611f05565b60405180910390fd5b60006111c56005546004546111ac9190611f54565b876060015188604001516111c09190611f54565b61168d565b90506111fc878760200151866111e385670de0b6b3a7640000611656565b6111ed9190611fb7565b6111f79190611fb7565b61168d565b945084871115611278578261121c86896112169190611f54565b86611656565b101561122a57869450611277565b826112358686611656565b1015611276576040517f08c379a000000000000000000000000000000000000000000000000000000000815260040161126d9061205a565b60405180910390fd5b5b5b50506000856112878886611656565b6112919190611fb7565b9050600081116112d6576040517f08c379a00000000000000000000000000000000000000000000000000000000081526004016112cd906120c6565b60405180910390fd5b7f8000000000000000000000000000000000000000000000000000000000000000841115801561132657507f80000000000000000000000000000000000000000000000000000000000000008111155b611365576040517f08c379a000000000000000000000000000000000000000000000000000000000815260040161135c90612132565b60405180910390fd5b7f000000000000000000000000000000000000000000000000000000000000000073ffffffffffffffffffffffffffffffffffffffff16637bab3f408c8c8860000151600260009054906101000a900473ffffffffffffffffffffffffffffffffffffffff16866113d59061215c565b8a6113df9061215c565b6040518763ffffffff1660e01b8152600401611400969594939291906121b4565b600060405180830381600087803b15801561141a57600080fd5b505af115801561142e573d6000803e3d6000fd5b50505050600061143e8585611656565b9050600260009054906101000a900473ffffffffffffffffffffffffffffffffffffffff1673ffffffffffffffffffffffffffffffffffffffff1663697efb78826040518263ffffffff1660e01b815260040161149b919061191e565b600060405180830381600087803b1580156114b557600080fd5b505af11580156114c9573d6000803e3d6000fd5b505050506000670de0b6b3a76400006114e6838960200151611656565b6114f09190611fb7565b90506114fe600554826116a7565b6005819055506115128760600151826116a7565b600160008f815260200190815260200160002060030181905550866000015173ffffffffffffffffffffffffffffffffffffffff1663898eb26782858f8f6040518563ffffffff1660e01b815260040161156f9493929190612215565b602060405180830381600087803b15801561158957600080fd5b505af115801561159d573d6000803e3d6000fd5b505050506040513d601f19601f820116820180604052508101906115c1919061225a565b995050888b73ffffffffffffffffffffffffffffffffffffffff168d7f85258d09e1e4ef299ff3fc11e74af99563f022d21f3f940db982229dc2a3358c8589868c600001516040516116169493929190612287565b60405180910390a450505050505050509392505050565b60055481565b60008282846116429190611f54565b915081111561165057600080fd5b92915050565b60008082148061167e57508282838561166f91906122cc565b92508261167c9190611fb7565b145b61168757600080fd5b92915050565b60008183111561169d578161169f565b825b905092915050565b60008282846116b69190612326565b91508110156116c457600080fd5b92915050565b600080fd5b6000819050919050565b6116e2816116cf565b81146116ed57600080fd5b50565b6000813590506116ff816116d9565b92915050565b6000819050919050565b61171881611705565b811461172357600080fd5b50565b6000813590506117358161170f565b92915050565b600080600060608486031215611754576117536116ca565b5b6000611762868287016116f0565b9350506020611773868287016116f0565b925050604061178486828701611726565b9150509250925092565b600080604083850312156117a5576117a46116ca565b5b60006117b3858286016116f0565b92505060206117c485828601611726565b9150509250929050565b600073ffffffffffffffffffffffffffffffffffffffff82169050919050565b6000819050919050565b600061181361180e611809846117ce565b6117ee565b6117ce565b9050919050565b6000611825826117f8565b9050919050565b60006118378261181a565b9050919050565b6118478161182c565b82525050565b6000602082019050611862600083018461183e565b92915050565b60006118738261181a565b9050919050565b61188381611868565b82525050565b600060208201905061189e600083018461187a565b92915050565b60006118af826117ce565b9050919050565b6118bf816118a4565b81146118ca57600080fd5b50565b6000813590506118dc816118b6565b92915050565b6000602082840312156118f8576118f76116ca565b5b6000611906848285016118cd565b91505092915050565b61191881611705565b82525050565b6000602082019050611933600083018461190f565b92915050565b600080604083850312156119505761194f6116ca565b5b600061195e858286016116f0565b925050602061196f858286016118cd565b9150509250929050565b60006020828403121561198f5761198e6116ca565b5b600061199d848285016116f0565b91505092915050565b6119af816118a4565b82525050565b60006080820190506119ca60008301876119a6565b6119d7602083018661190f565b6119e4604083018561190f565b6119f1606083018461190f565b95945050505050565b600080600060608486031215611a1357611a126116ca565b5b6000611a21868287016116f0565b9350506020611a32868287016116f0565b9250506040611a43868287016118cd565b9150509250925092565b600080600060608486031215611a6657611a656116ca565b5b6000611a74868287016116f0565b9350506020611a85868287016118cd565b9250506040611a96868287016118cd565b9150509250925092565b600082825260208201905092915050565b7f446f672f6e6f742d617574686f72697a65640000000000000000000000000000600082015250565b6000611ae7601283611aa0565b9150611af282611ab1565b602082019050919050565b60006020820190508181036000830152611b1681611ada565b9050919050565b7f446f672f66696c652d63686f702d6c742d574144000000000000000000000000600082015250565b6000611b53601483611aa0565b9150611b5e82611b1d565b602082019050919050565b60006020820190508181036000830152611b8281611b46565b9050919050565b7f446f672f66696c652d756e7265636f676e697a65642d706172616d0000000000600082015250565b6000611bbf601b83611aa0565b9150611bca82611b89565b602082019050919050565b60006020820190508181036000830152611bee81611bb2565b9050919050565b6000602082019050611c0a60008301846119a6565b92915050565b600081519050611c1f816116d9565b92915050565b600060208284031215611c3b57611c3a6116ca565b5b6000611c4984828501611c10565b91505092915050565b7f446f672f66696c652d696c6b2d6e65712d636c69702e696c6b00000000000000600082015250565b6000611c88601983611aa0565b9150611c9382611c52565b602082019050919050565b60006020820190508181036000830152611cb781611c7b565b9050919050565b7f446f672f6e6f742d6c6976650000000000000000000000000000000000000000600082015250565b6000611cf4600c83611aa0565b9150611cff82611cbe565b602082019050919050565b60006020820190508181036000830152611d2381611ce7565b9050919050565b611d33816116cf565b82525050565b6000604082019050611d4e6000830185611d2a565b611d5b60208301846119a6565b9392505050565b600081519050611d718161170f565b92915050565b60008060408385031215611d8e57611d8d6116ca565b5b6000611d9c85828601611d62565b9250506020611dad85828601611d62565b9150509250929050565b6000602082019050611dcc6000830184611d2a565b92915050565b600080600080600060a08688031215611dee57611ded6116ca565b5b6000611dfc88828901611d62565b9550506020611e0d88828901611d62565b9450506040611e1e88828901611d62565b9350506060611e2f88828901611d62565b9250506080611e4088828901611d62565b9150509295509295909350565b7f446f672f6e6f742d756e73616665000000000000000000000000000000000000600082015250565b6000611e83600e83611aa0565b9150611e8e82611e4d565b602082019050919050565b60006020820190508181036000830152611eb281611e76565b9050919050565b7f446f672f6c69717569646174696f6e2d6c696d69742d68697400000000000000600082015250565b6000611eef601983611aa0565b9150611efa82611eb9565b602082019050919050565b60006020820190508181036000830152611f1e81611ee2565b9050919050565b7f4e487b7100000000000000000000000000000000000000000000000000000000600052601160045260246000fd5b6000611f5f82611705565b9150611f6a83611705565b925082821015611f7d57611f7c611f25565b5b828203905092915050565b7f4e487b7100000000000000000000000000000000000000000000000000000000600052601260045260246000fd5b6000611fc282611705565b9150611fcd83611705565b925082611fdd57611fdc611f88565b5b828204905092915050565b7f446f672f64757374792d61756374696f6e2d66726f6d2d7061727469616c2d6c60008201527f69717569646174696f6e00000000000000000000000000000000000000000000602082015250565b6000612044602a83611aa0565b915061204f82611fe8565b604082019050919050565b6000602082019050818103600083015261207381612037565b9050919050565b7f446f672f6e756c6c2d61756374696f6e00000000000000000000000000000000600082015250565b60006120b0601083611aa0565b91506120bb8261207a565b602082019050919050565b600060208201905081810360008301526120df816120a3565b9050919050565b7f446f672f6f766572666c6f770000000000000000000000000000000000000000600082015250565b600061211c600c83611aa0565b9150612127826120e6565b602082019050919050565b6000602082019050818103600083015261214b8161210f565b9050919050565b6000819050919050565b600061216782612152565b91507f800000000000000000000000000000000000000000000000000000000000000082141561219a57612199611f25565b5b816000039050919050565b6121ae81612152565b82525050565b600060c0820190506121c96000830189611d2a565b6121d660208301886119a6565b6121e360408301876119a6565b6121f060608301866119a6565b6121fd60808301856121a5565b61220a60a08301846121a5565b979650505050505050565b600060808201905061222a600083018761190f565b612237602083018661190f565b61224460408301856119a6565b61225160608301846119a6565b95945050505050565b6000602082840312156122705761226f6116ca565b5b600061227e84828501611d62565b91505092915050565b600060808201905061229c600083018761190f565b6122a9602083018661190f565b6122b6604083018561190f565b6122c360608301846119a6565b95945050505050565b60006122d782611705565b91506122e283611705565b9250817fffffffffffffffffffffffffffffffffffffffffffffffffffffffffffffffff048311821515161561231b5761231a611f25565b5b828202905092915050565b600061233182611705565b915061233c83611705565b9250827fffffffffffffffffffffffffffffffffffffffffffffffffffffffffffffffff0382111561237157612370611f25565b5b82820190509291505056fea2646970667358221220064e16326f2276f7f7af2fbdb777053e2ce7c83ad80625dfd362c3793e28346064736f6c63430008090033",
  "linkReferences": {},
  "deployedLinkReferences": {}
}