{
  "_format": "hh-sol-artifact-1",
  "contractName": "BadgeSystem",
  "sourceName": "contracts/marketplace/badges.sol",
  "abi": [
    {
      "inputs": [
        {
          "internalType": "string",
          "name": "_uri",
          "type": "string"
        }
      ],
      "stateMutability": "nonpayable",
      "type": "constructor"
    },
    {
      "anonymous": false,
      "inputs": [
        {
          "indexed": true,
          "internalType": "address",
          "name": "account",
          "type": "address"
        },
        {
          "indexed": true,
          "internalType": "address",
          "name": "operator",
          "type": "address"
        },
        {
          "indexed": false,
          "internalType": "bool",
          "name": "approved",
          "type": "bool"
        }
      ],
      "name": "ApprovalForAll",
      "type": "event"
    },
    {
      "anonymous": false,
      "inputs": [
        {
          "indexed": true,
          "internalType": "bytes32",
          "name": "role",
          "type": "bytes32"
        },
        {
          "indexed": true,
          "internalType": "bytes32",
          "name": "previousAdminRole",
          "type": "bytes32"
        },
        {
          "indexed": true,
          "internalType": "bytes32",
          "name": "newAdminRole",
          "type": "bytes32"
        }
      ],
      "name": "RoleAdminChanged",
      "type": "event"
    },
    {
      "anonymous": false,
      "inputs": [
        {
          "indexed": true,
          "internalType": "bytes32",
          "name": "role",
          "type": "bytes32"
        },
        {
          "indexed": true,
          "internalType": "address",
          "name": "account",
          "type": "address"
        },
        {
          "indexed": true,
          "internalType": "address",
          "name": "sender",
          "type": "address"
        }
      ],
      "name": "RoleGranted",
      "type": "event"
    },
    {
      "anonymous": false,
      "inputs": [
        {
          "indexed": true,
          "internalType": "bytes32",
          "name": "role",
          "type": "bytes32"
        },
        {
          "indexed": true,
          "internalType": "address",
          "name": "account",
          "type": "address"
        },
        {
          "indexed": true,
          "internalType": "address",
          "name": "sender",
          "type": "address"
        }
      ],
      "name": "RoleRevoked",
      "type": "event"
    },
    {
      "anonymous": false,
      "inputs": [
        {
          "indexed": true,
          "internalType": "address",
          "name": "operator",
          "type": "address"
        },
        {
          "indexed": true,
          "internalType": "address",
          "name": "from",
          "type": "address"
        },
        {
          "indexed": true,
          "internalType": "address",
          "name": "to",
          "type": "address"
        },
        {
          "indexed": false,
          "internalType": "uint256[]",
          "name": "ids",
          "type": "uint256[]"
        },
        {
          "indexed": false,
          "internalType": "uint256[]",
          "name": "values",
          "type": "uint256[]"
        }
      ],
      "name": "TransferBatch",
      "type": "event"
    },
    {
      "anonymous": false,
      "inputs": [
        {
          "indexed": true,
          "internalType": "address",
          "name": "operator",
          "type": "address"
        },
        {
          "indexed": true,
          "internalType": "address",
          "name": "from",
          "type": "address"
        },
        {
          "indexed": true,
          "internalType": "address",
          "name": "to",
          "type": "address"
        },
        {
          "indexed": false,
          "internalType": "uint256",
          "name": "id",
          "type": "uint256"
        },
        {
          "indexed": false,
          "internalType": "uint256",
          "name": "value",
          "type": "uint256"
        }
      ],
      "name": "TransferSingle",
      "type": "event"
    },
    {
      "anonymous": false,
      "inputs": [
        {
          "indexed": false,
          "internalType": "string",
          "name": "value",
          "type": "string"
        },
        {
          "indexed": true,
          "internalType": "uint256",
          "name": "id",
          "type": "uint256"
        }
      ],
      "name": "URI",
      "type": "event"
    },
    {
      "inputs": [],
      "name": "DEFAULT_ADMIN_ROLE",
      "outputs": [
        {
          "internalType": "bytes32",
          "name": "",
          "type": "bytes32"
        }
      ],
      "stateMutability": "view",
      "type": "function"
    },
    {
      "inputs": [
        {
          "internalType": "uint256",
          "name": "",
          "type": "uint256"
        }
      ],
      "name": "badges",
      "outputs": [
        {
          "internalType": "uint256",
          "name": "id",
          "type": "uint256"
        },
        {
          "internalType": "string",
          "name": "name",
          "type": "string"
        },
        {
          "internalType": "string",
          "name": "description",
          "type": "string"
        },
        {
          "internalType": "uint256",
          "name": "requiredSales",
          "type": "uint256"
        },
        {
          "internalType": "uint256",
          "name": "requiredReferrals",
          "type": "uint256"
        }
      ],
      "stateMutability": "view",
      "type": "function"
    },
    {
      "inputs": [
        {
          "internalType": "address",
          "name": "account",
          "type": "address"
        },
        {
          "internalType": "uint256",
          "name": "id",
          "type": "uint256"
        }
      ],
      "name": "balanceOf",
      "outputs": [
        {
          "internalType": "uint256",
          "name": "",
          "type": "uint256"
        }
      ],
      "stateMutability": "view",
      "type": "function"
    },
    {
      "inputs": [
        {
          "internalType": "address[]",
          "name": "accounts",
          "type": "address[]"
        },
        {
          "internalType": "uint256[]",
          "name": "ids",
          "type": "uint256[]"
        }
      ],
      "name": "balanceOfBatch",
      "outputs": [
        {
          "internalType": "uint256[]",
          "name": "",
          "type": "uint256[]"
        }
      ],
      "stateMutability": "view",
      "type": "function"
    },
    {
      "inputs": [
        {
          "internalType": "string",
          "name": "name",
          "type": "string"
        },
        {
          "internalType": "string",
          "name": "description",
          "type": "string"
        },
        {
          "internalType": "uint256",
          "name": "requiredSales",
          "type": "uint256"
        },
        {
          "internalType": "uint256",
          "name": "requiredReferrals",
          "type": "uint256"
        }
      ],
      "name": "createBadge",
      "outputs": [],
      "stateMutability": "nonpayable",
      "type": "function"
    },
    {
      "inputs": [
        {
          "internalType": "bytes32",
          "name": "role",
          "type": "bytes32"
        }
      ],
      "name": "getRoleAdmin",
      "outputs": [
        {
          "internalType": "bytes32",
          "name": "",
          "type": "bytes32"
        }
      ],
      "stateMutability": "view",
      "type": "function"
    },
    {
      "inputs": [
        {
          "internalType": "bytes32",
          "name": "role",
          "type": "bytes32"
        },
        {
          "internalType": "address",
          "name": "account",
          "type": "address"
        }
      ],
      "name": "grantRole",
      "outputs": [],
      "stateMutability": "nonpayable",
      "type": "function"
    },
    {
      "inputs": [
        {
          "internalType": "bytes32",
          "name": "role",
          "type": "bytes32"
        },
        {
          "internalType": "address",
          "name": "account",
          "type": "address"
        }
      ],
      "name": "hasRole",
      "outputs": [
        {
          "internalType": "bool",
          "name": "",
          "type": "bool"
        }
      ],
      "stateMutability": "view",
      "type": "function"
    },
    {
      "inputs": [
        {
          "internalType": "address",
          "name": "account",
          "type": "address"
        },
        {
          "internalType": "address",
          "name": "operator",
          "type": "address"
        }
      ],
      "name": "isApprovedForAll",
      "outputs": [
        {
          "internalType": "bool",
          "name": "",
          "type": "bool"
        }
      ],
      "stateMutability": "view",
      "type": "function"
    },
    {
      "inputs": [
        {
          "internalType": "address",
          "name": "guy",
          "type": "address"
        },
        {
          "internalType": "uint256",
          "name": "badgeId",
          "type": "uint256"
        }
      ],
      "name": "mintBadge",
      "outputs": [],
      "stateMutability": "nonpayable",
      "type": "function"
    },
    {
      "inputs": [],
      "name": "nextBadgeId",
      "outputs": [
        {
          "internalType": "uint256",
          "name": "",
          "type": "uint256"
        }
      ],
      "stateMutability": "view",
      "type": "function"
    },
    {
      "inputs": [
        {
          "internalType": "bytes32",
          "name": "role",
          "type": "bytes32"
        },
        {
          "internalType": "address",
          "name": "account",
          "type": "address"
        }
      ],
      "name": "renounceRole",
      "outputs": [],
      "stateMutability": "nonpayable",
      "type": "function"
    },
    {
      "inputs": [
        {
          "internalType": "bytes32",
          "name": "role",
          "type": "bytes32"
        },
        {
          "internalType": "address",
          "name": "account",
          "type": "address"
        }
      ],
      "name": "revokeRole",
      "outputs": [],
      "stateMutability": "nonpayable",
      "type": "function"
    },
    {
      "inputs": [
        {
          "internalType": "address",
          "name": "from",
          "type": "address"
        },
        {
          "internalType": "address",
          "name": "to",
          "type": "address"
        },
        {
          "internalType": "uint256[]",
          "name": "ids",
          "type": "uint256[]"
        },
        {
          "internalType": "uint256[]",
          "name": "amounts",
          "type": "uint256[]"
        },
        {
          "internalType": "bytes",
          "name": "data",
          "type": "bytes"
        }
      ],
      "name": "safeBatchTransferFrom",
      "outputs": [],
      "stateMutability": "nonpayable",
      "type": "function"
    },
    {
      "inputs": [
        {
          "internalType": "address",
          "name": "from",
          "type": "address"
        },
        {
          "internalType": "address",
          "name": "to",
          "type": "address"
        },
        {
          "internalType": "uint256",
          "name": "id",
          "type": "uint256"
        },
        {
          "internalType": "uint256",
          "name": "amount",
          "type": "uint256"
        },
        {
          "internalType": "bytes",
          "name": "data",
          "type": "bytes"
        }
      ],
      "name": "safeTransferFrom",
      "outputs": [],
      "stateMutability": "nonpayable",
      "type": "function"
    },
    {
      "inputs": [
        {
          "internalType": "address",
          "name": "operator",
          "type": "address"
        },
        {
          "internalType": "bool",
          "name": "approved",
          "type": "bool"
        }
      ],
      "name": "setApprovalForAll",
      "outputs": [],
      "stateMutability": "nonpayable",
      "type": "function"
    },
    {
      "inputs": [
        {
          "internalType": "bytes4",
          "name": "interfaceId",
          "type": "bytes4"
        }
      ],
      "name": "supportsInterface",
      "outputs": [
        {
          "internalType": "bool",
          "name": "",
          "type": "bool"
        }
      ],
      "stateMutability": "view",
      "type": "function"
    },
    {
      "inputs": [
        {
          "internalType": "uint256",
          "name": "badgeId",
          "type": "uint256"
        },
        {
          "internalType": "uint256",
          "name": "requiredSales",
          "type": "uint256"
        },
        {
          "internalType": "uint256",
          "name": "requiredReferrals",
          "type": "uint256"
        }
      ],
      "name": "updateBadgeMetrics",
      "outputs": [],
      "stateMutability": "nonpayable",
      "type": "function"
    },
    {
      "inputs": [
        {
          "internalType": "uint256",
          "name": "",
          "type": "uint256"
        }
      ],
      "name": "uri",
      "outputs": [
        {
          "internalType": "string",
          "name": "",
          "type": "string"
        }
      ],
      "stateMutability": "view",
      "type": "function"
    }
  ],
  "bytecode": "0x60806040523480156200001157600080fd5b5060405162003c8a38038062003c8a8339818101604052810190620000379190620002ba565b8062000049816200005160201b60201c565b505062000370565b8060029080519060200190620000699291906200006d565b5050565b8280546200007b906200033a565b90600052602060002090601f0160209004810192826200009f5760008555620000eb565b82601f10620000ba57805160ff1916838001178555620000eb565b82800160010185558215620000eb579182015b82811115620000ea578251825591602001919060010190620000cd565b5b509050620000fa9190620000fe565b5090565b5b8082111562000119576000816000905550600101620000ff565b5090565b6000604051905090565b600080fd5b600080fd5b600080fd5b600080fd5b6000601f19601f8301169050919050565b7f4e487b7100000000000000000000000000000000000000000000000000000000600052604160045260246000fd5b62000186826200013b565b810181811067ffffffffffffffff82111715620001a857620001a76200014c565b5b80604052505050565b6000620001bd6200011d565b9050620001cb82826200017b565b919050565b600067ffffffffffffffff821115620001ee57620001ed6200014c565b5b620001f9826200013b565b9050602081019050919050565b60005b838110156200022657808201518184015260208101905062000209565b8381111562000236576000848401525b50505050565b6000620002536200024d84620001d0565b620001b1565b90508281526020810184848401111562000272576200027162000136565b5b6200027f84828562000206565b509392505050565b600082601f8301126200029f576200029e62000131565b5b8151620002b18482602086016200023c565b91505092915050565b600060208284031215620002d357620002d262000127565b5b600082015167ffffffffffffffff811115620002f457620002f36200012c565b5b620003028482850162000287565b91505092915050565b7f4e487b7100000000000000000000000000000000000000000000000000000000600052602260045260246000fd5b600060028204905060018216806200035357607f821691505b602082108114156200036a57620003696200030b565b5b50919050565b61390a80620003806000396000f3fe608060405234801561001057600080fd5b50600436106101205760003560e01c806391d14854116100ad578063af0ddfc811610071578063af0ddfc81461033f578063d547741f1461035d578063e42bff6614610379578063e985e9c514610395578063f242432a146103c557610120565b806391d148541461028557806398e36d8b146102b5578063a217fddf146102e9578063a22cb46514610307578063a82046f51461032357610120565b80632804f26b116100f45780632804f26b146101e55780632eb2c2d6146102015780632f2ff15d1461021d57806336568abe146102395780634e1273f41461025557610120565b8062fdd58e1461012557806301ffc9a7146101555780630e89341c14610185578063248a9ca3146101b5575b600080fd5b61013f600480360381019061013a91906121ad565b6103e1565b60405161014c91906121fc565b60405180910390f35b61016f600480360381019061016a919061226f565b6104aa565b60405161017c91906122b7565b60405180910390f35b61019f600480360381019061019a91906122d2565b610524565b6040516101ac9190612398565b60405180910390f35b6101cf60048036038101906101ca91906123f0565b6105b8565b6040516101dc919061242c565b60405180910390f35b6101ff60048036038101906101fa9190612447565b6105d8565b005b61021b60048036038101906102169190612697565b610613565b005b61023760048036038101906102329190612766565b6106b4565b005b610253600480360381019061024e9190612766565b6106d5565b005b61026f600480360381019061026a9190612869565b610758565b60405161027c919061299f565b60405180910390f35b61029f600480360381019061029a9190612766565b610871565b6040516102ac91906122b7565b60405180910390f35b6102cf60048036038101906102ca91906122d2565b6108dc565b6040516102e09594939291906129c1565b60405180910390f35b6102f1610a22565b6040516102fe919061242c565b60405180910390f35b610321600480360381019061031c9190612a4e565b610a29565b005b61033d60048036038101906103389190612b2f565b610a3f565b005b610347610afc565b60405161035491906121fc565b60405180910390f35b61037760048036038101906103729190612766565b610b02565b005b610393600480360381019061038e91906121ad565b610b23565b005b6103af60048036038101906103aa9190612bce565b610b43565b6040516103bc91906122b7565b60405180910390f35b6103df60048036038101906103da9190612c0e565b610bd7565b005b60008073ffffffffffffffffffffffffffffffffffffffff168373ffffffffffffffffffffffffffffffffffffffff161415610452576040517f08c379a000000000000000000000000000000000000000000000000000000000815260040161044990612d17565b60405180910390fd5b60008083815260200190815260200160002060008473ffffffffffffffffffffffffffffffffffffffff1673ffffffffffffffffffffffffffffffffffffffff16815260200190815260200160002054905092915050565b60006104b582610c78565b8061051d57507fd9b67a26000000000000000000000000000000000000000000000000000000007bffffffffffffffffffffffffffffffffffffffffffffffffffffffff1916827bffffffffffffffffffffffffffffffffffffffffffffffffffffffff1916145b9050919050565b60606002805461053390612d66565b80601f016020809104026020016040519081016040528092919081815260200182805461055f90612d66565b80156105ac5780601f10610581576101008083540402835291602001916105ac565b820191906000526020600020905b81548152906001019060200180831161058f57829003601f168201915b50505050509050919050565b600060036000838152602001908152602001600020600101549050919050565b816004600085815260200190815260200160002060030181905550806004600085815260200190815260200160002060040181905550505050565b61061b610cf2565b73ffffffffffffffffffffffffffffffffffffffff168573ffffffffffffffffffffffffffffffffffffffff16148061066157506106608561065b610cf2565b610b43565b5b6106a0576040517f08c379a000000000000000000000000000000000000000000000000000000000815260040161069790612e0a565b60405180910390fd5b6106ad8585858585610cfa565b5050505050565b6106bd826105b8565b6106c68161101c565b6106d08383611030565b505050565b6106dd610cf2565b73ffffffffffffffffffffffffffffffffffffffff168173ffffffffffffffffffffffffffffffffffffffff161461074a576040517f08c379a000000000000000000000000000000000000000000000000000000000815260040161074190612e9c565b60405180910390fd5b6107548282611111565b5050565b6060815183511461079e576040517f08c379a000000000000000000000000000000000000000000000000000000000815260040161079590612f2e565b60405180910390fd5b6000835167ffffffffffffffff8111156107bb576107ba61249f565b5b6040519080825280602002602001820160405280156107e95781602001602082028036833780820191505090505b50905060005b84518110156108665761083685828151811061080e5761080d612f4e565b5b602002602001015185838151811061082957610828612f4e565b5b60200260200101516103e1565b82828151811061084957610848612f4e565b5b6020026020010181815250508061085f90612fac565b90506107ef565b508091505092915050565b60006003600084815260200190815260200160002060000160008373ffffffffffffffffffffffffffffffffffffffff1673ffffffffffffffffffffffffffffffffffffffff16815260200190815260200160002060009054906101000a900460ff16905092915050565b600460205280600052604060002060009150905080600001549080600101805461090590612d66565b80601f016020809104026020016040519081016040528092919081815260200182805461093190612d66565b801561097e5780601f106109535761010080835404028352916020019161097e565b820191906000526020600020905b81548152906001019060200180831161096157829003601f168201915b50505050509080600201805461099390612d66565b80601f01602080910402602001604051908101604052809291908181526020018280546109bf90612d66565b8015610a0c5780601f106109e157610100808354040283529160200191610a0c565b820191906000526020600020905b8154815290600101906020018083116109ef57829003601f168201915b5050505050908060030154908060040154905085565b6000801b81565b610a3b610a34610cf2565b83836111f3565b5050565b60006040518060a00160405280600554815260200186815260200185815260200184815260200183815250905080600460006005548152602001908152602001600020600082015181600001556020820151816001019080519060200190610aa8929190612062565b506040820151816002019080519060200190610ac5929190612062565b50606082015181600301556080820151816004015590505060056000815480929190610af090612fac565b91905055505050505050565b60055481565b610b0b826105b8565b610b148161101c565b610b1e8383611111565b505050565b610b3f8282600160405180602001604052806000815250611360565b5050565b6000600160008473ffffffffffffffffffffffffffffffffffffffff1673ffffffffffffffffffffffffffffffffffffffff16815260200190815260200160002060008373ffffffffffffffffffffffffffffffffffffffff1673ffffffffffffffffffffffffffffffffffffffff16815260200190815260200160002060009054906101000a900460ff16905092915050565b610bdf610cf2565b73ffffffffffffffffffffffffffffffffffffffff168573ffffffffffffffffffffffffffffffffffffffff161480610c255750610c2485610c1f610cf2565b610b43565b5b610c64576040517f08c379a0000000000000000000000000000000000000000000000000000000008152600401610c5b90612e0a565b60405180910390fd5b610c718585858585611511565b5050505050565b60007f7965db0b000000000000000000000000000000000000000000000000000000007bffffffffffffffffffffffffffffffffffffffffffffffffffffffff1916827bffffffffffffffffffffffffffffffffffffffffffffffffffffffff19161480610ceb5750610cea826117ad565b5b9050919050565b600033905090565b8151835114610d3e576040517f08c379a0000000000000000000000000000000000000000000000000000000008152600401610d3590613067565b60405180910390fd5b600073ffffffffffffffffffffffffffffffffffffffff168473ffffffffffffffffffffffffffffffffffffffff161415610dae576040517f08c379a0000000000000000000000000000000000000000000000000000000008152600401610da5906130f9565b60405180910390fd5b6000610db8610cf2565b9050610dc881878787878761188f565b60005b8451811015610f79576000858281518110610de957610de8612f4e565b5b602002602001015190506000858381518110610e0857610e07612f4e565b5b60200260200101519050600080600084815260200190815260200160002060008b73ffffffffffffffffffffffffffffffffffffffff1673ffffffffffffffffffffffffffffffffffffffff16815260200190815260200160002054905081811015610ea9576040517f08c379a0000000000000000000000000000000000000000000000000000000008152600401610ea09061318b565b60405180910390fd5b81810360008085815260200190815260200160002060008c73ffffffffffffffffffffffffffffffffffffffff1673ffffffffffffffffffffffffffffffffffffffff168152602001908152602001600020819055508160008085815260200190815260200160002060008b73ffffffffffffffffffffffffffffffffffffffff1673ffffffffffffffffffffffffffffffffffffffff1681526020019081526020016000206000828254610f5e91906131ab565b9250508190555050505080610f7290612fac565b9050610dcb565b508473ffffffffffffffffffffffffffffffffffffffff168673ffffffffffffffffffffffffffffffffffffffff168273ffffffffffffffffffffffffffffffffffffffff167f4a39dc06d4c0dbc64b70af90fd698a233a518aa5d07e595d983b8c0526c8f7fb8787604051610ff0929190613201565b60405180910390a4611006818787878787611897565b61101481878787878761189f565b505050505050565b61102d81611028610cf2565b611a86565b50565b61103a8282610871565b61110d5760016003600084815260200190815260200160002060000160008373ffffffffffffffffffffffffffffffffffffffff1673ffffffffffffffffffffffffffffffffffffffff16815260200190815260200160002060006101000a81548160ff0219169083151502179055506110b2610cf2565b73ffffffffffffffffffffffffffffffffffffffff168173ffffffffffffffffffffffffffffffffffffffff16837f2f8788117e7eff1d82e926ec794901d17c78024a50270940304540a733656f0d60405160405180910390a45b5050565b61111b8282610871565b156111ef5760006003600084815260200190815260200160002060000160008373ffffffffffffffffffffffffffffffffffffffff1673ffffffffffffffffffffffffffffffffffffffff16815260200190815260200160002060006101000a81548160ff021916908315150217905550611194610cf2565b73ffffffffffffffffffffffffffffffffffffffff168173ffffffffffffffffffffffffffffffffffffffff16837ff6391f5c32d9c69d2a47ea670b442974b53935d1edc7fd64eb21e047a839171b60405160405180910390a45b5050565b8173ffffffffffffffffffffffffffffffffffffffff168373ffffffffffffffffffffffffffffffffffffffff161415611262576040517f08c379a0000000000000000000000000000000000000000000000000000000008152600401611259906132aa565b60405180910390fd5b80600160008573ffffffffffffffffffffffffffffffffffffffff1673ffffffffffffffffffffffffffffffffffffffff16815260200190815260200160002060008473ffffffffffffffffffffffffffffffffffffffff1673ffffffffffffffffffffffffffffffffffffffff16815260200190815260200160002060006101000a81548160ff0219169083151502179055508173ffffffffffffffffffffffffffffffffffffffff168373ffffffffffffffffffffffffffffffffffffffff167f17307eab39ab6107e8899845ad3d59bd9653f200f220920489ca2b5937696c318360405161135391906122b7565b60405180910390a3505050565b600073ffffffffffffffffffffffffffffffffffffffff168473ffffffffffffffffffffffffffffffffffffffff1614156113d0576040517f08c379a00000000000000000000000000000000000000000000000000000000081526004016113c79061333c565b60405180910390fd5b60006113da610cf2565b905060006113e785611b0b565b905060006113f485611b0b565b90506114058360008985858961188f565b8460008088815260200190815260200160002060008973ffffffffffffffffffffffffffffffffffffffff1673ffffffffffffffffffffffffffffffffffffffff168152602001908152602001600020600082825461146491906131ab565b925050819055508673ffffffffffffffffffffffffffffffffffffffff16600073ffffffffffffffffffffffffffffffffffffffff168473ffffffffffffffffffffffffffffffffffffffff167fc3d58168c5ae7397731d063d5bbf3d657854427343f4c083240f7aacaa2d0f6289896040516114e292919061335c565b60405180910390a46114f983600089858589611897565b61150883600089898989611b85565b50505050505050565b600073ffffffffffffffffffffffffffffffffffffffff168473ffffffffffffffffffffffffffffffffffffffff161415611581576040517f08c379a0000000000000000000000000000000000000000000000000000000008152600401611578906130f9565b60405180910390fd5b600061158b610cf2565b9050600061159885611b0b565b905060006115a585611b0b565b90506115b583898985858961188f565b600080600088815260200190815260200160002060008a73ffffffffffffffffffffffffffffffffffffffff1673ffffffffffffffffffffffffffffffffffffffff1681526020019081526020016000205490508581101561164c576040517f08c379a00000000000000000000000000000000000000000000000000000000081526004016116439061318b565b60405180910390fd5b85810360008089815260200190815260200160002060008b73ffffffffffffffffffffffffffffffffffffffff1673ffffffffffffffffffffffffffffffffffffffff168152602001908152602001600020819055508560008089815260200190815260200160002060008a73ffffffffffffffffffffffffffffffffffffffff1673ffffffffffffffffffffffffffffffffffffffff168152602001908152602001600020600082825461170191906131ab565b925050819055508773ffffffffffffffffffffffffffffffffffffffff168973ffffffffffffffffffffffffffffffffffffffff168573ffffffffffffffffffffffffffffffffffffffff167fc3d58168c5ae7397731d063d5bbf3d657854427343f4c083240f7aacaa2d0f628a8a60405161177e92919061335c565b60405180910390a4611794848a8a86868a611897565b6117a2848a8a8a8a8a611b85565b505050505050505050565b60007fd9b67a26000000000000000000000000000000000000000000000000000000007bffffffffffffffffffffffffffffffffffffffffffffffffffffffff1916827bffffffffffffffffffffffffffffffffffffffffffffffffffffffff1916148061187857507f0e89341c000000000000000000000000000000000000000000000000000000007bffffffffffffffffffffffffffffffffffffffffffffffffffffffff1916827bffffffffffffffffffffffffffffffffffffffffffffffffffffffff1916145b80611888575061188782611d6c565b5b9050919050565b505050505050565b505050505050565b6118be8473ffffffffffffffffffffffffffffffffffffffff16611dd6565b15611a7e578373ffffffffffffffffffffffffffffffffffffffff1663bc197c8187878686866040518663ffffffff1660e01b81526004016119049594939291906133e9565b602060405180830381600087803b15801561191e57600080fd5b505af192505050801561194f57506040513d601f19601f8201168201806040525081019061194c9190613466565b60015b6119f55761195b6134a0565b806308c379a014156119b857506119706134c2565b8061197b57506119ba565b806040517f08c379a00000000000000000000000000000000000000000000000000000000081526004016119af9190612398565b60405180910390fd5b505b6040517f08c379a00000000000000000000000000000000000000000000000000000000081526004016119ec906135ca565b60405180910390fd5b63bc197c8160e01b7bffffffffffffffffffffffffffffffffffffffffffffffffffffffff1916817bffffffffffffffffffffffffffffffffffffffffffffffffffffffff191614611a7c576040517f08c379a0000000000000000000000000000000000000000000000000000000008152600401611a739061365c565b60405180910390fd5b505b505050505050565b611a908282610871565b611b0757611a9d81611df9565b611aab8360001c6020611e26565b604051602001611abc929190613750565b6040516020818303038152906040526040517f08c379a0000000000000000000000000000000000000000000000000000000008152600401611afe9190612398565b60405180910390fd5b5050565b60606000600167ffffffffffffffff811115611b2a57611b2961249f565b5b604051908082528060200260200182016040528015611b585781602001602082028036833780820191505090505b5090508281600081518110611b7057611b6f612f4e565b5b60200260200101818152505080915050919050565b611ba48473ffffffffffffffffffffffffffffffffffffffff16611dd6565b15611d64578373ffffffffffffffffffffffffffffffffffffffff1663f23a6e6187878686866040518663ffffffff1660e01b8152600401611bea95949392919061378a565b602060405180830381600087803b158015611c0457600080fd5b505af1925050508015611c3557506040513d601f19601f82011682018060405250810190611c329190613466565b60015b611cdb57611c416134a0565b806308c379a01415611c9e5750611c566134c2565b80611c615750611ca0565b806040517f08c379a0000000000000000000000000000000000000000000000000000000008152600401611c959190612398565b60405180910390fd5b505b6040517f08c379a0000000000000000000000000000000000000000000000000000000008152600401611cd2906135ca565b60405180910390fd5b63f23a6e6160e01b7bffffffffffffffffffffffffffffffffffffffffffffffffffffffff1916817bffffffffffffffffffffffffffffffffffffffffffffffffffffffff191614611d62576040517f08c379a0000000000000000000000000000000000000000000000000000000008152600401611d599061365c565b60405180910390fd5b505b505050505050565b60007f01ffc9a7000000000000000000000000000000000000000000000000000000007bffffffffffffffffffffffffffffffffffffffffffffffffffffffff1916827bffffffffffffffffffffffffffffffffffffffffffffffffffffffff1916149050919050565b6000808273ffffffffffffffffffffffffffffffffffffffff163b119050919050565b6060611e1f8273ffffffffffffffffffffffffffffffffffffffff16601460ff16611e26565b9050919050565b606060006002836002611e3991906137e4565b611e4391906131ab565b67ffffffffffffffff811115611e5c57611e5b61249f565b5b6040519080825280601f01601f191660200182016040528015611e8e5781602001600182028036833780820191505090505b5090507f300000000000000000000000000000000000000000000000000000000000000081600081518110611ec657611ec5612f4e565b5b60200101907effffffffffffffffffffffffffffffffffffffffffffffffffffffffffffff1916908160001a9053507f780000000000000000000000000000000000000000000000000000000000000081600181518110611f2a57611f29612f4e565b5b60200101907effffffffffffffffffffffffffffffffffffffffffffffffffffffffffffff1916908160001a90535060006001846002611f6a91906137e4565b611f7491906131ab565b90505b6001811115612014577f3031323334353637383961626364656600000000000000000000000000000000600f861660108110611fb657611fb5612f4e565b5b1a60f81b828281518110611fcd57611fcc612f4e565b5b60200101907effffffffffffffffffffffffffffffffffffffffffffffffffffffffffffff1916908160001a905350600485901c94508061200d9061383e565b9050611f77565b5060008414612058576040517f08c379a000000000000000000000000000000000000000000000000000000000815260040161204f906138b4565b60405180910390fd5b8091505092915050565b82805461206e90612d66565b90600052602060002090601f01602090048101928261209057600085556120d7565b82601f106120a957805160ff19168380011785556120d7565b828001600101855582156120d7579182015b828111156120d65782518255916020019190600101906120bb565b5b5090506120e491906120e8565b5090565b5b808211156121015760008160009055506001016120e9565b5090565b6000604051905090565b600080fd5b600080fd5b600073ffffffffffffffffffffffffffffffffffffffff82169050919050565b600061214482612119565b9050919050565b61215481612139565b811461215f57600080fd5b50565b6000813590506121718161214b565b92915050565b6000819050919050565b61218a81612177565b811461219557600080fd5b50565b6000813590506121a781612181565b92915050565b600080604083850312156121c4576121c361210f565b5b60006121d285828601612162565b92505060206121e385828601612198565b9150509250929050565b6121f681612177565b82525050565b600060208201905061221160008301846121ed565b92915050565b60007fffffffff0000000000000000000000000000000000000000000000000000000082169050919050565b61224c81612217565b811461225757600080fd5b50565b60008135905061226981612243565b92915050565b6000602082840312156122855761228461210f565b5b60006122938482850161225a565b91505092915050565b60008115159050919050565b6122b18161229c565b82525050565b60006020820190506122cc60008301846122a8565b92915050565b6000602082840312156122e8576122e761210f565b5b60006122f684828501612198565b91505092915050565b600081519050919050565b600082825260208201905092915050565b60005b8381101561233957808201518184015260208101905061231e565b83811115612348576000848401525b50505050565b6000601f19601f8301169050919050565b600061236a826122ff565b612374818561230a565b935061238481856020860161231b565b61238d8161234e565b840191505092915050565b600060208201905081810360008301526123b2818461235f565b905092915050565b6000819050919050565b6123cd816123ba565b81146123d857600080fd5b50565b6000813590506123ea816123c4565b92915050565b6000602082840312156124065761240561210f565b5b6000612414848285016123db565b91505092915050565b612426816123ba565b82525050565b6000602082019050612441600083018461241d565b92915050565b6000806000606084860312156124605761245f61210f565b5b600061246e86828701612198565b935050602061247f86828701612198565b925050604061249086828701612198565b9150509250925092565b600080fd5b7f4e487b7100000000000000000000000000000000000000000000000000000000600052604160045260246000fd5b6124d78261234e565b810181811067ffffffffffffffff821117156124f6576124f561249f565b5b80604052505050565b6000612509612105565b905061251582826124ce565b919050565b600067ffffffffffffffff8211156125355761253461249f565b5b602082029050602081019050919050565b600080fd5b600061255e6125598461251a565b6124ff565b9050808382526020820190506020840283018581111561258157612580612546565b5b835b818110156125aa57806125968882612198565b845260208401935050602081019050612583565b5050509392505050565b600082601f8301126125c9576125c861249a565b5b81356125d984826020860161254b565b91505092915050565b600080fd5b600067ffffffffffffffff8211156126025761260161249f565b5b61260b8261234e565b9050602081019050919050565b82818337600083830152505050565b600061263a612635846125e7565b6124ff565b905082815260208101848484011115612656576126556125e2565b5b612661848285612618565b509392505050565b600082601f83011261267e5761267d61249a565b5b813561268e848260208601612627565b91505092915050565b600080600080600060a086880312156126b3576126b261210f565b5b60006126c188828901612162565b95505060206126d288828901612162565b945050604086013567ffffffffffffffff8111156126f3576126f2612114565b5b6126ff888289016125b4565b935050606086013567ffffffffffffffff8111156127205761271f612114565b5b61272c888289016125b4565b925050608086013567ffffffffffffffff81111561274d5761274c612114565b5b61275988828901612669565b9150509295509295909350565b6000806040838503121561277d5761277c61210f565b5b600061278b858286016123db565b925050602061279c85828601612162565b9150509250929050565b600067ffffffffffffffff8211156127c1576127c061249f565b5b602082029050602081019050919050565b60006127e56127e0846127a6565b6124ff565b9050808382526020820190506020840283018581111561280857612807612546565b5b835b81811015612831578061281d8882612162565b84526020840193505060208101905061280a565b5050509392505050565b600082601f8301126128505761284f61249a565b5b81356128608482602086016127d2565b91505092915050565b600080604083850312156128805761287f61210f565b5b600083013567ffffffffffffffff81111561289e5761289d612114565b5b6128aa8582860161283b565b925050602083013567ffffffffffffffff8111156128cb576128ca612114565b5b6128d7858286016125b4565b9150509250929050565b600081519050919050565b600082825260208201905092915050565b6000819050602082019050919050565b61291681612177565b82525050565b6000612928838361290d565b60208301905092915050565b6000602082019050919050565b600061294c826128e1565b61295681856128ec565b9350612961836128fd565b8060005b83811015612992578151612979888261291c565b975061298483612934565b925050600181019050612965565b5085935050505092915050565b600060208201905081810360008301526129b98184612941565b905092915050565b600060a0820190506129d660008301886121ed565b81810360208301526129e8818761235f565b905081810360408301526129fc818661235f565b9050612a0b60608301856121ed565b612a1860808301846121ed565b9695505050505050565b612a2b8161229c565b8114612a3657600080fd5b50565b600081359050612a4881612a22565b92915050565b60008060408385031215612a6557612a6461210f565b5b6000612a7385828601612162565b9250506020612a8485828601612a39565b9150509250929050565b600067ffffffffffffffff821115612aa957612aa861249f565b5b612ab28261234e565b9050602081019050919050565b6000612ad2612acd84612a8e565b6124ff565b905082815260208101848484011115612aee57612aed6125e2565b5b612af9848285612618565b509392505050565b600082601f830112612b1657612b1561249a565b5b8135612b26848260208601612abf565b91505092915050565b60008060008060808587031215612b4957612b4861210f565b5b600085013567ffffffffffffffff811115612b6757612b66612114565b5b612b7387828801612b01565b945050602085013567ffffffffffffffff811115612b9457612b93612114565b5b612ba087828801612b01565b9350506040612bb187828801612198565b9250506060612bc287828801612198565b91505092959194509250565b60008060408385031215612be557612be461210f565b5b6000612bf385828601612162565b9250506020612c0485828601612162565b9150509250929050565b600080600080600060a08688031215612c2a57612c2961210f565b5b6000612c3888828901612162565b9550506020612c4988828901612162565b9450506040612c5a88828901612198565b9350506060612c6b88828901612198565b925050608086013567ffffffffffffffff811115612c8c57612c8b612114565b5b612c9888828901612669565b9150509295509295909350565b7f455243313135353a2061646472657373207a65726f206973206e6f742061207660008201527f616c6964206f776e657200000000000000000000000000000000000000000000602082015250565b6000612d01602a8361230a565b9150612d0c82612ca5565b604082019050919050565b60006020820190508181036000830152612d3081612cf4565b9050919050565b7f4e487b7100000000000000000000000000000000000000000000000000000000600052602260045260246000fd5b60006002820490506001821680612d7e57607f821691505b60208210811415612d9257612d91612d37565b5b50919050565b7f455243313135353a2063616c6c6572206973206e6f7420746f6b656e206f776e60008201527f6572206f7220617070726f766564000000000000000000000000000000000000602082015250565b6000612df4602e8361230a565b9150612dff82612d98565b604082019050919050565b60006020820190508181036000830152612e2381612de7565b9050919050565b7f416363657373436f6e74726f6c3a2063616e206f6e6c792072656e6f756e636560008201527f20726f6c657320666f722073656c660000000000000000000000000000000000602082015250565b6000612e86602f8361230a565b9150612e9182612e2a565b604082019050919050565b60006020820190508181036000830152612eb581612e79565b9050919050565b7f455243313135353a206163636f756e747320616e6420696473206c656e67746860008201527f206d69736d617463680000000000000000000000000000000000000000000000602082015250565b6000612f1860298361230a565b9150612f2382612ebc565b604082019050919050565b60006020820190508181036000830152612f4781612f0b565b9050919050565b7f4e487b7100000000000000000000000000000000000000000000000000000000600052603260045260246000fd5b7f4e487b7100000000000000000000000000000000000000000000000000000000600052601160045260246000fd5b6000612fb782612177565b91507fffffffffffffffffffffffffffffffffffffffffffffffffffffffffffffffff821415612fea57612fe9612f7d565b5b600182019050919050565b7f455243313135353a2069647320616e6420616d6f756e7473206c656e6774682060008201527f6d69736d61746368000000000000000000000000000000000000000000000000602082015250565b600061305160288361230a565b915061305c82612ff5565b604082019050919050565b6000602082019050818103600083015261308081613044565b9050919050565b7f455243313135353a207472616e7366657220746f20746865207a65726f20616460008201527f6472657373000000000000000000000000000000000000000000000000000000602082015250565b60006130e360258361230a565b91506130ee82613087565b604082019050919050565b60006020820190508181036000830152613112816130d6565b9050919050565b7f455243313135353a20696e73756666696369656e742062616c616e636520666f60008201527f72207472616e7366657200000000000000000000000000000000000000000000602082015250565b6000613175602a8361230a565b915061318082613119565b604082019050919050565b600060208201905081810360008301526131a481613168565b9050919050565b60006131b682612177565b91506131c183612177565b9250827fffffffffffffffffffffffffffffffffffffffffffffffffffffffffffffffff038211156131f6576131f5612f7d565b5b828201905092915050565b6000604082019050818103600083015261321b8185612941565b9050818103602083015261322f8184612941565b90509392505050565b7f455243313135353a2073657474696e6720617070726f76616c2073746174757360008201527f20666f722073656c660000000000000000000000000000000000000000000000602082015250565b600061329460298361230a565b915061329f82613238565b604082019050919050565b600060208201905081810360008301526132c381613287565b9050919050565b7f455243313135353a206d696e7420746f20746865207a65726f2061646472657360008201527f7300000000000000000000000000000000000000000000000000000000000000602082015250565b600061332660218361230a565b9150613331826132ca565b604082019050919050565b6000602082019050818103600083015261335581613319565b9050919050565b600060408201905061337160008301856121ed565b61337e60208301846121ed565b9392505050565b61338e81612139565b82525050565b600081519050919050565b600082825260208201905092915050565b60006133bb82613394565b6133c5818561339f565b93506133d581856020860161231b565b6133de8161234e565b840191505092915050565b600060a0820190506133fe6000830188613385565b61340b6020830187613385565b818103604083015261341d8186612941565b905081810360608301526134318185612941565b9050818103608083015261344581846133b0565b90509695505050505050565b60008151905061346081612243565b92915050565b60006020828403121561347c5761347b61210f565b5b600061348a84828501613451565b91505092915050565b60008160e01c9050919050565b600060033d11156134bf5760046000803e6134bc600051613493565b90505b90565b600060443d10156134d257613555565b6134da612105565b60043d036004823e80513d602482011167ffffffffffffffff82111715613502575050613555565b808201805167ffffffffffffffff8111156135205750505050613555565b80602083010160043d03850181111561353d575050505050613555565b61354c826020018501866124ce565b82955050505050505b90565b7f455243313135353a207472616e7366657220746f206e6f6e2d4552433131353560008201527f526563656976657220696d706c656d656e746572000000000000000000000000602082015250565b60006135b460348361230a565b91506135bf82613558565b604082019050919050565b600060208201905081810360008301526135e3816135a7565b9050919050565b7f455243313135353a204552433131353552656365697665722072656a6563746560008201527f6420746f6b656e73000000000000000000000000000000000000000000000000602082015250565b600061364660288361230a565b9150613651826135ea565b604082019050919050565b6000602082019050818103600083015261367581613639565b9050919050565b600081905092915050565b7f416363657373436f6e74726f6c3a206163636f756e7420000000000000000000600082015250565b60006136bd60178361367c565b91506136c882613687565b601782019050919050565b60006136de826122ff565b6136e8818561367c565b93506136f881856020860161231b565b80840191505092915050565b7f206973206d697373696e6720726f6c6520000000000000000000000000000000600082015250565b600061373a60118361367c565b915061374582613704565b601182019050919050565b600061375b826136b0565b915061376782856136d3565b91506137728261372d565b915061377e82846136d3565b91508190509392505050565b600060a08201905061379f6000830188613385565b6137ac6020830187613385565b6137b960408301866121ed565b6137c660608301856121ed565b81810360808301526137d881846133b0565b90509695505050505050565b60006137ef82612177565b91506137fa83612177565b9250817fffffffffffffffffffffffffffffffffffffffffffffffffffffffffffffffff048311821515161561383357613832612f7d565b5b828202905092915050565b600061384982612177565b9150600082141561385d5761385c612f7d565b5b600182039050919050565b7f537472696e67733a20686578206c656e67746820696e73756666696369656e74600082015250565b600061389e60208361230a565b91506138a982613868565b602082019050919050565b600060208201905081810360008301526138cd81613891565b905091905056fea26469706673582212208821c77276a895823361b49658be27b731ff415e17521c2009c65fe68579c57e64736f6c63430008090033",
  "linkReferences": {},
  "deployedLinkReferences": {}
}