{
  "_format": "hh-sol-artifact-1",
  "contractName": "ICO",
  "sourceName": "contracts/protocol/praedium/ico.sol",
  "abi": [
    {
      "inputs": [
        {
          "internalType": "address",
          "name": "_daoToken",
          "type": "address"
        },
        {
          "internalType": "uint256",
          "name": "_maxIcoTokens",
          "type": "uint256"
        }
      ],
      "stateMutability": "nonpayable",
      "type": "constructor"
    },
    {
      "anonymous": false,
      "inputs": [
        {
          "indexed": false,
          "internalType": "uint256",
          "name": "newExchangeRate",
          "type": "uint256"
        }
      ],
      "name": "ExchangeRateEdited",
      "type": "event"
    },
    {
      "anonymous": false,
      "inputs": [
        {
          "indexed": true,
          "internalType": "uint256",
          "name": "startTime",
          "type": "uint256"
        },
        {
          "indexed": true,
          "internalType": "uint256",
          "name": "endTime",
          "type": "uint256"
        }
      ],
      "name": "IcoTimeSet",
      "type": "event"
    },
    {
      "anonymous": false,
      "inputs": [
        {
          "indexed": true,
          "internalType": "address",
          "name": "investorAddress",
          "type": "address"
        }
      ],
      "name": "InvestorRemoved",
      "type": "event"
    },
    {
      "anonymous": false,
      "inputs": [
        {
          "indexed": true,
          "internalType": "bytes32",
          "name": "role",
          "type": "bytes32"
        },
        {
          "indexed": true,
          "internalType": "bytes32",
          "name": "previousAdminRole",
          "type": "bytes32"
        },
        {
          "indexed": true,
          "internalType": "bytes32",
          "name": "newAdminRole",
          "type": "bytes32"
        }
      ],
      "name": "RoleAdminChanged",
      "type": "event"
    },
    {
      "anonymous": false,
      "inputs": [
        {
          "indexed": true,
          "internalType": "bytes32",
          "name": "role",
          "type": "bytes32"
        },
        {
          "indexed": true,
          "internalType": "address",
          "name": "account",
          "type": "address"
        },
        {
          "indexed": true,
          "internalType": "address",
          "name": "sender",
          "type": "address"
        }
      ],
      "name": "RoleGranted",
      "type": "event"
    },
    {
      "anonymous": false,
      "inputs": [
        {
          "indexed": true,
          "internalType": "bytes32",
          "name": "role",
          "type": "bytes32"
        },
        {
          "indexed": true,
          "internalType": "address",
          "name": "account",
          "type": "address"
        },
        {
          "indexed": true,
          "internalType": "address",
          "name": "sender",
          "type": "address"
        }
      ],
      "name": "RoleRevoked",
      "type": "event"
    },
    {
      "anonymous": false,
      "inputs": [
        {
          "indexed": true,
          "internalType": "address",
          "name": "investor",
          "type": "address"
        },
        {
          "indexed": false,
          "internalType": "uint256",
          "name": "ethAmount",
          "type": "uint256"
        },
        {
          "indexed": false,
          "internalType": "uint256",
          "name": "tokenAmount",
          "type": "uint256"
        }
      ],
      "name": "TokensPurchased",
      "type": "event"
    },
    {
      "anonymous": false,
      "inputs": [
        {
          "indexed": true,
          "internalType": "address",
          "name": "withdrawer",
          "type": "address"
        },
        {
          "indexed": false,
          "internalType": "uint256",
          "name": "amount",
          "type": "uint256"
        }
      ],
      "name": "Withdraw",
      "type": "event"
    },
    {
      "inputs": [],
      "name": "DEFAULT_ADMIN_ROLE",
      "outputs": [
        {
          "internalType": "bytes32",
          "name": "",
          "type": "bytes32"
        }
      ],
      "stateMutability": "view",
      "type": "function"
    },
    {
      "inputs": [],
      "name": "INVESTOR_ROLE",
      "outputs": [
        {
          "internalType": "bytes32",
          "name": "",
          "type": "bytes32"
        }
      ],
      "stateMutability": "view",
      "type": "function"
    },
    {
      "inputs": [],
      "name": "MINTER_ROLE",
      "outputs": [
        {
          "internalType": "bytes32",
          "name": "",
          "type": "bytes32"
        }
      ],
      "stateMutability": "view",
      "type": "function"
    },
    {
      "inputs": [],
      "name": "PAUSER_ROLE",
      "outputs": [
        {
          "internalType": "bytes32",
          "name": "",
          "type": "bytes32"
        }
      ],
      "stateMutability": "view",
      "type": "function"
    },
    {
      "inputs": [
        {
          "internalType": "address",
          "name": "_address",
          "type": "address"
        }
      ],
      "name": "addToWhitelist",
      "outputs": [],
      "stateMutability": "nonpayable",
      "type": "function"
    },
    {
      "inputs": [],
      "name": "buyTokens",
      "outputs": [],
      "stateMutability": "payable",
      "type": "function"
    },
    {
      "inputs": [],
      "name": "daoToken",
      "outputs": [
        {
          "internalType": "contract IERC20",
          "name": "",
          "type": "address"
        }
      ],
      "stateMutability": "view",
      "type": "function"
    },
    {
      "inputs": [
        {
          "internalType": "uint256",
          "name": "newExchangeRate",
          "type": "uint256"
        }
      ],
      "name": "editExchangeRate",
      "outputs": [],
      "stateMutability": "nonpayable",
      "type": "function"
    },
    {
      "inputs": [],
      "name": "endTime",
      "outputs": [
        {
          "internalType": "uint256",
          "name": "",
          "type": "uint256"
        }
      ],
      "stateMutability": "view",
      "type": "function"
    },
    {
      "inputs": [
        {
          "internalType": "bytes32",
          "name": "role",
          "type": "bytes32"
        }
      ],
      "name": "getRoleAdmin",
      "outputs": [
        {
          "internalType": "bytes32",
          "name": "",
          "type": "bytes32"
        }
      ],
      "stateMutability": "view",
      "type": "function"
    },
    {
      "inputs": [
        {
          "internalType": "bytes32",
          "name": "role",
          "type": "bytes32"
        },
        {
          "internalType": "address",
          "name": "account",
          "type": "address"
        }
      ],
      "name": "grantRole",
      "outputs": [],
      "stateMutability": "nonpayable",
      "type": "function"
    },
    {
      "inputs": [
        {
          "internalType": "bytes32",
          "name": "role",
          "type": "bytes32"
        },
        {
          "internalType": "address",
          "name": "account",
          "type": "address"
        }
      ],
      "name": "hasRole",
      "outputs": [
        {
          "internalType": "bool",
          "name": "",
          "type": "bool"
        }
      ],
      "stateMutability": "view",
      "type": "function"
    },
    {
      "inputs": [
        {
          "internalType": "address",
          "name": "",
          "type": "address"
        }
      ],
      "name": "investors",
      "outputs": [
        {
          "internalType": "address",
          "name": "investorAddress",
          "type": "address"
        },
        {
          "internalType": "uint256",
          "name": "investmentAmount",
          "type": "uint256"
        },
        {
          "internalType": "uint256",
          "name": "dateOfInvestment",
          "type": "uint256"
        }
      ],
      "stateMutability": "view",
      "type": "function"
    },
    {
      "inputs": [],
      "name": "maxIcoTokens",
      "outputs": [
        {
          "internalType": "uint256",
          "name": "",
          "type": "uint256"
        }
      ],
      "stateMutability": "view",
      "type": "function"
    },
    {
      "inputs": [
        {
          "internalType": "address",
          "name": "_address",
          "type": "address"
        }
      ],
      "name": "removeFromWhitelist",
      "outputs": [],
      "stateMutability": "nonpayable",
      "type": "function"
    },
    {
      "inputs": [
        {
          "internalType": "address",
          "name": "_investorAddress",
          "type": "address"
        }
      ],
      "name": "removeInvestor",
      "outputs": [],
      "stateMutability": "nonpayable",
      "type": "function"
    },
    {
      "inputs": [
        {
          "internalType": "bytes32",
          "name": "role",
          "type": "bytes32"
        },
        {
          "internalType": "address",
          "name": "account",
          "type": "address"
        }
      ],
      "name": "renounceRole",
      "outputs": [],
      "stateMutability": "nonpayable",
      "type": "function"
    },
    {
      "inputs": [
        {
          "internalType": "bytes32",
          "name": "role",
          "type": "bytes32"
        },
        {
          "internalType": "address",
          "name": "account",
          "type": "address"
        }
      ],
      "name": "revokeRole",
      "outputs": [],
      "stateMutability": "nonpayable",
      "type": "function"
    },
    {
      "inputs": [
        {
          "internalType": "uint256",
          "name": "_startTime",
          "type": "uint256"
        },
        {
          "internalType": "uint256",
          "name": "_endTime",
          "type": "uint256"
        }
      ],
      "name": "setICOTime",
      "outputs": [],
      "stateMutability": "nonpayable",
      "type": "function"
    },
    {
      "inputs": [],
      "name": "startTime",
      "outputs": [
        {
          "internalType": "uint256",
          "name": "",
          "type": "uint256"
        }
      ],
      "stateMutability": "view",
      "type": "function"
    },
    {
      "inputs": [
        {
          "internalType": "bytes4",
          "name": "interfaceId",
          "type": "bytes4"
        }
      ],
      "name": "supportsInterface",
      "outputs": [
        {
          "internalType": "bool",
          "name": "",
          "type": "bool"
        }
      ],
      "stateMutability": "view",
      "type": "function"
    },
    {
      "inputs": [],
      "name": "tokenExchangeRate",
      "outputs": [
        {
          "internalType": "uint256",
          "name": "",
          "type": "uint256"
        }
      ],
      "stateMutability": "view",
      "type": "function"
    },
    {
      "inputs": [],
      "name": "totalInvestment",
      "outputs": [
        {
          "internalType": "uint256",
          "name": "",
          "type": "uint256"
        }
      ],
      "stateMutability": "view",
      "type": "function"
    },
    {
      "inputs": [],
      "name": "totalInvestors",
      "outputs": [
        {
          "internalType": "uint256",
          "name": "",
          "type": "uint256"
        }
      ],
      "stateMutability": "view",
      "type": "function"
    },
    {
      "inputs": [
        {
          "internalType": "address",
          "name": "",
          "type": "address"
        }
      ],
      "name": "whitelist",
      "outputs": [
        {
          "internalType": "bool",
          "name": "",
          "type": "bool"
        }
      ],
      "stateMutability": "view",
      "type": "function"
    }
  ],
  "bytecode": "0x60806040526103e86007553480156200001757600080fd5b506040516200260d3803806200260d83398181016040528101906200003d919062000347565b6001808190555081600260006101000a81548173ffffffffffffffffffffffffffffffffffffffff021916908373ffffffffffffffffffffffffffffffffffffffff16021790555080600881905550620000a16000801b336200013f60201b60201c565b620000d37f65d7a28e3265b37a6474929f336521b332c1681b933f6cb9f3376673440d862a336200013f60201b60201c565b620001057f9f2df0fed2c77648de5860a4cc508cd0818c85b8b8a1ab4ceeef8d981c8956a6336200013f60201b60201c565b620001377fb165298935924f540e4181c03493a5d686c54a0aaeb3f6216de85b7ffbba7738336200013f60201b60201c565b50506200038e565b6200015182826200023060201b60201c565b6200022c57600160008084815260200190815260200160002060000160008373ffffffffffffffffffffffffffffffffffffffff1673ffffffffffffffffffffffffffffffffffffffff16815260200190815260200160002060006101000a81548160ff021916908315150217905550620001d16200029a60201b60201c565b73ffffffffffffffffffffffffffffffffffffffff168173ffffffffffffffffffffffffffffffffffffffff16837f2f8788117e7eff1d82e926ec794901d17c78024a50270940304540a733656f0d60405160405180910390a45b5050565b600080600084815260200190815260200160002060000160008373ffffffffffffffffffffffffffffffffffffffff1673ffffffffffffffffffffffffffffffffffffffff16815260200190815260200160002060009054906101000a900460ff16905092915050565b600033905090565b600080fd5b600073ffffffffffffffffffffffffffffffffffffffff82169050919050565b6000620002d482620002a7565b9050919050565b620002e681620002c7565b8114620002f257600080fd5b50565b6000815190506200030681620002db565b92915050565b6000819050919050565b62000321816200030c565b81146200032d57600080fd5b50565b600081519050620003418162000316565b92915050565b60008060408385031215620003615762000360620002a2565b5b60006200037185828601620002f5565b9250506020620003848582860162000330565b9150509250929050565b61226f806200039e6000396000f3fe6080604052600436106101665760003560e01c806378e97925116100d1578063a217fddf1161008a578063d547741f11610064578063d547741f14610523578063e43252d71461054c578063e5aab71814610575578063e63ab1e91461059e57610166565b8063a217fddf146104c3578063d0febe4c146104ee578063d5391393146104f857610166565b806378e97925146103a15780638633aa6b146103cc5780638ab1d681146103f757806391d148541461042057806394681e371461045d5780639b19251a1461048657610166565b806336568abe1161012357806336568abe1461028f5780634172d080146102b857806342714978146102e35780634914b0301461030c5780636f7bc9be1461033757806376082a5e1461037657610166565b806301ffc9a71461016b57806310ea13df146101a8578063248a9ca3146101d357806329b8caff146102105780632f2ff15d1461023b5780633197cbb614610264575b600080fd5b34801561017757600080fd5b50610192600480360381019061018d919061165b565b6105c9565b60405161019f91906116a3565b60405180910390f35b3480156101b457600080fd5b506101bd610643565b6040516101ca91906116d7565b60405180910390f35b3480156101df57600080fd5b506101fa60048036038101906101f59190611728565b610649565b6040516102079190611764565b60405180910390f35b34801561021c57600080fd5b50610225610668565b60405161023291906116d7565b60405180910390f35b34801561024757600080fd5b50610262600480360381019061025d91906117dd565b61066e565b005b34801561027057600080fd5b5061027961068f565b60405161028691906116d7565b60405180910390f35b34801561029b57600080fd5b506102b660048036038101906102b191906117dd565b610695565b005b3480156102c457600080fd5b506102cd610718565b6040516102da91906116d7565b60405180910390f35b3480156102ef57600080fd5b5061030a6004803603810190610305919061181d565b61071e565b005b34801561031857600080fd5b5061032161095a565b60405161032e91906118a9565b60405180910390f35b34801561034357600080fd5b5061035e6004803603810190610359919061181d565b610980565b60405161036d939291906118d3565b60405180910390f35b34801561038257600080fd5b5061038b6109ca565b6040516103989190611764565b60405180910390f35b3480156103ad57600080fd5b506103b66109ee565b6040516103c391906116d7565b60405180910390f35b3480156103d857600080fd5b506103e16109f4565b6040516103ee91906116d7565b60405180910390f35b34801561040357600080fd5b5061041e6004803603810190610419919061181d565b6109fa565b005b34801561042c57600080fd5b50610447600480360381019061044291906117dd565b610a8d565b60405161045491906116a3565b60405180910390f35b34801561046957600080fd5b50610484600480360381019061047f9190611936565b610af7565b005b34801561049257600080fd5b506104ad60048036038101906104a8919061181d565b610b46565b6040516104ba91906116a3565b60405180910390f35b3480156104cf57600080fd5b506104d8610b66565b6040516104e59190611764565b60405180910390f35b6104f6610b6d565b005b34801561050457600080fd5b5061050d610f26565b60405161051a9190611764565b60405180910390f35b34801561052f57600080fd5b5061054a600480360381019061054591906117dd565b610f4a565b005b34801561055857600080fd5b50610573600480360381019061056e919061181d565b610f6b565b005b34801561058157600080fd5b5061059c60048036038101906105979190611963565b610ffe565b005b3480156105aa57600080fd5b506105b361104c565b6040516105c09190611764565b60405180910390f35b60007f7965db0b000000000000000000000000000000000000000000000000000000007bffffffffffffffffffffffffffffffffffffffffffffffffffffffff1916827bffffffffffffffffffffffffffffffffffffffffffffffffffffffff1916148061063c575061063b82611070565b5b9050919050565b60045481565b6000806000838152602001908152602001600020600101549050919050565b60035481565b61067782610649565b610680816110da565b61068a83836110ee565b505050565b60065481565b61069d6111ce565b73ffffffffffffffffffffffffffffffffffffffff168173ffffffffffffffffffffffffffffffffffffffff161461070a576040517f08c379a000000000000000000000000000000000000000000000000000000000815260040161070190611a26565b60405180910390fd5b61071482826111d6565b5050565b60075481565b6000801b61072b816110da565b600073ffffffffffffffffffffffffffffffffffffffff16600960008473ffffffffffffffffffffffffffffffffffffffff1673ffffffffffffffffffffffffffffffffffffffff16815260200190815260200160002060000160009054906101000a900473ffffffffffffffffffffffffffffffffffffffff1673ffffffffffffffffffffffffffffffffffffffff1614156107fd576040517f08c379a00000000000000000000000000000000000000000000000000000000081526004016107f490611a92565b60405180910390fd5b600960008373ffffffffffffffffffffffffffffffffffffffff1673ffffffffffffffffffffffffffffffffffffffff16815260200190815260200160002060010154600460008282546108519190611ae1565b92505081905550600960008373ffffffffffffffffffffffffffffffffffffffff1673ffffffffffffffffffffffffffffffffffffffff168152602001908152602001600020600080820160006101000a81549073ffffffffffffffffffffffffffffffffffffffff0219169055600182016000905560028201600090555050600360008154809291906108e490611b15565b91905055506109137fb165298935924f540e4181c03493a5d686c54a0aaeb3f6216de85b7ffbba773883610f4a565b8173ffffffffffffffffffffffffffffffffffffffff167fba0013628ccb89af5bb18edf764d3a7b35c07b894848b8e6fd3434719de39c7d60405160405180910390a25050565b600260009054906101000a900473ffffffffffffffffffffffffffffffffffffffff1681565b60096020528060005260406000206000915090508060000160009054906101000a900473ffffffffffffffffffffffffffffffffffffffff16908060010154908060020154905083565b7fb165298935924f540e4181c03493a5d686c54a0aaeb3f6216de85b7ffbba773881565b60055481565b60085481565b6000801b610a07816110da565b6000600a60008473ffffffffffffffffffffffffffffffffffffffff1673ffffffffffffffffffffffffffffffffffffffff16815260200190815260200160002060006101000a81548160ff021916908315150217905550610a897fb165298935924f540e4181c03493a5d686c54a0aaeb3f6216de85b7ffbba773883610f4a565b5050565b600080600084815260200190815260200160002060000160008373ffffffffffffffffffffffffffffffffffffffff1673ffffffffffffffffffffffffffffffffffffffff16815260200190815260200160002060009054906101000a900460ff16905092915050565b6000801b610b04816110da565b816007819055507fdb1f306779a1dd9a5fdbfae40ffc3f9f99e3f8e10577c85a45635e2565a403b782604051610b3a91906116d7565b60405180910390a15050565b600a6020528060005260406000206000915054906101000a900460ff1681565b6000801b81565b610b756112b7565b6005544210158015610b8957506006544211155b610bc8576040517f08c379a0000000000000000000000000000000000000000000000000000000008152600401610bbf90611b8b565b60405180910390fd5b610bf27fb165298935924f540e4181c03493a5d686c54a0aaeb3f6216de85b7ffbba773833610a8d565b610c31576040517f08c379a0000000000000000000000000000000000000000000000000000000008152600401610c2890611bf7565b60405180910390fd5b600034905067016345785d8a0000811015610c81576040517f08c379a0000000000000000000000000000000000000000000000000000000008152600401610c7890611c89565b60405180910390fd5b600060075482610c919190611ca9565b905060008111610cd6576040517f08c379a0000000000000000000000000000000000000000000000000000000008152600401610ccd90611d75565b60405180910390fd5b600854811115610d1b576040517f08c379a0000000000000000000000000000000000000000000000000000000008152600401610d1290611de1565b60405180910390fd5b60405180606001604052803373ffffffffffffffffffffffffffffffffffffffff16815260200183815260200142815250600960003373ffffffffffffffffffffffffffffffffffffffff1673ffffffffffffffffffffffffffffffffffffffff16815260200190815260200160002060008201518160000160006101000a81548173ffffffffffffffffffffffffffffffffffffffff021916908373ffffffffffffffffffffffffffffffffffffffff16021790555060208201518160010155604082015181600201559050508160046000828254610dfb9190611e01565b9250508190555060036000815480929190610e1590611e57565b9190505550600260009054906101000a900473ffffffffffffffffffffffffffffffffffffffff1673ffffffffffffffffffffffffffffffffffffffff1663a9059cbb33836040518363ffffffff1660e01b8152600401610e77929190611ea0565b602060405180830381600087803b158015610e9157600080fd5b505af1158015610ea5573d6000803e3d6000fd5b505050506040513d601f19601f82011682018060405250810190610ec99190611ef5565b503373ffffffffffffffffffffffffffffffffffffffff167f8fafebcaf9d154343dad25669bfa277f4fbacd7ac6b0c4fed522580e040a0f338383604051610f12929190611f22565b60405180910390a25050610f24611307565b565b7f9f2df0fed2c77648de5860a4cc508cd0818c85b8b8a1ab4ceeef8d981c8956a681565b610f5382610649565b610f5c816110da565b610f6683836111d6565b505050565b6000801b610f78816110da565b6001600a60008473ffffffffffffffffffffffffffffffffffffffff1673ffffffffffffffffffffffffffffffffffffffff16815260200190815260200160002060006101000a81548160ff021916908315150217905550610ffa7fb165298935924f540e4181c03493a5d686c54a0aaeb3f6216de85b7ffbba77388361066e565b5050565b6000801b61100b816110da565b826005819055508160068190555081837f23530d36cff65bfe40b99351633e1a5fd07e661c26af0cccd182ba0dc06bfbe460405160405180910390a3505050565b7f65d7a28e3265b37a6474929f336521b332c1681b933f6cb9f3376673440d862a81565b60007f01ffc9a7000000000000000000000000000000000000000000000000000000007bffffffffffffffffffffffffffffffffffffffffffffffffffffffff1916827bffffffffffffffffffffffffffffffffffffffffffffffffffffffff1916149050919050565b6110eb816110e66111ce565b611310565b50565b6110f88282610a8d565b6111ca57600160008084815260200190815260200160002060000160008373ffffffffffffffffffffffffffffffffffffffff1673ffffffffffffffffffffffffffffffffffffffff16815260200190815260200160002060006101000a81548160ff02191690831515021790555061116f6111ce565b73ffffffffffffffffffffffffffffffffffffffff168173ffffffffffffffffffffffffffffffffffffffff16837f2f8788117e7eff1d82e926ec794901d17c78024a50270940304540a733656f0d60405160405180910390a45b5050565b600033905090565b6111e08282610a8d565b156112b357600080600084815260200190815260200160002060000160008373ffffffffffffffffffffffffffffffffffffffff1673ffffffffffffffffffffffffffffffffffffffff16815260200190815260200160002060006101000a81548160ff0219169083151502179055506112586111ce565b73ffffffffffffffffffffffffffffffffffffffff168173ffffffffffffffffffffffffffffffffffffffff16837ff6391f5c32d9c69d2a47ea670b442974b53935d1edc7fd64eb21e047a839171b60405160405180910390a45b5050565b600260015414156112fd576040517f08c379a00000000000000000000000000000000000000000000000000000000081526004016112f490611f97565b60405180910390fd5b6002600181905550565b60018081905550565b61131a8282610a8d565b6113915761132781611395565b6113358360001c60206113c2565b6040516020016113469291906120c9565b6040516020818303038152906040526040517f08c379a0000000000000000000000000000000000000000000000000000000008152600401611388919061214d565b60405180910390fd5b5050565b60606113bb8273ffffffffffffffffffffffffffffffffffffffff16601460ff166113c2565b9050919050565b6060600060028360026113d59190611ca9565b6113df9190611e01565b67ffffffffffffffff8111156113f8576113f761216f565b5b6040519080825280601f01601f19166020018201604052801561142a5781602001600182028036833780820191505090505b5090507f3000000000000000000000000000000000000000000000000000000000000000816000815181106114625761146161219e565b5b60200101907effffffffffffffffffffffffffffffffffffffffffffffffffffffffffffff1916908160001a9053507f7800000000000000000000000000000000000000000000000000000000000000816001815181106114c6576114c561219e565b5b60200101907effffffffffffffffffffffffffffffffffffffffffffffffffffffffffffff1916908160001a905350600060018460026115069190611ca9565b6115109190611e01565b90505b60018111156115b0577f3031323334353637383961626364656600000000000000000000000000000000600f8616601081106115525761155161219e565b5b1a60f81b8282815181106115695761156861219e565b5b60200101907effffffffffffffffffffffffffffffffffffffffffffffffffffffffffffff1916908160001a905350600485901c9450806115a990611b15565b9050611513565b50600084146115f4576040517f08c379a00000000000000000000000000000000000000000000000000000000081526004016115eb90612219565b60405180910390fd5b8091505092915050565b600080fd5b60007fffffffff0000000000000000000000000000000000000000000000000000000082169050919050565b61163881611603565b811461164357600080fd5b50565b6000813590506116558161162f565b92915050565b600060208284031215611671576116706115fe565b5b600061167f84828501611646565b91505092915050565b60008115159050919050565b61169d81611688565b82525050565b60006020820190506116b86000830184611694565b92915050565b6000819050919050565b6116d1816116be565b82525050565b60006020820190506116ec60008301846116c8565b92915050565b6000819050919050565b611705816116f2565b811461171057600080fd5b50565b600081359050611722816116fc565b92915050565b60006020828403121561173e5761173d6115fe565b5b600061174c84828501611713565b91505092915050565b61175e816116f2565b82525050565b60006020820190506117796000830184611755565b92915050565b600073ffffffffffffffffffffffffffffffffffffffff82169050919050565b60006117aa8261177f565b9050919050565b6117ba8161179f565b81146117c557600080fd5b50565b6000813590506117d7816117b1565b92915050565b600080604083850312156117f4576117f36115fe565b5b600061180285828601611713565b9250506020611813858286016117c8565b9150509250929050565b600060208284031215611833576118326115fe565b5b6000611841848285016117c8565b91505092915050565b6000819050919050565b600061186f61186a6118658461177f565b61184a565b61177f565b9050919050565b600061188182611854565b9050919050565b600061189382611876565b9050919050565b6118a381611888565b82525050565b60006020820190506118be600083018461189a565b92915050565b6118cd8161179f565b82525050565b60006060820190506118e860008301866118c4565b6118f560208301856116c8565b61190260408301846116c8565b949350505050565b611913816116be565b811461191e57600080fd5b50565b6000813590506119308161190a565b92915050565b60006020828403121561194c5761194b6115fe565b5b600061195a84828501611921565b91505092915050565b6000806040838503121561197a576119796115fe565b5b600061198885828601611921565b925050602061199985828601611921565b9150509250929050565b600082825260208201905092915050565b7f416363657373436f6e74726f6c3a2063616e206f6e6c792072656e6f756e636560008201527f20726f6c657320666f722073656c660000000000000000000000000000000000602082015250565b6000611a10602f836119a3565b9150611a1b826119b4565b604082019050919050565b60006020820190508181036000830152611a3f81611a03565b9050919050565b7f496e766573746f7220646f6573206e6f742065786973742e0000000000000000600082015250565b6000611a7c6018836119a3565b9150611a8782611a46565b602082019050919050565b60006020820190508181036000830152611aab81611a6f565b9050919050565b7f4e487b7100000000000000000000000000000000000000000000000000000000600052601160045260246000fd5b6000611aec826116be565b9150611af7836116be565b925082821015611b0a57611b09611ab2565b5b828203905092915050565b6000611b20826116be565b91506000821415611b3457611b33611ab2565b5b600182039050919050565b7f49434f206973206e6f74206163746976652e0000000000000000000000000000600082015250565b6000611b756012836119a3565b9150611b8082611b3f565b602082019050919050565b60006020820190508181036000830152611ba481611b68565b9050919050565b7f496e766573746f72206973206e6f742077686974656c69737465642e00000000600082015250565b6000611be1601c836119a3565b9150611bec82611bab565b602082019050919050565b60006020820190508181036000830152611c1081611bd4565b9050919050565b7f54686520696e766573746d656e7420616d6f756e74206d75737420626520617460008201527f206c6561737420302e3120455448000000000000000000000000000000000000602082015250565b6000611c73602e836119a3565b9150611c7e82611c17565b604082019050919050565b60006020820190508181036000830152611ca281611c66565b9050919050565b6000611cb4826116be565b9150611cbf836116be565b9250817fffffffffffffffffffffffffffffffffffffffffffffffffffffffffffffffff0483118215151615611cf857611cf7611ab2565b5b828202905092915050565b7f54686520696e766573746d656e74206d7573742062652067726561746572207460008201527f68616e20302050444d20746f6b656e7300000000000000000000000000000000602082015250565b6000611d5f6030836119a3565b9150611d6a82611d03565b604082019050919050565b60006020820190508181036000830152611d8e81611d52565b9050919050565b7f4d6178696d756d2049434f20746f6b656e206361702072656163686564000000600082015250565b6000611dcb601d836119a3565b9150611dd682611d95565b602082019050919050565b60006020820190508181036000830152611dfa81611dbe565b9050919050565b6000611e0c826116be565b9150611e17836116be565b9250827fffffffffffffffffffffffffffffffffffffffffffffffffffffffffffffffff03821115611e4c57611e4b611ab2565b5b828201905092915050565b6000611e62826116be565b91507fffffffffffffffffffffffffffffffffffffffffffffffffffffffffffffffff821415611e9557611e94611ab2565b5b600182019050919050565b6000604082019050611eb560008301856118c4565b611ec260208301846116c8565b9392505050565b611ed281611688565b8114611edd57600080fd5b50565b600081519050611eef81611ec9565b92915050565b600060208284031215611f0b57611f0a6115fe565b5b6000611f1984828501611ee0565b91505092915050565b6000604082019050611f3760008301856116c8565b611f4460208301846116c8565b9392505050565b7f5265656e7472616e637947756172643a207265656e7472616e742063616c6c00600082015250565b6000611f81601f836119a3565b9150611f8c82611f4b565b602082019050919050565b60006020820190508181036000830152611fb081611f74565b9050919050565b600081905092915050565b7f416363657373436f6e74726f6c3a206163636f756e7420000000000000000000600082015250565b6000611ff8601783611fb7565b915061200382611fc2565b601782019050919050565b600081519050919050565b60005b8381101561203757808201518184015260208101905061201c565b83811115612046576000848401525b50505050565b60006120578261200e565b6120618185611fb7565b9350612071818560208601612019565b80840191505092915050565b7f206973206d697373696e6720726f6c6520000000000000000000000000000000600082015250565b60006120b3601183611fb7565b91506120be8261207d565b601182019050919050565b60006120d482611feb565b91506120e0828561204c565b91506120eb826120a6565b91506120f7828461204c565b91508190509392505050565b6000601f19601f8301169050919050565b600061211f8261200e565b61212981856119a3565b9350612139818560208601612019565b61214281612103565b840191505092915050565b600060208201905081810360008301526121678184612114565b905092915050565b7f4e487b7100000000000000000000000000000000000000000000000000000000600052604160045260246000fd5b7f4e487b7100000000000000000000000000000000000000000000000000000000600052603260045260246000fd5b7f537472696e67733a20686578206c656e67746820696e73756666696369656e74600082015250565b60006122036020836119a3565b915061220e826121cd565b602082019050919050565b60006020820190508181036000830152612232816121f6565b905091905056fea2646970667358221220435f578f2a0ccf435979aef0d097f245a7d7d7f7a345ab0fbb78571aa295741564736f6c63430008090033",
  "linkReferences": {},
  "deployedLinkReferences": {}
}